:100000000C9455070C9486070C9486070C9486076D
:100010000C9486070C9486070C9486070C9486072C
:100020000C9486070C9486070C9486070C9486071C
:100030000C9486070C9486070C9442210C94860736
:100040000C9416210C9486070C9486070C94860752
:100050000C9486070C9486070C9486070C948607EC
:100060000C9486070C94EA330C9486070C9486074C
:100070000C9442340C9486070C9486070C948607E3
:100080000C9486070C9486070C9486070C948607BC
:100090000C9486070C9486070C9486070C948607AC
:1000A0000C9486070C9486070C9486070C94941F76
:1000B0000C94C81F0C9486070C9486070C94860732
:1000C0000C9486070C9486070C9486070C9486077C
:1000D0000C9486070C9486070C9486070C94DA24FB
:1000E0000C9486070C9486070C944A350C9486076A
:1000F0000C9486070C9486070C9486070C9486074C
:100100000C9486070C9486070C942B1F0C945F1F8D
:100110000C9486070C9486070C9486070C9486072B
:100120000C9486070C9486070C9486070C9486071B
:100130000C9486070C94EA200C9486070C9486078E
:100140000C9486070C9486070C94BE200C94922085
:100150000C9486070C9466200C9486070C948607F2
:100160000C949A340C9486070C9486070C94F23401
:100170000C9486070C9486070C9486070C948607CB
:100180000C9486070C9486070C9486070C948607BB
:100190000C9486070C9486070C9486070C948607AB
:1001A0000C94FD1F0C9431200C9486070C94860748
:1001B0000C9486070C9486070C9486070C9486078B
:1001C0000C9486070C9486070C9486070C9486077B
:1001D0000C9486070C9486070C9486070C94A23521
:1001E0000C9486070C9486070C9486070C9486075B
:1001F0000C9486070C9486070C9486070B0E1B0E36
:10020000480E760E0A0FA50FE90F9410CD1129168E
:10021000C21B8916A0164716C21BC21BC21B721630
:10022000C21BC21BC21BC21BC21BC21BBC16C21BF1
:10023000AE16B316F217C21BC21BC21B141822182B
:100240002E183A18461852185E186A18761882182E
:10025000C21BC21BC21BC21BC21BC21BC21BC21BB6
:10026000C21BC21BC21BC21BC21BC21BC21BC21BA6
:10027000C21BC21BC21BC21BC21BC21BC21BC21B96
:10028000C21BC21BC21BC21BC21BC21BC21BC21B86
:10029000C21BC21BC21BC21BC21BC21BC21B7817C4
:1002A000C21BC21BC21B0C17C21BE017C21BC21B06
:1002B000C21BC21BC21BC21BC21BC21BC21BC21B56
:1002C0000717C21BC21BC21BC21BC21B8F17AA1758
:1002D000C517F118FE18C21BC21BC21BC21BC21BD2
:1002E000C21BC21BC21BC21BC21BC21B2819521934
:1002F000C21BC21BC21BC21BDF18E518EB18B41AC5
:10030000C21BC21BC21B2A1B361B421B4E1B5A1B85
:10031000661B721B7E1B8A1B961BC21BC21BC21B49
:10032000C21BC21BC21BC21BC21BC21BC21BC21BE5
:10033000C21BC21BC21BC21BC21BC21BC21BC21BD5
:10034000C21BC21BC21BC21BC21BC21BC21BC21BC5
:10035000C21BC21BC21BC21BC21BC21BC21BC21BB5
:10036000C21BC21BC21BC21B3A1AC21BC21BC21B2E
:100370001B1AC21BC21BC21BC21BC21BC21BC21B3D
:10038000C21B101BC21BC21BC21BC21BF81AC21B02
:10039000DE1AAC19C21BC419E119FE1963306630AC
:1003A00069306C306F307230743085308D309730FA
:1003B00095300C9494100C9429160C94731C0C9486
:1003C000E0170C94DE1A0C94BA270C940F2F0C949F
:1003D000B00D0C94B41A0C94BF1C0C948D300C947A
:1003E000B3160C94A71C0C94E81B0C9469300C9465
:1003F000101B0C942A1B0C94042F0C94D61B0C94E9
:100400003D330C94FE190C948A1B0C94F2170C9437
:100410000E1C0C945E180C947E1B0C94AA170C9462
:10042000622F0C9406300C943A180C946F300C9494
:10043000E1190C9446180C9474300C94B6150C9475
:10044000C21B0C9408300C94E90F0C940C170C94FC
:1004500085300C94C4190C9450330C94F3110C9403
:1004600082180C94F81A0C9417330C940D300C94D9
:100470005A1B0C94BC160C940B300C9447160C941D
:100480008F1C0C94F91B0C94FE180C94F3320C94F2
:10049000DD1B0C948F170C94DF180C94AC190C9482
:1004A0006C300C9422180C94F21B0C94C5170C940D
:1004B000441C0C94A50F0C942E180C943A1A0C940E
:1004C0001A1C0C9428190C9472160C946A180C942B
:1004D00052180C94EB180C94760E0C9452070C9452
:1004E00052190C94AE160C94F1180C94721B0C94C7
:1004F000041C0C9472300C9407170C940E300C945E
:10050000480E0C940A0F0C9463300C9493210C94B5
:1005100097300C9495300C94421B0C9466300C94DC
:100520004E1B0C9414180C9478170C94E62E0C9413
:10053000361B0C94E5180C94961B0C940B0E0C9423
:10054000562E0C9476180C94381C0C9489160C9426
:10055000A0160C941B0E0C94661B0C941B1A0C9486
:10056000CD110C94D11C0C94621C00407A10F35AEB
:1005700000A0724E18090010A5D4E80000E87648E3
:10058000170000E40B54020000CA9A3B000000E18F
:10059000F505000080969800000040420F00000022
:1005A000A08601000000102700000000E803000002
:1005B00000006400000000000A00000000000100CC
:1005C000000000002C76D888DC674F0823DFC1DFED
:1005D000AE59E1B1B796E5E3E453C63AE6519976F0
:1005E00096E8E6C28426EB898C9B62ED407C6FFC2A
:1005F000EFBC9C9F40F2BAA56FA5F490055A2AF76C
:100600005C936B6CF9676DC11BFCE0E40D47FEF574
:1006100020E6B500D0ED902E0300943577050080DC
:10062000841E080000204E0A000000C80C3333333B
:10063000330F986E12831141EF8D2114893BE655DB
:1006400016CFFEE6DB18D1844B381BF77C1D901DBE
:10065000A4BBE424203284725E228100C9F124EC20
:10066000A1E53D27526573657474696E6720646502
:10067000766963652E00520046006C6F633A006C29
:100680006F633A0053006C6F633A00530076656CF9
:100690003A20006C6F633A0053006C6F633A00536A
:1006A0003200526573657474696E6720646576699B
:1006B00063652E006D563A0048463A004300526F7B
:1006C0007574696E6520636F6D706C6574652E005E
:1006D0006D563A0048463A0053656E736F72205269
:1006E000656164696E6720002C20544343304343A6
:1006F000413D002F002C20486561702066726565C1
:100700003A200054696D653A2000536570203136F7
:100710002032303138004D45343035206261736508
:1007200020726164696F2070726F6772616D20560C
:10073000302E34200020202020683A2020204841FC
:100740004C50210020202020653A20202045786947
:100750007420636F6D6D616E64206D6F6465002041
:10076000202020733A202020537461636B2064752D
:100770006D7020666F72207461736B73002020208F
:1007800020763A20202056657273696F6E20616E64
:100790006420736574757020696E666F726D617424
:1007A000696F6E00202020206E3A20202053686F51
:1007B00077207468652074696D6520726967687454
:1007C000206E6F77002020496E20636F6D6D616E23
:1007D00064206D6F6465206F6E6C793A0020204351
:1007E000746C2D413A20456E74657220636F6D6D97
:1007F000616E64206D6F646500202043746C2D432E
:100800003A20526573657420746865204156520021
:100810002068656C70004D45343035206261736529
:1008200020726164696F2070726F6772616D20560B
:10083000302E3420001B5B33306D001B5B34366D73
:1008400000496C6C6567616C20737461746521206C
:10085000526573657474696E672041565200536522
:100860006E736F722073616D706C652073697A6549
:100870002073657420746F3A0053656E736F722035
:1008800064656C61792073657420746F3A004D69FA
:1008900063726F73746570207363616C657220732B
:1008A000657420746F3A00436F6E66696720656EE9
:1008B00074657265643A004C656176696E672063A1
:1008C0006F6E666967206D6F6465005A2D61786987
:1008D00073206D61782076656C6F6369747920731D
:1008E000657420746F3A00592D61786973206D61C9
:1008F000782076656C6F63697479207365742074F1
:100900006F3A00582D61786973206D6178207665A3
:100910006C6F636974792073657420746F3A004D4D
:1009200061782076656C6F636974792073657420D3
:10093000746F3A00506C656173652063686F6F7304
:100940006520746865206D6F746F7220796F7520F3
:10095000776F756C64206C696B6520746F20636FB2
:100960006E74726F6C2E00506C65617365206368E5
:100970006F6F736520746865206D6F746F72207976
:100980006F7520776F756C64206C696B6520746F70
:1009900020636F6E74726F6C2E00506C65617365AE
:1009A0002063686F6F736520746865206D6F746F66
:1009B0007220796F7520776F756C64206C696B6538
:1009C00020746F20636F6E74726F6C2E00526563BB
:1009D000656976696E67205A2D6C6F636174696F03
:1009E0006E732E00526563656976696E6720592DB6
:1009F0006C6F636174696F6E732E00526563656915
:100A000076696E6720582D6C6F636174696F6E73C1
:100A10002E004572726F723A20556E657175616C69
:100A2000206178697320636F6F7264696E617465A9
:100A300020766563746F72732E00546F74616C203E
:100A40006E6F6465733A2000456E746572696E67F7
:100A500020636F6E666967206D6F64650052657311
:100A6000657474696E67206465766963652E0050ED
:100A700072657373204374726C2D5320746F2073EE
:100A8000746F702E005072657373204374726C2DF6
:100A90005220746F20616374697661746520726599
:100AA00076657273652E005072657373204374729D
:100AB0006C2D4620746F20616374697661746520C3
:100AC000666F72776172642E005072657373204393
:100AD00074726C2D5A20666F72205A2D4D6F746F90
:100AE0007220636F6D6D616E64732E00507265735A
:100AF00073204374726C2D5920666F7220592D4DEE
:100B00006F746F7220636F6D6D616E64732E005031
:100B100072657373204374726C2D5820666F722057
:100B2000582D4D6F746F7220636F6D6D616E6473BD
:100B30002E00456E746572696E6720446972656344
:100B400074204F7065726174696F6E204D6F6465BB
:100B50002E005072657373204520746F2072657487
:100B600075726E20746F20746865206D61696E20E7
:100B70006D656E752E005072657373205220746F10
:100B80002072657365742074686520646576696396
:100B9000652E005072657373204720746F20727544
:100BA0006E20746865206465766963652E005072F6
:100BB000657373205A20746F20656E746572205AB5
:100BC0002D636F6F7264696E617465732E0050726D
:100BD000657373205920746F20656E746572205997
:100BE0002D636F6F7264696E617465732E0050724D
:100BF000657373205820746F20656E746572205879
:100C00002D636F6F7264696E617465732E00456E3B
:100C1000746572696E6720436F6F7264696E617488
:100C200065204D6F64652E005072657373204520FA
:100C3000746F2072657475726E20746F20746865AD
:100C4000206D61696E206D656E752E005072657342
:100C500073205220746F2072657365742074686508
:100C6000206465766963652E005072657373205A3F
:100C700020746F2072657475726E207468652064CC
:100C8000657669636520746F20746865206F72698A
:100C900067696E2E005072657373205320746F2045
:100CA0006368616E67652074686520646566617558
:100CB0006C742073656E736F722072656164696E07
:100CC000672064656C61792074696D652E005072CF
:100CD000657373205520746F206368616E676520AB
:100CE0007468652064656661756C74206D6F746FDF
:100CF00072206D6963726F73746570207363616CC9
:100D000065722E00456E746572696E6720436F6E62
:100D100066696775726174696F6E204D6F64652EC8
:100D2000005072657373205220746F207265736572
:100D30007420746865206465766963652E0050725E
:100D4000657373204420666F722044697265637412
:100D5000204F7065726174696F6E204D6F64652EEF
:100D6000005072657373204320666F7220436F6F6B
:100D70007264696E617465204D6F64652E005072F7
:100D8000657373204120666F7220436F6E666967DA
:100D900075726174696F6E204D6F64652E005765C2
:100DA0006C636F6D6520746F207468652055736582
:100DB0007220496E74657266616365206D61696E4B
:100DC000206D656E75206F66207468652033442041
:100DD0004865617420466C75782043616C69627265
:100DE00061746F722E00526573657474696E67006A
:100DF0004552524F5220696E207461736B2000453A
:100E000052524F52206372656174696E672074613B
:100E1000736B20002C20737461636B20617420302D
:100E200078002063726561746564005461736B209F
:100E3000000909002F0049444C45090930092D09D2
:100E400000092D2D2D2D00092D2D2D2D2D2D2D2D74
:100E50002D2D002D2D2D2D09092D2D2D2D092D2D5B
:100E60002D2D2D000952756E730009467265652F90
:100E7000546F74616C004E616D6509095072692E82
:100E80000953746174650009537461636B005461A4
:100E9000736B09092020092000090009002F0009AF
:100EA000000900000E947C2D932111241FBECFEF6A
:100EB000CDBFDFE5DEBF00E00CBF10E2A0E0B0E296
:100EC000E0ECF3E700E00BBF02C007900D92A63DF7
:100ED000B107D9F721E4A6EDB0E201C01D92A53F0C
:100EE000B207E1F717E0C5E5D7E000E006C02197BB
:100EF0000109802FFE010E944938C435D10780E0E6
:100F00000807A9F70E94F81C0C94DE390C94000025
:100F10002F923F924F925F926F927F928F929F9209
:100F2000AF92BF92CF92DF92EF92FF920F931F93F7
:100F3000CF93DF93CDB7DEB73C012B01942EB22EB9
:100F40001801B701A6012A2D082D0E94BA0BB10184
:100F5000C3014C960E949109F301E85AFF4F408269
:100F60005182349690823196B0827C9610821182A2
:100F70001282138234961082118212821382349666
:100F80001082118212821382349610821182128290
:100F9000138234961082118212821382F2014181EF
:100FA0004929418321812B292183F301EF58FF4FE8
:100FB00080E091EEA5EFB5E080839183A283B383B7
:100FC00034961082DF91CF911F910F91FF90EF9097
:100FD000DF90CF90BF90AF909F908F907F906F9059
:100FE0005F904F903F902F9008952F923F924F9295
:100FF0005F926F927F928F929F92AF92BF92CF92A9
:10100000DF92EF92FF920F931F93CF93DF93CDB7B1
:10101000DEB73C012B01942EB22E1801B701A601B8
:101020002A2D082D0E94090CB101C3014C960E9483
:101030009109F301E85AFF4F408251823496908221
:101040003196B0827C96108211821282138234967D
:1010500010821182128213823496108211821282BF
:101060001382349610821182128213823496108277
:10107000118212821382F201418149294183218127
:101080002B292183F301EF58FF4F80E091EEA5EF6C
:10109000B5E080839183A283B38334961082DF917D
:1010A000CF911F910F91FF90EF90DF90CF90BF9065
:1010B000AF909F908F907F906F905F904F903F90F8
:1010C0002F900895FC01EA58FF4F208121110FC095
:1010D0007E970190F081E02DDC01A45ABF4F2C9146
:1010E0002683FC01EB58FF4F21E0208310C0FC0158
:1010F000E85AFF4F0190F081E02DDC01A45ABF4F68
:101100002C912683FC01EB58FF4F21E0208381E0E6
:101110000895FC01E85AFF4F0190F081E02DDC01B9
:10112000A35ABF4F2C912583FC01EA58FF4F21E0C1
:1011300020830895FC01E85AFF4F0190F081E02DD3
:10114000DC01A35ABF4F2C912683FC01EA58FF4FC4
:10115000108208958B589F4FFC01108208958A5881
:101160009F4FFC0180810895FC01EB58FF4F2081C7
:10117000222329F0FC01828D938D0E94440C089556
:10118000FC01828D938D0E944C0C08958B589F4FCB
:10119000FC0180810895EF920F930E947A0A0F91CB
:1011A000EF900895FC01A081B18118969C918381F4
:1011B000892319F081E0878301C017828781089510
:1011C000FC0160837183268B378B408F518F80E0C9
:1011D00090E0A0E0B2E4828B938BA48BB58B089552
:1011E000BC01645F7F4F48EE53E0FC018081918138
:1011F0000E94380A0895CF92DF92EF92FF920F93E8
:101200001F93CF93DF93EC010E94F0080C851D859E
:10121000888199810E94740A6B017C01B801110FC9
:10122000880B990B0E940A37A70196010E949637F6
:101230006B017C0120E030E040E055E46A897B8965
:101240008C899D890E9496379B01AC01C701B6012C
:101250000E9467366A837B838C839D83DF91CF9165
:101260001F910F91FF90EF90DF90CF900895CF9353
:10127000DF93EC010E94FB0820E030E04AE754E4F1
:101280006A817B818C819D810E94963722E538EBB3
:101290004EEF5FE30E9496372DEC3CEC4CEF50E4B0
:1012A0000E94FB356E837F8388879987DF91CF917A
:1012B0000895CF93DF93EC0169837A831B821C82AC
:1012C0001D821E8280E090E00E94083720E030E01E
:1012D00046E154E40E9496370E94D9369B01AC0146
:1012E000688779878A879B8761E070E080E090E07B
:1012F0000E9427382C873D874E875F87DF91CF91EB
:1013000008959A01AB01FC01608571858285938502
:101310000E9403380895FC01638174818581968160
:101320000895CF93DF93EC010E94590984EF91E077
:10133000A0E0B0E0888B998BAA8BBB8B80E090E01B
:10134000A0ECBFE38CA39DA3AEA3BFA341E050E0FC
:1013500060E070E0CE010E9481090E94083768A712
:1013600079A78AA79BA7DF91CF910895EF92FF926B
:101370000F931F93FC01208F318F428F538FE48E88
:10138000F58E068F178F20A331A342A353A3148A8F
:10139000158A168A178A1F910F91FF90EF90089572
:1013A000CF92DF92EF92FF92CF93DF93EC01C8A030
:1013B000D9A0EAA0FBA08C8D9D8DAE8DBF8DC816E7
:1013C000D906EA06FB0618F58C899D89AE89BF8986
:1013D0000196A11DB11D8C8B9D8BAE8BBF8B6CA517
:1013E0007DA58EA59FA50E9408379B01AC0168A52D
:1013F00079A58AA59BA50E9467360E94D936C60E9C
:10140000D71EE81EF91EC8A2D9A2EAA2FBA268A1B3
:1014100079A18AA19BA1DF91CF91FF90EF90DF90FE
:10142000CF900895DC01FB0116966D937C9317977E
:1014300018964D935C93199787E0808380E98183A8
:1014400087E180A3128211A240E050E060E87FE3D0
:1014500012964D935D936D937C9315970895DC01DF
:101460001696ED91FC91179780A1806880A308954E
:10147000EF92FF920F931F93CF93DF931F921F92D0
:10148000CDB7DEB78C017B0149835A830E942F0AB6
:1014900089819A81019789839A83892BB9F0D80130
:1014A0001696ED91FC91179783A180FFF1CF0EC0A6
:1014B000D8011696ED91FC91179784A195A1F7019B
:1014C0008083918381E007C080E005C089819A8193
:1014D000892B71F7F9CF0F900F90DF91CF911F916A
:1014E0000F91FF90EF900895FC01628173818481D8
:1014F00095810895EF920F93DC01FB016D937C932E
:10150000119713964C93139714962C931497159642
:101510000C9315971696EC9242834830E1F038F41C
:10152000423099F04430A1F0413019F50BC04032FF
:10153000C1F018F4403191F01CC04034A9F040389B
:10154000B1F017C081E0808B14C081E0818B11C0A5
:1015500081E0828B0EC081E0838B0BC081E0848BA5
:1015600008C081E0858B05C081E0868B02C081E0E8
:10157000878B211106C0A0E8B1E08C91E82AEC929B
:1015800036C0213049F4A0E8B1E011968C91119752
:10159000E82A1196EC922BC0223049F4A0E8B1E081
:1015A00012968C911297E82A1296EC9220C0233062
:1015B00049F4A0E8B1E013968C911397E82A1396AA
:1015C000EC9215C0243049F4A0E8B1E014968C9157
:1015D0001497E82A1496EC920AC0253041F4A0E84A
:1015E000B1E015968C911597E82A1596EC920111A9
:1015F00007C08285482B428781858360818706C02A
:101600008385482B438781858C6081870F91EF907C
:101610000895FC0180E09DE70E9413386487758778
:10162000A681B781A11588E0B80741F0A11589E02E
:10163000B80721F0A1158AE0B80721F496966D93BA
:101640007C939797A085B185A03488E0B80721F0F6
:10165000A03489E0B80731F48485958596968D93FA
:101660009C9397970895CF93DF93EC019A01AB0178
:101670002E8B3F8B488F598F60E078E488EE91E0A5
:101680000E9427382C873D87EE81FF81E11588E095
:10169000F80741F0E11589E0F80721F0E1158AE04B
:1016A000F80711F426A337A3E885F985E03488E02C
:1016B000F80721F0E03489E0F80721F48C859D8556
:1016C00086A397A3DF91CF910895FC01848595852A
:1016D000689F9001699F300D1124369527953695A6
:1016E0002795ABE7B4E10E94513896958795868798
:1016F00097872285213031F4A681B78198968D9302
:101700009C9399978285823041F4A681B781868522
:1017100097859A968D939C939B978285843041F40C
:10172000A681B781868597859C968D939C939D977E
:101730008285883041F4A681B781868597859E96FB
:101740008D939C939F978285803141F4A085B185CC
:101750008685978598968D939C93999782858032FC
:1017600041F4A085B185868597859A968D939C9343
:101770009B970895EF92FF920F931F93CF93DF9360
:101780007C01EA01122FFC01608371834683578339
:1017900022870387FB018181822B8183888181607D
:1017A000888341E050E060E070E0C7010E94330BA5
:1017B00062E3C7010E94650B113039F489818061B1
:1017C00089838F8183608F831AC0123039F48981B5
:1017D000806289838F818C608F8311C0143039F4CB
:1017E0008981806489838F8180638F8308C01830EA
:1017F00031F48981806889838F81806C8F838E81A9
:1018000083608E83DF91CF911F910F91FF90EF90B6
:101810000895EF92FF920F931F93CF93DF937C0174
:10182000EA01122FFC016083718340875187228770
:101830000387FB018181822B81838881816088837A
:1018400065E070E0C7010E94090B62E3C7010E94D6
:10185000650B103139F48981806189838F818360C0
:101860008F8308C0103231F48981806289838F812F
:101870008C608F838E8183608E83DF91CF911F91E7
:101880000F91FF90EF900895DC01ED91FC9111977D
:101890001A968C9185830895DC01ED91FC91119746
:1018A0001A968C91868308952F923F924F925F9261
:1018B0006F927F928F929F92AF92BF92CF92DF9260
:1018C000EF92FF920F931F93CF93DF9300D0CDB78A
:1018D000DEB73C012B01E982FA82CB82BA2C1401DB
:1018E0000E948F2D8E8CAD8CCB8CDC8CE98CFA8C8D
:1018F00081012B2D4B8169817A81C30142960E941F
:1019000088078BE090E2F30180839183EF55FF4FCE
:101910008FA198A580839183329689A59AA580830B
:10192000918370968F8D98A1808391833C968DA131
:101930009EA18083918334968BA19CA18083918307
:10194000389689A19AA180839183389640825182EA
:10195000B10180E090E00E94083720E030E046E1ED
:1019600054E40E9496379B01AC01F301EB54FF4F06
:101970006083718382839383F9EB6F0E711C60E047
:1019800070E080E89FE30E946736F3016083718313
:10199000828393832396CDBFDEBFDF91CF911F91CA
:1019A0000F91FF90EF90DF90CF90BF90AF909F90FE
:1019B0008F907F906F905F904F903F902F90089501
:1019C0002F923F924F925F926F927F928F929F924F
:1019D000AF92BF92CF92DF92EF92FF920F931F933D
:1019E000CF93DF9300D0CDB7DEB73C012B01E98266
:1019F000FA82CB82BA2C14010E948F2D8E8CAD8C72
:101A0000CB8CDC8CE98CFA8C81012B2D4B8169818C
:101A10007A81C30142960E94F5078BE090E2F301C0
:101A200080839183EF55FF4F8FA198A58083918389
:101A3000329689A59AA58083918370968F8D98A1FF
:101A4000808391833C968DA19EA18083918334965F
:101A50008BA19CA180839183389689A19AA18083D0
:101A600091833896408251822396CDBFDEBFDF91AD
:101A7000CF911F910F91FF90EF90DF90CF90BF908B
:101A8000AF909F908F907F906F905F904F903F901E
:101A90002F9008950F931F93CF93DF93EC01FC01D8
:101AA000E156FF4F808191810E94AF08811128C0CB
:101AB000FE01ED55FF4F808191810E94D208811176
:101AC00047C0FE01E156FF4F808191810E9462086C
:101AD0000E811F81CD52DF4F68817981C8010E943C
:101AE0001D306AE0C8010E945430EC0168E776E0DE
:101AF0000E941D3066E0CE010E94543081E02BC070
:101B0000FE01EF55FF4F808191810E94D208811123
:101B100021C0FE01E156FF4F808191810E94620841
:101B20000E811F81CD52DF4F68817981C8010E94EB
:101B30001D306AE0C8010E945430EC0166E776E08F
:101B40000E941D3066E0CE010E94543081E003C047
:101B500080E001C080E0DF91CF911F910F91089547
:101B6000CF93DF93CDB7DEB76297CDBFDEBF89835A
:101B70009A83612C712C6C018FE9C80ED11CA9814C
:101B8000BA81A353BF4FAD83BE8389809A80B3EDE2
:101B90008B0E911C29803A80E6EC2E0E311C898137
:101BA0009A8181549F4F8F87988BA980BA8099EA38
:101BB000A90EB11CA981BA81AD54BF4FAF83B887BC
:101BC000E981FA81E153FF4FE987FA8789819A8198
:101BD00085539F4F8D879E8749805A8093EC490E8D
:101BE000511CA981BA81A653BF4FAB87BC87E9813D
:101BF000FA81E98BFA8BA989BA891C968C9190E0BD
:101C00008930910508F0DBC3FC018827E250FF4FC3
:101C10008F4F0C944938D201ED91FC910FB6F89496
:101C20000F9282E080830F900FBE63E089899A89CA
:101C30000E948B2DC4C3F601808191814C960E9435
:101C4000D009D6018D919C910E94C608882309F481
:101C5000B6C3D201ED91FC910FB6F8940F921082A9
:101C60000F900FBE6AE0E989FA89868197810E9408
:101C700054308C016FE976E00E941D3066E0C801A7
:101C80000E94543062E089899A890E948B2D97C303
:101C90000FB6F8940F920F900FBE8091DA20882330
:101CA00031F063E089899A890E948B2D88C30FB631
:101CB000F8940F920F900FBE8091DB20882331F0B3
:101CC00065E089899A890E948B2D79C30FB6F894B3
:101CD0000F920F900FBE8091D920882309F46FC313
:101CE00065E089899A890E948B2D69C30FB6F894A3
:101CF0000F92D201ED91FC9180810F900FBE813047
:101D000009F03DC0F601808191810E949A080FB6CA
:101D1000F8940F920F900FBED6018D919C91E09098
:101D20002121F09022210091232110912421FC01F6
:101D3000628D738D24EF31E040E050E04C960E94BC
:101D4000B60989899A890E944A0DAB85BC858C9316
:101D5000882331F064E089899A890E948B2D2FC3F2
:101D6000D201ED91FC910FB6F8940F9210820F9072
:101D70000FBE62E089899A890E948B2D20C30FB61D
:101D8000F8940F920F900FBE823009F03DC0F6011B
:101D9000808191810E9489080FB6F8940F920F906C
:101DA0000FBED6018D919C91E0902121F0902221CF
:101DB0000091232110912421FC01628D738D24EF69
:101DC00031E040E050E04C960E94B60989899A893A
:101DD0000E944A0DAB85BC858C93882331F064E06A
:101DE00089899A890E948B2DEAC2D201ED91FC91DA
:101DF0000FB6F8940F9210820F900FBE62E089899F
:101E00009A890E948B2DDBC262E089899A890E949F
:101E10008B2DD5C2F601808191814C960E94D0090C
:101E2000D6018D919C910E94C608811109C0D201F2
:101E3000ED91FC910FB6F8940F9210820F900FBEA7
:101E40000FB6F8940F920F900FBED201ED91FC9156
:101E50008081811148C0F601808191810E94AA0889
:101E6000D6018D919C914C960E948B0969837A834F
:101E70008B839C83E989FA8906811781D4016D914E
:101E80007C91C8010E941D306AE0C8010E94543054
:101E90008C016AE976E00E941D3049815A816B818C
:101EA0007C81C8010E94D23166E00E945430E989E9
:101EB000FA8906811781D4016D917C91C8010E9435
:101EC0001D306AE0C8010E9454308C0168E976E058
:101ED0000E941D3066E0C8010E94543062E089898A
:101EE0009A890E948B2DBFEF6B1A7B0AE5E06E1674
:101EF000710409F064C2D6018D919C914C960E94A8
:101F00008B0969837A838B839C83E989FA890681AB
:101F10001781D4016D917C91C8010E941D306AE047
:101F2000C8010E9454308C0163E976E00E941D30A4
:101F300049815A816B817C81C8010E94D23166E05F
:101F40000E945430612C712C3AC20FB6F8940F9253
:101F50000F900FBE8091DB20811118C00FB6F8944E
:101F60000F920F900FBE8091D92081110FC00FB634
:101F7000F8940F920F900FBE80912521811106C019
:101F800062E089899A890E948B2D19C20FB6F89454
:101F90000F920F900FBE80914C21882309F40FC23D
:101FA0000FB6F8940F920F900FBE8091212190915F
:101FB0002221A0912321B0912421E985FA858083F3
:101FC0009183A283B38366E089899A890E948B2DCD
:101FD000F6C1D6018D919C914C960E948B09F5011A
:101FE0006083718382839383AF81B8858D919C9147
:101FF000DC01ED91FC910084F185E02D1995F10152
:1020000060837183828393830FB6F8940F920F904D
:102010000FBE809125218823A1F1AD85BE858D91CC
:102020009C91DC01ED91FC910084F185E02D1995E6
:1020300069837A838B839C83E985FA8560837183C6
:1020400082839383A989BA8916960D911C9117975B
:10205000F40160817181C8010E941D306AE0C801ED
:102060000E9454308C016DE876E00E941D30498159
:102070005A816B817C81C8010E94313266E00E94E6
:102080005430D5014D915D916D917C91F10180812C
:102090009181A281B381481759076A077B07ECF445
:1020A000D6018D919C910E949A08F60180819181C0
:1020B000A985BA85ED90FD900D911C91FC01628D72
:1020C000738D24EF31E040E050E04C960E94B60959
:1020D00089899A890E944A0D21C084179507A6070D
:1020E000B707E4F4D6018D919C910E948908F6010E
:1020F00080819181A985BA85ED90FD900D911C910B
:10210000FC01628D738D24EF31E040E050E04C968D
:102110000E94B60989899A890E944A0D67E08989D7
:102120009A890E948B2D4BC10FB6F8940F920F9095
:102130000FBE80914921882351F0D6018D919C9149
:102140000E94AA0868E089899A890E948B2DF6016D
:10215000808191814C960E94D009AD81BE816D93A2
:102160007C93F601808191810E94AF0881116EC03D
:10217000D6018D919C914C960E948B09F1010081B2
:1021800011812281338160177107820793070CF454
:10219000D2C0D6018D919C910E94AA08E989FA8942
:1021A00006811781D4016D917C91C8010E941D3078
:1021B0006AE0C8010E9454308C016BE876E00E940E
:1021C0001D3066E0C8010E945430F6018081918183
:1021D0004C960E948B0969837A838B839C83A9899F
:1021E000BA8916960D911C911797F401608171813F
:1021F000C8010E941D306AE0C8010E9454308C0161
:1022000066E876E00E941D3049815A816B817C81AD
:10221000C8010E94D23166E00E945430AF85B8896F
:10222000ED91FC910FB6F8940F92B1E0B0830F904E
:102230000FBE0FB6F8940F9210924C210F900FBE64
:1022400065E089899A890E948B2D75C0F60180818D
:1022500091810E94AF08813009F06DC0D6018D9147
:102260009C914C960E948B09F10100811181228181
:10227000338106171707280739070CF45CC0D6010D
:102280008D919C910E94AA08E989FA89068117819B
:10229000D4016D917C91C8010E941D306AE0C80193
:1022A0000E9454308C0164E876E00E941D3066E0A4
:1022B000C8010E945430F601808191814C960E94A1
:1022C0008B0969837A838B839C83A989BA89169643
:1022D0000D911C911797F40160817181C8010E94D2
:1022E0001D306AE0C8010E9454308C016FE776E02F
:1022F0000E941D3049815A816B817C81C8010E94F6
:10230000D23166E00E945430AF85B889ED91FC91DE
:102310000FB6F8940F92B1E0B0830F900FBE0FB6D6
:10232000F8940F9210924C210F900FBE65E08989AE
:102330009A890E948B2DEFEF6E1A7E0AF5E06F16D8
:10234000710409F03CC0D6018D919C914C960E947D
:102350008B0969837A838B839C83E989FA89068157
:102360001781D4016D917C91C8010E941D306AE0F3
:10237000C8010E9454308C016AE776E00E941D304B
:1023800049815A816B817C81C8010E94D23166E00B
:102390000E945430612C712C12C00FB6F8940F9229
:1023A0000F900FBE80914921811109C089899A89B6
:1023B0000E944A0D67E089899A890E948B2DE989DC
:1023C000FA8986859785A089B1890196A11DB11DDD
:1023D00086879787A08BB18B64E170E080E090E006
:1023E0000E945F2B08CCCF93DF9300D01F92CDB714
:1023F000DEB78C01FC01158E168E178E10A2118E81
:10240000128E138E148E0FB6F8940F9210925F21D5
:102410000F900FBEDD24D394F8018485813009F438
:102420004BC038F0823009F413C1833009F438C24C
:10243000DFC20FB6F8940F920F900FBE80915A2111
:10244000882371F0F801118E128E138E148E158E62
:10245000168E178E10A263E0C8010E948B2DC8C291
:102460000FB6F8940F920F900FBE8091DB20811170
:1024700013C00FB6F8940F920F900FBE8091D92021
:1024800081110AC00FB6F8940F920F900FBE809181
:102490002521882309F4ACC2F801118E128E138E07
:1024A000148E158E168E178E10A2158A168A6D2D13
:1024B000C8010E948B2D9CC20FB6F8940F920F900A
:1024C0000FBE80916221882309F492C20FB6F8945E
:1024D0000F920F900FBE80916121882309F488C26A
:1024E0000FB6F8940F920F900FBE80916021882351
:1024F00009F47EC20FB6F8940F920F900FBE809130
:10250000D920882309F42FC00FB6F8940F921092A7
:10251000D9200F900FBE0FB6F8940F92D0924C2195
:102520000F900FBE0FB6F8940F9210925A210F9091
:102530000FBE0FB6F8940F92109262210F900FBE4B
:102540000FB6F8940F92109261210F900FBE0FB644
:10255000F8940F92109260210F900FBE60E0C801B6
:102560000E948B2D45C20FB6F8940F92D0925A213B
:102570000F900FBE0FB6F8940F92409051215090DB
:10258000522160905321709054210F900FBEF8019A
:10259000E588F688FFEFEF1AFF0AF801E58AF68A68
:1025A0006AE0868197810E9454305C0168ED76E094
:1025B0000E941D30B701C5010E94FD317C016FE012
:1025C00070E20E941D30B301A201C7010E943132A6
:1025D0007C016AE170E20E941D3066E0C7010E9442
:1025E0005430F80182898F5F828B0E945929698358
:1025F0007A838B839C830FB6F8940F920F900FBE53
:1026000020915121309152214091532150915421D8
:10261000A8EEB3E00E946038683EF3E07F078105D2
:10262000910548F028EE33E040E050E00E94273862
:10263000BA01A90104C041E050E060E070E0CE01C1
:1026400001960E94F22A62E0C8010E948B2DD0C13F
:102650000FB6F8940F926091562170915721809196
:102660005821909159210F900FBEF801458C568C3E
:10267000678C70A04616570668067906F0F48389C1
:1026800094890E9437099B01AC01F801618D728D1C
:10269000838D948D0E94FB35F801618F728F838F3B
:1026A000948F858D968DA78DB0A10196A11DB11D2A
:1026B000858F968FA78FB0A39BC10FB6F8940F920A
:1026C0000F900FBE0E9408379B01AC01F801618D8D
:1026D000728D838D948D0E9467362B013C010FB65D
:1026E000F8940F9260935B2170935C2180935D213D
:1026F00090935E210F900FBE0FB6F8940F920F903B
:102700000FBE6AE0F801868197810E9454307C01F7
:1027100064ED76E00E941D302DE73FE349EC50E484
:10272000C301B2010E949637AB01BC01C7010E94F0
:10273000253166E00E9454300FB6F8940F92409015
:102740005B2150905C2160905D2170905E210F9024
:102750000FBE6AE0F801868197810E9454307C01A7
:1027600060ED76E00E941D30B301A201C7010E9416
:102770009B3066E00E945430F801118E128E138E49
:10278000148E158E168E178E10A20FB6F8940F9217
:102790000F900FBE20914A2130914B218589968957
:1027A0008217930708F028C00FB6F8940F92D092C2
:1027B0004C210F900FBE0FB6F8940F9210925A2131
:1027C0000F900FBE0FB6F8940F92109262210F90E7
:1027D0000FBE0FB6F8940F92109261210F900FBEAA
:1027E0000FB6F8940F92109260210F900FBE6D2DCE
:1027F000C8010E948B2DFCC06AE0F8018681978198
:102800000E9454307C016EEB76E00E941D3066E041
:10281000C7010E94543060E0C8010E948B2D0FB6A2
:10282000F8940F921092DB200F900FBE0FB6F89421
:102830000F92109225210F900FBE6AE0F801868159
:1028400097810E9454307C016CEB76E00E941D3031
:1028500066E0C7010E9454300FB6F8940F921092B0
:102860004C210F900FBE0FB6F8940F9210925A2180
:102870000F900FBE0FB6F8940F92109262210F9036
:102880000FBE0FB6F8940F92109261210F900FBEF9
:102890000FB6F8940F92109260210F900FBEA8C04F
:1028A0000FB6F8940F926091562170915721809144
:1028B0005821909159210F900FBEF801458C568CEC
:1028C000678C70A04616570668067906F0F483896F
:1028D00094890E9437099B01AC01F801618D728DCA
:1028E000838D948D0E94FB35F801618F728F838FE9
:1028F000948F858D968DA78DB0A10196A11DB11DD8
:10290000858F968FA78FB0A373C00FB6F8940F92E0
:102910000F900FBE0E9408379B01AC01F801618D3A
:10292000728D838D948D0E9467362B013C010FB60A
:10293000F8940F9260935B2170935C2180935D21EA
:1029400090935E210F900FBE0FB6F8940F920F90E8
:102950000FBE6AE0F801868197810E9454307C01A5
:1029600068EB76E00E941D302DE73FE349EC50E430
:10297000C301B2010E949637AB01BC01C7010E949E
:10298000253166E00E9454300FB6F8940F924090C3
:102990005B2150905C2160905D2170905E210F90D2
:1029A0000FBE6AE0F801868197810E9454307C0155
:1029B00064EB76E00E941D30B301A201C7010E94C2
:1029C0009B3066E00E945430F801118E128E138EF7
:1029D000148E158E168E178E10A20FB6F8940F92C5
:1029E00010925A210F900FBE60E0C8010E948B2DFB
:1029F000F80186859785A089B1890196A11DB11D31
:102A000086879787A08BB18B61E070E080E090E0D3
:102A10000E945F2B01CDCF92DF92EF92FF920F9336
:102A20001F93CF93DF93EC016B010E948F2D83E204
:102A300090E288839983EB8AFC8AC9A2DAA2DF91AB
:102A4000CF911F910F91FF90EF90DF90CF9008955D
:102A5000EF92FF920F931F93CF93DF93EC017B01D3
:102A60000E948F2D8BE290E288839983FE01E05EC5
:102A7000FE4FE082F182CE5EDE4F1882DF91CF9171
:102A80001F910F91FF90EF900895BF92CF92DF9228
:102A9000EF92FF920F931F93CF93DF93FC01DC0122
:102AA000AE5EBE4F2C9130E0215031091216130654
:102AB000A4F540E050E0B12C60E070E0CB01DC0117
:102AC000CB01880F991FAA1FBB1F6C017D01CC0C85
:102AD000DD1CEE1CFF1CCC0CDD1CEE1CFF1C8C0D49
:102AE0009D1DAE1DBF1D4E0F5F1FEA014A8950E0BC
:102AF00040535109052E000C660B770B7A018B01B0
:102B0000E80EF91E0A1F1B1FC801B701B3944B2D15
:102B100050E0421753079CF203C060E070E0CB0125
:102B2000DF91CF911F910F91FF90EF90DF90CF90A9
:102B3000BF9008956AE0FC01868197810E9454301D
:102B4000EC016DE57AE00E941D3066E0CE010E9446
:102B5000543093E088ED08B618BE84BF909380008F
:102B60008091820081FDFCCF08BEFFCFCF93DF9321
:102B700000D000D0CDB7DEB789839A838C010E5E7A
:102B80001E4F7C018DEEE81A8EEFF80A89809A803C
:102B900099EE891A9EEF990AA980BA80A3EEAA1A23
:102BA000AEEFBA0A69807A80B7EE6B1ABEEF7B0A85
:102BB00049805A80E5EE4E1AEEEF5E0A29803A808F
:102BC000FEED2F1AFEEF3F0A89819A818D839E8345
:102BD000AD81BE811C968C911C97813009F4E6C0B2
:102BE00038F0823009F4B8C2833009F484C3AAC52E
:102BF000ED81FE8186819781DC01ED91FC9104805D
:102C0000F581E02D1995882309F4BCC5ED81FE817D
:102C100086819781DC01ED91FC910680F781E02DA2
:102C20001995F8012081ED81FE81E20FF11D828B63
:102C30002F5FD8012C939927FC01E156F109E3316C
:102C4000F10508F09FC58827E95FFE4F8F4F0C9470
:102C500049380FB6F8940F9281E08093DC200F90F2
:102C60000FBE6AE0ED81FE81868197810E9454301B
:102C70006C0168E47AE00E941D3066E0C6010E94A3
:102C8000543063E08D819E810E948B2D7BC50FB6F1
:102C9000F8940F9281E0809325210F900FBE0FB61C
:102CA000F8940F92109251211092522110925321B8
:102CB000109254210F900FBE0FB6F8940F9281E03E
:102CC00090E0A0E0B0E08093562190935721A0932C
:102CD0005821B09359210F900FBE61E08D819E81E4
:102CE0000E948B2D0FB6F8940F920F900FBE80911B
:102CF000D920811147C50FB6F8940F9281E08093D7
:102D0000D9200F900FBE61E08D819E810E948B2D96
:102D100039C50FB6F8940F920F900FBE8091DB204B
:102D2000811130C50FB6F8940F9281E08093DB20BB
:102D30000F900FBE61E08D819E810E948B2D22C578
:102D40000FB6F8940F9281E08093DA200F900FBEB7
:102D500062E08D819E810E948B2D14C5AD81BE8164
:102D6000CD010E949A150FB6F8940F9281E08093DE
:102D70005A210F900FBE06C50FB6F8940F920F9010
:102D80000FBE80914921811109C00FB6F8940F92AE
:102D900081E0809349210F900FBEF4C40FB6F894E0
:102DA0000F92109249210F900FBEECC4ED81FE816D
:102DB00086819781DC01ED91FC910480F581E02D05
:102DC0001995882309F4AAC1ED81FE818681978136
:102DD000DC01ED91FC910680F781E02D1995BC0195
:102DE000F8018081ED81FE81E80FF11D628B8F5F1C
:102DF000D8018C93FB01FF27BC97EF34F10508F055
:102E0000C1C48827E65EFE4F8F4F0C944938ED8190
:102E1000FE81CF010E949A158091F5209091F620B5
:102E20000E94AF27D82E8091EB209091EC200E9439
:102E3000AF27D81245C08091F5209091F6200E94CE
:102E4000AF27D82E8091E1209091E2200E94AF27F9
:102E5000D81236C08091F5209091F6200E94AF27BD
:102E6000C82ED12C0FB6F8940F92C0924A21D0925E
:102E70004B210F900FBE0FB6F8940F920F900FBE1C
:102E80006AE0AD81BE8116968D919C9117970E9444
:102E9000543089839A836AE37AE00E941D30B60138
:102EA00089819A810E94FD3166E00E9454300FB6FC
:102EB000F8940F9281E080934C210F900FBE10C0C8
:102EC0006AE0ED81FE81868197810E9454306C0119
:102ED00062E17AE00E941D3066E0C6010E94543033
:102EE000D8011C9260E08D819E810E948B2D4AC486
:102EF0008D819E810E944515F701608371838283D5
:102F00009383D4018D919C91DC01ED91FC91019012
:102F1000F081E02DB7011995F801108233C4D80172
:102F20001C9266E0ED81FE81868197810E9454307B
:102F30006AE00E9454306C016BEF79E00E941D3012
:102F400066E0C6010E945430E1EFF0E2D401ED9357
:102F5000FC9318C4D8011C9266E0ED81FE81868145
:102F600097810E9454306AE00E9454306C0164EEF4
:102F700079E00E941D3066E0C6010E945430E7EE01
:102F8000F0E2D401ED93FC93FDC3D8011C9266E0FE
:102F9000ED81FE81868197810E9454306AE00E9413
:102FA00054306C016DEC79E00E941D3066E0C60182
:102FB0000E945430EDEDF0E2D401ED93FC93E2C3B6
:102FC0000FB6F8940F9281E0809355210F900FBEB9
:102FD00066E0AD81BE8116968D919C9117970E94F7
:102FE0005430D0C3ED81FE8186819781DC01ED9163
:102FF000FC910280F381E02D19958D819E810E94C4
:103000004515F7016083718382839383D4018D9189
:103010009C91DC01ED91FC910190F081E02DB701D4
:103020001995F8011082AEC3AD81BE8116968D91BF
:103030009C911797DC01ED91FC910280F381E02DCA
:103040001995A0C3ED81FE8186819781DC01ED9108
:10305000FC910280F381E02D199594C3ED81FE81EE
:1030600086819781DC01ED91FC910280F381E02D56
:10307000199588C3ED81FE8186819781DC01ED91F0
:10308000FC910280F381E02D19957CC3ED81FE81D6
:1030900086819781DC01ED91FC910280F381E02D26
:1030A000199570C3ED81FE8186819781DC01ED91D8
:1030B000FC910280F381E02D199564C3ED81FE81BE
:1030C00086819781DC01ED91FC910280F381E02DF6
:1030D000199558C3ED81FE8186819781DC01ED91C0
:1030E000FC910280F381E02D19954CC3ED81FE81A6
:1030F00086819781DC01ED91FC910280F381E02DC6
:10310000199540C3ED81FE8186819781DC01ED91A7
:10311000FC910280F381E02D199534C38BEF90E28E
:103120000E94042F882309F42DC3AD81BE81169619
:10313000ED91FC9117970190F081E02DC280D38032
:103140008BEF90E20E94E62E682FED81FE81868152
:103150009781F601199516C3AD81BE8116968D91A2
:103160009C911797DC01ED91FC910480F581E02D95
:103170001995882309F406C3ED81FE818681978124
:10318000DC01ED91FC910680F781E02D1995F801A5
:103190002081ED81FE81E20FF11D828B2F5FD8012E
:1031A0002C939927FC01E556F109E631F10508F069
:1031B000E9C28827E759FE4F8F4F0C94493888EDB4
:1031C00090E2F50180839183DDC287ED90E2D50125
:1031D0008D939C93D7C286ED90E2F5018083918315
:1031E000D1C20FB6F8940F921092DA200F900FBE52
:1031F00060E08D819E810E948B2DC4C2D501ED912E
:10320000FC91B0E2E83DFB0741F080E2E73DF807C2
:1032100021F090E2E63DF90741F40FB6F8940F92E1
:1032200081E080830F900FBEADC26AE0AD81BE81A8
:1032300016968D919C9117970E9454306C016AE903
:1032400079E00E941D3066E0C6010E9454309AC2A7
:10325000D501ED91FC91B0E2E83DFB0741F080E241
:10326000E73DF80721F090E2E63DF90741F40FB69B
:10327000F8940F9282E080830F900FBE83C26AE0C1
:10328000AD81BE8116968D919C9117970E94543006
:103290006C0167E679E00E941D3066E0C6010E947D
:1032A000543070C2D501ED91FC91B0E2E83DFB07CE
:1032B00041F080E2E73DF80721F090E2E63DF907B2
:1032C00039F40FB6F8940F9210820F900FBE5AC2C5
:1032D0006AE0AD81BE8116968D919C9117970E94F0
:1032E00054306C0164E379E00E941D3066E0C60151
:1032F0000E94543047C2ED81FE8186819781DC01B6
:10330000ED91FC910480F581E02D1995882309F455
:1033100039C2ED81FE8186819781DC01ED91FC91BE
:103320000680F781E02D1995BC01F8018081ED81BF
:10333000FE81E80FF11D628B8F5FD8018C93FB013A
:10334000FF27BC97EF34F10508F01CC28827E1582D
:10335000FE4F8F4F0C9449386AE0ED81FE818681E3
:1033600097810E9454306C016FE179E00E941D301A
:1033700066E0C6010E945430D8011C9281E291E2BD
:10338000F30180839183FEC16AE0AD81BE81169610
:103390008D919C9117970E9454306C0163E079E005
:1033A0000E941D3066E0C6010E945430F801108270
:1033B0008FE391E2D2018D939C9381E0F1018083B0
:1033C000E1C16AE0AD81BE8116968D919C911797FF
:1033D0000E9454306C0167EE78E00E941D3066E078
:1033E000C6010E945430F801108285E391E2D201B7
:1033F0008D939C9381E0F1018083C4C16AE0AD812B
:10340000BE8116968D919C9117970E9454306C0145
:103410006BEC78E00E941D3066E0C6010E945430DB
:10342000F80110828BE291E2D2018D939C9381E0AE
:10343000F1018083A7C16AE0AD81BE8116968D91AE
:103440009C9117970E9454306C0167EB78E00E94C2
:103450001D3066E0C6010E9454300FB6F8940F92FA
:103460001092DC200F900FBE60E08D819E810E9443
:103470008B2D88C18D819E810E9445159B01AC01D9
:10348000F7016083718382839383D1018C918823B8
:10349000B1F0A8EEB3E00E9460386083718382834C
:1034A0009383D2018D919C91DC01ED91FC9101906F
:1034B000F081E02DB7011995F101108232C0D301DE
:1034C000CD90DC90B7E2CB16B1E2DB0661F464E6A6
:1034D00070E080E090E00E942738F701208331837C
:1034E000428353830FC0F1E2CF16F1E2DF0651F4BD
:1034F000ACEDB5E00E946038D7016D937D938D935C
:103500009C931397F70180819181A281B3810FB6BB
:10351000F8940F92F60180839183A283B3830F9076
:103520000FBED8011C92D7018D919D910D90BC9139
:10353000A02D89839A83AB83BC836AE0ED81FE81F1
:10354000868197810E9454306C0167EA78E00E947E
:103550001D3049815A816B817C81C6010E943132C4
:1035600066E00E9454300EC1AD81BE8116968D91E9
:103570009C911797DC01ED91FC910280F381E02D85
:1035800019958D819E810E9445159B01AC01A8EE85
:10359000B3E00E946038F701608371838283938374
:1035A000D2018D919C91DC01ED91FC910190F08113
:1035B000E02DB7011995F8011082E4C06AE0AD81F1
:1035C000BE8116968D919C9117970E9454306C0184
:1035D0006EE878E00E941D3066E0C6010E9454301B
:1035E000F80110828DE491E2D3018D939C93CAC0BF
:1035F0006AE0ED81FE81868197810E9454306C01E2
:1036000069E778E00E941D3066E0C6010E945430F0
:10361000D8011C9281E591E2F30180839183B2C0CD
:103620006AE0AD81BE8116968D919C9117970E949C
:1036300054306C016EE578E00E941D3066E0C601F2
:103640000E945430F801108286E591E2D3018D93F7
:103650009C9398C0ED81FE8186819781DC01ED917C
:10366000FC910280F381E02D19958CC0ED81FE81E3
:1036700086819781DC01ED91FC910280F381E02D40
:10368000199580C0ED81FE8186819781DC01ED91E5
:10369000FC910280F381E02D199574C0ED81FE81CB
:1036A00086819781DC01ED91FC910280F381E02D10
:1036B000199568C0ED81FE8186819781DC01ED91CD
:1036C000FC910280F381E02D19955CC0ED81FE81B3
:1036D00086819781DC01ED91FC910280F381E02DE0
:1036E000199550C0ED81FE8186819781DC01ED91B5
:1036F000FC910280F381E02D199544C0ED81FE819B
:1037000086819781DC01ED91FC910280F381E02DAF
:10371000199538C0ED81FE8186819781DC01ED919C
:10372000FC910280F381E02D19952CC0ED81FE8182
:1037300086819781DC01ED91FC910280F381E02D7F
:10374000199520C0A983BA836AE0FD01868197811B
:103750000E94543089839A8361E478E00E941D308E
:1037600066E089819A810E94543093E088ED08B622
:1037700018BE84BF909380008091820081FDFCCFB1
:1037800008BEFFCFED81FE8186859785A089B1892E
:103790000196A11DB11D86879787A08BB18B61E033
:1037A00070E080E090E00E945F2B12CAFC018481EF
:1037B00095810E94B72790E00895FC01848195814E
:1037C0000E94B72791E0811101C090E0892F0895F0
:1037D000FC01848195810E94B72791E0811190E0DE
:1037E000892F0895FC01848195810E94AF2790E084
:1037F0000895FC01848195810E94AF2791E0811199
:1038000001C090E0892F0895FC01848195810E9478
:10381000AF2791E0811190E0892F08950F9301E087
:103820002FEF3FEFA901FC01848195810E94BE2604
:103830000F9108950F93CF93DF9300D01F92CDB7D0
:10384000DEB701E02FEF3FEFA901BE016F5F7F4FB1
:10385000FC01848195810E94BE2669817A818B81D9
:103860009C812496CDBFDEBFDF91CF910F9108954B
:103870000F9300E02FEF3FEFA901FC0184819581B8
:103880000E94BE260F9108950F93CF93DF9300D02F
:103890001F92CDB7DEB700E02FEF3FEFA901BE01C9
:1038A0006F5F7F4FFC01848195810E94BE266981F4
:1038B0007A818B819C812496CDBFDEBFDF91CF9131
:1038C0000F910895CF93DF931F92CDB7DEB7AE016E
:1038D0004F5F5F4FFC01848195810E9482270F908A
:1038E000DF91CF910895CF93DF93CDB7DEB72597C2
:1038F000CDBFDEBFAE014B5F5F4FBE016F5F7F4F3D
:10390000FC01848195810E94822769817A818B8163
:103910009C812596CDBFDEBFDF91CF910895CF93D7
:10392000DF931F92CDB7DEB7198221E0AE014F5F62
:103930005F4FFC01848195810E94922691E0811164
:1039400001C090E0892F0F90DF91CF910895CF9320
:10395000DF931F92CDB7DEB7198220E0AE014F5F33
:103960005F4FFC01848195810E94922691E0811134
:1039700001C090E0892F0F90DF91CF9108950F93B0
:10398000FC01268137814085518501E08481958144
:103990000E94F72591E0811101C090E0892F0F91DD
:1039A00008950F93FC01268137814085518500E001
:1039B000848195810E94F72591E0811101C090E0FA
:1039C000892F0F9108950F93CF93DF931F92CDB757
:1039D000DEB72FB72983F8941BBEFC0108ED04BFA6
:1039E000608389818FBF0F90DF91CF910F910895F0
:1039F0004F925F926F927F928F929F92AF92BF92FF
:103A0000CF92DF92EF92FF920F931F93CF93DF93AA
:103A1000CDB7DEB76D97CDBFDEBFF894E0E5F0E03F
:103A2000808182608083818181FFFDCF6091400031
:103A3000687F616080E490E00E94E31CE0E5F0E0D4
:103A400080818E7F80839DEF88ED08B618BE84BF8D
:103A50009093800008BE40EA5AE060E070E0CE013A
:103A600001960E94593367E0CE0101960E945430BE
:103A70003C016FE270E20E941D3066E0C3010E94CB
:103A8000543066E00E9454300FB6F8940F9282E0F2
:103A900090E0A0E0B0E08093512190935221A09358
:103AA0005321B09354210F900FBE0FB6F8940F928C
:103AB00088E090E0A0E0B0E080934D2190934E210B
:103AC000A0934F21B09350210F900FBE0FB6F894E2
:103AD0000F9288EE93E0A0E0B0E08093562190939F
:103AE0005721A0935821B09359210F900FBE0FB6C4
:103AF000F8940F9282E390E0A0E0B0E08093272159
:103B000090932821A0932921B0932A210F900FBED2
:103B10000FB6F8940F928CE49DE1A0E0B0E08093A2
:103B2000212190932221A0932321B09324210F904F
:103B30000FBE8AE090E00E945C2F3C0140E652E01C
:103B400060E472E00E94120A60921F2170922021AC
:103B50008AE190E00E945C2F3C0160911F217091EE
:103B6000202123E032E449EC50E40E94E008609216
:103B70001D2170921E2188E090E00E945C2F3C0184
:103B80000F2EF0E5EF2EF02D00E020E041E060E0A8
:103B900076E00E94CB0860921B2170921C2188E085
:103BA00090E00E945C2F3C010F2EF1E5EF2EF02DEE
:103BB00001E020E042E060E076E00E94CB08609205
:103BC000192170921A2188E090E00E945C2F3C013C
:103BD0000F2EF5E7EF2EF02D00E020E040E260E848
:103BE00076E00E94CB08609217217092182188E03D
:103BF00090E00E945C2F3C010F2EF4E7EF2EF02D99
:103C000001E020E040E160E876E00E94CB086092AD
:103C100015217092162188E090E00E945C2F3C01F3
:103C20000F2EF9E7EF2EF02D00E020E042E060EAF1
:103C300076E00E94CB08609213217092142188E0F4
:103C400090E00E945C2F3C010F2EFAE7EF2EF02D42
:103C500001E020E044E060EA76E00E94CB08609258
:103C600011217092122183E291E00E945C2F8E015B
:103C70000F5F1F4F20E830E040E06EE470E20E94EA
:103C8000281585ED90E00E945C2F20911A212F933A
:103C9000209119212F9320911C212F9320911B21DA
:103CA0002F9322E631E23F932F9328ED30E23F93AA
:103CB0002F932FE331E23F932F9321EF30E23F9395
:103CC0002F930F2EF3E06F2EF02D6F9220E12F93A4
:103CD0000F2EF9E04F2EF02D4F926894BB24B6F8CA
:103CE000BF920F2EF6E0DF2EF02DDF920F2EF0E6C2
:103CF0005F2EF02D5F926894882483F8912C68944D
:103D0000AA24A3F86894CC24C2F80F2EE12CF6E084
:103D1000FF2EF02D20E830E044E066E570E20E94DE
:103D2000E00C85ED90E00E945C2F209116212F93EE
:103D3000209115212F93209118212F932091172145
:103D40002F9321E631E23F932F9327ED30E23F930B
:103D50002F9325E331E23F932F9327EE30E23F93F9
:103D60002F9320EC2F936894772473F87F924F92CF
:103D70001F92DF925F926894AA24A5F86894CC24DD
:103D8000C4F820E830E044E06AE570E20E94540C98
:103D9000CDBFDEBF85ED90E00E945C2F2091122107
:103DA0002F93209111212F93209114212F93209153
:103DB00013212F9320E631E23F932F9326ED30E23B
:103DC0003F932F932BE231E23F932F932DED30E27F
:103DD0003F932F936F9221E02F937F921F92DF9258
:103DE000BF926894AA24A7F86894CC24C6F820E867
:103DF00030E044E06EE570E20E94540C83E290E013
:103E00000E945C2FE0901D21F0901E2124E931E1F9
:103E100044E062E670E20E940B1587E08093A20006
:103E200078940E942029CDBFDEBF80E090E06D969F
:103E3000CDBFDEBFDF91CF911F910F91FF90EF902B
:103E4000DF90CF90BF90AF909F908F907F906F90BA
:103E50005F904F9008951F920F920FB60F9211240A
:103E60000BB60F922F933F934F935F936F937F9374
:103E70008F939F93AF93BF93EF93FF938091DB203A
:103E8000882351F080910F21909110210E94AF085A
:103E9000813011F480932621FF91EF91BF91AF9172
:103EA0009F918F917F916F915F914F913F912F9152
:103EB0000F900BBE0F900FBE0F901F9018951F9282
:103EC0000F920FB60F9211240BB60F922F933F93C0
:103ED0004F935F936F937F938F939F93AF93BF9312
:103EE000EF93FF938091DB20882359F080910F217D
:103EF000909110210E94AF08811103C081E080934E
:103F00002621FF91EF91BF91AF919F918F917F916A
:103F10006F915F914F913F912F910F900BBE0F903A
:103F20000FBE0F901F9018951F920F920FB60F9211
:103F300011240BB60F922F933F934F935F936F9380
:103F40007F938F939F93AF93BF93EF93FF93809152
:103F5000DB20882351F080910D2190910E210E9449
:103F6000AF08813011F480932621FF91EF91BF912A
:103F7000AF919F918F917F916F915F914F913F9101
:103F80002F910F900BBE0F900FBE0F901F901895A2
:103F90001F920F920FB60F9211240BB60F922F9310
:103FA0003F934F935F936F937F938F939F93AF93C1
:103FB000BF93EF93FF938091DB20882359F080918A
:103FC0000D2190910E210E94AF08811103C081E064
:103FD00080932621FF91EF91BF91AF919F918F9197
:103FE0007F916F915F914F913F912F910F900BBEF9
:103FF0000F900FBE0F901F9018951F920F920FB643
:104000000F9211240BB60F922F933F934F935F9310
:104010006F937F938F939F93AF93BF93EF93FF9390
:104020008091DB20882351F080910B2190910C210D
:104030000E94AF08813011F480932621FF91EF9107
:10404000BF91AF919F918F917F916F915F914F91B0
:104050003F912F910F900BBE0F900FBE0F901F90AE
:1040600018951F920F920FB60F9211240BB60F9254
:104070002F933F934F935F936F937F938F939F9370
:10408000AF93BF93EF93FF938091DB20882359F088
:1040900080910B2190910C210E94AF08811103C0E7
:1040A00081E080932621FF91EF91BF91AF919F9185
:1040B0008F917F916F915F914F913F912F910F90D1
:1040C0000BBE0F900FBE0F901F9018951F920F926E
:1040D0000FB60F9211240BB60F922F933F934F936D
:1040E0005F936F937F938F939F93AF93BF93EF9360
:1040F000FF9380910F21909110210E94C008FF91A1
:10410000EF91BF91AF919F918F917F916F915F914F
:104110004F913F912F910F900BBE0F900FBE0F90BC
:104120001F9018951F920F920FB60F9211240BB685
:104130000F922F933F934F935F936F937F938F9340
:104140009F93AF93BF93EF93FF9380910F21909133
:1041500010210E94B408FF91EF91BF91AF919F9100
:104160008F917F916F915F914F913F912F910F9020
:104170000BBE0F900FBE0F901F9018951F920F92BD
:104180000FB60F9211240BB60F922F933F934F93BC
:104190005F936F937F938F939F93AF93BF93EF93AF
:1041A000FF9380910D2190910E210E94C008FF91F4
:1041B000EF91BF91AF919F918F917F916F915F919F
:1041C0004F913F912F910F900BBE0F900FBE0F900C
:1041D0001F9018951F920F920FB60F9211240BB6D5
:1041E0000F922F933F934F935F936F937F938F9390
:1041F0009F93AF93BF93EF93FF9380910D21909185
:104200000E210E94B408FF91EF91BF91AF919F9151
:104210008F917F916F915F914F913F912F910F906F
:104220000BBE0F900FBE0F901F9018951F920F920C
:104230000FB60F9211240BB60F922F933F934F930B
:104240005F936F937F938F939F93AF93BF93EF93FE
:10425000FF9380910B2190910C210E94C008FF9147
:10426000EF91BF91AF919F918F917F916F915F91EE
:104270004F913F912F910F900BBE0F900FBE0F905B
:104280001F9018951F920F920FB60F9211240BB624
:104290000F922F933F934F935F936F937F938F93DF
:1042A0009F93AF93BF93EF93FF9380910B219091D6
:1042B0000C210E94B408FF91EF91BF91AF919F91A3
:1042C0008F917F916F915F914F913F912F910F90BF
:1042D0000BBE0F900FBE0F901F901895CF92DF92DC
:1042E000EF92FF920F931F93CF93DF93EC01862FF2
:1042F000680179014A835B8323E730E228833983AD
:1043000040E064E00E94C9258C839D83CE82DF82D9
:10431000E886F986DF91CF911F910F91FF90EF9082
:10432000DF90CF9008950F931F930AE010E020E0F4
:1043300030E040E050E062E38FE391E20E946E21C2
:104340000AE010E020E030E040E050E062E385E386
:1043500091E20E946E210AE010E020E030E040E0AF
:1043600050E062E38BE291E20E946E210AE010E0ED
:1043700020E030E040E050E060E270E08BEF90E25F
:104380000E942D2F0AE010E020E030E040E050E0F5
:1043900062E381EF90E20E946E210AE010E020E0EB
:1043A00030E040E050E062E387EE90E20E946E2150
:1043B0000AE010E020E030E040E050E062E38DED04
:1043C00090E20E946E211F910F9108950F931F9309
:1043D000CF93DF93EC010E945329809163218111D7
:1043E0001DC0A8E6B1E2ECE6F1E2ED93FC93119773
:1043F00012961D921C921397A4E6B1E28FEF9FE1F3
:1044000012968D939C9313971D921C921197828301
:104410009383A083B18381E080936321209709F483
:104420005FC09E012B5F3F4F2496CE3FDF4108F0D7
:104430005AC0E0916821F0916921A8E6B1E202C07A
:10444000DF01FC01828193818217930720F4808130
:1044500091810097A9F7C1E2E436FC0709F446C050
:10446000CD91DC9111978E010B5F1F4F808191815F
:104470008D939C9382819381821B930B8B3091054A
:1044800010F1BF01620F731FDB0112968D939C9395
:1044900013972283338312964D915C91139788E68C
:1044A00091E201C0CD01EC01A881B98112962D9154
:1044B0003C91139724173507A8F3EB01A883B98320
:1044C000DC016D937C9380910020909101202281EA
:1044D0003381821B930B809300209093012008C0AE
:1044E00000E010E005C000E010E002C000E010E0D5
:1044F0000E94702AC801DF91CF911F910F910895FA
:104500000F931F93CF93DF93009741F1EC018C0140
:10451000055011090E945329F80142815381A8E6F0
:10452000B1E201C0DF01ED91FC911197228133814D
:1045300024173507B8F32597E883F9830D931C9367
:1045400020910020309101208A819B81820F931F4E
:1045500080930020909301200E94702ADF91CF91D8
:104560001F910F910895FC010396818392834FEF71
:104570005FEFBA0143835483658376838783908793
:104580008187928710820895FC0112861386089510
:10459000CF93DF93FC01DB0121813281E9018C8122
:1045A0009D8114968D939C93159781819281169687
:1045B0008D939C9317978C819D81EC016E837F83F3
:1045C000E9016C837D83618372831A96ED93FC937A
:1045D0001B9780818F5F8083DF91CF9108950F9328
:1045E0001F93CF93DF93EB01088119812A813B81CF
:1045F0000F3F4FEF14072407340731F4DC011996FD
:10460000ED91FC911A971FC0FC013396DC011796BF
:104610004D915C911897DA014D915D916D917C916E
:10462000041715072607370770F00480F581E02D81
:10463000A481B5814D915D916D917C910417150711
:104640002607370790F7A481B581AC83BD83169602
:10465000CD93DC931797EE83FF83C483D5838A873A
:104660009B87FC0120812F5F2083DF91CF911F91D9
:104670000F910895FC01A481B581868197811696DA
:104680008D939C931797A681B78184819581149609
:104690008D939C931597A285B38511968D919C91CE
:1046A0001297E817F90731F48681978111968D9357
:1046B0009C931297128613868C9181508C93089547
:1046C0008093F3419093F44131E1FC0130833197C1
:1046D00022E220833197A3E3A0833197608331974F
:1046E00070833197108231971082319760E8608330
:1046F000319710823197108231971082319762E0A2
:104700006083319763E06083319764E06083319721
:1047100065E06083319766E06083319767E060838E
:10472000319768E06083319769E06083319760E199
:10473000608331973083319732E13083319733E1B1
:104740003083319734E13083319735E130833197CD
:1047500036E13083319737E13083319738E1308368
:10476000319739E13083319730E23083319731E24C
:10477000308331972083319723E220833197408320
:1047800031975083319726E22083319727E22083A7
:10479000319728E22083319729E22083319720E363
:1047A0002083319721E32083899708958CE78093B4
:1047B000690A8FEF8093680A81E08093400A81E163
:1047C0008093410A83E08093470AA091CB41B09146
:1047D000CC41CD91CDBFDD91DEBFFF91EF91DF9157
:1047E000CF91BF91AF919F918F917F916F915F9189
:1047F0004F913F912F911F910F91FF90EF90DF907C
:10480000CF90BF90AF909F908F907F906F905F9070
:104810004F903F902F901F900F900CBE0F900BBEAB
:104820000F900FBE0F90089581E008950F920FB67C
:10483000F8940F920BB60F920CB60F921F921124A0
:104840002F923F924F925F926F927F928F929F92A0
:10485000AF92BF92CF92DF92EF92FF920F931F938E
:104860002F933F934F935F936F937F938F939F9378
:10487000AF93BF93CF93DF93EF93FF93A091CB417F
:10488000B091CC410DB60D920EB60D920E948D2BBB
:10489000A091CB41B091CC41CD91CDBFDD91DEBF98
:1048A000FF91EF91DF91CF91BF91AF919F918F9148
:1048B0007F916F915F914F913F912F911F910F9138
:1048C000FF90EF90DF90CF90BF90AF909F908F9030
:1048D0007F906F905F904F903F902F901F900F9020
:1048E0000CBE0F900BBE0F900FBE0F9008950F924D
:1048F0000FB6F8940F920BB60F920CB60F921F9250
:1049000011242F923F924F925F926F927F928F92DB
:104910009F92AF92BF92CF92DF92EF92FF920F934E
:104920001F932F933F934F935F936F937F938F9337
:104930009F93AF93BF93CF93DF93EF93FF93A09198
:10494000CB41B091CC410DB60D920EB60D920E94A6
:104950006F290E948D2BA091CB41B091CC41CD917C
:10496000CDBFDD91DEBFFF91EF91DF91CF91BF9180
:10497000AF919F918F917F916F915F914F913F91F7
:104980002F911F910F91FF90EF90DF90CF90BF90EC
:10499000AF909F908F907F906F905F904F903F90DF
:1049A0002F901F900F900CBE0F900BBE0F900FBE5C
:1049B0000F9008950E9477241895CF93DF93EC0110
:1049C00088A181110BC088819981892BE1F58A81A9
:1049D0009B810E94482D1A821B8235C0411117C04D
:1049E000482F50E08C819D810E94433928A18C8101
:1049F0009D81820F911D8C839D832A813B8182172B
:104A0000930708F1888199818C839D831CC0482F6E
:104A100050E08E819F810E94433988A190E091955A
:104A2000819591092E813F81280F391F2E833F8365
:104A3000488159812417350730F42A813B81820F40
:104A4000931F8E839F838E8D8F5F8E8FDF91CF918B
:104A50000895FC01808191810097A1F040A150E070
:104A600026813781240F351F26833783A281B381A6
:104A70002A173B0710F086839783CB0166817781E5
:104A80000E94433908950F931F93CF93DF93EC0156
:104A90000FB6F8940F928AA11816B4F48B8981117D
:104AA00005C012C08B89811104C00EC08E010D5E3D
:104AB0001F4FC8010E94142C81110E94D12C8AA181
:104AC00081508AA3181674F38FEF8AA30F900FBE3C
:104AD0000FB6F8940F9289A11816B4F48885811145
:104AE00005C012C08885811104C00EC08E01085F08
:104AF0001F4FC8010E94142C81110E94D12C89A142
:104B0000815089A3181674F38FEF89A30F900FBEFD
:104B1000DF91CF911F910F9108951F93CF93DF9352
:104B2000613059F0FC012389308531112CC011E02E
:104B3000211110E0211128C001C011E0EC014881D1
:104B4000598128A130E06F8D629FC001639F900D55
:104B50001124BA01680F791F6A837B831E8E4C83F0
:104B60005D83821B930B840F951F8E839F838FEF32
:104B700089A38AA3CE0108960E94B322CE01439650
:104B80000E94B32201C010E0812FDF91CF911F91CD
:104B900008950F931F93CF93DF93882301F1062F7E
:104BA000182F83E290E00E94E621EC01892BC9F0E6
:104BB000109FC001112401960E94E62188839983E9
:104BC000892B39F01F8F08A361E0CE010E948D254B
:104BD00008C0CE010E948022C0E0D0E002C0C0E048
:104BE000D0E0CE01DF91CF911F910F910895AF9248
:104BF000BF92CF92DF92EF92FF920F931F93CF93CA
:104C0000DF93CDB7DEB72997CDBFDEBF7C015B0157
:104C10002E833F834887598710E06C0188E0C80ED7
:104C2000D11C0FB6F8940F92F701968D878D9817C7
:104C3000A8F4402FB501C7010E94DD24F701838944
:104C4000882341F0C70143960E94142C813011F44F
:104C50000E9416240F900FBE81E056C08E819F8166
:104C6000A885B985892B8A2B8B2B21F40F900FBE39
:104C700080E04AC0111105C0CE0101960E94532C5C
:104C800011E00F900FBE0E9453290FB6F8940F92B7
:104C9000F70181A18F3F09F411A2F70182A18F3F93
:104CA00009F412A20F900FBEBE016A5F7F4FCE01C2
:104CB00001960E94642C811121C00FB6F8940F92C6
:104CC000F701968D0F900FBE878D981311C04E81FE
:104CD0005F8168857985C6010E94EA2BC7010E9421
:104CE00043250E94702A81119CCF0E94162499CFDF
:104CF000C7010E9443250E94702A93CFC7010E94DA
:104D000043250E94702A80E02996CDBFDEBFDF9147
:104D1000CF911F910F91FF90EF90DF90CF90BF90B8
:104D2000AF9008950F931F93CF93DF938A01FC01F7
:104D3000568D378D5317C0F4422FEC010E94DD24AD
:104D40008AA18F3F69F48B89882381F0CE01439635
:104D50000E94142C882361F081E0F801808309C04F
:104D60008F5F8AA381E005C080E003C081E001C0BD
:104D700081E0DF91CF911F910F910895AF92BF9283
:104D8000CF92DF92EF92FF920F931F93CF93DF9317
:104D9000CDB7DEB72997CDBFDEBF7C015B012E8387
:104DA0003F834887598710E06C0183E1C80ED11C0E
:104DB0000FB6F8940F92F701868D882399F1C6807B
:104DC000D780B501C7010E94292501111AC0F7013A
:104DD000868D8150868F80819181892B29F40E9454
:104DE000EE2CF70182839383F70180858823B1F04D
:104DF000C70108960E94142C813081F40E94162469
:104E00000DC0F701C682D7828389882339F0C70194
:104E100043960E94142C81110E9416240F900FBEFD
:104E200081E062C08E819F81A885B985892B8A2BFC
:104E30008B2B21F40F900FBE80E056C0111105C0DE
:104E4000CE0101960E94532C11E00F900FBE0E94DC
:104E500053290FB6F8940F92F70181A18F3F09F4FF
:104E600011A2F70182A18F3F09F412A20F900FBE89
:104E7000BE016A5F7F4FCE0101960E94642C8111B2
:104E80002DC00FB6F8940F92F701868D0F900FBECC
:104E900081111EC080819181892B49F40FB6F8944D
:104EA0000F92828193810E94F32C0F900FBE4E814E
:104EB0005F8168857985C6010E94EA2BC7010E943F
:104EC00043250E94702A811173CF0E94162470CF4F
:104ED000C7010E9443250E94702A6ACFC7010E9421
:104EE00043250E94702A80E02996CDBFDEBFDF9166
:104EF000CF911F910F91FF90EF90DF90CF90BF90D7
:104F0000AF9008950F931F93CF93DF93FC01268DED
:104F10002223D9F08A01EC010E9429258E8D81502F
:104F20008E8F89A18F3F69F48885882381F0CE0117
:104F300008960E94142C882361F081E0F801808398
:104F400009C08F5F89A381E005C080E003C081E0D4
:104F500001C081E0DF91CF911F910F9108950FB6AD
:104F6000F8940F92FC01868D0F900FBE0895FC01FE
:104F7000868D0895CFE9D1E488818230E8F30E94DC
:104F80001624FACFCF92DF92EF92FF926B017C0151
:104F9000E091CB41F091CC4162837383848395830C
:104FA0008091734190917441A0917541B091764187
:104FB000C816D906EA06FB0668F46091CB417091E9
:104FC000CC4180918541909186416E5F7F4F0E94D8
:104FD000EF2221C06091CB417091CC4180918741FB
:104FE000909188416E5F7F4F0E94EF228091022056
:104FF00090910320A0910420B0910520C816D906F5
:10500000EA06FB0640F4C0920220D0920320E09210
:105010000420F0920520FF90EF90DF90CF9008954C
:105020004F925F926F927F928F929F92AF92BF92B8
:10503000CF92DF92EF92FF920F931F93CF93DF9364
:105040005C014B013A01290188E290E00E94E621CF
:10505000EC01892B09F4D4C0C114D10409F0CCC0EF
:10506000C3010E94E6218B8F9C8F009721F4CE0113
:105070000E948022C5C0A30161E170E00E944C390A
:105080009301215031098B8D9C8D3C01620E731E62
:105090004AE050E0B401CE014D960E9453391EA261
:1050A000102F043008F013E01A8F1FA36E0122E0C6
:1050B000C20ED11CC6010E94C422CE010E960E94CF
:1050C000C422CA87DB8784E090E0A0E0B0E0811BC7
:1050D0009109A109B1098E879F87A88BB98BCE8BC7
:1050E000DF8BA201B501C3010E94602388839983ED
:1050F000E114F10419F0F701C083D1830FB6F894DD
:105100000F92809177418F5F809377418091CB415F
:105110009091CC41892B89F5C093CB41D093CC4160
:10512000809177418130C1F58FE991E40E94B322EB
:105130008AEA91E40E94B32285EB91E40E94B322B3
:1051400080EC91E40E94B32284E991E40E94B322AE
:1051500089E891E40E94B3228AE791E40E94B32295
:1051600084E991E4809387419093884189E891E4B0
:1051700080938541909386410FC080917041811149
:105180000BC0E091CB41F091CC41828D081720F00B
:10519000C093CB41D093CC418A8D909172419817A6
:1051A00010F48093724190916B419F5F90936B419B
:1051B00090917141981710F480937141FBE08F9F9B
:1051C000C0011124B60181569E4B0E94C8220F9047
:1051D0000FBE80917041882359F0E091CB41F0914E
:1051E000CC41828D801730F40E94162481E009C0E2
:1051F00081E007C081E005C0CB8EDC8EC6013BCFCD
:105200008FEFDF91CF911F910F91FF90EF90DF9083
:10521000CF90BF90AF909F908F907F906F905F9056
:105220004F9008950FB6F8940F92009721F4809153
:10523000CB419091CC410F900FBEFC01828D08951F
:10524000AF92BF92CF92DF92EF92FF920F93A12C79
:10525000B12CC12CD12C0F2EF8E7EF2EF1E4FF2E4C
:10526000F02D00E020E030E044E650E063E970E239
:105270008AEB97E20E941028813069F4F8948093B9
:1052800070411092734110927441109275411092C6
:1052900076410E94D6230F91FF90EF90DF90CF9040
:1052A000BF90AF90089580916F418F5F80936F4161
:1052B00008950FB6F8940F92609173417091744104
:1052C00080917541909176410F900FBE089500979F
:1052D00021F48091CB419091CC414D960895FF925D
:1052E0000F931F93CF93DF9380916F418111EDC096
:1052F0008091734190917441A0917541B091764134
:105300000196A11DB11D8093734190937441A093A8
:105310007541B09376418091734190917441A09111
:105320007541B0917641892B8A2B8B2BF1F58091B9
:105330008741909188412091854130918641209309
:105340008741309388418093854190938641809135
:105350006C418F5F80936C41E0918741F09188416F
:10536000808181110CC08FEF9FEFDC0180930220C0
:1053700090930320A0930420B093052016C0E091E1
:105380008741F09188410780F085E02D0084F18508
:10539000E02D82819381A481B58180930220909336
:1053A0000320A0930420B0930520409173415091B5
:1053B0007441609175417091764180910220909185
:1053C0000320A0910420B0910520481759076A07CF
:1053D0007B0708F47FC0E0918741F091884180818C
:1053E0008823F9F0E0918741F09188410780F085AA
:1053F000E02DC085D1858A819B81AC81BD814091A2
:105400007341509174416091754170917641481794
:1054100059076A077B0758F10F2EFBE0FF2EF02D8E
:105420002FC08FEF9FEFDC01809302209093032029
:10543000A0930420B09305204DC0E0918741F091E6
:1054400088410780F085E02DC085D1858A819B81C8
:10545000AC81BD814091734150917441609175411F
:1054600070917641481759076A077B0748F4809383
:10547000022090930320A0930420B09305202AC01B
:105480008E010E5F1F4FC8010E943A23888D998DAF
:10549000892B21F0CE010E960E943A238A8D90919D
:1054A0007141981710F480937141F89EC001112446
:1054B000B80181569E4B0E94C822E0918741F0912D
:1054C000884180818111B9CFACCF80916E418F5FCF
:1054D00080936E41DF91CF911F910F91FF900895BE
:1054E000CF92DF92EF92FF920F931F93CF93DF93B0
:1054F0000FB6F8940F9280916F41815080936F4165
:1055000080916F41811160C08091774181112CC0E1
:105510005EC0D7011796ED91FC911897C085D18593
:10552000CE010E960E943A238E010E5F1F4FC801D6
:105530000E943A238A8D90917141981710F48093BC
:105540007141D89EC0011124B80181569E4B0E9422
:10555000C822E091CB41F091CC419A8D828D981771
:1055600070F0CC24C3940BC0C12C0F2EFAE7EF2EA1
:10557000F1E4FF2EF02D0F2EFBE0DF2EF02DF701D2
:1055800080818111C6CF80916E41882381F0809106
:105590006E41882399F00E946F2980916E4181505D
:1055A00080936E4180916E418111F5CF07C0F1E08B
:1055B000CF1621F080916D41813041F410926D4100
:1055C0000E94162481E003C080E001C080E00F90BB
:1055D0000FBEDF91CF911F910F91FF90EF90DF9061
:1055E000CF900895CF92DF92EF92FF92CF93DF9307
:1055F000EC016A017B010E94532988819981AA816B
:10560000BB81C80ED91EEA1EFB1E4091734150910A
:1056100074416091754170917641481759076A0746
:105620007B07B8F4C816D906EA06FB06E0F58091B8
:10563000734190917441A0917541B0917641C882B7
:10564000D982EA82FB828C159D05AE05BF05F8F470
:1056500013C0C816D906EA06FB0600F18091734113
:1056600090917441A0917541B09176418C159D0542
:10567000AE05BF0598F017C08091CB419091CC4109
:1056800002960E943A23C701B6010E94C2270E94D7
:10569000702A81110DC00E9416240AC0C882D982C6
:1056A000EA82FB82E9CFC882D982EA82FB82EFCF0D
:1056B000DF91CF91FF90EF90DF90CF900895CF9240
:1056C000DF92EF92FF926B017C01672B682B692BB5
:1056D000E9F00E9453298091734190917441A09107
:1056E0007541B0917641C80ED91EEA1EFB1E80910D
:1056F000CB419091CC4102960E943A23C701B6015A
:105700000E94C2270E94702A811102C00E941624A2
:10571000FF90EF90DF90CF90089580916F418111BD
:105720000CC0E09171414BE0E49FF0011124E1567F
:10573000FE4B8081882329F014C081E080936D4165
:1057400008959BE080917141815080937141E09177
:1057500071419E9FF0011124E156FE4B8081882308
:1057600089F380917141282F30E04BE0849FC00184
:105770001124DC01A156BE4B1196ED91FC911297BC
:105780000480F581E02D1196ED93FC9312978E55D0
:105790009E4BE817F90761F4848195814BE0429FA5
:1057A000F001439FF00D1124E156FE4B818392835B
:1057B0008BE0829FF001839FF00D1124E156FE4B98
:1057C0000180F281E02D808591858093CB4190937B
:1057D000CC410895CF92DF92EF92FF926A017B0154
:1057E0006091CB417091CC41625F7F4F0E94EF226C
:1057F0008091CB419091CC4102960E943A238091B6
:10580000734190917441A0917541B0917641BC0172
:10581000CD016C0D7D1D8E1D9F1D0E94C227FF9026
:10582000EF90DF90CF9008950F931F93CF93DF9366
:10583000DC011796ED91FC911897C085D1858E01FA
:10584000025F1F4FC8010E943A2380916F4181116E
:1058500016C00C501109C8010E943A238A8D9091FC
:105860007141981710F480937141BBE08B9FC00188
:105870001124B80181569E4B0E94C82205C0B80170
:105880008AE791E40E94C822E091CB41F091CC419B
:1058900081E02A8D928D291708F480E0DF91CF9165
:1058A0001F910F91089520916C41FC01208340913C
:1058B000734150917441609175417091764141837B
:1058C00052836383748308958F929F92AF92BF92A5
:1058D000CF92DF92EF92FF920F931F93CF93DF93BC
:1058E000FC010FB6F8940F9280916C41908198174B
:1058F00089F08091734190917441A0917541B0916C
:105900007641018112812381348180179107A2079A
:10591000B307A8F58091734190917441A0917541AE
:10592000B0917641C180D280E380F480EB010881A0
:1059300019812A813B818C199D09AE09BF09801705
:105940009107A207B307E8F4CF01809073419090CC
:105950007441A0907541B0907641B501A4014C19F5
:105960005D096E097F09041B150B260B370B088395
:1059700019832A833B830E94532C80E003C081E07B
:1059800001C081E00F900FBEDF91CF911F910F9169
:10599000FF90EF90DF90CF90BF90AF909F908F904F
:1059A000089581E080936D410895009721F48091DE
:1059B000CB419091CC41DC015B96ED91FC915C97E1
:1059C0008081813141F4319680E090E0019621910F
:1059D0002131E1F3089580E090E008958091CB417A
:1059E0009091CC4108950F931F93CF93DF93FC01C7
:1059F000228DA091CB41B091CC415A968C91281721
:105A000008F041C0A091CB41B091CC415A963C9155
:105A100084E090E0A0E0B0E0831B9109A109B10906
:105A200086879787A08BB18B8BE0289F90011124EC
:105A300021563E4B8485958582179307E9F48F01A3
:105A4000EF012296CE010E943A23E091CB41F091E2
:105A5000CC41828DF801828F90917141981710F49A
:105A600080937141FBE08F9FC0011124BE018156DC
:105A70009E4B0E94C82207C0A091CB41B091CC415F
:105A80005A968C91828FDF91CF911F910F9108953B
:105A90000F931F93CF93DF93009749F1FC01328D51
:105AA00027A1321721F1EC018C010E5F1F4FC801B5
:105AB0000E943A238FA18A8F44E050E060E070E0BA
:105AC000481B5109610971094E875F87688B798B83
:105AD00090917141981710F480937141FBE08F9F72
