:100000000C941D070C944E070C944E070C944E074D
:100010000C944E070C944E070C944E070C944E070C
:100020000C944E070C944E070C944E070C944E07FC
:100030000C944E070C944E070C9401180C944E0728
:100040000C94D0170C944E070C944E070C944E074A
:100050000C944E070C944E070C944E070C944E07CC
:100060000C944E070C94832A0C944E070C944E0764
:100070000C94DB2A0C944E070C944E070C944E07FC
:100080000C944E070C944E070C944E070C944E079C
:100090000C944E070C944E070C944E070C944E078C
:1000A0000C944E070C944E070C944E070C940E16AD
:1000B0000C944D160C944E070C944E070C944E075E
:1000C0000C944E070C944E070C944E070C944E075C
:1000D0000C944E070C944E070C944E070C949E1BE8
:1000E0000C944E070C944E070C94E32B0C944E0783
:1000F0000C944E070C944E070C944E070C944E072C
:100100000C944E070C944E070C948F150C94CE153E
:100110000C944E070C944E070C944E070C944E070B
:100120000C944E070C944E070C944E070C944E07FB
:100130000C944E070C949F170C944E070C944E078A
:100140000C944E070C944E070C946E170C943D17AC
:100150000C944E070C940C170C944E070C944E07FD
:100160000C94332B0C944E070C944E070C948B2B51
:100170000C944E070C944E070C944E070C944E07AB
:100180000C944E070C944E070C944E070C944E079B
:100190000C944E070C944E070C944E070C944E078B
:1001A0000C948D160C94CC160C944E070C944E07A0
:1001B0000C944E070C944E070C944E070C944E076B
:1001C0000C944E070C944E070C944E070C944E075B
:1001D0000C944E070C944E070C944E070C943B2C39
:1001E0000C944E070C944E070C944E070C944E073B
:1001F0000C944E070C944E070C944E07E50C951288
:100200005C0D730D190D951295129512450D9512F1
:100210009512951295129512030D8F0D9512810D61
:10022000860DC50E951295129512E70EF50E010F6B
:100230000D0F190F250F310F3D0F490F550F951257
:100240009512951295129512951295129512951276
:100250009512951295129512951295129512951266
:100260009512951295129512951295129512951256
:100270009512951295129512951295129512951246
:100280009512951295129512951295124B0E951284
:1002900095129512DF0D9512B30E951295129512C7
:1002A0009512951295129512951295129512DA0DD6
:1002B00095129512951295129512620E7D0E980E5A
:1002C000C40FD10F95129512951295129512951291
:1002D00095129512951295129512FB0F25109512F5
:1002E000951295129512B20FB80FBE0F8711951285
:1002F00095129512FD110912151221122D123912A3
:10030000451251125D1269129512951295129512AD
:1003100095129512951295129512951295129512A5
:100320009512951295129512951295129512951295
:100330009512951295129512951295129512951285
:100340009512951295129512951295129512951275
:100350009512951295120D11951295129512EE1097
:100360009512951295129512951295129512951255
:10037000E3119512951295129512CB119512B111A8
:100380007F1095129710B410D11027272A272D27F8
:100390003027332736273827492751275B27592706
:1003A0000C94A4130C9433270C942D270C949512C1
:1003B0000C942D120C94E1120C94AA250C94CC12DE
:1003C0000C94B80F0C9435130C9436270C94B20F80
:1003D0000C94B4100C94D2260C94E3110C94C82500
:1003E0000C947D0E0C94730D0C945C0D0C94E50C28
:1003F0000C942A270C9438270C94C40F0C94030DEA
:100400000C94860D0C948C290C94620E0C94D629B5
:100410000C94CC260C94DA0D0C9427270C94B01273
:100420000C94F50E0C9497100C9457180C940B1315
:100430000C9426260C940D110C94B1110C943208D6
:100440000C94FD110C945B270C94C50E0C943D0F7D
:100450000C94D7120C94BB120C94D10F0C94492716
:100460000C941A070C94DF0D0C941A250C94E70ECB
:100470000C94ED120C94AF080C9409120C947A139E
:100480000C94BE0F0C9446130C94C5120C94190DC9
:100490000C94B0290C9425100C94310F0C94D12697
:1004A0000C94450D0C9451120C9421120C9445128D
:1004B0000C94A9120C948F0D0C9439120C941713F0
:1004C0000C94720C0C94980E0C9415120C94010F51
:1004D0000C94E9290C9451270C947F100C947E1EE7
:1004E0000C94B30E0C94190F0C9469120C945D12B9
:1004F0000C9459270C94D3250C94CF260C94CB1133
:100500000C94D1100C94EE100C94CA260C94871104
:100510000C9430270C9462130C94550F0C94810D9D
:100520000C940D0F0C94250F0C94490F0C94FB0F99
:100530000C944B0E0C94921300407A10F35A00A0C6
:10054000724E18090010A5D4E80000E8764817009C
:1005500000E40B54020000CA9A3B000000E1F505DC
:10056000000080969800000040420F000000A08626
:1005700001000000102700000000E8030000000058
:100580006400000000000A000000000001000000FC
:1005900000002C76D888DC674F0823DFC1DFAE5916
:1005A000E1B1B796E5E3E453C63AE651997696E8A9
:1005B000E6C28426EB898C9B62ED407C6FFCEFBC2D
:1005C0009C9F40F2BAA56FA5F490055A2AF75C9358
:1005D0006B6CF9676DC11BFCE0E40D47FEF520E68E
:1005E000B500D0ED902E0300943577050080841E71
:1005F000080000204E0A000000C80C333333330FCC
:10060000986E12831141EF8D2114893BE65516CF68
:10061000FEE6DB18D1844B381BF77C1D901DA4BB74
:10062000E424203284725E228100C9F124ECA1E529
:100630003D27526573657474696E672064657669D9
:1006400063652E006D563A0048463A004300526FEB
:100650007574696E6520636F6D706C6574652E00CE
:100660006D563A0048463A0053656E736F722052D9
:10067000656164696E6720002C2054434330434316
:10068000413D002F002C2048656170206672656531
:100690003A200054696D653A20004F63742031316F
:1006A0002032303138004D45343035206261736579
:1006B00020726164696F2070726F6772616D20567D
:1006C000302E34200020202020683A20202048416D
:1006D0004C50210020202020653A202020457869B8
:1006E0007420636F6D6D616E64206D6F64650020B2
:1006F000202020733A202020537461636B2064759E
:100700006D7020666F72207461736B7300202020FF
:1007100020763A20202056657273696F6E20616ED4
:100720006420736574757020696E666F726D617494
:10073000696F6E00202020206E3A20202053686FC1
:1007400077207468652074696D65207269676874C4
:10075000206E6F77002020496E20636F6D6D616E93
:1007600064206D6F6465206F6E6C793A00202043C1
:10077000746C2D413A20456E74657220636F6D6D07
:10078000616E64206D6F646500202043746C2D439E
:100790003A20526573657420746865204156520092
:1007A0002068656C70004D4534303520626173659A
:1007B00020726164696F2070726F6772616D20567C
:1007C000302E3420001B5B33306D001B5B34366DE4
:1007D00000496C6C6567616C2073746174652120DD
:1007E000526573657474696E672041565200536593
:1007F0006E736F722073616D706C652073697A65BA
:100800002073657420746F3A0053656E736F7220A5
:1008100064656C61792073657420746F3A004D696A
:1008200063726F73746570207363616C657220739B
:10083000657420746F3A00436F6E66696720656E59
:1008400074657265643A004C656176696E67206311
:100850006F6E666967206D6F6465005A2D617869F7
:1008600073206D61782076656C6F6369747920738D
:10087000657420746F3A00592D61786973206D6139
:10088000782076656C6F6369747920736574207461
:100890006F3A00582D61786973206D617820766514
:1008A0006C6F636974792073657420746F3A004DBE
:1008B00061782076656C6F63697479207365742044
:1008C000746F3A00506C656173652063686F6F7375
:1008D0006520746865206D6F746F7220796F752064
:1008E000776F756C64206C696B6520746F20636F23
:1008F0006E74726F6C2E00506C6561736520636856
:100900006F6F736520746865206D6F746F722079E6
:100910006F7520776F756C64206C696B6520746FE0
:1009200020636F6E74726F6C2E00506C656173651E
:100930002063686F6F736520746865206D6F746FD6
:100940007220796F7520776F756C64206C696B65A8
:1009500020746F20636F6E74726F6C2E005265632B
:10096000656976696E67205A2D6C6F636174696F73
:100970006E732E00526563656976696E6720592D26
:100980006C6F636174696F6E732E00526563656985
:1009900076696E6720582D6C6F636174696F6E7332
:1009A0002E004572726F723A20556E657175616CDA
:1009B000206178697320636F6F7264696E6174651A
:1009C00020766563746F72732E00546F74616C20AF
:1009D0006E6F6465733A2000456E746572696E6768
:1009E00020636F6E666967206D6F64650052657382
:1009F000657474696E67206465766963652E00505E
:100A000072657373204374726C2D5320746F20735E
:100A1000746F702E005072657373204374726C2D66
:100A20005220746F20616374697661746520726509
:100A300076657273652E005072657373204374720D
:100A40006C2D4620746F2061637469766174652033
:100A5000666F72776172642E005072657373204303
:100A600074726C2D5A20666F72205A2D4D6F746F00
:100A70007220636F6D6D616E64732E0050726573CA
:100A800073204374726C2D5920666F7220592D4D5E
:100A90006F746F7220636F6D6D616E64732E0050A2
:100AA00072657373204374726C2D5820666F7220C8
:100AB000582D4D6F746F7220636F6D6D616E64732E
:100AC0002E00456E746572696E67204469726563B5
:100AD00074204F7065726174696F6E204D6F64652C
:100AE0002E005072657373204520746F20726574F8
:100AF00075726E20746F20746865206D61696E2058
:100B00006D656E752E005072657373205220746F80
:100B10002072657365742074686520646576696306
:100B2000652E005072657373204720746F207275B4
:100B30006E20746865206465766963652E00507266
:100B4000657373205A20746F20656E746572205A25
:100B50002D636F6F7264696E617465732E005072DD
:100B6000657373205920746F20656E746572205907
:100B70002D636F6F7264696E617465732E005072BD
:100B8000657373205820746F20656E7465722058E9
:100B90002D636F6F7264696E617465732E00456EAC
:100BA000746572696E6720436F6F7264696E6174F9
:100BB00065204D6F64652E0050726573732045206B
:100BC000746F2072657475726E20746F207468651E
:100BD000206D61696E206D656E752E0050726573B3
:100BE00073205220746F2072657365742074686579
:100BF000206465766963652E005072657373205AB0
:100C000020746F2072657475726E2074686520643C
:100C1000657669636520746F20746865206F7269FA
:100C200067696E2E005072657373205320746F20B5
:100C30006368616E676520746865206465666175C8
:100C40006C742073656E736F722072656164696E77
:100C5000672064656C61792074696D652E0050723F
:100C6000657373205520746F206368616E6765201B
:100C70007468652064656661756C74206D6F746F4F
:100C800072206D6963726F73746570207363616C39
:100C900065722E00456E746572696E6720436F6ED3
:100CA00066696775726174696F6E204D6F64652E39
:100CB000005072657373205220746F2072657365E3
:100CC0007420746865206465766963652E005072CF
:100CD000657373204420666F722044697265637483
:100CE000204F7065726174696F6E204D6F64652E60
:100CF000005072657373204320666F7220436F6FDC
:100D00007264696E617465204D6F64652E00507267
:100D1000657373204120666F7220436F6E6669674A
:100D200075726174696F6E204D6F64652E00576532
:100D30006C636F6D6520746F2074686520557365F2
:100D40007220496E74657266616365206D61696EBB
:100D5000206D656E75206F662074686520334420B1
:100D60004865617420466C75782043616C696272D5
:100D700061746F722E00526573657474696E6700DA
:100D80004552524F5220696E207461736B200045AA
:100D900052524F52206372656174696E67207461AC
:100DA000736B20002C20737461636B20617420309E
:100DB00078002063726561746564005461736B2010
:100DC000000909002F0049444C45090930092D0943
:100DD00000092D2D2D2D00092D2D2D2D2D2D2D2DE5
:100DE0002D2D002D2D2D2D09092D2D2D2D092D2DCC
:100DF0002D2D2D000952756E730009467265652F01
:100E0000546F74616C004E616D6509095072692EF2
:100E10000953746174650009537461636B00546114
:100E2000736B09092020092000090009002F00091F
:100E3000000900000E944024571811241FBECFEF64
:100E4000CDBFDFE5DEBF00E00CBF10E2A0E0B0E206
:100E5000EEE2F0E600E00BBF02C007900D92A63D67
:100E6000B107D9F721E4A6EDB0E201C01D92A33F7E
:100E7000B207E1F717E0CDE1D7E000E006C0219727
:100E80000109802FFE010E948F2ECC31D10780E016
:100E90000807A9F70E94CB130C9415300C9400009E
:100EA000CF93DF93EC01E881F9810684F785E02D8B
:100EB0001995813059F4E881F9810680F781E02D98
:100EC000CE0119951A821B821C821D82DF91CF915F
:100ED0000895CF93DF93EC01E881F9810684F785CB
:100EE000E02D1995811107C0E881F9810680F7810D
:100EF000E02DCE011995DF91CF910895BC01645F7B
:100F00007F4F48EE53E0FC01808191810E94F00701
:100F10000895CF92DF92EF92FF920F931F93CF939A
:100F2000DF93EC010E947E070C851D8588819981E5
:100F30000E942C086B017C01B801110F880B990BE2
:100F40000E94742DA70196010E94002E6B017C0166
:100F500020E030E040E055E46A897B898C899D89F6
:100F60000E94002E9B01AC01C701B6010E94002D1A
:100F70006A837B838C839D83DF91CF911F910F9137
:100F8000FF90EF90DF90CF900895CF93DF93EC0127
:100F90000E94890720E030E04AE754E46A817B81BF
:100FA0008C819D810E94002E22E538EB4EEF5FE39D
:100FB0000E94002E2DEC3CEC4CEF50E40E94942C4F
:100FC0006E837F8388879987DF91CF910895DC01B5
:100FD0001696ED91FC91179780A1806880A30895E3
:100FE000EF92FF920F931F93CF93DF931F921F9265
:100FF000CDB7DEB78C017B0149835A830E94E70796
:1010000089819A81019789839A83892BB9F0D801C4
:101010001696ED91FC91179783A180FFF1CF0EC03A
:10102000D8011696ED91FC91179784A195A1F7012F
:101030008083918381E007C080E005C089819A8127
:10104000892B71F7F9CF0F900F90DF91CF911F91FE
:101050000F91FF90EF900895FC016281738184816C
:1010600095810895EC018E859F85A889B98901969F
:10107000A11DB11D8E879F87A88BB98B64E170E09D
:1010800080E090E00E942322EECF2F923F924F9279
:101090005F926F927F928F929F92AF92BF92CF9208
:1010A000DF92EF92FF920F931F93CF93DF93CDB711
:1010B000DEB73C012B012C8C3D8C0E9453248BE02D
:1010C00090E2F30180839183E28AF38AC48AD58A0D
:1010D000A68AB78A86A297A28A8D9B8D82AB93AB94
:1010E000888D998D86AB97AB8E899F8986AF97AF98
:1010F000EA5BFF4F20823182329640825182B101F9
:1011000080E090E00E94722D20E030E046E154E45F
:101110000E94002E9B01AC01F30160A771A782A77A
:1011200093A760E070E080E89FE30E94002DF30148
:1011300064A775A786A797A7DF91CF911F910F91FD
:10114000FF90EF90DF90CF90BF90AF909F908F90E7
:101150007F906F905F904F903F902F900895CF9326
:10116000DF9300D01F92CDB7DEB78C01FC01158E46
:10117000168E178E10A2118E128E138E148E0FB62D
:10118000F8940F9210925D210F900FBEDD24D3943E
:10119000F8018485813009F44BC038F0823009F4BD
:1011A00013C1833009F438C2DFC20FB6F8940F922E
:1011B0000F900FBE80915821882371F0F801118E95
:1011C000128E138E148E158E168E178E10A263E05B
:1011D000C8010E944F24C8C20FB6F8940F920F9016
:1011E0000FBE8091DB20811113C00FB6F8940F92CF
:1011F0000F900FBE8091D92081110AC00FB6F894CC
:101200000F920F900FBE80912321882309F4ACC266
:10121000F801118E128E138E148E158E168E178E67
:1012200010A2158A168A6D2DC8010E944F249CC2F7
:101230000FB6F8940F920F900FBE80916021882313
:1012400009F492C20FB6F8940F920F900FBE8091DE
:101250005F21882309F488C20FB6F8940F920F908B
:101260000FBE80915E21882309F47EC20FB6F894E8
:101270000F920F900FBE8091D920882309F42FC0C0
:101280000FB6F8940F921092D9200F900FBE0FB6A0
:10129000F8940F92D0924A210F900FBE0FB6F89497
:1012A0000F92109258210F900FBE0FB6F8940F9224
:1012B000109260210F900FBE0FB6F8940F9210920B
:1012C0005F210F900FBE0FB6F8940F9210925E211F
:1012D0000F900FBE60E0C8010E944F2445C20FB6B8
:1012E000F8940F92D09258210F900FBE0FB6F89439
:1012F0000F9240904F21509050216090512170905A
:1013000052210F900FBEF801E588F688FFEFEF1A23
:10131000FF0AF801E58AF68A6AE0868197810E94D1
:1013200018275C0168E676E00E94E126B701C50156
:101330000E9496287C016FE070E20E94E126B301D2
:10134000A201C7010E94CA287C016AE170E20E94E2
:10135000E12666E0C7010E941827F80182898F5FA5
:10136000828B0E941D2069837A838B839C830FB6B6
:10137000F8940F920F900FBE20914F213091502181
:101380004091512150915221A8EEB3E00E94A62E27
:10139000683EF3E07F078105910548F028EE33E0D1
:1013A00040E050E00E946D2EBA01A90104C041E066
:1013B00050E060E070E0CE0101960E94B62162E04C
:1013C000C8010E944F24D0C10FB6F8940F926091CB
:1013D00054217091552180915621909157210F9061
:1013E0000FBEF801458C568C678C70A046165706C8
:1013F00068067906F0F4838994890E94C5079B01E9
:10140000AC01F801618D728D838D948D0E94942CB6
:10141000F801618F728F838F948F858D968DA78D44
:10142000B0A10196A11DB11D858F968FA78FB0A386
:101430009BC10FB6F8940F920F900FBE0E94722DB1
:101440009B01AC01F801618D728D838D948D0E949A
:10145000002D2B013C010FB6F8940F926093592197
:1014600070935A2180935B2190935C210F900FBE63
:101470000FB6F8940F920F900FBE6AE0F8018681C4
:1014800097810E9418277C0164E676E00E94E1269D
:101490002DE73FE349EC50E4C301B2010E94002E66
:1014A000AB01BC01C7010E94E92766E00E94182732
:1014B0000FB6F8940F924090592150905A216090A5
:1014C0005B2170905C210F900FBE6AE0F80186816D
:1014D00097810E9418277C0160E676E00E94E12651
:1014E000B301A201C7010E945F2766E00E9418278E
:1014F000F801118E128E138E148E158E168E178E85
:1015000010A20FB6F8940F920F900FBE20914821B1
:1015100030914921858996898217930708F028C060
:101520000FB6F8940F92D0924A210F900FBE0FB6CB
:10153000F8940F92109258210F900FBE0FB6F894A6
:101540000F92109260210F900FBE0FB6F8940F9279
:1015500010925F210F900FBE0FB6F8940F92109269
:101560005E210F900FBE6D2DC8010E944F24FCC05C
:101570006AE0F801868197810E9418277C016EE459
:1015800076E00E94E12666E0C7010E94182760E02D
:10159000C8010E944F240FB6F8940F921092DB20DE
:1015A0000F900FBE0FB6F8940F92109223210F9058
:1015B0000FBE6AE0F801868197810E9418277C019E
:1015C0006CE476E00E94E12666E0C7010E941827DD
:1015D0000FB6F8940F9210924A210F900FBE0FB6DB
:1015E000F8940F92109258210F900FBE0FB6F894F6
:1015F0000F92109260210F900FBE0FB6F8940F92C9
:1016000010925F210F900FBE0FB6F8940F921092B8
:101610005E210F900FBEA8C00FB6F8940F92609194
:1016200054217091552180915621909157210F900E
:101630000FBEF801458C568C678C70A04616570675
:1016400068067906F0F4838994890E94C5079B0196
:10165000AC01F801618D728D838D948D0E94942C64
:10166000F801618F728F838F948F858D968DA78DF2
:10167000B0A10196A11DB11D858F968FA78FB0A334
:1016800073C00FB6F8940F920F900FBE0E94722D88
:101690009B01AC01F801618D728D838D948D0E9448
:1016A000002D2B013C010FB6F8940F926093592145
:1016B00070935A2180935B2190935C210F900FBE11
:1016C0000FB6F8940F920F900FBE6AE0F801868172
:1016D00097810E9418277C0168E476E00E94E12649
:1016E0002DE73FE349EC50E4C301B2010E94002E14
:1016F000AB01BC01C7010E94E92766E00E941827E0
:101700000FB6F8940F924090592150905A21609052
:101710005B2170905C210F900FBE6AE0F80186811A
:1017200097810E9418277C0164E476E00E94E126FC
:10173000B301A201C7010E945F2766E00E9418273B
:10174000F801118E128E138E148E158E168E178E32
:1017500010A20FB6F8940F92109258210F900FBE5E
:1017600060E0C8010E944F24F80186859785A08912
:10177000B1890196A11DB11D86879787A08BB18B7A
:1017800061E070E080E090E00E94232201CDCF92E2
:10179000DF92EF92FF920F931F93CF93DF93EC01B1
:1017A0006B010E94532483E290E288839983EB8A41
:1017B000FC8AC9A2DAA2DF91CF911F910F91FF900D
:1017C000EF90DF90CF900895EF92FF920F931F93C9
:1017D000CF93DF93EC017B010E9453248BE290E2D4
:1017E00088839983FE01E05EFE4FE082F182CE5E47
:1017F000DE4F1882DF91CF911F910F91FF90EF90F4
:101800000895BF92CF92DF92EF92FF920F931F93B2
:10181000CF93DF93FC01DC01AE5EBE4F2C9130E034
:101820002150310912161306A4F540E050E0B12C06
:1018300060E070E0CB01DC01CB01880F991FAA1F8B
:10184000BB1F6C017D01CC0CDD1CEE1CFF1CCC0C05
:10185000DD1CEE1CFF1C8C0D9D1DAE1DBF1D4E0F13
:101860005F1FEA014A8950E040535109052E000CE0
:10187000660B770B7A018B01E80EF91E0A1F1B1FFE
:10188000C801B701B3944B2D50E0421753079CF2A7
:1018900003C060E070E0CB01DF91CF911F910F9109
:1018A000FF90EF90DF90CF90BF9008956AE0FC0129
:1018B000868197810E941827EC016DEE79E00E94E5
:1018C000E12666E0CE010E94182793E088ED08B675
:1018D00018BE84BF909380008091820081FDFCCF70
:1018E00008BEFFCFCF93DF9300D000D0CDB7DEB7D7
:1018F00089839A838C010E5E1E4F7C018DEEE81A5F
:101900008EEFF80A89809A8099EE891A9EEF990ADB
:10191000A980BA80A3EEAA1AAEEFBA0A69807A80CB
:10192000B7EE6B1ABEEF7B0A49805A80E5EE4E1A7D
:10193000EEEF5E0A29803A80FEED2F1AFEEF3F0A95
:1019400089819A818D839E83AD81BE811C968C9105
:101950001C97813009F4FDC038F0823009F4CFC201
:10196000833009F49BC3C1C5ED81FE8186819781D7
:10197000DC01ED91FC910480F581E02D199588231F
:1019800009F4D3C5ED81FE8186819781DC01ED915B
:10199000FC910680F781E02D1995F8012081ED81F9
:1019A000FE81E20FF11D828B2F5FD8012C939927C6
:1019B000FC01E156F109E331F10508F0B6C58827CD
:1019C000E250FF4F8F4F0C948F2E0FB6F8940F926A
:1019D00081E08093DC200F900FBE6AE0ED81FE81F4
:1019E000868197810E9418276C0168ED79E00E943A
:1019F000E12666E0C6010E94182763E08D819E8182
:101A00000E944F2492C50FB6F8940F921092D820DE
:101A10000F900FBE0FB6F8940F921092D7200F9030
:101A20000FBE0FB6F8940F921092D6200F900FBEF3
:101A30007CC50FB6F8940F9281E0809323210F901C
:101A40000FBE0FB6F8940F9210924F2110925021B2
:101A500010925121109252210F900FBE0FB6F894A0
:101A60000F9281E090E0A0E0B0E080935421909349
:101A70005521A0935621B09357210F900FBE61E0DE
:101A80008D819E810E944F2450C50FB6F8940F920D
:101A90000F900FBE8091D920811147C50FB6F894E1
:101AA0000F9281E08093D9200F900FBE61E08D816D
:101AB0009E810E944F2439C50FB6F8940F920F9063
:101AC0000FBE8091DB20811130C50FB6F8940F92C4
:101AD00081E08093DB200F900FBE61E08D819E81BD
:101AE0000E944F2422C50FB6F8940F9281E0809394
:101AF000DA200F900FBE62E08D819E810E944F24FC
:101B000014C5AD81BE81CD010E94560C0FB6F8946C
:101B10000F9281E0809358210F900FBE06C50FB63B
:101B2000F8940F920F900FBE80914721811109C048
:101B30000FB6F8940F9281E0809347210F900FBE6B
:101B4000F4C40FB6F8940F92109247210F900FBE75
:101B5000ECC4ED81FE8186819781DC01ED91FC91E1
:101B60000480F581E02D1995882309F4AAC1ED813F
:101B7000FE8186819781DC01ED91FC910680F781E1
:101B8000E02D1995BC01F8018081ED81FE81E80FFF
:101B9000F11D628B8F5FD8018C93FB01FF27BC97EF
:101BA000EF34F10508F0C1C48827EF5EFE4F8F4F78
:101BB0000C948F2EED81FE81CF010E94560C8091F6
:101BC000F5209091F6200E94731ED82E8091EB2074
:101BD0009091EC200E94731ED81245C08091F52090
:101BE0009091F6200E94731ED82E8091E120909152
:101BF000E2200E94731ED81236C08091F520909189
:101C0000F6200E94731EC82ED12C0FB6F8940F92A6
:101C1000C0924821D09249210F900FBE0FB6F89480
:101C20000F920F900FBE6AE0AD81BE8116968D9126
:101C30009C9117970E94182789839A836AEC79E010
:101C40000E94E126B60189819A810E94962866E069
:101C50000E9418270FB6F8940F9281E080934A21D2
:101C60000F900FBE10C06AE0ED81FE8186819781E2
:101C70000E9418276C0162EA79E00E94E12666E082
:101C8000C6010E941827D8011C9260E08D819E81B8
:101C90000E944F244AC48D819E810E94010CF7014D
:101CA0006083718382839383D4018D919C91DC0145
:101CB000ED91FC910190F081E02DB7011995F801AB
:101CC000108233C4D8011C9266E0ED81FE818681CA
:101CD00097810E9418276AE00E9418276C016BE820
:101CE00079E00E94E12666E0C6010E941827E1EF34
:101CF000F0E2D401ED93FC9318C4D8011C9266E085
:101D0000ED81FE81868197810E9418276AE00E94FA
:101D100018276C0164E779E00E94E12666E0C601BD
:101D20000E941827E7EEF0E2D401ED93FC93FDC387
:101D3000D8011C9266E0ED81FE81868197810E9428
:101D400018276AE00E9418276C016DE579E00E946F
:101D5000E12666E0C6010E941827EDEDF0E2D4010D
:101D6000ED93FC93E2C30FB6F8940F9281E0809359
:101D700053210F900FBE66E0AD81BE8116968D9106
:101D80009C9117970E941827D0C3ED81FE81868110
:101D90009781DC01ED91FC910280F381E02D199592
:101DA0008D819E810E94010CF70160837183828383
:101DB0009383D4018D919C91DC01ED91FC91019074
:101DC000F081E02DB7011995F8011082AEC3AD8105
:101DD000BE8116968D919C911797DC01ED91FC9137
:101DE0000280F381E02D1995A0C3ED81FE818681EB
:101DF0009781DC01ED91FC910280F381E02D199532
:101E000094C3ED81FE8186819781DC01ED91FC9187
:101E10000280F381E02D199588C3ED81FE818681D2
:101E20009781DC01ED91FC910280F381E02D199501
:101E30007CC3ED81FE8186819781DC01ED91FC916F
:101E40000280F381E02D199570C3ED81FE818681BA
:101E50009781DC01ED91FC910280F381E02D1995D1
:101E600064C3ED81FE8186819781DC01ED91FC9157
:101E70000280F381E02D199558C3ED81FE818681A2
:101E80009781DC01ED91FC910280F381E02D1995A1
:101E90004CC3ED81FE8186819781DC01ED91FC913F
:101EA0000280F381E02D199540C3ED81FE8186818A
:101EB0009781DC01ED91FC910280F381E02D199571
:101EC00034C38BEF90E20E94C825882309F42DC308
:101ED000AD81BE811696ED91FC9117970190F0812E
:101EE000E02DC280D3808BEF90E20E94AA25682F5C
:101EF000ED81FE8186819781F601199516C3AD812A
:101F0000BE8116968D919C911797DC01ED91FC9105
:101F10000480F581E02D1995882309F406C3ED812D
:101F2000FE8186819781DC01ED91FC910680F7812D
:101F3000E02D1995F8012081ED81FE81E20FF11D60
:101F4000828B2F5FD8012C939927FC01E556F1096C
:101F5000E631F10508F0E9C28827E05AFE4F8F4FBD
:101F60000C948F2E88ED90E2F50180839183DDC281
:101F700087ED90E2D5018D939C93D7C286ED90E2D8
:101F8000F50180839183D1C20FB6F8940F9210921D
:101F9000DA200F900FBE60E08D819E810E944F2459
:101FA000C4C2D501ED91FC91B0E2E83DFB0741F0E0
:101FB00080E2E73DF80721F090E2E63DF90741F4C1
:101FC0000FB6F8940F9281E080830F900FBEADC2E0
:101FD0006AE0AD81BE8116968D919C9117970E9403
:101FE00018276C016AE279E00E94E12666E0C601EA
:101FF0000E9418279AC2D501ED91FC91B0E2E83D0C
:10200000FB0741F080E2E73DF80721F090E2E63D72
:10201000F90741F40FB6F8940F9282E080830F9095
:102020000FBE83C26AE0AD81BE8116968D919C91F0
:1020300017970E9418276C0167EF78E00E94E1264D
:1020400066E0C6010E94182770C2D501ED91FC918F
:10205000B0E2E83DFB0741F080E2E73DF80721F000
:1020600090E2E63DF90739F40FB6F8940F9210822A
:102070000F900FBE5AC26AE0AD81BE8116968D9157
:102080009C9117970E9418276C0164EC78E00E94DD
:10209000E12666E0C6010E94182747C2ED81FE8155
:1020A00086819781DC01ED91FC910480F581E02D22
:1020B0001995882309F439C2ED81FE8186819781C3
:1020C000DC01ED91FC910680F781E02D1995BC01B2
:1020D000F8018081ED81FE81E80FF11D628B8F5F39
:1020E000D8018C93FB01FF27BC97EF34F10508F072
:1020F0001CC28827EA58FE4F8F4F0C948F2E6AE03F
:10210000ED81FE81868197810E9418276C016FEA1C
:1021100078E00E94E12666E0C6010E941827D801F7
:102120001C928FE191E2F30180839183FEC16AE00A
:10213000AD81BE8116968D919C9117970E941827AC
:102140006C0163E978E00E94E12666E0C6010E9426
:102150001827F80110828DE391E2D2018D939C93B0
:1021600081E0F1018083E1C16AE0AD81BE81169614
:102170008D919C9117970E9418276C0167E778E072
:102180000E94E12666E0C6010E941827F80110822D
:1021900083E391E2D2018D939C9381E0F1018083EE
:1021A000C4C16AE0AD81BE8116968D919C9117974E
:1021B0000E9418276C016BE578E00E94E12666E03A
:1021C000C6010E941827F801108289E291E2D2012B
:1021D0008D939C9381E0F1018083A7C16AE0AD817A
:1021E000BE8116968D919C9117970E9418276C01BD
:1021F00067E478E00E94E12666E0C6010E941827A5
:102200000FB6F8940F921092DC200F900FBE60E092
:102210008D819E810E944F2488C18D819E810E9464
:10222000010C9B01AC01F70160837183828393836E
:10223000D1018C918823B1F0A8EEB3E00E94A62EC4
:102240006083718382839383D2018D919C91DC01A1
:10225000ED91FC910190F081E02DB7011995F1010C
:10226000108232C0D301CD90DC90B5E2CB16B1E242
:10227000DB0661F464E670E080E090E00E946D2E81
:10228000F70120833183428353830FC0FFE1CF16D0
:10229000F1E2DF0651F4ACEDB5E00E94A62ED701C5
:1022A0006D937D938D939C931397F701808191811A
:1022B000A281B3810FB6F8940F92F60180839183C7
:1022C000A283B3830F900FBED8011C92D7018D91CA
:1022D0009D910D90BC91A02D89839A83AB83BC8383
:1022E0006AE0ED81FE81868197810E9418276C014A
:1022F00067E378E00E94E12649815A816B817C8105
:10230000C6010E94CA2866E00E9418270EC1AD814E
:10231000BE8116968D919C911797DC01ED91FC91F1
:102320000280F381E02D19958D819E810E94010C20
:102330009B01AC01A8EEB3E00E94A62EF7016083DA
:10234000718382839383D2018D919C91DC01ED9105
:10235000FC910190F081E02DB7011995F8011082F0
:10236000E4C06AE0AD81BE8116968D919C9117976D
:102370000E9418276C016EE178E00E94E12666E079
:10238000C6010E941827F80110828BE491E2D30164
:102390008D939C93CAC06AE0ED81FE81868197810E
:1023A0000E9418276C0169E078E00E94E12666E04F
:1023B000C6010E941827D8011C928FE491E2F30114
:1023C00080839183B2C06AE0AD81BE8116968D9103
:1023D0009C9117970E9418276C016EEE77E00E947F
:1023E000E12666E0C6010E941827F801108284E504
:1023F00091E2D3018D939C9398C0ED81FE818681FB
:102400009781DC01ED91FC910280F381E02D19951B
:102410008CC0ED81FE8186819781DC01ED91FC917C
:102420000280F381E02D199580C0ED81FE818681C7
:102430009781DC01ED91FC910280F381E02D1995EB
:1024400074C0ED81FE8186819781DC01ED91FC9164
:102450000280F381E02D199568C0ED81FE818681AF
:102460009781DC01ED91FC910280F381E02D1995BB
:102470005CC0ED81FE8186819781DC01ED91FC914C
:102480000280F381E02D199550C0ED81FE81868197
:102490009781DC01ED91FC910280F381E02D19958B
:1024A00044C0ED81FE8186819781DC01ED91FC9134
:1024B0000280F381E02D199538C0ED81FE8186817F
:1024C0009781DC01ED91FC910280F381E02D19955B
:1024D0002CC0ED81FE8186819781DC01ED91FC911C
:1024E0000280F381E02D199520C0A983BA836AE0A8
:1024F000FD01868197810E94182789839A8361ED67
:1025000077E00E94E12666E089819A810E9418277F
:1025100093E088ED08B618BE84BF90938000809148
:10252000820081FDFCCF08BEFFCFED81FE81868554
:102530009785A089B1890196A11DB11D86879787CE
:10254000A08BB18B61E070E080E090E00E942322DC
:10255000FBC9FC01848195810E947B1E90E0089557
:10256000FC01848195810E947B1E91E0811101C054
:1025700090E0892F0895FC01848195810E947B1E43
:1025800091E0811190E0892F0895FC01848195816B
:102590000E94731E90E00895FC01848195810E9441
:1025A000731E91E0811101C090E0892F0895FC0114
:1025B000848195810E94731E91E0811190E0892FA2
:1025C00008950F9301E02FEF3FEFA901FC018481F3
:1025D00095810E94821D0F9108950F93CF93DF93F1
:1025E00000D01F92CDB7DEB701E02FEF3FEFA9017A
:1025F000BE016F5F7F4FFC01848195810E94821D27
:1026000069817A818B819C812496CDBFDEBFDF9169
:10261000CF910F9108950F9300E02FEF3FEFA901A5
:10262000FC01848195810E94821D0F9108950F9372
:10263000CF93DF9300D01F92CDB7DEB700E02FEF2E
:102640003FEFA901BE016F5F7F4FFC01848195813F
:102650000E94821D69817A818B819C812496CDBFE5
:10266000DEBFDF91CF910F910895CF93DF931F923B
:10267000CDB7DEB7AE014F5F5F4FFC01848195811E
:102680000E94461E0F90DF91CF910895CF93DF9364
:10269000CDB7DEB72597CDBFDEBFAE014B5F5F4F35
:1026A000BE016F5F7F4FFC01848195810E94461EB1
:1026B00069817A818B819C812596CDBFDEBFDF91B8
:1026C000CF910895CF93DF931F92CDB7DEB71982D4
:1026D00021E0AE014F5F5F4FFC01848195810E9434
:1026E000561D91E0811101C090E0892F0F90DF917C
:1026F000CF910895CF93DF931F92CDB7DEB71982A4
:1027000020E0AE014F5F5F4FFC01848195810E9404
:10271000561D91E0811101C090E0892F0F90DF914B
:10272000CF9108950F93FC01268137814085518513
:1027300001E0848195810E94BB1C91E0811101C060
:1027400090E0892F0F9108950F93FC012681378126
:102750004085518500E0848195810E94BB1C91E0F9
:10276000811101C090E0892F0F9108950F93CF93AD
:10277000DF931F92CDB7DEB72FB72983F8941BBE26
:10278000FC0108ED04BF608389818FBF0F90DF914A
:10279000CF910F9108956F927F928F929F92AF92F7
:1027A000BF92CF92DF92EF92FF920F931F93CF933E
:1027B000DF93CDB7DEB76D97CDBFDEBFF894E0E510
:1027C000F0E0808182608083818181FFFDCF609114
:1027D0004000687F616080E490E00E94B613E0E50D
:1027E000F0E080818E7F80839DEF88ED08B618BE73
:1027F00084BF9093800008BE40EA5AE060E070E039
:10280000CE0101960E94F22967E0CE0101960E9456
:1028100018273C016FE270E20E94E12666E0C301E6
:102820000E94182766E00E9418270FB6F8940F92AE
:1028300082E090E0A0E0B0E080934F21909350219F
:10284000A0935121B09352210F900FBE0FB6F89470
:102850000F9288E090E0A0E0B0E080934B2190934D
:102860004C21A0934D21B0934E210F900FBE0FB677
:10287000F8940F9288EE93E0A0E0B0E080935421AA
:1028800090935521A0935621B09357210F900FBEDE
:102890000FB6F8940F9282E390E0A0E0B0E080934E
:1028A000252190932621A0932721B09328210F90D2
:1028B0000FBE0FB6F8940F928CE49DE1A0E0B0E05B
:1028C00080931F2190932021A0932121B093222156
:1028D0000F900FBE8AE190E00E94202680931D2178
:1028E00090931E2187E090E00E9420267C0183E0E7
:1028F00090E00E942026FC01E082F18280931B215F
:1029000090931C2187E090E00E9420267C0183E0C8
:1029100090E00E942026FC01E082F1828093192140
:1029200090931A2187E090E00E9420267C0183E0AA
:1029300090E00E942026FC01E082F1828093172122
:102940009093182187E090E00E9420267C0183E08C
:1029500090E00E942026FC01E082F1828093152104
:102960009093162187E090E00E9420267C0183E06E
:1029700090E00E942026FC01E082F18280931321E6
:102980009093142187E090E00E9420267C0183E050
:1029900090E00E942026FC01E082F18280931121C8
:1029A0009093122183E291E00E9420268E010F5F16
:1029B0001F4F20E830E040E06EE470E20E94E40B3C
:1029C0008AE490E00E942026A0901921B0901A215C
:1029D000C0901B21D0901C21E0900F21F09010217D
:1029E0001F926894772473F87F9220E631E23F9338
:1029F0002F9328ED30E23F932F932DE331E23F9365
:102A00002F930F2EF1EF8F2EF0E29F2EF02D20E866
:102A100030E044E066E570E20E9445088AE490E018
:102A20000E942026A0901521B0901621C090172159
:102A3000D0901821E0900D21F0900E211F927F92EE
:102A40002FE531E23F932F9327ED30E23F932F9311
:102A500023E331E23F932F930F2EF7EE8F2EF0E218
:102A60009F2EF02D20E830E044E06AE570E20E94FD
:102A700045088AE490E00E942026A0901121B090A1
:102A80001221C0901321D0901421E0900B21F090DE
:102A90000C211F927F922EE531E23F932F9326ED7A
:102AA00030E23F932F9329E231E23F932F930F2E91
:102AB000FDED8F2EF0E29F2EF02D20E830E044E077
:102AC0006EE570E20E94450883E290E00E942026B5
:102AD000E0901D21F0901E2124EF31E044E062E6F9
:102AE00070E20E94C70B87E08093A20078940E9456
:102AF000E41FCDBFDEBF80E090E06D96CDBFDEBFAE
:102B0000DF91CF911F910F91FF90EF90DF90CF90C9
:102B1000BF90AF909F908F907F906F9008951F927D
:102B20000F920FB60F9211240BB60F922F933F9373
:102B30004F935F936F937F938F939F93AF93BF93C5
:102B4000EF93FF9380910F21909110210E945007E5
:102B50008091DB20882379F080910F2190911021C2
:102B6000DC01ED91FC910684F785E02D199581300B
:102B700011F480932421FF91EF91BF91AF919F9128
:102B80008F917F916F915F914F913F912F910F9016
:102B90000BBE0F900FBE0F901F9018951F920F92B3
:102BA0000FB60F9211240BB60F922F933F934F93B2
:102BB0005F936F937F938F939F93AF93BF93EF93A5
:102BC000FF9380910F21909110210E9469078091BD
:102BD000DB20882381F080910F2190911021DC016E
:102BE000ED91FC910684F785E02D1995811103C0C4
:102BF00081E080932421FF91EF91BF91AF919F914C
:102C00008F917F916F915F914F913F912F910F9095
:102C10000BBE0F900FBE0F901F9018951F920F9232
:102C20000FB60F9211240BB60F922F933F934F9331
:102C30005F936F937F938F939F93AF93BF93EF9324
:102C4000FF9380910D2190910E210E945007809159
:102C5000DB20882379F080910D2190910E21DC01F9
:102C6000ED91FC910684F785E02D1995813011F4E2
:102C700080932421FF91EF91BF91AF919F918F910C
:102C80007F916F915F914F913F912F910F900BBE6C
:102C90000F900FBE0F901F9018951F920F920FB6B6
:102CA0000F9211240BB60F922F933F934F935F9384
:102CB0006F937F938F939F93AF93BF93EF93FF9304
:102CC00080910D2190910E210E9469078091DB2057
:102CD000882381F080910D2190910E21DC01ED91EE
:102CE000FC910684F785E02D1995811103C081E0E0
:102CF00080932421FF91EF91BF91AF919F918F918C
:102D00007F916F915F914F913F912F910F900BBEEB
:102D10000F900FBE0F901F9018951F920F920FB635
:102D20000F9211240BB60F922F933F934F935F9303
:102D30006F937F938F939F93AF93BF93EF93FF9383
:102D400080910B2190910C210E9450078091DB20F3
:102D5000882379F080910B2190910C21DC01ED9179
:102D6000FC910684F785E02D1995813011F480934C
:102D70002421FF91EF91BF91AF919F918F917F910E
:102D80006F915F914F913F912F910F900BBE0F90DC
:102D90000FBE0F901F9018951F920F920FB60F92B3
:102DA00011240BB60F922F933F934F935F936F9322
:102DB0007F938F939F93AF93BF93EF93FF938091F4
:102DC0000B2190910C210E9469078091DB208823C0
:102DD00081F080910B2190910C21DC01ED91FC910F
:102DE0000684F785E02D1995811103C081E0809359
:102DF0002421FF91EF91BF91AF919F918F917F918E
:102E00006F915F914F913F912F910F900BBE0F905B
:102E10000FBE0F901F9018951F920F920FB60F9232
:102E200011240BB60F922F933F934F935F936F93A1
:102E30007F938F939F93AF93BF93EF93FF93809173
:102E40000F2190911021DC01ED91FC910288F38912
:102E5000E02D1995FF91EF91BF91AF919F918F91C7
:102E60007F916F915F914F913F912F910F900BBE8A
:102E70000F900FBE0F901F9018951F920F920FB6D4
:102E80000F9211240BB60F922F933F934F935F93A2
:102E90006F937F938F939F93AF93BF93EF93FF9322
:102EA00080910F2190911021DC01ED91FC9100881F
:102EB000F189E02D1995FF91EF91BF91AF919F910D
:102EC0008F917F916F915F914F913F912F910F90D3
:102ED0000BBE0F900FBE0F901F9018951F920F9270
:102EE0000FB60F9211240BB60F922F933F934F936F
:102EF0005F936F937F938F939F93AF93BF93EF9362
:102F0000FF9380910D2190910E21DC01ED91FC91B8
:102F10000288F389E02D1995FF91EF91BF91AF9150
:102F20009F918F917F916F915F914F913F912F91E1
:102F30000F900BBE0F900FBE0F901F9018951F9211
:102F40000F920FB60F9211240BB60F922F933F934F
:102F50004F935F936F937F938F939F93AF93BF93A1
:102F6000EF93FF9380910D2190910E21DC01ED9163
:102F7000FC910088F189E02D1995FF91EF91BF91A7
:102F8000AF919F918F917F916F915F914F913F9101
:102F90002F910F900BBE0F900FBE0F901F901895A2
:102FA0001F920F920FB60F9211240BB60F922F9310
:102FB0003F934F935F936F937F938F939F93AF93C1
:102FC000BF93EF93FF9380910B2190910C21DC0133
:102FD000ED91FC910288F389E02D1995FF91EF9115
:102FE000BF91AF919F918F917F916F915F914F9121
:102FF0003F912F910F900BBE0F900FBE0F901F901F
:1030000018951F920F920FB60F9211240BB60F92C4
:103010002F933F934F935F936F937F938F939F93E0
:10302000AF93BF93EF93FF9380910B2190910C216D
:10303000DC01ED91FC910088F189E02D1995FF915B
:10304000EF91BF91AF919F918F917F916F915F9120
:103050004F913F912F910F900BBE0F900FBE0F908D
:103060001F901895CF92DF92EF92FF920F931F93CC
:10307000CF93DF93EC01862F680179014A835B834C
:1030800023E730E22883398340E064E00E948D1C0E
:103090008C839D83CE82DF82E886F986DF91CF9193
:1030A0001F910F91FF90EF90DF90CF9008950F93B5
:1030B0001F930AE010E020E030E040E050E062E3DF
:1030C0008DE391E20E9432180AE010E020E030E047
:1030D00040E050E062E383E391E20E9432180AE0AC
:1030E00010E020E030E040E050E062E389E291E26D
:1030F0000E9432180AE010E020E030E040E050E0AA
:1031000060E270E08BEF90E20E94F1250AE010E0AF
:1031100020E030E040E050E062E381EF90E20E9486
:1031200032180AE010E020E030E040E050E062E3D6
:1031300087EE90E20E9432180AE010E020E030E0D2
:1031400040E050E062E38DED90E20E9432181F9162
:103150000F9108950F931F93CF93DF93EC010E947B
:1031600017208091612181111DC0A6E6B1E2EAE637
:10317000F1E2ED93FC93119712961D921C92139716
:10318000A2E6B1E28FEF9FE112968D939C93139785
:103190001D921C92119782839383A083B18381E057
:1031A00080936121209709F45FC09E012B5F3F4F00
:1031B0002496CE3FDF4108F05AC0E0916621F0919D
:1031C0006721A6E6B1E202C0DF01FC0182819381A2
:1031D0008217930720F4808191810097A9F7C1E2BB
:1031E000E236FC0709F446C0CD91DC9111978E01BF
:1031F0000B5F1F4F808191818D939C93828193817E
:10320000821B930B8B30910510F1BF01620F731F6E
:10321000DB0112968D939C9313972283338312962E
:103220004D915C91139786E691E201C0CD01EC01CE
:10323000A881B98112962D913C91139724173507D7
:10324000A8F3EB01A883B983DC016D937C93809193
:1032500000209091012022813381821B930B809367
:1032600000209093012008C000E010E005C000E0BD
:1032700010E002C000E010E00E943421C801DF919C
:10328000CF911F910F9108950F931F93CF93DF93C9
:10329000009741F1EC018C01055011090E941720A3
:1032A000F80142815381A6E6B1E201C0DF01ED9150
:1032B000FC9111972281338124173507B8F32597A4
:1032C000E883F9830D931C93209100203091012015
:1032D0008A819B81820F931F80930020909301200D
:1032E0000E943421DF91CF911F910F910895FC012D
:1032F0000396818392834FEF5FEFBA014383548338
:10330000658376838783908781879287108208956B
:10331000FC01128613860895CF93DF93FC01DB0135
:1033200021813281E9018C819D8114968D939C933A
:1033300015978181928116968D939C9317978C8116
:103340009D81EC016E837F83E9016C837D836183C2
:1033500072831A96ED93FC931B9780818F5F808315
:10336000DF91CF9108950F931F93CF93DF93EB01DC
:10337000088119812A813B810F3F4FEF14072407F1
:10338000340731F4DC011996ED91FC911A971FC0B6
:10339000FC013396DC0117964D915C911897DA0188
:1033A0004D915D916D917C910417150726073707A4
:1033B00070F00480F581E02DA481B5814D915D917F
:1033C0006D917C91041715072607370790F7A481A4
:1033D000B581AC83BD831696CD93DC931797EE83AE
:1033E000FF83C483D5838A879B87FC0120812F5F5D
:1033F0002083DF91CF911F910F910895FC01A4814B
:10340000B5818681978116968D939C931797A68197
:10341000B7818481958114968D939C931597A2858D
:10342000B38511968D919C911297E817F90731F4A5
:103430008681978111968D939C931297128613869D
:103440008C9181508C9308958093F1419093F24137
:1034500031E1FC013083319722E220833197A3E3ED
:10346000A0833197608331977083319710823197B1
:103470001082319760E86083319710823197108213
:1034800031971082319762E06083319763E0608307
:10349000319764E06083319765E06083319766E03F
:1034A0006083319767E06083319768E0608331978C
:1034B00069E06083319760E16083319730833197B1
:1034C00032E13083319733E13083319734E1308317
:1034D000319735E13083319736E13083319737E1E9
:1034E0003083319738E13083319739E13083319738
:1034F00030E23083319731E2308331972083319746
:1035000023E220833197408331975083319726E21D
:103510002083319727E22083319728E22083319757
:1035200029E22083319720E32083319721E3208310
:10353000899708958CE78093690A8FEF8093680AD2
:1035400081E08093400A81E18093410A83E0809387
:10355000470AA091C941B091CA41CD91CDBFDD913B
:10356000DEBFFF91EF91DF91CF91BF91AF919F911E
:103570008F917F916F915F914F913F912F911F910B
:103580000F91FF90EF90DF90CF90BF90AF909F9002
:103590008F907F906F905F904F903F902F901F90F3
:1035A0000F900CBE0F900BBE0F900FBE0F900895A2
:1035B00081E008950F920FB6F8940F920BB60F9218
:1035C0000CB60F921F9211242F923F924F925F924E
:1035D0006F927F928F929F92AF92BF92CF92DF9223
:1035E000EF92FF920F931F932F933F934F935F930D
:1035F0006F937F938F939F93AF93BF93CF93DF93FB
:10360000EF93FF93A091C941B091CA410DB60D92BD
:103610000EB60D920E945122A091C941B091CA41AB
:10362000CD91CDBFDD91DEBFFF91EF91DF91CF91C5
:10363000BF91AF919F918F917F916F915F914F91CA
:103640003F912F911F910F91FF90EF90DF90CF90BE
:10365000BF90AF909F908F907F906F905F904F90B2
:103660003F902F901F900F900CBE0F900BBE0F90AD
:103670000FBE0F9008950F920FB6F8940F920BB6ED
:103680000F920CB60F921F9211242F923F924F92DD
:103690005F926F927F928F929F92AF92BF92CF92E2
:1036A000DF92EF92FF920F931F932F933F934F93CD
:1036B0005F936F937F938F939F93AF93BF93CF93BA
:1036C000DF93EF93FF93A091C941B091CA410DB62A
:1036D0000D920EB60D920E9433200E945122A091AD
:1036E000C941B091CA41CD91CDBFDD91DEBFFF91FF
:1036F000EF91DF91CF91BF91AF919F918F917F918A
:103700006F915F914F913F912F911F910F91FF907A
:10371000EF90DF90CF90BF90AF909F908F907F9071
:103720006F905F904F903F902F901F900F900CBE26
:103730000F900BBE0F900FBE0F9008950E943B1B81
:103740001895CF93DF93EC0188A181110BC088817C
:103750009981892BE1F58A819B810E940C241A8230
:103760001B8235C0411117C0482F50E08C819D81CC
:103770000E94892F28A18C819D81820F911D8C83AD
:103780009D832A813B818217930708F18881998163
:103790008C839D831CC0482F50E08E819F810E94A6
:1037A000892F88A190E09195819591092E813F8183
:1037B000280F391F2E833F834881598124173507ED
:1037C00030F42A813B81820F931F8E839F838E8DDD
:1037D0008F5F8E8FDF91CF910895FC018081918161
:1037E0000097A1F040A150E026813781240F351FBA
:1037F00026833783A281B3812A173B0710F0868383
:103800009783CB01668177810E94892F08950F935A
:103810001F93CF93DF93EC010FB6F8940F928AA118
:103820001816B4F48B89811105C012C08B898111DF
:1038300004C00EC08E010D5E1F4FC8010E94D82229
:1038400081110E9495238AA181508AA3181674F3CE
:103850008FEF8AA30F900FBE0FB6F8940F9289A135
:103860001816B4F48885811105C012C088858111AD
:1038700004C00EC08E01085F1F4FC8010E94D822ED
:1038800081110E94952389A1815089A3181674F390
:103890008FEF89A30F900FBEDF91CF911F910F91F2
:1038A00008951F93CF93DF93613059F0FC01238972
:1038B000308531112CC011E0211110E0211128C0F8
:1038C00001C011E0EC014881598128A130E06F8DE1
:1038D000629FC001639F900D1124BA01680F791F88
:1038E0006A837B831E8E4C835D83821B930B840FC4
:1038F000951F8E839F838FEF89A38AA3CE0108969D
:103900000E947719CE0143960E94771901C010E0FA
:10391000812FDF91CF911F9108950F931F93CF9324
:10392000DF93882301F1062F182F83E290E00E9495
:10393000AA18EC01892BC9F0109FC001112401962F
:103940000E94AA1888839983892B39F01F8F08A3B6
:1039500061E0CE010E94511C08C0CE010E944419B2
:10396000C0E0D0E002C0C0E0D0E0CE01DF91CF9156
:103970001F910F910895AF92BF92CF92DF92EF9275
:10398000FF920F931F93CF93DF93CDB7DEB72997A5
:10399000CDBFDEBF7C015B012E833F834887598703
:1039A00010E06C0188E0C80ED11C0FB6F8940F929D
:1039B000F701968D878D9817A8F4402FB501C701A0
:1039C0000E94A11BF7018389882341F0C701439618
:1039D0000E94D822813011F40E94DA1A0F900FBE93
:1039E00081E056C08E819F81A885B985892B8A2B5D
:1039F0008B2B21F40F900FBE80E04AC0111105C03F
:103A0000CE0101960E94172311E00F900FBE0E9475
:103A100017200FB6F8940F92F70181A18F3F09F498
:103A200011A2F70182A18F3F09F412A20F900FBEDD
:103A3000BE016A5F7F4FCE0101960E94282381114B
:103A400021C00FB6F8940F92F701968D0F900FBE1C
:103A5000878D981311C04E815F8168857985C60175
:103A60000E94AE22C7010E94071C0E9434218111CE
:103A70009CCF0E94DA1A99CFC7010E94071C0E94AE
:103A8000342193CFC7010E94071C0E94342180E09B
:103A90002996CDBFDEBFDF91CF911F910F91FF908F
:103AA000EF90DF90CF90BF90AF9008950F931F934A
:103AB000CF93DF938A01FC01568D378D5317C0F4E5
:103AC000422FEC010E94A11B8AA18F3F69F48B89D0
:103AD000882381F0CE0143960E94D822882361F08A
:103AE00081E0F801808309C08F5F8AA381E005C06F
:103AF00080E003C081E001C081E0DF91CF911F91A0
:103B00000F910895AF92BF92CF92DF92EF92FF9202
:103B10000F931F93CF93DF93CDB7DEB72997CDBF18
:103B2000DEBF7C015B012E833F834887598710E00D
:103B30006C0183E1C80ED11C0FB6F8940F92F70107
:103B4000868D882399F1C680D780B501C7010E9470
:103B5000ED1B01111AC0F701868D8150868F80817F
:103B60009181892B29F40E94B223F70182839383E8
:103B7000F70180858823B1F0C70108960E94D822FA
:103B8000813081F40E94DA1A0DC0F701C682D78213
:103B90008389882339F0C70143960E94D822811176
:103BA0000E94DA1A0F900FBE81E062C08E819F8161
:103BB000A885B985892B8A2B8B2B21F40F900FBEFA
:103BC00080E056C0111105C0CE0101960E94172356
:103BD00011E00F900FBE0E9417200FB6F8940F92BD
:103BE000F70181A18F3F09F411A2F70182A18F3F54
:103BF00009F412A20F900FBEBE016A5F7F4FCE0183
:103C000001960E94282381112DC00FB6F8940F92BF
:103C1000F701868D0F900FBE81111EC080819181AA
:103C2000892B49F40FB6F8940F92828193810E94F8
:103C3000B7230F900FBE4E815F8168857985C601DD
:103C40000E94AE22C7010E94071C0E9434218111EC
:103C500073CF0E94DA1A70CFC7010E94071C0E941E
:103C600034216ACFC7010E94071C0E94342180E0E2
:103C70002996CDBFDEBFDF91CF911F910F91FF90AD
:103C8000EF90DF90CF90BF90AF9008950F931F9368
:103C9000CF93DF93FC01268D2223D9F08A01EC011A
:103CA0000E94ED1B8E8D81508E8F89A18F3F69F40C
:103CB0008885882381F0CE0108960E94D822882327
:103CC00061F081E0F801808309C08F5F89A381E002
:103CD00005C080E003C081E001C081E0DF91CF91A9
:103CE0001F910F9108950FB6F8940F92FC01868DE5
:103CF0000F900FBE0895FC01868D0895CDE9D1E4A3
:103D000088818230E8F30E94DA1AFACFCF92DF92EC
:103D1000EF92FF926B017C01E091C941F091CA41A1
:103D20006283738384839583809171419091724102
:103D3000A0917341B0917441C816D906EA06FB06FA
:103D400068F46091C9417091CA418091834190911A
:103D500084416E5F7F4F0E94B31921C06091C941B9
:103D60007091CA4180918541909186416E5F7F4FED
:103D70000E94B3198091022090910320A091042009
:103D8000B0910520C816D906EA06FB0640F4C09299
:103D90000220D0920320E0920420F0920520FF90B0
:103DA000EF90DF90CF9008954F925F926F927F9245
:103DB0008F929F92AF92BF92CF92DF92EF92FF923B
:103DC0000F931F93CF93DF935C014B013A012901BD
:103DD00088E290E00E94AA18EC01892B09F4D4C073
:103DE000C114D10409F0CCC0C3010E94AA188B8F62
:103DF0009C8F009721F4CE010E944419C5C0A301F5
:103E000061E170E00E94922F9301215031098B8D66
:103E10009C8D3C01620E731E4AE050E0B401CE015D
:103E20004D960E94992F1EA2102F043008F013E027
:103E30001A8F1FA36E0122E0C20ED11CC6010E9480
:103E40008819CE010E960E948819CA87DB8784E004
:103E500090E0A0E0B0E0811B9109A109B1098E8733
:103E60009F87A88BB98BCE8BDF8BA201B501C301D5
:103E70000E94241A88839983E114F10419F0F70150
:103E8000C083D1830FB6F8940F92809175418F5FF4
:103E9000809375418091C9419091CA41892B89F5E0
:103EA000C093C941D093CA41809175418130C1F519
:103EB0008DE991E40E94771988EA91E40E947719CC
:103EC00083EB91E40E9477198EEB91E40E947719BD
:103ED00082E991E40E94771987E891E40E947719BA
:103EE00088E791E40E94771982E991E48093854103
:103EF0009093864187E891E4809383419093844135
:103F00000FC080916E4181110BC0E091C941F091C9
:103F1000CA41828D081720F0C093C941D093CA418D
:103F20008A8D90917041981710F480937041909110
:103F300069419F5F9093694190916F41981710F488
:103F400080936F41FBE08F9FC0011124B60183561F
:103F50009E4B0E948C190F900FBE80916E4188235A
:103F600059F0E091C941F091CA41828D801730F437
:103F70000E94DA1A81E009C081E007C081E005C033
:103F8000CB8EDC8EC6013BCF8FEFDF91CF911F919F
:103F90000F91FF90EF90DF90CF90BF90AF909F90E8
:103FA0008F907F906F905F904F9008950FB6F89428
:103FB0000F92009721F48091C9419091CA410F90CE
:103FC0000FBEFC01828D0895AF92BF92CF92DF9217
:103FD000EF92FF920F93A12CB12CC12CD12C0F2E5C
:103FE000F6E7EF2EF1E4FF2EF02D00E020E030E0C8
:103FF00044E650E063E970E28EE79EE10E94D41E41
:10400000813069F4F89480936E411092714110925E
:10401000724110927341109274410E949A1A0F914A
:10402000FF90EF90DF90CF90BF90AF900895809178
:104030006D418F5F80936D4108950FB6F8940F9294
:10404000609171417091724180917341909174417E
:104050000F900FBE0895009721F48091C94190916F
:10406000CA414D960895FF920F931F93CF93DF930C
:1040700080916D418111EDC08091714190917241AB
:10408000A0917341B09174410196A11DB11D80931F
:10409000714190937241A0937341B09374418091A8
:1040A000714190917241A0917341B0917441892BFB
:1040B0008A2B8B2BF1F5809185419091864120913F
:1040C0008341309184412093854130938641809390
:1040D00083419093844180916A418F5F80936A41CC
:1040E000E0918541F0918641808181110CC08FEF74
:1040F0009FEFDC018093022090930320A093042083
:10410000B093052016C0E0918541F091864107806B
:10411000F085E02D0084F185E02D82819381A481DA
:10412000B5818093022090930320A0930420B09344
:10413000052040917141509172416091734170919D
:1041400074418091022090910320A0910420B091AD
:104150000520481759076A077B0708F47FC0E091DC
:104160008541F091864180818823F9F0E091854175
:10417000F09186410780F085E02DC085D1858A8148
:104180009B81AC81BD8140917141509172416091A0
:10419000734170917441481759076A077B0758F1BA
:1041A0000F2EFBE0FF2EF02D2FC08FEF9FEFDC01D5
:1041B0008093022090930320A0930420B0930520C5
:1041C0004DC0E0918541F09186410780F085E02D5A
:1041D000C085D1858A819B81AC81BD81409171412F
:1041E0005091724160917341709174414817590721
:1041F0006A077B0748F48093022090930320A093E2
:104200000420B09305202AC08E010E5F1F4FC80105
:104210000E94FE19888D998D892B21F0CE010E9672
:104220000E94FE198A8D90916F41981710F4809327
:104230006F41F89EC0011124B80183569E4B0E9425
:104240008C19E0918541F091864180818111B9CF2F
:10425000ACCF80916C418F5F80936C41DF91CF91A7
:104260001F910F91FF900895CF92DF92EF92FF92EE
:104270000F931F93CF93DF930FB6F8940F92809113
:104280006D41815080936D4180916D41811160C07D
:104290008091754181112CC05EC0D7011796ED91B8
:1042A000FC911897C085D185CE010E960E94FE190B
:1042B0008E010E5F1F4FC8010E94FE198A8D9091DA
:1042C0006F41981710F480936F41D89EC00111245C
:1042D000B80183569E4B0E948C19E091C941F09120
:1042E000CA419A8D828D981770F0CC24C3940BC06C
:1042F000C12C0F2EF8E7EF2EF1E4FF2EF02D0F2E3C
:10430000FBE0DF2EF02DF70180818111C6CF809177
:104310006C41882381F080916C41882399F00E9440
:10432000332080916C41815080936C4180916C412D
:104330008111F5CF07C0F1E0CF1621F080916B41DC
:10434000813041F410926B410E94DA1A81E003C07F
:1043500080E001C080E00F900FBEDF91CF911F91F0
:104360000F91FF90EF90DF90CF900895CF92DF9262
:10437000EF92FF92CF93DF93EC016A017B010E94E1
:10438000172088819981AA81BB81C80ED91EEA1E97
:10439000FB1E409171415091724160917341709147
:1043A0007441481759076A077B07B8F4C816D9063D
:1043B000EA06FB06E0F58091714190917241A0916F
:1043C0007341B0917441C882D982EA82FB828C1514
:1043D0009D05AE05BF05F8F413C0C816D906EA0658
:1043E000FB0600F18091714190917241A09173415F
:1043F000B09174418C159D05AE05BF0598F017C0AE
:104400008091C9419091CA4102960E94FE19C7014C
:10441000B6010E94861E0E94342181110DC00E94A7
:10442000DA1A0AC0C882D982EA82FB82E9CFC8823E
:10443000D982EA82FB82EFCFDF91CF91FF90EF909C
:10444000DF90CF900895CF92DF92EF92FF926B01B1
:104450007C01672B682B692BE9F00E941720809163
:10446000714190917241A0917341B0917441C80E15
:10447000D91EEA1EFB1E8091C9419091CA41029645
:104480000E94FE19C701B6010E94861E0E943421B7
:10449000811102C00E94DA1AFF90EF90DF90CF9056
:1044A000089580916D4181110CC0E0916F414BE006
:1044B000E49FF0011124E356FE4B8081882329F00C
:1044C00014C081E080936B4108959BE080916F411F
:1044D000815080936F41E0916F419E9FF0011124C4
:1044E000E356FE4B8081882389F380916F41282F0A
:1044F00030E04BE0849FC0011124DC01A356BE4B89
:104500001196ED91FC9112970480F581E02D1196A2
:10451000ED93FC93129780569E4BE817F90761F4D0
:10452000848195814BE0429FF001439FF00D11245F
:10453000E356FE4B818392838BE0829FF001839F41
:10454000F00D1124E356FE4B0180F281E02D8085B1
:1045500091858093C9419093CA410895CF92DF928B
:10456000EF92FF926A017B016091C9417091CA414B
:10457000625F7F4F0E94B3198091C9419091CA41F7
:1045800002960E94FE198091714190917241A09112
:104590007341B0917441BC01CD016C0D7D1D8E1D28
:1045A0009F1D0E94861EFF90EF90DF90CF90089590
:1045B0000F931F93CF93DF93DC011796ED91FC913E
:1045C0001897C085D1858E01025F1F4FC8010E94D8
:1045D000FE1980916D41811116C00C501109C8015E
:1045E0000E94FE198A8D90916F41981710F4809364
:1045F0006F41BBE08B9FC0011124B80183569E4BD5
:104600000E948C1905C0B80188E791E40E948C19BA
:10461000E091C941F091CA4181E02A8D928D29171C
:1046200008F480E0DF91CF911F910F9108952091C0
:104630006A41FC0120834091714150917241609127
:1046400073417091744141835283638374830895ED
:104650008F929F92AF92BF92CF92DF92EF92FF9292
:104660000F931F93CF93DF93FC010FB6F8940F9233
:1046700080916A419081981789F080917141909161
:104680007241A0917341B0917441018112812381E3
:10469000348180179107A207B307A8F58091714173
:1046A00090917241A0917341B0917441C180D280C8
:1046B000E380F480EB01088119812A813B818C1908
:1046C0009D09AE09BF0980179107A207B307E8F457
:1046D000CF018090714190907241A0907341B09051
:1046E0007441B501A4014C195D096E097F09041BD1
:1046F000150B260B370B088319832A833B830E94F3
:10470000172380E003C081E001C081E00F900FBE5D
:10471000DF91CF911F910F91FF90EF90DF90CF909D
:10472000BF90AF909F908F90089581E080936B41F0
:104730000895009721F48091C9419091CA41DC010C
:104740005B96ED91FC915C978081813141F43196CB
:1047500080E090E0019621912131E1F3089580E01D
:1047600090E008958091C9419091CA4108950F93B6
:104770001F93CF93DF93FC01228DA091C941B0918B
:10478000CA415A968C91281708F041C0A091C9419E
:10479000B091CA415A963C9184E090E0A0E0B0E02C
:1047A000831B9109A109B10986879787A08BB18BDB
:1047B0008BE0289F9001112423563E4B84859585DC
:1047C00082179307E9F48F01EF012296CE010E9430
:1047D000FE19E091C941F091CA41828DF801828FA2
:1047E00090916F41981710F480936F41FBE08F9F79
:1047F000C0011124BE0183569E4B0E948C1907C034
:10480000A091C941B091CA415A968C91828FDF9193
:10481000CF911F910F9108950F931F93CF93DF9323
:10482000009749F1FC01328D27A1321721F1EC01EB
:104830008C010E5F1F4FC8010E94FE198FA18A8F45
:1048400044E050E060E070E0481B510961097109E3
:104850004E875F87688B798B90916F41981710F422
:1048600080936F41FBE08F9FC0011124B8018356F4
:104870009E4B0E948C19DF91CF911F910F9108954B
:10488000EC01E881F9810190F081E02D19951A82FF
:104890001B826FEF7FEFCB010E942322FACFFC0136
:1048A0006487658708954F925F926F927F928F928F
:1048B0009F92AF92BF92CF92DF92EF92FF920F93AF
:1048C0001F93CF93DF93CDB7DEB72A97CDBFDEBF5F
:1048D0004C01290138018CE990E2F4018083918335
:1048E000FB018081882369F0DE011196319690E00A
:1048F00002C0993039F09F5F8D9381918111F9CF7A
:1049000001C090E0E1E0F0E0EC0FFD1FE90FF11DC8
:1049100010827401F2E0EF0EF11CA12CB12CC12C1D
:10492000D12C042F9401A201BE016F5F7F4F8AE159
:1049300097E00E94D41EF4016682778240865186F9
:104940002091CB413091CC41248335838092CB415F
:104950009092CC41148615864090F1415090F241DE
:10496000FFEF4F1A5F0A4092F1415092F241F40179
:104970004286538616861786108A118A611471043E
:1049800009F444C0813079F56AE0C3010E94182718
:104990007C016BEB7DE00E94E126BE016F5F7F4FE3
:1049A000C7010E94E1266AE0C7010E9418277C0126
:1049B00062EB7DE00E94E1266AE0C7010E941827B1
:1049C0007C0164EA7DE00E94E12663E0C7010E9469
:1049D0001827B2010E94962862E00E94182766E01C
:1049E0000E94182713C06AE0C3010E9418274C01D7
:1049F0006FE87DE00E94E126BE016F5F7F4FC4013A
:104A00000E94E12666E0C4010E9418272A96CDBFC5
:104A1000DEBFDF91CF911F910F91FF90EF90DF905C
:104A2000CF90BF90AF909F908F907F906F905F904E
:104A30004F9008958F929F92AF92BF92CF92DF9244
:104A4000EF92FF920F931F93CF93DF93EC018B01B3
:104A50008A819B810E942B20BC01C8010E94E12613
:104A6000D801ED91FC910280F381E02D69E0C8014D
:104A700019958A819B810E942B20FC0101900020C6
:104A8000E9F73197E81BF90B389748F4D801ED9115
:104A9000FC910280F381E02D69E0C8011995CE8474
:104AA000DF84E888F988A884B9848A819B810E9480
:104AB0009923982E8C848A819B810E94D61F682F0F
:104AC000C8010E940C296AE00E941827EC0161E3EA
:104AD0007EE00E94E126682DCE010E940C296AE04A
:104AE0000E941827EC016FE27EE00E94E126692D0A
:104AF000CE010E940C296AE00E941827EC016DE2A9
:104B00007EE00E94E126B501CE010E9496286AE06F
:104B10000E941827EC016BE27EE00E94E1266AE029
:104B2000CE010E941827EC0169E27EE00E94E12696
:104B3000B701A601CE010E94CA28DF91CF911F9133
:104B40000F91FF90EF90DF90CF90BF90AF909F902C
:104B50008F9008950F93CF93DF931F92CDB7DEB759
:104B600000E02FEF3FEFA901BE016F5F7F4FFC0117
:104B7000808591850E94821D813019F4898190E0A1
:104B800002C08FEF9FEF0F90DF91CF910F910895AB
:104B9000FC01808591850E94731E91E0811101C006
:104BA00090E0892F08950F93CF93DF931F92CDB795
:104BB000DEB76983FC01228533854485558500E095
:104BC000BE016F5F7F4F808591850E94BB1C91E085
:104BD000811101C090E0892F0F90DF91CF910F914B
:104BE00008958F929F92BF92CF92DF92EF92FF92A1
:104BF0000F931F93CF93DF93EC01B62E4A01680108
:104C000079010E94D32684EA90E2888399838E8674
:104C10009F8640E061E08B2D0E948D1C88879987DC
:104C2000CA86DB86EC86FD86DF91CF911F910F91BE
:104C3000FF90EF90DF90CF90BF909F908F9008955E
:104C40000E94AA1808950E94AA1808950895CF9363
:104C5000DF93FC01DA01403A68E0560749F480E44A
:104C600096E08283938382E0848383E085833FC0E0
:104C7000403B78E0570749F480E496E082839383D1
:104C800086E0848387E0858332C0403A89E0580714
:104C900049F480E696E08283938382E0848383E014
:104CA000858325C0403B69E0560749F480E696E0DD
:104CB0008283938386E0848387E0858318C0403AAB
:104CC0007AE0570749F480E896E08283938382E094
:104CD000848383E085830BC0403A5B4041F480EAE3
:104CE00096E08283938382E0848383E08583A68336
:104CF000B783CD010196808791870396828793873A
:104D00002581C281D3814C8181E090E0BC0102C049
:104D1000660F771F2A95E2F79B01242B2C832581B0
:104D2000C281D3814881BC0102C0660F771F2A95DA
:104D3000E2F79B01242B28833481C281D38128810F
:104D400002C0880F991F3A95E2F7809590958223CB
:104D5000888380E113968C93139783E015968C9348
:104D6000159780EF17968C93179781E216968C9380
:104D7000169788E114968C9380E8858780E486876F
:104D800080E284870680F781E02D80818081DF9139
:104D9000CF91089581E0089580E090E0089580E04B
:104DA000089508950895FC0184EB90E28083918337
:104DB0008AE08283138283E08583148216821782BD
:104DC00008950F931F93CF93DF938C01FB01DC01B8
:104DD00014968C91811104C06081611117C023C0A9
:104DE000D80114961C92EB01219664916623D9F0A8
:104DF000D801ED91FC910280F381E02DC801199555
:104E0000FE01649121966111F3CF0DC0EF0121964F
:104E1000D801ED91FC910280F381E02DC801199534
:104E200069916111F5CFDF91CF911F910F91089595
:104E3000CF93DF93EC01862F90E08B309105D8F56E
:104E4000FC018827EB53FE4F8F4F0C948F2E82E08E
:104E50008A8331C088E08A832EC08AE08A832BC08F
:104E600080E18A8328C081E08B8325C01B8223C018
:104E7000E881F9810280F381E02D6DE0CE01199582
:104E8000E881F9810280F381E02D6AE0CE01199575
:104E900012C0E881F9810284F385E02DCE011995D5
:104EA0000AC0E881F9810084F185E02DCE011995D1
:104EB00002C081E08C83CE01DF91CF910895AF9243
:104EC000BF92CF92DF92EF92FF920F931F93CF93F7
:104ED000DF93CDB7DEB76497CDBFDEBF7C01CB01DA
:104EE000BA01D090062000E12D2DAE014F5F5F4F3B
:104EF0000E94B12E5C01898183FF06C062EC70E2E2
:104F0000C7010E94E12656C080FF09C0D701ED917C
:104F1000FC910280F381E02D6DE2C7011995D70164
:104F2000ED91FC910280F381E02D6A81C701199512
:104F3000DD2049F0D701ED91FC910280F381E02D55
:104F40006EE2C70119958E010D5F1F4FCE018D0DC9
:104F5000911DFC0133966F010C151D0599F0D801C8
:104F60006C9161111CC00EC0D701ED91FC910280C3
:104F7000F381E02D6BE2C7011995B501C7010E94CD
:104F80006D2818C0D701ED91FC910280F381E02DCE
:104F900065E4C70119951A141B0434F3EECF0F5FB3
:104FA0001F4FD701ED91FC910280F381E02DC701E5
:104FB0001995D2CFC7016496CDBFDEBFDF91CF91E7
:104FC0001F910F91FF90EF90DF90CF90BF90AF9027
:104FD0000895AF92BF92CF92DF92EF92FF920F931C
:104FE0001F93CF93DF93CDB7DEB76497CDBFDEBFFE
:104FF0007C01CB01BA011091062000E1212FAE0106
:105000004F5F5F4F0E94B12E5C01898183FF06C014
:1050100060EC70E2C7010E94E12650C080FF09C029
:10502000D701ED91FC910280F381E02D6DE2C70183
:105030001995D701ED91FC910280F381E02D6A81F1
:10504000C7011995112349F0D701ED91FC91028018
:10505000F381E02D6EE2C70119956E01B3E0CB0E2E
:10506000D11CF60161916F01D701ED91FC91028095
:10507000F381E02DC7011995115099F0F601808157
:105080008111EFCF0EC0D701ED91FC910280F38129
:10509000E02D6BE2C7011995B501C7010E946D288B
:1050A0000DC0D701ED91FC910280F381E02D65E602
:1050B000C70119951A141B0434F3EECFC701649687
:1050C000CDBFDEBFDF91CF911F910F91FF90EF9089
:1050D000DF90CF90BF90AF9008950F931F93CF9321
:1050E000DF93CDB7DEB76197CDBFDEBF8C019B01EB
:1050F000FC0192819A3021F0C8010E9496280DC0CF
:105100004AE0BE016F5F7F4FC9010E94A82FBE0118
:105110006F5F7F4FC8010E94E126C8016196CDBF35
:10512000DEBFDF91CF911F910F910895FF920F93F2
:105130001F93CF93DF93CDB7DEB76197CDBFDEBFAF
:105140008C01F62E972FF8014281403121F0483032
:1051500011F0423041F4692FC8010E940C296F2DD3
:105160000E940C290DC050E0BE016F5F7F4F8F2D54
:105170000E94E02FBE016F5F7F4FC8010E94E126B1
:10518000C8016196CDBFDEBFDF91CF911F910F9116
:10519000FF900895DF92EF92FF920F931F93CF93AA
:1051A000DF93CDB7DEB7A197CDBFDEBF8C01D42E84
:1051B000E52EF62E972FF8012281203121F028309C
:1051C00011F0223071F4692FC8010E940C296F2D53
:1051D0000E940C296E2D0E940C296D2D0E940C2915
:1051E0000FC030E0AE014F5F5F4F6D2D7E2D8F2DD4
:1051F0000E94B32FBE016F5F7F4FC8010E94E1265E
:10520000C801A196CDBFDEBFDF91CF911F910F9155
:10521000FF90EF90DF900895CF92DF92EF92FF9290
:105220000F931F93CF93DF93CDB7DEB72997CDBFF1
:10523000DEBF8C01E62EDC0113968C911397882338
:1052400041F0ED91FC910280F381E02DC8011995A8
:1052500056C0F8014281423019F56894CC24C3F855
:10526000D12C6894FF24F7F88E2D8F2151F0D801AE
:10527000ED91FC910280F381E02D61E3C801199565
:1052800009C0D801ED91FC910280F381E02D60E32B
:10529000C8011995F694B1E0CB1AD10829F72FC0AF
:1052A0004031F9F462956F700190F081E02D028039
:1052B000F381E02D6A3010F0695C01C0605DC801C7
:1052C00019956E2D6F70D801ED91FC910280F381DC
:1052D000E02D6A3010F0695C01C0605DC80119956D
:1052E0000EC050E0BE016F5F7F4F8E2D90E00E9498
:1052F000E02FBE016F5F7F4FC8010E94E126C80109
:105300002996CDBFDEBFDF91CF911F910F91FF9006
:10531000EF90DF90CF900895DC015096ED91FC91D5
:105320005197808154964C915497842329F009C059
:105330002150310919F412C021E23EE490819423F6
:10534000B9F3908156968C915697892B80831E963F
:10535000ED91FC911F97608381E0089580E00895AE
:10536000CF93DF93FC01C18DD28D28813981A38D2C
:10537000B48D4D915C9124173507E9F3A789B08D61
:105380000D90BC91A02DA20FB31F8C912F5F3F4FAA
:10539000288339832436310528F0018CF28DE02DE5
:1053A0001082118290E0DF91CF910895CF93DF9327
:1053B000EC01A98DBA8DEB8DFC8D81E04D915C9156
:1053C000208131814217530709F480E0DF91CF91AA
:1053D0000895DC01ED91FC910280F381E02D6CE0F9
:1053E00019950895EF92FF920F931F93CF93DF9338
:1053F000EC017B018A010E94D326A801B701CE01EE
:1054000008960E9427268AEC90E288839983003AC6
:1054100088E0180769F48FEE91E48F8B988F83EE04
:1054200091E4898F9A8F87ED91E48B8F9C8F53C085
:10543000003BE8E01E0769F48DEE91E48F8B988FB6
:1054400081EE91E4898F9A8F85ED91E48B8F9C8F0B
:1054500042C0003AF9E01F0769F48BEE91E48F8BAC
:10546000988F8FED91E4898F9A8F83ED91E48B8FE4
:105470009C8F31C0003B89E0180769F489EE91E404
:105480008F8B988F8DED91E4898F9A8F81ED91E4C8
:105490008B8F9C8F20C0003AEAE01E0769F487EEEC
:1054A00091E48F8B988F8BED91E4898F9A8F8FEC9D
:1054B00091E48B8F9C8F0FC0003A1B4061F485EE06
:1054C00091E48F8B988F89ED91E4898F9A8F8DEC81
:1054D00091E48B8F9C8F0F89188D84E690E00E9459
:1054E0002326F80180839183E98DFA8D1082118241
:1054F000EB8DFC8D10821182DF91CF911F910F9166
:10550000FF90EF9008951F920F920FB60F92112403
:105510000BB60F922F933F938F939F93EF93FF932D
:105520002091A008E091EF41F091F0418091D741A6
:105530009091D841E80FF91F20838091D741909135
:10554000D84101968436910560F48093D7419093B9
:10555000D8412091E3413091E44182179307F1F45F
:105560000CC01092D7411092D8418091E3419091A4
:10557000E4411816190691F40EC00196843691057F
:1055800028F48093E3419093E44108C01092E341F2
:105590001092E44103C081E090E0F3CFFF91EF91DE
:1055A0009F918F913F912F910F900BBE0F900FBE47
:1055B0000F901F9018951F920F920FB60F92112403
:1055C0000BB60F922F933F938F939F93EF93FF937D
:1055D0002091B008E091ED41F091EE418091D541EC
:1055E0009091D641E80FF91F20838091D541909189
:1055F000D64101968436910560F48093D54190930D
:10560000D6412091E1413091E24182179307F1F4B4
:105610000CC01092D5411092D6418091E1419091F9
:10562000E2411816190691F40EC0019684369105D0
:1056300028F48093E1419093E24108C01092E14147
:105640001092E24103C081E090E0F3CFFF91EF912F
:105650009F918F913F912F910F900BBE0F900FBE96
:105660000F901F9018951F920F920FB60F92112452
:105670000BB60F922F933F938F939F93EF93FF93CC
:105680002091A009E091EB41F091EC418091D7414C
:105690009091D841E80FF91F20838091D3419091D8
:1056A000D44101968436910560F48093D341909360
:1056B000D4412091DF413091E04182179307F1F40A
:1056C0000CC01092D3411092D4418091DF4190914F
:1056D000E0411816190691F40EC001968436910522
:1056E00028F48093DF419093E04108C01092DF419D
:1056F0001092E04103C081E090E0F3CFFF91EF9181
:105700009F918F913F912F910F900BBE0F900FBEE5
:105710000F901F9018951F920F920FB60F921124A1
:105720000BB60F922F933F938F939F93EF93FF931B
:105730002091B009E091E941F091EA418091D14195
:105740009091D241E80FF91F20838091D14190912F
:10575000D24101968436910560F48093D1419093B3
:10576000D2412091DD413091DE4182179307F1F45F
:105770000CC01092D1411092D2418091DD419091A4
:10578000DE411816190691F40EC001968436910573
:1057900028F48093DD419093DE4108C01092DD41F2
:1057A0001092DE4103C081E090E0F3CFFF91EF91D2
:1057B0009F918F913F912F910F900BBE0F900FBE35
:1057C0000F901F9018951F920F920FB60F921124F1
:1057D0000BB60F922F933F938F939F93EF93FF936B
:1057E0002091A00AE091E741F091E8418091CF41FA
:1057F0009091D041E80FF91F20838091CF41909183
:10580000D04101968436910560F48093CF41909306
:10581000D0412091DB413091DC4182179307F1F4B4
:105820000CC01092CF411092D0418091DB419091F9
:10583000DC411816190691F40EC0019684369105C4
:1058400028F48093DB419093DC4108C01092DB4147
:105850001092DC4103C081E090E0F3CFFF91EF9123
:105860009F918F913F912F910F900BBE0F900FBE84
:105870000F901F9018951F920F920FB60F92112440
:105880000BB60F922F933F938F939F93EF93FF93BA
:105890002091A00BE091E541F091E6418091CD414E
:1058A0009091CE41E80FF91F20838091CD419091D6
:1058B000CE4101968436910560F48093CD4190935A
:1058C000CE412091D9413091DA4182179307F1F40A
:1058D0000CC01092CD411092CE418091D94190914F
:1058E000DA411816190691F40EC001968436910516
:1058F00028F48093D9419093DA4108C01092D9419D
:105900001092DA4103C081E090E0F3CFFF91EF9174
:105910009F918F913F912F910F900BBE0F900FBED3
:105920000F901F9018955058BB27AA270E94AB2CA8
:105930000C94C62D0E94B82D38F00E94BF2D20F087
:1059400039F49F3F19F426F40C94B52D0EF4E0952C
:10595000E7FB0C94AF2DE92F0E94D72D58F3BA170F
:10596000620773078407950720F079F4A6F50C9475
:10597000F92D0EF4E0950B2EBA2FA02D0B01B901D5
:1059800090010C01CA01A0011124FF27591B99F0B5
:10599000593F50F4503E68F11A16F040A22F232FC1
:1059A000342F4427585FF3CF469537952795A79511
:1059B000F0405395C9F77EF41F16BA0B620B730BB8
:1059C000840BBAF09150A1F0FF0FBB1F661F771F29
:1059D000881FC2F70EC0BA0F621F731F841F48F4DE
:1059E000879577956795B795F7959E3F08F0B0CF67
:1059F0009395880F08F09927EE0F9795879508954E
:105A00000E94142D0C94C62D0E94BF2D58F00E94A8
:105A1000B82D40F029F45F3F29F00C94AF2D5111BF
:105A20000C94FA2D0C94B52D0E94D72D68F3992370
:105A3000B1F3552391F3951B550BBB27AA2762178A
:105A40007307840738F09F5F5F4F220F331F441F97
:105A5000AA1FA9F335D00E2E3AF0E0E832D09150CB
:105A60005040E695001CCAF72BD0FE2F29D0660FB8
:105A7000771F881FBB1F261737074807AB07B0E8FB
:105A800009F0BB0B802DBF01FF2793585F4F3AF001
:105A90009E3F510578F00C94AF2D0C94FA2D5F3F8A
:105AA000E4F3983ED4F3869577956795B795F79587
:105AB0009F5FC9F7880F911D9695879597F908956F
:105AC000E1E0660F771F881FBB1F6217730784070B
:105AD000BA0720F0621B730B840BBA0BEE1F88F71A
