S01600004652454552544F535F5348454C4C2E73726563CD
S11300000C946D070C949E070C949E070C949E0709
S11300100C949E070C949E070C949E070C949E07C8
S11300200C949E070C949E070C949E070C949E07B8
S11300300C949E070C949E070C947F1D0C949E07B1
S11300400C944E1D0C949E070C949E070C949E07D2
S11300500C949E070C949E070C949E070C949E0788
S11300600C949E070C942C300C949E070C949E07C1
S11300700C9484300C949E070C949E070C949E0759
S11300800C949E070C949E070C949E070C949E0758
S11300900C949E070C949E070C949E070C949E0748
S11300A00C949E070C949E070C949E070C948C1B36
S11300B00C94CB1B0C949E070C949E070C949E07E7
S11300C00C949E070C949E070C949E070C949E0718
S11300D00C949E070C949E070C949E070C941C2170
S11300E00C949E070C949E070C948C310C949E07E0
S11300F00C949E070C949E070C949E070C949E07E8
S11301000C949E070C949E070C940D1B0C944C1B92
S11301100C949E070C949E070C949E070C949E07C7
S11301200C949E070C949E070C949E070C949E07B7
S11301300C949E070C941D1D0C949E070C949E0712
S11301400C949E070C949E070C94EC1C0C94BB1C02
S11301500C949E070C948A1C0C949E070C949E0786
S11301600C94DC300C949E070C949E070C94343150
S11301700C949E070C949E070C949E070C949E0767
S11301800C949E070C949E070C949E070C949E0757
S11301900C949E070C949E070C949E070C949E0747
S11301A00C940B1C0C944A1C0C949E070C949E07F4
S11301B00C949E070C949E070C949E070C949E0727
S11301C00C949E070C949E070C949E070C949E0717
S11301D00C949E070C949E070C949E070C94E43197
S11301E00C949E070C949E070C949E070C949E07F7
S11301F00C949E070C949E070C949E07350A3A0AA9
S1130200660A910A1D0BAC0BED0B8B0CAD0D0512A0
S1130210B5177C1293123912B517B517B5176512B5
S1130220B517B517B517B517B5172312AF12B5170C
S1130230A112A612E513B517B517B51707141514AF
S113024021142D143914451451145D1469147514B2
S1130250B517B517B517B517B517B517B517B5173A
S1130260B517B517B517B517B517B517B517B5172A
S1130270B517B517B517B517B517B517B517B5171A
S1130280B517B517B517B517B517B517B517B5170A
S1130290B517B517B517B517B517B517B5176B1348
S11302A0B517B517B517FF12B517D313B517B5178B
S11302B0B517B517B517B517B517B517B517B517DA
S11302C0FA12B517B517B517B517B51782139D13DD
S11302D0B813E414F114B517B517B517B517B51756
S11302E0B517B517B517B517B517B5171B154515B8
S11302F0B517B517B517B517D214D814DE14A71649
S1130300B517B517B5171D172917351741174D1709
S11303105917651771177D178917B517B517B517CD
S1130320B517B517B517B517B517B517B517B51769
S1130330B517B517B517B517B517B517B517B51759
S1130340B517B517B517B517B517B517B517B51749
S1130350B517B517B517B517B517B517B517B51739
S1130360B517B517B517B5172D16B517B517B517B2
S11303700E16B517B517B517B517B517B517B517C1
S1130380B5170317B517B517B517B517EB16B51786
S1130390D1169F15B517B715D415F115A52CA82C92
S11303A0AB2CAE2CB12CB42CB62CC72CCF2CD92C06
S11303B0D72C0C94FA120C94AD0D0C948B180C944D
S11303C0D51D0C94C9170C94E9180C946A070C9465
S11303D082130C94B12C0C94D3130C94352F0C94DD
S11303E026180C94AB2C0C94E1170C94D5170C9490
S11303F075140C94E7170C94B5170C94A82C0C9452
S1130400DF170C9423120C9471170C94462B0C9444
S1130410350A0C945C180C94A7180C9439140C9499
S113042032180C9403170C94482C0C94F1150C946A
S11304304A2C0C94A52C0C941D170C94E2170C94C4
S11304402D160C948B0C0C9439120C943A0A0C94BF
S1130450D2140C94CF2C0C94AF120C949D130C94C6
S1130460DE140C940A180C9441170C94D7180C94AD
S11304701B150C94EB160C9445150C94ED0B0C9475
S1130480B8130C944D170C94A1120C9405120C94EF
S11304907D170C94660A0C9459170C9465170C94E8
S11304A0592F0C94C72C0C94512B0C94502C0C9455
S11304B0F5170C94DA170C946B130C9411180C9414
S11304C000180C9429170C945D140C94190A0C94BC
S11304D0E5130C94B42C0C94E8170C9493120C941C
S11304E0B7150C9407140C9445140C94AE2C0C946E
S11304F089170C94CF0D0C94E4140C94B62C0C9422
S1130500D92C0C9451140C94FF120C94A7160C942F
S11305100E160C94D4150C9465120C94D1160C94EC
S113052035170C941D0B0C94AC0B0C9450180C94B4
S1130530E9170C94EE170C949F150C94982A0C94BC
S1130540E0170C941C180C94A6120C9492110C94A1
S11305504D2C0C94BF180C942D140C94F1140C9481
S1130560A42B0C9421140C94D72C0C94282B0C94AD
S113057015140C947F2F0C947A180C944F2C0C9413
S113058069140C947C120C94FC230C94D8140C94D1
S1130590CF170C94922F0C94910A00407A10F35ABE
S11305A000A0724E18090010A5D4E80000E87648AF
S11305B0170000E40B54020000CA9A3B000000E15B
S11305C0F505000080969800000040420F000000EE
S11305D0A08601000000102700000000E8030000CE
S11305E000006400000000000A0000000000010098
S11305F0000000002C76D888DC674F0823DFC1DFB9
S1130600AE59E1B1B796E5E3E453C63AE6519976BB
S113061096E8E6C28426EB898C9B62ED407C6FFCF5
S1130620EFBC9C9F40F2BAA56FA5F490055A2AF737
S11306305C936B6CF9676DC11BFCE0E40D47FEF540
S113064020E6B500D0ED902E0300943577050080A8
S1130650841E080000204E0A000000C80C33333307
S1130660330F986E12831141EF8D2114893BE655A7
S113067016CFFEE6DB18D1844B381BF77C1D901D8A
S1130680A4BBE424203284725E228100C9F124ECEC
S1130690A1E53D27526573657474696E67206465CE
S11306A0766963652E00520046006C6F633A006CF5
S11306B06F633A0053006C6F633A00530076656CC5
S11306C03A20006C6F633A0053006C6F633A005336
S11306D03200526573657474696E67206465766967
S11306E063652E006D563A0048463A004300526F47
S11306F07574696E6520636F6D706C6574652E002A
S11307006D563A0048463A0053656E736F72205234
S1130710656164696E6720002C2054434330434371
S1130720413D002F002C204865617020667265658C
S11307303A200054696D653A20004F6374203130CB
S11307402032303138004D453430352062617365D4
S113075020726164696F2070726F6772616D2056D8
S1130760302E34200020202020683A2020204841C8
S11307704C50210020202020653A20202045786913
S11307807420636F6D6D616E64206D6F646500200D
S1130790202020733A202020537461636B206475F9
S11307A06D7020666F72207461736B73002020205B
S11307B020763A20202056657273696F6E20616E30
S11307C06420736574757020696E666F726D6174F0
S11307D0696F6E00202020206E3A20202053686F1D
S11307E077207468652074696D6520726967687420
S11307F0206E6F77002020496E20636F6D6D616EEF
S113080064206D6F6465206F6E6C793A002020431C
S1130810746C2D413A20456E74657220636F6D6D62
S1130820616E64206D6F646500202043746C2D43F9
S11308303A205265736574207468652041565200ED
S11308402068656C70004D453430352062617365F5
S113085020726164696F2070726F6772616D2056D7
S1130860302E3420001B5B33306D001B5B34366D3F
S113087000496C6C6567616C207374617465212038
S1130880526573657474696E6720415652005365EE
S11308906E736F722073616D706C652073697A6515
S11308A02073657420746F3A0053656E736F722001
S11308B064656C61792073657420746F3A004D69C6
S11308C063726F73746570207363616C65722073F7
S11308D0657420746F3A00436F6E66696720656EB5
S11308E074657265643A004C656176696E6720636D
S11308F06F6E666967206D6F6465005A2D61786953
S113090073206D61782076656C6F636974792073E8
S1130910657420746F3A00592D61786973206D6194
S1130920782076656C6F63697479207365742074BC
S11309306F3A00582D61786973206D61782076656F
S11309406C6F636974792073657420746F3A004D19
S113095061782076656C6F6369747920736574209F
S1130960746F3A00506C656173652063686F6F73D0
S11309706520746865206D6F746F7220796F7520BF
S1130980776F756C64206C696B6520746F20636F7E
S11309906E74726F6C2E00506C65617365206368B1
S11309A06F6F736520746865206D6F746F72207942
S11309B06F7520776F756C64206C696B6520746F3C
S11309C020636F6E74726F6C2E00506C656173657A
S11309D02063686F6F736520746865206D6F746F32
S11309E07220796F7520776F756C64206C696B6504
S11309F020746F20636F6E74726F6C2E0052656387
S1130A00656976696E67205A2D6C6F636174696FCE
S1130A106E732E00526563656976696E6720592D81
S1130A206C6F636174696F6E732E005265636569E0
S1130A3076696E6720582D6C6F636174696F6E738D
S1130A402E004572726F723A20556E657175616C35
S1130A50206178697320636F6F7264696E61746575
S1130A6020766563746F72732E00546F74616C200A
S1130A706E6F6465733A2000456E746572696E67C3
S1130A8020636F6E666967206D6F646500526573DD
S1130A90657474696E67206465766963652E0050B9
S1130AA072657373204374726C2D5320746F2073BA
S1130AB0746F702E005072657373204374726C2DC2
S1130AC05220746F20616374697661746520726565
S1130AD076657273652E0050726573732043747269
S1130AE06C2D4620746F206163746976617465208F
S1130AF0666F72776172642E00507265737320435F
S1130B0074726C2D5A20666F72205A2D4D6F746F5B
S1130B107220636F6D6D616E64732E005072657325
S1130B2073204374726C2D5920666F7220592D4DB9
S1130B306F746F7220636F6D6D616E64732E0050FD
S1130B4072657373204374726C2D5820666F722023
S1130B50582D4D6F746F7220636F6D6D616E647389
S1130B602E00456E746572696E6720446972656310
S1130B7074204F7065726174696F6E204D6F646587
S1130B802E005072657373204520746F2072657453
S1130B9075726E20746F20746865206D61696E20B3
S1130BA06D656E752E005072657373205220746FDC
S1130BB02072657365742074686520646576696362
S1130BC0652E005072657373204720746F20727510
S1130BD06E20746865206465766963652E005072C2
S1130BE0657373205A20746F20656E746572205A81
S1130BF02D636F6F7264696E617465732E00507239
S1130C00657373205920746F20656E746572205962
S1130C102D636F6F7264696E617465732E00507218
S1130C20657373205820746F20656E746572205844
S1130C302D636F6F7264696E617465732E00456E07
S1130C40746572696E6720436F6F7264696E617454
S1130C5065204D6F64652E005072657373204520C6
S1130C60746F2072657475726E20746F2074686579
S1130C70206D61696E206D656E752E00507265730E
S1130C8073205220746F20726573657420746865D4
S1130C90206465766963652E005072657373205A0B
S1130CA020746F2072657475726E20746865206498
S1130CB0657669636520746F20746865206F726956
S1130CC067696E2E005072657373205320746F2011
S1130CD06368616E67652074686520646566617524
S1130CE06C742073656E736F722072656164696ED3
S1130CF0672064656C61792074696D652E0050729B
S1130D00657373205520746F206368616E67652076
S1130D107468652064656661756C74206D6F746FAA
S1130D2072206D6963726F73746570207363616C94
S1130D3065722E00456E746572696E6720436F6E2E
S1130D4066696775726174696F6E204D6F64652E94
S1130D50005072657373205220746F20726573653E
S1130D607420746865206465766963652E0050722A
S1130D70657373204420666F7220446972656374DE
S1130D80204F7065726174696F6E204D6F64652EBB
S1130D90005072657373204320666F7220436F6F37
S1130DA07264696E617465204D6F64652E005072C3
S1130DB0657373204120666F7220436F6E666967A6
S1130DC075726174696F6E204D6F64652E0057658E
S1130DD06C636F6D6520746F20746865205573654E
S1130DE07220496E74657266616365206D61696E17
S1130DF0206D656E75206F6620746865203344200D
S1130E004865617420466C75782043616C69627230
S1130E1061746F722E00526573657474696E670035
S1130E204552524F5220696E207461736B20004505
S1130E3052524F52206372656174696E6720746107
S1130E40736B20002C20737461636B2061742030F9
S1130E5078002063726561746564005461736B206B
S1130E60000909002F0049444C45090930092D099E
S1130E7000092D2D2D2D00092D2D2D2D2D2D2D2D40
S1130E802D2D002D2D2D2D09092D2D2D2D092D2D27
S1130E902D2D2D000952756E730009467265652F5C
S1130EA0546F74616C004E616D6509095072692E4E
S1130EB00953746174650009537461636B00546170
S1130EC0736B09092020092000090009002F00097B
S1130ED0000900000E94BE29D51D11241FBECFEFBA
S1130EE0CDBFDFE5DEBF00E00CBF10E2A0E0B0E262
S1130EF0ECE1FCE600E00BBF02C007900D92A03FBE
S1130F00B107D9F722E4A0EFB0E201C01D92AD30E1
S1130F10B207E1F717E0CDE6D7E000E006C021977D
S1130F200109802FFE010E947734CC36D10780E07E
S1130F300807A9F70E9452190C940C360C9400006F
S1130F40CF93DF93EC01E881F9810684F785E02DE6
S1130F501995813059F4E881F9810680F781E02DF3
S1130F60CE01199519A21AA21BA21CA2DF91CF913E
S1130F700895CF93DF93EC01E881F9810684F78526
S1130F80E02D1995811107C0E881F9810680F78168
S1130F90E02DCE011995DF91CF910895FC01A08138
S1130FA0B18118969C918381892319F081E087830C
S1130FB001C0178287810895BC01645F7F4F48EEAA
S1130FC053E0FC01808191810E9407090895CF922A
S1130FD0DF92EF92FF920F931F93CF93DF93EC0175
S1130FE00E94DC070C851D85888199810E94430934
S1130FF06B017C01B801110F880B990B0E944C33D3
S1131000A70196010E94D8336B017C0120E030E0F7
S113101040E055E46A897B898C899D890E94D83394
S11310209B01AC01C701B6010E94A9326A837B838C
S11310308C839D83DF91CF911F910F91FF90EF904F
S1131040DF90CF900895CF93DF93EC010E94E707E0
S113105020E030E04AE754E46A817B818C819D8101
S11310600E94D83322E538EB4EEF5FE30E94D83379
S11310702DEC3CEC4CEF50E40E943D326E837F83B8
S113108088879987DF91CF910895CF93DF93EC01FF
S113109069837A831B821C821D821E8280E090E019
S11310A00E944A3320E030E046E154E40E94D83301
S11310B00E941B339B01AC01688779878A879B87D1
S11310C061E070E080E090E00E9455342C873D8719
S11310D04E875F87DF91CF9108959A01AB01FC01A0
S11310E060857185828593850E9445340895FC014D
S11310F063817481858196810895CF93DF93EC0198
S11311000E94450884EF91E0A0E0B0E0888B998BC1
S1131110AA8BBB8B80E090E0A0ECBFE38CA39DA3E3
S1131120AEA3BFA341E050E060E070E0CE010E94B6
S11311306D080E944A3368A779A78AA79BA7DF9105
S1131140CF910895EF92FF920F931F93FC01208F8C
S1131150318F428F538FE48EF58E068F178F20A325
S113116031A342A353A3148A158A168A178A1F919E
S11311700F91FF90EF900895CF92DF92EF92FF923C
S1131180CF93DF93EC01C8A0D9A0EAA0FBA08C8D7B
S11311909D8DAE8DBF8DC816D906EA06FB0618F5DF
S11311A08C899D89AE89BF890196A11DB11D8C8B47
S11311B09D8BAE8BBF8B6CA57DA58EA59FA50E9434
S11311C04A339B01AC0168A579A58AA59BA50E9419
S11311D0A9320E941B33C60ED71EE81EF91EC8A2F0
S11311E0D9A2EAA2FBA268A179A18AA19BA1DF915D
S11311F0CF91FF90EF90DF90CF900895DC01169689
S1131200ED91FC91179780A1806880A30895EF92D7
S1131210FF920F931F93CF93DF931F921F92CDB72B
S1131220DEB78C017B0149835A830E94FE088981C1
S11312309A81019789839A83892BB9F0D8011696EC
S1131240ED91FC91179783A180FFF1CF0EC0D801D7
S11312501696ED91FC91179784A195A1F7018083CF
S1131260918381E007C080E005C089819A81892B40
S113127071F7F9CF0F900F90DF91CF911F910F91DC
S1131280FF90EF900895FC016281738184819581C0
S113129008952F923F924F925F926F927F928F9216
S11312A09F92AF92BF92CF92DF92EF92FF920F93F1
S11312B01F93CF93DF93CDB7DEB73C012B012C8C6A
S11312C03D8C0E94D1298BE090E2F30180839183CD
S11312D0E28AF38AC48AD58AA68AB78A86A297A2A2
S11312E08A8D9B8D82AB93AB888D998D86AB97ABA2
S11312F08E899F8986AF97AFEA5BFF4F2082318248
S1131300329640825182B10180E090E00E944A33DB
S113131020E030E046E154E40E94D8339B01AC0164
S1131320F30160A771A782A793A760E070E080E84B
S11313309FE30E94A932F30164A775A786A797A724
S1131340DF91CF911F910F91FF90EF90DF90CF909D
S1131350BF90AF909F908F907F906F905F904F90D1
S11313603F902F9008950F931F93CF93DF93EC0139
S11313708A899B89DC01ED91FC910684F785E02D37
S11313801995811127C08E899F890E94CE078111EA
S113139048C08A899B89DC01ED91FC910190F08120
S11313A0E02D19950E811F81C85BDF4F688179811B
S11313B0C8010E945F2C6AE0C8010E94962CEC01CF
S11313C068EA76E00E945F2C66E0CE010E94962CCB
S11313D081E02AC08C899D890E94CE07811123C097
S11313E08A899B89DC01ED91FC910190F081E02DCB
S11313F019950E811F81C85BDF4F68817981C8010F
S11314000E945F2C6AE0C8010E94962CEC0166EAF7
S113141076E00E945F2C66E0CE010E94962C81E06B
S113142003C080E001C080E0DF91CF911F910F9154
S11314300895EC01C12CD12C4C0180E4880E911C40
S11314405E01A8E4AA0EB11C1E01B2E42B0E311CED
S11314508C8590E08930910508F08FC3FC018827C2
S1131460E250FF4F8F4F0C94773462E0CE010E941C
S1131470CD2983C38A899B894E960E94BC088A8998
S11314809B89DC01ED91FC910488F589E02D199587
S1131490882309F472C3EEA9FFA90FB6F8940F923A
S11314A010820F900FBE6AE08E819F810E94962C5D
S11314B03C016FEC76E00E945F2C66E0C3010E9461
S11314C0962C62E0CE010E94CD2957C30FB6F89442
S11314D00F920F900FBE8091F420882329F063E0CF
S11314E0CE010E94CD2949C30FB6F8940F920F90F4
S11314F00FBE8091F520882329F065E0CE010E947B
S1131500CD293BC30FB6F8940F920F900FBE809174
S1131510F320882309F431C365E0CE010E94CD296C
S11315202CC30FB6F8940F92EEA9FFA980810F90F7
S11315300FBE813009F03AC08A899B89DC01ED91A4
S1131540FC910480F581E02D19950FB6F8940F9263
S11315500F900FBE8A899B89E0903921F0903A213F
S113156000913B2110913C21FC01648D758D24EF89
S113157031E040E050E04E960E94A208CE010E9465
S1131580B3098DAF882329F064E0CE010E94CD29F0
S1131590F4C2EEA9FFA90FB6F8940F9210820F902F
S11315A00FBE62E0CE010E94CD29E7C20FB6F894C7
S11315B00F920F900FBE823009F03AC08A899B893E
S11315C0DC01ED91FC910280F381E02D19950FB6B9
S11315D0F8940F920F900FBE8A899B89E09039216D
S11315E0F0903A2100913B2110913C21FC01648D43
S11315F0758D24EF31E040E050E04E960E94A20841
S1131600CE010E94B3098DAF882329F064E0CE0196
S11316100E94CD29B2C2EEA9FFA90FB6F8940F9289
S113162010820F900FBE62E0CE010E94CD29A5C2A8
S113163062E0CE010E94CD29A0C28A899B894E9680
S11316400E94BC088A899B89DC01ED91FC91048885
S1131650F589E02D1995811108C0EEA9FFA90FB6EF
S1131660F8940F9210820F900FBE0FB6F8940F9259
S11316700F900FBEEEA9FFA98081811142C08A8913
S11316809B89DC01ED91FC910680F781E02D199591
S11316908A899B894E960E9477082B013C010E8112
S11316A01F81F50160817181C8010E945F2C6AE08D
S11316B0C8010E94962C8C016AEC76E00E945F2C93
S11316C0B301A201C8010E94142E66E00E94962C68
S11316D00E811F81D5016D917C91C8010E945F2C00
S11316E06AE0C8010E94962C8C0168EC76E00E94A6
S11316F05F2C66E0C8010E94962C62E0CE010E9435
S1131700CD29BFEFCB1ADB0AE5E0CE16D10409F0F0
S113171034C28A899B894E960E9477082B013C012A
S11317200E811F81D5016D917C91C8010E945F2CAF
S11317306AE0C8010E94962C8C0163EC76E00E945A
S11317405F2CB301A201C8010E94142E66E00E941E
S1131750962CC12CD12C11C20FB6F8940F920F9075
S11317600FBE8091F520811117C00FB6F8940F9227
S11317700F900FBE8091F32081110EC00FB6F89424
S11317800F920F900FBE80913D21811105C062E040
S1131790CE010E94CD29F1C10FB6F8940F920F909B
S11317A00FBE80916421882309F4E7C10FB6F89431
S11317B00F920F900FBE8091392190913A21A09100
S11317C03B21B0913C21F10180839183A283B383B7
S11317D066E0CE010E94CD29D0C18A899B894E96AC
S11317E00E9477086C8F7D8F8E8F9F8F8EA19FA113
S11317F0DC01ED91FC910084F185E02D199569AF30
S11318007AAF8BAF9CAF0FB6F8940F920F900FBEC8
S113181080913D21882349F18EAD9FADDC01ED918E
S1131820FC910084F185E02D19952B013C01F10117
S113183060837183828393830E811F81D5016D91AF
S11318407C91C8010E945F2C6AE0C8010E94962C1A
S11318508C016DEB76E00E945F2CB301A201C801FC
S11318600E94732E66E00E94962C4C8D5D8D6E8DC9
S11318707F8D89AD9AADABADBCAD481759076A07EA
S11318807B0704F58A899B89DC01ED91FC91048036
S1131890F581E02D19958A899B89F101E080F18019
S11318A002811381DC015C966D917C915D9724EF3C
S11318B031E040E050E04E960E94A208CE010E9422
S11318C0B30924C084179507A607B707FCF48A89CF
S11318D09B89DC01ED91FC910280F381E02D199547
S11318E08A899B89F101E080F18002811381DC0106
S11318F05C966D917C915D9724EF31E040E050E07F
S11319004E960E94A208CE010E94B30967E0CE0160
S11319100E94CD2932C10FB6F8940F920F900FBEDA
S113192080916121882369F08A899B89DC01ED918A
S1131930FC910680F781E02D199568E0CE010E94A4
S1131940CD298A899B894E960E94BC08F401608344
S113195071838A899B89DC01ED91FC910684F7856A
S1131960E02D1995811162C08A899B894E960E9447
S1131970770809AD1AAD2BAD3CAD6017710782072E
S113198093070CF4C0C08A899B89DC01ED91FC911A
S11319900680F781E02D19950E811F81F501608184
S11319A07181C8010E945F2C6AE0C8010E94962CD4
S11319B08C016BEB76E00E945F2C66E0C8010E940C
S11319C0962C8A899B894E960E9477082B013C01AC
S11319D00E811F81D5016D917C91C8010E945F2CFD
S11319E06AE0C8010E94962C8C0166EB76E00E94A6
S11319F05F2CB301A201C8010E94142E66E00E946C
S1131A00962CEAA9FBA90FB6F8940F92B1E0B08323
S1131A100F900FBE0FB6F8940F92109264210F909E
S1131A200FBE65E0CE010E94CD296DC08A899B89D5
S1131A30DC01ED91FC910684F785E02D1995813048
S1131A4009F061C08A899B894E960E94770809AD86
S1131A501AAD2BAD3CAD06171707280739070CF450
S1131A6052C08A899B89DC01ED91FC910680F78143
S1131A70E02D19950E811F81F50160817181C801E6
S1131A800E945F2C6AE0C8010E94962C8C0164EBD2
S1131A9076E00E945F2C66E0C8010E94962C8A8939
S1131AA09B894E960E9477082B013C010E811F8171
S1131AB0D5016D917C91C8010E945F2C6AE0C80138
S1131AC00E94962C8C016FEA76E00E945F2CB30191
S1131AD0A201C8010E94142E66E00E94962CEAA975
S1131AE0FBA90FB6F8940F92B1E0B0830F900FBE2C
S1131AF00FB6F8940F92109264210F900FBE65E018
S1131B00CE010E94CD29EFEFCE1ADE0AF5E0CF1602
S1131B10D10499F58A899B894E960E9477082B01F6
S1131B203C010E811F81D5016D917C91C8010E94F9
S1131B305F2C6AE0C8010E94962C8C016AEA76E068
S1131B400E945F2CB301A201C8010E94142E66E01A
S1131B500E94962CC12CD12C10C00FB6F8940F9271
S1131B600F900FBE80916121811107C0CE010E94A8
S1131B70B30967E0CE010E94CD298E859F85A8898F
S1131B80B9890196A11DB11D8E879F87A88BB98B3A
S1131B9064E170E080E090E00E94A12759CCCF93EB
S1131BA0DF9300D01F92CDB7DEB78C01FC01158EF8
S1131BB0168E178E10A2118E128E138E148E0FB6DF
S1131BC0F8940F92109277210F900FBEDD24D394D6
S1131BD0F8018485813009F44BC038F0823009F46F
S1131BE013C1833009F438C2DFC20FB6F8940F92E0
S1131BF00F900FBE80917221882371F0F801118E2D
S1131C00128E138E148E158E168E178E10A263E00C
S1131C10C8010E94CD29C8C20FB6F8940F920F9044
S1131C200FBE8091F520811113C00FB6F8940F9266
S1131C300F900FBE8091F32081110AC00FB6F89463
S1131C400F920F900FBE80913D21882309F4ACC2FE
S1131C50F801118E128E138E148E158E168E178E19
S1131C6010A2158A168A6D2DC8010E94CD299CC226
S1131C700FB6F8940F920F900FBE80917A218823AB
S1131C8009F492C20FB6F8940F920F900FBE809190
S1131C907921882309F488C20FB6F8940F920F9023
S1131CA00FBE80917821882309F47EC20FB6F89480
S1131CB00F920F900FBE8091F320882309F42FC058
S1131CC00FB6F8940F921092F3200F900FBE0FB638
S1131CD0F8940F92D09264210F900FBE0FB6F8942F
S1131CE00F92109272210F900FBE0FB6F8940F92BC
S1131CF010927A210F900FBE0FB6F8940F921092A3
S1131D0079210F900FBE0FB6F8940F92109278219C
S1131D100F900FBE60E0C8010E94CD2945C20FB6E6
S1131D20F8940F92D09272210F900FBE0FB6F894D0
S1131D300F924090692150906A2160906B217090BD
S1131D406C210F900FBEF801E588F688FFEFEF1ABB
S1131D50FF0AF801E58AF68A6AE0868197810E9483
S1131D60962C5C0168E077E00E945F2CB701C50106
S1131D700E943F2E7C016FE070E20E945F2CB30151
S1131D80A201C7010E94732E7C016AE170E20E94E5
S1131D905F2C66E0C7010E94962CF80182898F5F50
S1131DA0828B0E949B2569837A838B839C830FB6E5
S1131DB0F8940F920F900FBE2091692130916A21FF
S1131DC040916B2150916C21A8EEB3E00E948E34B7
S1131DD0683EF3E07F078105910548F028EE33E083
S1131DE040E050E00E945534BA01A90104C041E02A
S1131DF050E060E070E0CE0101960E94342762E07A
S1131E00C8010E94CD29D0C10FB6F8940F926091F9
S1131E106E2170916F2180917021909171210F90AA
S1131E200FBEF801458C568C678C70A04616570679
S1131E3068067906F0F4838994890E9423089B013B
S1131E40AC01F801618D728D838D948D0E943D32B9
S1131E50F801618F728F838F948F858D968DA78DF6
S1131E60B0A10196A11DB11D858F968FA78FB0A338
S1131E709BC10FB6F8940F920F900FBE0E944A3385
S1131E809B01AC01F801618D728D838D948D0E944C
S1131E90A9322B013C010FB6F8940F926093732181
S1131EA07093742180937521909376210F900FBEC7
S1131EB00FB6F8940F920F900FBE6AE0F801868176
S1131EC097810E94962C7C0164E077E00E945F2C4D
S1131ED02DE73FE349EC50E4C301B2010E94D8333B
S1131EE0AB01BC01C7010E94672D66E00E94962CDD
S1131EF00FB6F8940F924090732150907421609023
S1131F007521709076210F900FBE6AE0F8018681EA
S1131F1097810E94962C7C0160E077E00E945F2C00
S1131F20B301A201C7010E94DD2C66E00E94962C39
S1131F30F801118E128E138E148E158E168E178E36
S1131F4010A20FB6F8940F920F900FBE2091622149
S1131F5030916321858996898217930708F028C0F8
S1131F600FB6F8940F92D09264210F900FBE0FB663
S1131F70F8940F92109272210F900FBE0FB6F8943E
S1131F800F9210927A210F900FBE0FB6F8940F9211
S1131F90109279210F900FBE0FB6F8940F92109201
S1131FA078210F900FBE6D2DC8010E94CD29FCC071
S1131FB06AE0F801868197810E94962C7C016EEE7E
S1131FC076E00E945F2C66E0C7010E94962C60E0D8
S1131FD0C8010E94CD290FB6F8940F921092F520F3
S1131FE00F900FBE0FB6F8940F9210923D210F90F0
S1131FF00FBE6AE0F801868197810E94962C7C01CD
S11320006CEE76E00E945F2C66E0C7010E94962C7D
S11320100FB6F8940F92109264210F900FBE0FB672
S1132020F8940F92109272210F900FBE0FB6F8948D
S11320300F9210927A210F900FBE0FB6F8940F9260
S1132040109279210F900FBE0FB6F8940F92109250
S113205078210F900FBEA8C00FB6F8940F9260912C
S11320606E2170916F2180917021909171210F9058
S11320700FBEF801458C568C678C70A04616570627
S113208068067906F0F4838994890E9423089B01E9
S1132090AC01F801618D728D838D948D0E943D3267
S11320A0F801618F728F838F948F858D968DA78DA4
S11320B0B0A10196A11DB11D858F968FA78FB0A3E6
S11320C073C00FB6F8940F920F900FBE0E944A335C
S11320D09B01AC01F801618D728D838D948D0E94FA
S11320E0A9322B013C010FB6F8940F92609373212F
S11320F07093742180937521909376210F900FBE75
S11321000FB6F8940F920F900FBE6AE0F801868123
S113211097810E94962C7C0168EE76E00E945F2CE9
S11321202DE73FE349EC50E4C301B2010E94D833E8
S1132130AB01BC01C7010E94672D66E00E94962C8A
S11321400FB6F8940F9240907321509074216090D0
S11321507521709076210F900FBE6AE0F801868198
S113216097810E94962C7C0164EE76E00E945F2C9D
S1132170B301A201C7010E94DD2C66E00E94962CE7
S1132180F801118E128E138E148E158E168E178EE4
S113219010A20FB6F8940F92109272210F900FBEF6
S11321A060E0C8010E94CD29F80186859785A08941
S11321B0B1890196A11DB11D86879787A08BB18B2C
S11321C061E070E080E090E00E94A12701CDCF9211
S11321D0DF92EF92FF920F931F93CF93DF93EC0163
S11321E06B010E94D12983E290E288839983EB8A70
S11321F0FC8AC9A2DAA2DF91CF911F910F91FF90BF
S1132200EF90DF90CF900895EF92FF920F931F937A
S1132210CF93DF93EC017B010E94D1298BE290E202
S113222088839983FE01E05EFE4FE082F182CE5EF8
S1132230DE4F1882DF91CF911F910F91FF90EF90A5
S11322400895BF92CF92DF92EF92FF920F931F9364
S1132250CF93DF93FC01DC01AE5EBE4F2C9130E0E6
S11322602150310912161306A4F540E050E0B12CB8
S113227060E070E0CB01DC01CB01880F991FAA1F3D
S1132280BB1F6C017D01CC0CDD1CEE1CFF1CCC0CB7
S1132290DD1CEE1CFF1C8C0D9D1DAE1DBF1D4E0FC5
S11322A05F1FEA014A8950E040535109052E000C92
S11322B0660B770B7A018B01E80EF91E0A1F1B1FB0
S11322C0C801B701B3944B2D50E0421753079CF259
S11322D003C060E070E0CB01DF91CF911F910F91BB
S11322E0FF90EF90DF90CF90BF9008956AE0FC01DB
S11322F0868197810E94962CEC016DE87AE00E9419
S11323005F2C66E0CE010E94962C93E088ED08B61F
S113231018BE84BF909380008091820081FDFCCF21
S113232008BEFFCFCF93DF9300D000D0CDB7DEB788
S113233089839A838C010E5E1E4F7C018DEEE81A10
S11323408EEFF80A89809A8099EE891A9EEF990A8D
S1132350A980BA80A3EEAA1AAEEFBA0A69807A807D
S1132360B7EE6B1ABEEF7B0A49805A80E5EE4E1A2F
S1132370EEEF5E0A29803A80FEED2F1AFEEF3F0A47
S113238089819A818D839E83AD81BE811C968C91B7
S11323901C97813009F4FDC038F0823009F4CFC2B3
S11323A0833009F49BC3C1C5ED81FE818681978189
S11323B0DC01ED91FC910480F581E02D19958823D1
S11323C009F4D3C5ED81FE8186819781DC01ED910D
S11323D0FC910680F781E02D1995F8012081ED81AB
S11323E0FE81E20FF11D828B2F5FD8012C93992778
S11323F0FC01E156F109E331F10508F0B6C588277F
S1132400E95FFE4F8F4F0C9477340FB6F8940F9218
S113241081E08093F6200F900FBE6AE0ED81FE818B
S1132420868197810E94962C6C0168E77AE00E946D
S11324305F2C66E0C6010E94962C63E08D819E812C
S11324400E94CD2992C50FB6F8940F921092F220F3
S11324500F900FBE0FB6F8940F921092F1200F90C8
S11324600FBE0FB6F8940F921092F0200F900FBE8B
S11324707CC50FB6F8940F9281E080933D210F90B4
S11324800FBE0FB6F8940F921092692110926A2130
S113249010926B2110926C210F900FBE0FB6F8941E
S11324A00F9281E090E0A0E0B0E080936E219093E1
S11324B06F21A0937021B09371210F900FBE61E042
S11324C08D819E810E94CD2950C50FB6F8940F923C
S11324D00F900FBE8091F320811147C50FB6F89479
S11324E00F9281E08093F3200F900FBE61E08D8105
S11324F09E810E94CD2939C50FB6F8940F920F9092
S11325000FBE8091F520811130C50FB6F8940F925B
S113251081E08093F5200F900FBE61E08D819E8154
S11325200E94CD2922C50FB6F8940F9281E08093C2
S1132530F4200F900FBE62E08D819E810E94CD2910
S113254014C5AD81BE81CD010E9476110FB6F894F9
S11325500F9281E0809372210F900FBE06C50FB6D3
S1132560F8940F920F900FBE80916121811109C0E0
S11325700FB6F8940F9281E0809361210F900FBE03
S1132580F4C40FB6F8940F92109261210F900FBE0D
S1132590ECC4ED81FE8186819781DC01ED91FC9193
S11325A00480F581E02D1995882309F4AAC1ED81F1
S11325B0FE8186819781DC01ED91FC910680F78193
S11325C0E02D1995BC01F8018081ED81FE81E80FB1
S11325D0F11D628B8F5FD8018C93FB01FF27BC97A1
S11325E0EF34F10508F0C1C48827E65EFE4F8F4F33
S11325F00C947734ED81FE81CF010E947611809195
S11326000F21909110210E94F123D82E8091052151
S1132610909106210E94F123D81245C080910F2188
S1132620909110210E94F123D82E8091FB2090914B
S1132630FC200E94F123D81236C080910F21909182
S113264010210E94F123C82ED12C0FB6F8940F92BA
S1132650C0926221D09263210F900FBE0FB6F894FE
S11326600F920F900FBE6AE0AD81BE8116968D91D8
S11326709C9117970E94962C89839A836AE67AE044
S11326800E945F2CB60189819A810E943F2E66E0E8
S11326900E94962C0FB6F8940F9281E080936421E7
S11326A00F900FBE10C06AE0ED81FE818681978194
S11326B00E94962C6C0162E47AE00E945F2C66E032
S11326C0C6010E94962CD8011C9260E08D819E81E7
S11326D00E94CD294AC48D819E810E942111F70157
S11326E06083718382839383D4018D919C91DC01F7
S11326F0ED91FC910190F081E02DB7011995F8015D
S1132700108233C4D8011C9266E0ED81FE8186817B
S113271097810E94962C6AE00E94962C6C016BE2D1
S11327207AE00E945F2C66E0C6010E94962CEBE0E2
S1132730F1E2D401ED93FC9318C4D8011C9266E035
S1132740ED81FE81868197810E94962C6AE00E9429
S1132750962C6C0164E17AE00E945F2C66E0C6016D
S11327600E94962CE1E0F1E2D401ED93FC93FDC3C9
S1132770D8011C9266E0ED81FE81868197810E94DA
S1132780962C6AE00E94962C6C016DEF79E00E9411
S11327905F2C66E0C6010E94962CE7EFF0E2D401BC
S11327A0ED93FC93E2C30FB6F8940F9281E080930B
S11327B06D210F900FBE66E0AD81BE8116968D919E
S11327C09C9117970E94962CD0C3ED81FE8186813F
S11327D09781DC01ED91FC910280F381E02D199544
S11327E08D819E810E942111F70160837183828310
S11327F09383D4018D919C91DC01ED91FC91019026
S1132800F081E02DB7011995F8011082AEC3AD81B6
S1132810BE8116968D919C911797DC01ED91FC91E8
S11328200280F381E02D1995A0C3ED81FE8186819C
S11328309781DC01ED91FC910280F381E02D1995E3
S113284094C3ED81FE8186819781DC01ED91FC9139
S11328500280F381E02D199588C3ED81FE81868184
S11328609781DC01ED91FC910280F381E02D1995B3
S11328707CC3ED81FE8186819781DC01ED91FC9121
S11328800280F381E02D199570C3ED81FE8186816C
S11328909781DC01ED91FC910280F381E02D199583
S11328A064C3ED81FE8186819781DC01ED91FC9109
S11328B00280F381E02D199558C3ED81FE81868154
S11328C09781DC01ED91FC910280F381E02D199553
S11328D04CC3ED81FE8186819781DC01ED91FC91F1
S11328E00280F381E02D199540C3ED81FE8186813C
S11328F09781DC01ED91FC910280F381E02D199523
S113290034C385E191E20E94462B882309F42DC348
S1132910AD81BE811696ED91FC9117970190F081DF
S1132920E02DC280D38085E191E20E94282B682F9C
S1132930ED81FE8186819781F601199516C3AD81DB
S1132940BE8116968D919C911797DC01ED91FC91B7
S11329500480F581E02D1995882309F406C3ED81DF
S1132960FE8186819781DC01ED91FC910680F781DF
S1132970E02D1995F8012081ED81FE81E20FF11D12
S1132980828B2F5FD8012C939927FC01E556F1091E
S1132990E631F10508F0E9C28827E759FE4F8F4F69
S11329A00C94773482EF90E2F50180839183DDC249
S11329B081EF90E2D5018D939C93D7C280EF90E292
S11329C0F50180839183D1C20FB6F8940F921092CF
S11329D0F4200F900FBE60E08D819E810E94CD296E
S11329E0C4C2D501ED91FC91B0E2E23FFB0741F096
S11329F080E2E13FF80721F090E2E03FF90741F47B
S1132A000FB6F8940F9281E080830F900FBEADC291
S1132A106AE0AD81BE8116968D919C9117970E94B4
S1132A20962C6C016AEC79E00E945F2C66E0C6018A
S1132A300E94962C9AC2D501ED91FC91B0E2E23F3E
S1132A40FB0741F080E2E13FF80721F090E2E03F2C
S1132A50F90741F40FB6F8940F9282E080830F9047
S1132A600FBE83C26AE0AD81BE8116968D919C91A2
S1132A7017970E94962C6C0167E979E00E945F2CFD
S1132A8066E0C6010E94962C70C2D501ED91FC91BE
S1132A90B0E2E23FFB0741F080E2E13FF80721F0BA
S1132AA090E2E03FF90739F40FB6F8940F921082E0
S1132AB00F900FBE5AC26AE0AD81BE8116968D9109
S1132AC09C9117970E94962C6C0164E679E00E9411
S1132AD05F2C66E0C6010E94962C47C2ED81FE8100
S1132AE086819781DC01ED91FC910480F581E02DD4
S1132AF01995882309F439C2ED81FE818681978175
S1132B00DC01ED91FC910680F781E02D1995BC0163
S1132B10F8018081ED81FE81E80FF11D628B8F5FEA
S1132B20D8018C93FB01FF27BC97EF34F10508F023
S1132B301CC28827E158FE4F8F4F0C9477346AE00B
S1132B40ED81FE81868197810E94962C6C016FE451
S1132B5079E00E945F2C66E0C6010E94962CD801A1
S1132B601C9289E391E2F30180839183FEC16AE0C0
S1132B70AD81BE8116968D919C9117970E94962CDB
S1132B806C0163E379E00E945F2C66E0C6010E9459
S1132B90962CF801108287E591E2D2018D939C93E3
S1132BA081E0F1018083E1C16AE0AD81BE811696C6
S1132BB08D919C9117970E94962C6C0167E179E0A6
S1132BC00E945F2C66E0C6010E94962CF8011082D8
S1132BD08DE491E2D2018D939C9381E0F101808395
S1132BE0C4C16AE0AD81BE8116968D919C91179700
S1132BF00E94962C6C016BEF78E00E945F2C66E0DB
S1132C00C6010E94962CF801108283E491E2D2015D
S1132C108D939C9381E0F1018083A7C16AE0AD812B
S1132C20BE8116968D919C9117970E94962C6C01EB
S1132C3067EE78E00E945F2C66E0C6010E94962C45
S1132C400FB6F8940F921092F6200F900FBE60E02A
S1132C508D819E810E94CD2988C18D819E810E9493
S1132C6021119B01AC01F7016083718382839383FB
S1132C70D1018C918823B1F0A8EEB3E00E948E3488
S1132C806083718382839383D2018D919C91DC0153
S1132C90ED91FC910190F081E02DB7011995F101BE
S1132CA0108232C0D301CD90DC90BFE3CB16B1E2E9
S1132CB0DB0661F464E670E080E090E00E94553445
S1132CC0F70120833183428353830FC0F9E3CF1686
S1132CD0F1E2DF0651F4ACEDB5E00E948E34D70189
S1132CE06D937D938D939C931397F70180819181CC
S1132CF0A281B3810FB6F8940F92F6018083918379
S1132D00A283B3830F900FBED8011C92D7018D917B
S1132D109D910D90BC91A02D89839A83AB83BC8334
S1132D206AE0ED81FE81868197810E94962C6C0178
S1132D3067ED78E00E945F2C49815A816B817C8128
S1132D40C6010E94732E66E00E94962C0EC1AD81CE
S1132D50BE8116968D919C911797DC01ED91FC91A3
S1132D600280F381E02D19958D819E810E942111AD
S1132D709B01AC01A8EEB3E00E948E34F70160839E
S1132D80718382839383D2018D919C91DC01ED91B7
S1132D90FC910190F081E02DB7011995F8011082A2
S1132DA0E4C06AE0AD81BE8116968D919C9117971F
S1132DB00E94962C6C016EEB78E00E945F2C66E01A
S1132DC0C6010E94962CF801108285E691E2D30197
S1132DD08D939C93CAC06AE0ED81FE8186819781C0
S1132DE00E94962C6C0169EA78E00E945F2C66E0F0
S1132DF0C6010E94962CD8011C9289E691E2F30147
S1132E0080839183B2C06AE0AD81BE8116968D91B4
S1132E109C9117970E94962C6C016EE878E00E94B2
S1132E205F2C66E0C6010E94962CF80110828EE6A3
S1132E3091E2D3018D939C9398C0ED81FE818681AC
S1132E409781DC01ED91FC910280F381E02D1995CD
S1132E508CC0ED81FE8186819781DC01ED91FC912E
S1132E600280F381E02D199580C0ED81FE81868179
S1132E709781DC01ED91FC910280F381E02D19959D
S1132E8074C0ED81FE8186819781DC01ED91FC9116
S1132E900280F381E02D199568C0ED81FE81868161
S1132EA09781DC01ED91FC910280F381E02D19956D
S1132EB05CC0ED81FE8186819781DC01ED91FC91FE
S1132EC00280F381E02D199550C0ED81FE81868149
S1132ED09781DC01ED91FC910280F381E02D19953D
S1132EE044C0ED81FE8186819781DC01ED91FC91E6
S1132EF00280F381E02D199538C0ED81FE81868131
S1132F009781DC01ED91FC910280F381E02D19950C
S1132F102CC0ED81FE8186819781DC01ED91FC91CD
S1132F200280F381E02D199520C0A983BA836AE059
S1132F30FD01868197810E94962C89839A8361E79B
S1132F4078E00E945F2C66E089819A810E94962C29
S1132F5093E088ED08B618BE84BF909380008091FA
S1132F60820081FDFCCF08BEFFCFED81FE81868506
S1132F709785A089B1890196A11DB11D8687978780
S1132F80A08BB18B61E070E080E090E00E94A1270B
S1132F90FBC980559F4F21E0FC01208308958F5485
S1132FA09F4F21E0FC01208308958F549F4FFC0123
S1132FB01082089580559F4FFC0110820895089552
S1132FC0089508958F549F4FFC01808108950895BA
S1132FD0089580559F4FFC0180810895FC018481F0
S1132FE095810E94F92390E00895FC0184819581E4
S1132FF00E94F92391E0811101C090E0892F089586
S1133000FC01848195810E94F92391E0811190E073
S1133010892F0895FC01848195810E94F12390E019
S11330200895FC01848195810E94F12391E081112E
S113303001C090E0892F0895FC01848195810E944C
S1133040F12391E0811190E0892F08950F9301E01D
S11330502FEF3FEFA901FC01848195810E94002399
S11330600F9108950F93CF93DF9300D01F92CDB7A4
S1133070DEB701E02FEF3FEFA901BE016F5F7F4F85
S1133080FC01848195810E94002369817A818B816E
S11330909C812496CDBFDEBFDF91CF910F9108951F
S11330A00F9300E02FEF3FEFA901FC01848195818C
S11330B00E9400230F9108950F93CF93DF9300D0C4
S11330C01F92CDB7DEB700E02FEF3FEFA901BE019D
S11330D06F5F7F4FFC01848195810E940023698189
S11330E07A818B819C812496CDBFDEBFDF91CF9105
S11330F00F910895CF93DF931F92CDB7DEB7AE0142
S11331004F5F5F4FFC01848195810E94C4230F901F
S1133110DF91CF910895CF93DF93CDB7DEB7259795
S1133120CDBFDEBFAE014B5F5F4FBE016F5F7F4F10
S1133130FC01848195810E94C42369817A818B81F9
S11331409C812596CDBFDEBFDF91CF910895CF93AB
S1133150DF931F92CDB7DEB7198221E0AE014F5F36
S11331605F4FFC01848195810E94D42291E08111FA
S113317001C090E0892F0F90DF91CF910895CF93F4
S1133180DF931F92CDB7DEB7198220E0AE014F5F07
S11331905F4FFC01848195810E94D42291E08111CA
S11331A001C090E0892F0F90DF91CF9108950F9384
S11331B0FC01268137814085518501E08481958118
S11331C00E94392291E0811101C090E0892F0F9172
S11331D008950F93FC01268137814085518500E0D5
S11331E0848195810E94392291E0811101C090E08F
S11331F0892F0F910895CF93DF93EC014E960E948F
S11332007D08FE01E558FF4F10821182128213825D
S113321034961082118212821382349610821182A3
S1133220128213823496108211821282138234968F
S1133230108211821282138283E790E28883998339
S1133240B9961082118212821382349610821182EE
S1133250128213823496108211821282138234965F
S11332601082118212821382CC53DF4F188219828A
S11332701A821B82DF91CF9108950F93CF93DF932E
S11332801F92CDB7DEB72FB72983F8941BBEFC017C
S113329008ED04BF608389818FBF0F90DF91CF91C8
S11332A00F9108956F927F928F929F92AF92BF92E7
S11332B0CF92DF92EF92FF920F931F93CF93DF93FE
S11332C0CDB7DEB76D97CDBFDEBFF894E0E5F0E093
S11332D0808182608083818181FFFDCF6091400085
S11332E0687F616080E490E00E943D19E0E5F0E0D1
S11332F080818E7F80839DEF88ED08B618BE84BFE1
S11333009093800008BE40EA5AE060E070E0CE018D
S113331001960E949B2F67E0CE0101960E94962C95
S11333203C016FE270E20E945F2C66E0C3010E94E0
S1133330962C66E00E94962C0FB6F8940F9282E0C9
S113334090E0A0E0B0E08093692190936A21A0937B
S11333506B21B0936C210F900FBE0FB6F8940F92AF
S113336088E090E0A0E0B0E080936521909366212E
S1133370A0936721B09368210F900FBE0FB6F89405
S11333800F9288EE93E0A0E0B0E080936E219093DA
S11333906F21A0937021B09371210F900FBE0FB6CF
S11333A0F8940F9282E390E0A0E0B0E080933F2194
S11333B090934021A0934121B09342210F900FBEDE
S11333C00FB6F8940F928CE49DE1A0E0B0E08093F6
S11333D0392190933A21A0933B21B0933C210F9043
S11333E00FBE8AE190E00E949E2B80933721909338
S11333F0382188EC90E00E949E2B3C0168E070E04C
S11334000E94FB186092292170922A2188EC90E096
S11334100E949E2B3C0168E070E00E94FB186092C1
S113342027217092282188EC90E00E949E2B3C0179
S113343068E070E00E94FB186092252170922621BA
S113344088E090E00E949E2B809335219093362152
S113345088E090E00E949E2B809333219093342146
S113346088E090E00E949E2B80933121909332213A
S113347088E090E00E949E2B80932F21909330212E
S113348088E090E00E949E2B80932D2190932E2122
S113349088E090E00E949E2B80932B2190932C2116
S11334A083E291E00E949E2B8E010F5F1F4F20E864
S11334B030E040E06EE470E20E9404118AE490E09F
S11334C00E949E2BA0903321B0903421C0903521CE
S11334D0D0903621E0902921F0902A211F926894FF
S11334E0772473F87F922AE731E23F932F9322EFF8
S11334F030E23F932F9327E531E23F932F930F2E32
S1133500FBE08F2EF1E29F2EF02D20E830E044E026
S113351066E570E20E9449098AE490E00E949E2BCD
S1133520A0902F21B0903021C0903121D090322131
S1133530E0902721F09028211F927F9229E731E221
S11335403F932F9321EF30E23F932F932DE431E209
S11335503F932F930F2EF1E08F2EF1E29F2EF02D4B
S113356020E830E044E06AE570E20E9449098AE418
S113357090E00E949E2BA0902B21B0902C21C09013
S11335802D21D0902E21E0902521F09026211F920C
S11335907F9228E731E23F932F9320EF30E23F936D
S11335A02F9323E431E23F932F930F2EF7EF8F2EC7
S11335B0F0E29F2EF02D20E830E044E06EE570E26A
S11335C00E94490983E290E00E949E2BE0903721FB
S11335D0F090382124EF31E044E062E670E20E948A
S11335E0E71087E08093A20078940E946225CDBF03
S11335F0DEBF80E090E06D96CDBFDEBFDF91CF915E
S11336001F910F91FF90EF90DF90CF90BF90AF90FC
S11336109F908F907F906F9008951F920F920FB696
S11336200F9211240BB60F922F933F934F935F93F6
S11336306F937F938F939F93AF93BF93EF93FF9376
S11336408091292190912A210E94A0078091F52040
S1133650882379F08091292190912A21DC01ED9130
S1133660FC910684F785E02D1995813011F480933F
S11336703E21FF91EF91BF91AF919F918F917F91E7
S11336806F915F914F913F912F910F900BBE0F90CF
S11336900FBE0F901F9018951F920F920FB60F92A6
S11336A011240BB60F922F933F934F935F936F9315
S11336B07F938F939F93AF93BF93EF93FF938091E7
S11336C0292190912A210E94B9078091F52088230D
S11336D081F08091292190912A21DC01ED91FC91C6
S11336E00684F785E02D1995811103C081E080934C
S11336F03E21FF91EF91BF91AF919F918F917F9167
S11337006F915F914F913F912F910F900BBE0F904E
S11337100FBE0F901F9018951F920F920FB60F9225
S113372011240BB60F922F933F934F935F936F9394
S11337307F938F939F93AF93BF93EF93FF93809166
S11337402721909128210E94A0078091F5208823A9
S113375079F08091272190912821DC01ED91FC9151
S11337600684F785E02D1995813011F480933E216C
S1133770FF91EF91BF91AF919F918F917F916F9145
S11337805F914F913F912F910F900BBE0F900FBE01
S11337900F901F9018951F920F920FB60F9211243D
S11337A00BB60F922F933F934F935F936F937F9337
S11337B08F939F93AF93BF93EF93FF9380912721B0
S11337C0909128210E94B9078091F520882381F0E7
S11337D08091272190912821DC01ED91FC910684B0
S11337E0F785E02D1995811103C081E080933E2176
S11337F0FF91EF91BF91AF919F918F917F916F91C5
S11338005F914F913F912F910F900BBE0F900FBE80
S11338100F901F9018951F920F920FB60F921124BC
S11338200BB60F922F933F934F935F936F937F93B6
S11338308F939F93AF93BF93EF93FF938091252131
S1133840909126210E94A0078091F520882379F089
S11338508091252190912621DC01ED91FC91068433
S1133860F785E02D1995813011F480933E21FF9165
S1133870EF91BF91AF919F918F917F916F915F91E4
S11338804F913F912F910F900BBE0F900FBE0F9051
S11338901F9018951F920F920FB60F9211240BB61A
S11338A00F922F933F934F935F936F937F938F93D5
S11338B09F93AF93BF93EF93FF93809125219091B2
S11338C026210E94B9078091F520882381F08091F8
S11338D0252190912621DC01ED91FC910684F78548
S11338E0E02D1995811103C081E080933E21FF9161
S11338F0EF91BF91AF919F918F917F916F915F9164
S11339004F913F912F910F900BBE0F900FBE0F90D0
S11339101F9018951F920F920FB60F9211240BB699
S11339200F922F933F934F935F936F937F938F9354
S11339309F93AF93BF93EF93FF938091292190912D
S11339402A21DC01ED91FC910288F389E02D19957F
S1133950FF91EF91BF91AF919F918F917F916F9163
S11339605F914F913F912F910F900BBE0F900FBE1F
S11339700F901F9018951F920F920FB60F9211245B
S11339800BB60F922F933F934F935F936F937F9355
S11339908F939F93AF93BF93EF93FF9380912921CC
S11339A090912A21DC01ED91FC910088F189E02DB0
S11339B01995FF91EF91BF91AF919F918F917F9155
S11339C06F915F914F913F912F910F900BBE0F908C
S11339D00FBE0F901F9018951F920F920FB60F9263
S11339E011240BB60F922F933F934F935F936F93D2
S11339F07F938F939F93AF93BF93EF93FF938091A4
S1133A00272190912821DC01ED91FC910288F38912
S1133A10E02D1995FF91EF91BF91AF919F918F91F7
S1133A207F916F915F914F913F912F910F900BBEBA
S1133A300F900FBE0F901F9018951F920F920FB604
S1133A400F9211240BB60F922F933F934F935F93D2
S1133A506F937F938F939F93AF93BF93EF93FF9352
S1133A608091272190912821DC01ED91FC9100881F
S1133A70F189E02D1995FF91EF91BF91AF919F913D
S1133A808F917F916F915F914F913F912F910F9003
S1133A900BBE0F900FBE0F901F9018951F920F92A0
S1133AA00FB60F9211240BB60F922F933F934F939F
S1133AB05F936F937F938F939F93AF93BF93EF9392
S1133AC0FF938091252190912621DC01ED91FC91B9
S1133AD00288F389E02D1995FF91EF91BF91AF9181
S1133AE09F918F917F916F915F914F913F912F9112
S1133AF00F900BBE0F900FBE0F901F9018951F9242
S1133B000F920FB60F9211240BB60F922F933F937F
S1133B104F935F936F937F938F939F93AF93BF93D1
S1133B20EF93FF938091252190912621DC01ED9163
S1133B30FC910088F189E02D1995FF91EF91BF91D7
S1133B40AF919F918F917F916F915F914F913F9131
S1133B502F910F900BBE0F900FBE0F901F901895D2
S1133B60CF92DF92EF92FF920F931F93CF93DF9345
S1133B70EC01862F680179014A835B832DE830E2EA
S1133B802883398340E064E00E940B228C839D8368
S1133B90CE82DF82E886F986DF91CF911F910F9163
S1133BA0FF90EF90DF90CF9008950F931F930AE05A
S1133BB010E020E030E040E050E062E387E591E28D
S1133BC00E94B01D0AE010E020E030E040E050E048
S1133BD062E38DE491E20E94B01D0AE010E020E06F
S1133BE030E040E050E062E383E491E20E94B01DE3
S1133BF00AE010E020E030E040E050E060E270E0F5
S1133C0085E191E20E946F2B0AE010E020E030E0B1
S1133C1040E050E062E38BE091E20E94B01D0AE0D4
S1133C2010E020E030E040E050E062E381E091E227
S1133C300E94B01D0AE010E020E030E040E050E0D7
S1133C4062E387EF90E20E94B01D1F910F910895E7
S1133C500F931F93CF93DF93EC010E9495258091DE
S1133C607B2181111DC0A0E8B1E2E4E8F1E2ED930B
S1133C70FC93119712961D921C921397ACE7B1E234
S1133C808FEF9FE112968D939C9313971D921C9234
S1133C90119782839383A083B18381E080937B21F6
S1133CA0209709F45FC09E012B5F3F4F2496CE3FBF
S1133CB0DF4108F05AC0E0918021F0918121A0E811
S1133CC0B1E202C0DF01FC01828193818217930774
S1133CD020F4808191810097A9F7C1E2EC37FC07B9
S1133CE009F446C0CD91DC9111978E010B5F1F4FF3
S1133CF0808191818D939C9382819381821B930B0C
S1133D008B30910510F1BF01620F731FDB01129616
S1133D108D939C9313972283338312964D915C91D8
S1133D20139780E891E201C0CD01EC01A881B9812B
S1133D3012962D913C91139724173507A8F3EB01A4
S1133D40A883B983DC016D937C93809100209091CA
S1133D50012022813381821B930B80930020909356
S1133D60012008C000E010E005C000E010E002C03F
S1133D7000E010E00E94B226C801DF91CF911F91AC
S1133D800F9108950F931F93CF93DF93009741F101
S1133D90EC018C01055011090E949525F80142811E
S1133DA05381A0E8B1E201C0DF01ED91FC911197CC
S1133DB02281338124173507B8F32597E883F983E3
S1133DC00D931C9320910020309101208A819B81C6
S1133DD0820F931F80930020909301200E94B226AB
S1133DE0DF91CF911F910F910895FC010396818378
S1133DF092834FEF5FEFBA014383548365837683E5
S1133E00878390878187928710820895FC011286A8
S1133E1013860895CF93DF93FC01DB012181328166
S1133E20E9018C819D8114968D939C9315978181D2
S1133E30928116968D939C9317978C819D81EC01AA
S1133E406E837F83E9016C837D83618372831A9619
S1133E50ED93FC931B9780818F5F8083DF91CF91DB
S1133E6008950F931F93CF93DF93EB01088119817A
S1133E702A813B810F3F4FEF14072407340731F4A5
S1133E80DC011996ED91FC911A971FC0FC01339641
S1133E90DC0117964D915C911897DA014D915D9173
S1133EA06D917C91041715072607370770F004807D
S1133EB0F581E02DA481B5814D915D916D917C9149
S1133EC0041715072607370790F7A481B581AC833B
S1133ED0BD831696CD93DC931797EE83FF83C4833B
S1133EE0D5838A879B87FC0120812F5F2083DF9104
S1133EF0CF911F910F910895FC01A481B581868112
S1133F00978116968D939C931797A681B781848188
S1133F10958114968D939C931597A285B3851196DC
S1133F208D919C911297E817F90731F48681978156
S1133F3011968D939C931297128613868C918150BF
S1133F408C93089580930B4290930C4231E1FC01D1
S1133F503083319722E220833197A3E3A083319702
S1133F606083319770833197108231971082319733
S1133F7060E8608331971082319710823197108204
S1133F80319762E06083319763E06083319764E046
S1133F906083319765E06083319766E06083319791
S1133FA067E06083319768E06083319769E06083FC
S1133FB0319760E1608331973083319732E1308308
S1133FC0319733E13083319734E13083319735E1F0
S1133FD03083319736E13083319737E1308331973D
S1133FE038E13083319739E13083319730E23083DF
S1133FF0319731E2308331972083319723E2208354
S11340003197408331975083319726E2208331974B
S113401027E22083319728E22083319729E2208305
S1134020319720E32083319721E3208389970895F2
S11340308CE78093690A8FEF8093680A81E080930C
S1134040400A81E18093410A83E08093470AA0916A
S1134050E341B091E441CD91CDBFDD91DEBFFF914D
S1134060EF91DF91CF91BF91AF919F918F917F910C
S11340706F915F914F913F912F911F910F91FF90FD
S1134080EF90DF90CF90BF90AF909F908F907F90F4
S11340906F905F904F903F902F901F900F900CBEA9
S11340A00F900BBE0F900FBE0F90089581E00895FE
S11340B00F920FB6F8940F920BB60F920CB60F92A4
S11340C01F9211242F923F924F925F926F927F9290
S11340D08F929F92AF92BF92CF92DF92EF92FF9214
S11340E00F931F932F933F934F935F936F937F93FC
S11340F08F939F93AF93BF93CF93DF93EF93FF93EC
S1134100A091E341B091E4410DB60D920EB60D922B
S11341100E94CF27A091E341B091E441CD91CDBF5E
S1134120DD91DEBFFF91EF91DF91CF91BF91AF9110
S11341309F918F917F916F915F914F913F912F91BB
S11341401F910F91FF90EF90DF90CF90BF90AF90B1
S11341509F908F907F906F905F904F903F902F90A3
S11341601F900F900CBE0F900BBE0F900FBE0F90C0
S113417008950F920FB6F8940F920BB60F920CB6E7
S11341800F921F9211242F923F924F925F926F923F
S11341907F928F929F92AF92BF92CF92DF92EF92D3
S11341A0FF920F931F932F933F934F935F936F93BC
S11341B07F938F939F93AF93BF93CF93DF93EF93AB
S11341C0FF93A091E341B091E4410DB60D920EB678
S11341D00D920E94B1250E94CF27A091E341B09196
S11341E0E441CD91CDBFDD91DEBFFF91EF91DF9131
S11341F0CF91BF91AF919F918F917F916F915F917B
S11342004F913F912F911F910F91FF90EF90DF906D
S1134210CF90BF90AF909F908F907F906F905F9062
S11342204F903F902F901F900F900CBE0F900BBE9D
S11342300F900FBE0F9008950E94B9201895CF9348
S1134240DF93EC0188A181110BC088819981892BAE
S1134250E1F58A819B810E948A291A821B8235C0DA
S1134260411117C0482F50E08C819D810E94713507
S113427028A18C819D81820F911D8C839D832A812D
S11342803B818217930708F1888199818C839D83F0
S11342901CC0482F50E08E819F810E94713588A1F7
S11342A090E09195819591092E813F81280F391FC6
S11342B02E833F83488159812417350730F42A819E
S11342C03B81820F931F8E839F838E8D8F5F8E8F92
S11342D0DF91CF910895FC01808191810097A1F035
S11342E040A150E026813781240F351F2683378370
S11342F0A281B3812A173B0710F086839783CB01F1
S1134300668177810E94713508950F931F93CF932F
S1134310DF93EC010FB6F8940F928AA11816B4F447
S11343208B89811105C012C08B89811104C00EC014
S11343308E010D5E1F4FC8010E94562881110E94F4
S113434013298AA181508AA3181674F38FEF8AA3C4
S11343500F900FBE0FB6F8940F9289A11816B4F4FB
S11343608885811105C012C08885811104C00EC0E2
S11343708E01085F1F4FC8010E94562881110E94B8
S1134380132989A1815089A3181674F38FEF89A387
S11343900F900FBEDF91CF911F910F9108951F933E
S11343A0CF93DF93613059F0FC01238930853111BB
S11343B02CC011E0211110E0211128C001C011E02E
S11343C0EC014881598128A130E06F8D629FC001C2
S11343D0639F900D1124BA01680F791F6A837B8350
S11343E01E8E4C835D83821B930B840F951F8E83DB
S11343F09F838FEF89A38AA3CE0108960E94F51E9E
S1134400CE0143960E94F51E01C010E0812FDF917A
S1134410CF911F9108950F931F93CF93DF93882318
S113442001F1062F182F83E290E00E94281EEC0170
S1134430892BC9F0109FC001112401960E94281EE7
S113444088839983892B39F01F8F08A361E0CE01FB
S11344500E94CF2108C0CE010E94C21EC0E0D0E05D
S113446002C0C0E0D0E0CE01DF91CF911F910F9147
S11344700895AF92BF92CF92DF92EF92FF920F9383
S11344801F93CF93DF93CDB7DEB72997CDBFDEBFA0
S11344907C015B012E833F834887598710E06C01C0
S11344A088E0C80ED11C0FB6F8940F92F701968DD0
S11344B0878D9817A8F4402FB501C7010E941F21CA
S11344C0F7018389882341F0C70143960E94562847
S11344D0813011F40E9458200F900FBE81E056C025
S11344E08E819F81A885B985892B8A2B8B2B21F4FA
S11344F00F900FBE80E04AC0111105C0CE01019695
S11345000E94952811E00F900FBE0E9495250FB6CA
S1134510F8940F92F70181A18F3F09F411A2F701DA
S113452082A18F3F09F412A20F900FBEBE016A5FF1
S11345307F4FCE0101960E94A628811121C00FB69B
S1134540F8940F92F701968D0F900FBE878D9813F4
S113455011C04E815F8168857985C6010E942C282F
S1134560C7010E9485210E94B22681119CCF0E941E
S1134570582099CFC7010E9485210E94B22693CF6B
S1134580C7010E9485210E94B22680E02996CDBFF2
S1134590DEBFDF91CF911F910F91FF90EF90DF90DD
S11345A0CF90BF90AF9008950F931F93CF93DF9355
S11345B08A01FC01568D378D5317C0F4422FEC014C
S11345C00E941F218AA18F3F69F48B89882381F07F
S11345D0CE0143960E945628882361F081E0F801B9
S11345E0808309C08F5F8AA381E005C080E003C097
S11345F081E001C081E0DF91CF911F910F91089577
S1134600AF92BF92CF92DF92EF92FF920F931F93DC
S1134610CF93DF93CDB7DEB72997CDBFDEBF7C0143
S11346205B012E833F834887598710E06C0183E147
S1134630C80ED11C0FB6F8940F92F701868D88230B
S113464099F1C680D780B501C7010E946B21011181
S11346501AC0F701868D8150868F80819181892BC4
S113466029F40E943029F70182839383F70180851E
S11346708823B1F0C70108960E945628813081F43E
S11346800E9458200DC0F701C682D78283898823EF
S113469039F0C70143960E94562881110E94582080
S11346A00F900FBE81E062C08E819F81A885B9857D
S11346B0892B8A2B8B2B21F40F900FBE80E056C0E0
S11346C0111105C0CE0101960E94952811E00F90AA
S11346D00FBE0E9495250FB6F8940F92F70181A1A1
S11346E08F3F09F411A2F70182A18F3F09F412A2AE
S11346F00F900FBEBE016A5F7F4FCE0101960E94EC
S1134700A62881112DC00FB6F8940F92F701868D5B
S11347100F900FBE81111EC080819181892B49F4B5
S11347200FB6F8940F92828193810E9435290F90DD
S11347300FBE4E815F8168857985C6010E942C2851
S1134740C7010E9485210E94B226811173CF0E9465
S1134750582070CFC7010E9485210E94B2266ACFDB
S1134760C7010E9485210E94B22680E02996CDBF10
S1134770DEBFDF91CF911F910F91FF90EF90DF90FB
S1134780CF90BF90AF9008950F931F93CF93DF9373
S1134790FC01268D2223D9F08A01EC010E946B21B1
S11347A08E8D81508E8F89A18F3F69F488858823EF
S11347B081F0CE0108960E945628882361F081E09A
S11347C0F801808309C08F5F89A381E005C080E080
S11347D003C081E001C081E0DF91CF911F910F916F
S11347E008950FB6F8940F92FC01868D0F900FBEBA
S11347F00895FC01868D0895C7EBD1E48881823049
S1134800E8F30E945820FACFCF92DF92EF92FF9202
S11348106B017C01E091E341F091E4416283738395
S11348208483958380918B4190918C41A0918D419B
S1134830B0918E41C816D906EA06FB0668F4609169
S1134840E3417091E44180919D4190919E416E5F5E
S11348507F4F0E94311F21C06091E3417091E44178
S113486080919F419091A0416E5F7F4F0E94311FC4
S11348708091022090910320A0910420B091052002
S1134880C816D906EA06FB0640F4C0920220D0926C
S11348900320E0920420F0920520FF90EF90DF9037
S11348A0CF9008954F925F926F927F928F929F92D2
S11348B0AF92BF92CF92DF92EF92FF920F931F932A
S11348C0CF93DF935C014B013A01290188E290E028
S11348D00E94281EEC01892B09F4D4C0C114D10410
S11348E009F0CCC0C3010E94281E8B8F9C8F0097B7
S11348F021F4CE010E94C21EC5C0A30161E170E093
S11349000E947A359301215031098B8D9C8D3C0195
S1134910620E731E4AE050E0B401CE014D960E942F
S113492081351EA2102F043008F013E01A8F1FA344
S11349306E0122E0C20ED11CC6010E94061FCE01E8
S11349400E960E94061FCA87DB8784E090E0A0E0F1
S1134950B0E0811B9109A109B1098E879F87A88BBB
S1134960B98BCE8BDF8BA201B501C3010E94A21FBC
S113497088839983E114F10419F0F701C083D1838A
S11349800FB6F8940F9280918F418F5F80938F417F
S11349908091E3419091E441892B89F5C093E341EF
S11349A0D093E44180918F418130C1F587EB91E44C
S11349B00E94F51E82EC91E40E94F51E8DEC91E4B8
S11349C00E94F51E88ED91E40E94F51E8CEA91E4A4
S11349D00E94F51E81EA91E40E94F51E82E991E4A9
S11349E00E94F51E8CEA91E480939F419093A0412C
S11349F081EA91E480939D4190939E410FC0809100
S1134A00884181110BC0E091E341F091E441828D32
S1134A10081720F0C093E341D093E4418A8D90912C
S1134A208A41981710F480938A41909183419F5F43
S1134A309093834190918941981710F48093894110
S1134A40FBE08F9FC0011124B60189549E4B0E9444
S1134A500A1F0F900FBE80918841882359F0E0917E
S1134A60E341F091E441828D801730F40E94582094
S1134A7081E009C081E007C081E005C0CB8EDC8EF7
S1134A80C6013BCF8FEFDF91CF911F910F91FF9024
S1134A90EF90DF90CF90BF90AF909F908F907F90DA
S1134AA06F905F904F9008950FB6F8940F9200970F
S1134AB021F48091E3419091E4410F900FBEFC01F9
S1134AC0828D0895AF92BF92CF92DF92EF92FF92C0
S1134AD00F93A12CB12CC12CD12C0F2EF0E9EF2E69
S1134AE0F1E4FF2EF02D00E020E030E044E650E059
S1134AF06DEA70E28CEF93E20E945224813069F4F3
S1134B00F8948093884110928B4110928C411092BA
S1134B108D4110928E410E9418200F91FF90EF90CA
S1134B20DF90CF90BF90AF900895809187418F5FC1
S1134B308093874108950FB6F8940F9260918B414A
S1134B4070918C4180918D4190918E410F900FBE58
S1134B500895009721F48091E3419091E4414D96AA
S1134B600895FF920F931F93CF93DF938091874112
S1134B708111EDC080918B4190918C41A0918D4128
S1134B80B0918E410196A11DB11D80938B419093EC
S1134B908C41A0938D41B0938E4180918B41909133
S1134BA08C41A0918D41B0918E41892B8A2B8B2B06
S1134BB0F1F580919F419091A04120919D413091C8
S1134BC09E4120939F413093A04180939D419093B7
S1134BD09E41809184418F5F80938441E0919F4105
S1134BE0F091A041808181110CC08FEF9FEFDC0117
S1134BF08093022090930320A0930420B093052077
S1134C0016C0E0919F41F091A0410780F085E02D0E
S1134C100084F185E02D82819381A481B581809304
S1134C20022090930320A0930420B0930520409188
S1134C308B4150918C4160918D4170918E41809156
S1134C40022090910320A0910420B09105204817E0
S1134C5059076A077B0708F47FC0E0919F41F091F0
S1134C60A04180818823F9F0E0919F41F091A04117
S1134C700780F085E02DC085D1858A819B81AC8138
S1134C80BD8140918B4150918C4160918D417091D7
S1134C908E41481759076A077B0758F10F2EFBE02E
S1134CA0FF2EF02D2FC08FEF9FEFDC0180930220A9
S1134CB090930320A0930420B09305204DC0E0916D
S1134CC09F41F091A0410780F085E02DC085D185FA
S1134CD08A819B81AC81BD8140918B4150918C41F3
S1134CE060918D4170918E41481759076A077B077F
S1134CF048F48093022090930320A0930420B0935F
S1134D0005202AC08E010E5F1F4FC8010E947C1F20
S1134D10888D998D892B21F0CE010E960E947C1FDF
S1134D208A8D90918941981710F480938941F89E57
S1134D30C0011124B80189549E4B0E940A1FE091BE
S1134D409F41F091A04180818111B9CFACCF809176
S1134D5086418F5F80938641DF91CF911F910F91A0
S1134D60FF900895CF92DF92EF92FF920F931F93DB
S1134D70CF93DF930FB6F8940F92809187418150BF
S1134D808093874180918741811160C080918F41D8
S1134D9081112CC05EC0D7011796ED91FC91189734
S1134DA0C085D185CE010E960E947C1F8E010E5FB8
S1134DB01F4FC8010E947C1F8A8D909189419817CA
S1134DC010F480938941D89EC0011124B8018954FC
S1134DD09E4B0E940A1FE091E341F091E4419A8DB9
S1134DE0828D981770F0CC24C3940BC0C12C0F2E65
S1134DF0F2E9EF2EF1E4FF2EF02D0F2EFBE0DF2E73
S1134E00F02DF70180818111C6CF809186418823DE
S1134E1081F080918641882399F00E94B125809188
S1134E208641815080938641809186418111F5CFDE
S1134E3007C0F1E0CF1621F080918541813041F423
S1134E40109285410E94582081E003C080E001C097
S1134E5080E00F900FBEDF91CF911F910F91FF90D3
S1134E60EF90DF90CF900895CF92DF92EF92FF9270
S1134E70CF93DF93EC016A017B010E949525888121
S1134E809981AA81BB81C80ED91EEA1EFB1E4091DE
S1134E908B4150918C4160918D4170918E414817A6
S1134EA059076A077B07B8F4C816D906EA06FB0651
S1134EB0E0F580918B4190918C41A0918D41B0910E
S1134EC08E41C882D982EA82FB828C159D05AE058B
S1134ED0BF05F8F413C0C816D906EA06FB0600F1AC
S1134EE080918B4190918C41A0918D41B0918E41E4
S1134EF08C159D05AE05BF0598F017C08091E34160
S1134F009091E44102960E947C1FC701B6010E9461
S1134F1004240E94B22681110DC00E9458200AC0A8
S1134F20C882D982EA82FB82E9CFC882D982EA8226
S1134F30FB82EFCFDF91CF91FF90EF90DF90CF9086
S1134F400895CF92DF92EF92FF926B017C01672B61
S1134F50682B692BE9F00E94952580918B419091F3
S1134F608C41A0918D41B0918E41C80ED91EEA1E8C
S1134F70FB1E8091E3419091E44102960E947C1FC4
S1134F80C701B6010E9404240E94B226811102C006
S1134F900E945820FF90EF90DF90CF900895809169
S1134FA0874181110CC0E09189414BE0E49FF001FD
S1134FB01124E954FE4B8081882329F014C081E038
S1134FC08093854108959BE080918941815080932D
S1134FD08941E09189419E9FF0011124E954FE4BDF
S1134FE08081882389F380918941282F30E04BE028
S1134FF0849FC0011124DC01A954BE4B1196ED918C
S1135000FC9112970480F581E02D1196ED93FC93A9
S1135010129786549E4BE817F90761F484819581B1
S11350204BE0429FF001439FF00D1124E954FE4BE5
S1135030818392838BE0829FF001839FF00D112482
S1135040E954FE4B0180F281E02D808591858093A7
S1135050E3419093E4410895CF92DF92EF92FF925F
S11350606A017B016091E3417091E441625F7F4F8B
S11350700E94311F8091E3419091E44102960E9485
S11350807C1F80918B4190918C41A0918D41B09176
S11350908E41BC01CD016C0D7D1D8E1D9F1D0E9496
S11350A00424FF90EF90DF90CF9008950F931F9307
S11350B0CF93DF93DC011796ED91FC911897C0858F
S11350C0D1858E01025F1F4FC8010E947C1F809111
S11350D08741811116C00C501109C8010E947C1F20
S11350E08A8D90918941981710F480938941BBE08F
S11350F08B9FC0011124B80189549E4B0E940A1F42
S113510005C0B80182E991E40E940A1FE091E341DD
S1135110F091E44181E02A8D928D291708F480E012
S1135120DF91CF911F910F91089520918441FC014B
S1135130208340918B4150918C4160918D417091BD
S11351408E41418352836383748308958F929F9227
S1135150AF92BF92CF92DF92EF92FF920F931F9381
S1135160CF93DF93FC010FB6F8940F9280918441A2
S11351709081981789F080918B4190918C41A091F6
S11351808D41B0918E410181128123813481801738
S11351909107A207B307A8F580918B4190918C41A8
S11351A0A0918D41B0918E41C180D280E380F48082
S11351B0EB01088119812A813B818C199D09AE0973
S11351C0BF0980179107A207B307E8F4CF018090C5
S11351D08B4190908C41A0908D41B0908E41B5014F
S11351E0A4014C195D096E097F09041B150B260BDC
S11351F0370B088319832A833B830E94952880E018
S113520003C081E001C081E00F900FBEDF91CF9118
S11352101F910F91FF90EF90DF90CF90BF90AF90D0
S11352209F908F90089581E0809385410895009721
S113523021F48091E3419091E441DC015B96ED918E
S1135240FC915C978081813141F4319680E090E05B
S1135250019621912131E1F3089580E090E00895D1
S11352608091E3419091E44108950F931F93CF936C
S1135270DF93FC01228DA091E341B091E4415A9661
S11352808C91281708F041C0A091E341B091E4410A
S11352905A963C9184E090E0A0E0B0E0831B910931
S11352A0A109B10986879787A08BB18B8BE0289FD2
S11352B09001112429543E4B8485958582179307C8
S11352C0E9F48F01EF012296CE010E947C1FE09148
S11352D0E341F091E441828DF801828F90918941FC
S11352E0981710F480938941FBE08F9FC00111242B
S11352F0BE0189549E4B0E940A1F07C0A091E3413E
S1135300B091E4415A968C91828FDF91CF911F9195
S11353100F9108950F931F93CF93DF93009749F153
S1135320FC01328D27A1321721F1EC018C010E5FB3
S11353301F4FC8010E947C1F8FA18A8F44E050E058
S113534060E070E0481B5109610971094E875F876D
S1135350688B798B90918941981710F480938941D7
S1135360FBE08F9FC0011124B80189549E4B0E9419
S11353700A1FDF91CF911F910F910895EC01E881ED
S1135380F9810190F081E02D19951A821B826FEF4B
S11353907FEFCB010E94A127FACFFC0164876587C8
S11353A008954F925F926F927F928F929F92AF92E5
S11353B0BF92CF92DF92EF92FF920F931F93CF93FE
S11353C0DF93CDB7DEB72A97CDBFDEBF4C012901ED
S11353D0380186EB90E2F40180839183FB018081A4
S11353E0882369F0DE011196319690E002C099306D
S11353F039F09F5F8D9381918111F9CF01C090E0C5
S1135400E1E0F0E0EC0FFD1FE90FF11D10827401E3
S1135410F2E0EF0EF11CA12CB12CC12CD12C042FE5
S11354209401A201BE016F5F7F4F8AE697E00E945C
S11354305224F40166827782408651862091E541A8
S11354403091E641248335838092E5419092E64190
S11354501486158640900B4250900C42FFEF4F1A71
S11354605F0A40920B4250920C42F40142865386EA
S113547016861786108A118A6114710409F444C0CF
S1135480813079F56AE0C3010E94962C7C016BE5BA
S11354907EE00E945F2CBE016F5F7F4FC7010E94B8
S11354A05F2C6AE0C7010E94962C7C0162E57EE0D5
S11354B00E945F2C6AE0C7010E94962C7C0164E480
S11354C07EE00E945F2C63E0C7010E94962CB2012B
S11354D00E943F2E62E00E94962C66E00E94962C69
S11354E013C06AE0C3010E94962C4C016FE27EE077
S11354F00E945F2CBE016F5F7F4FC4010E945F2C2E
S113550066E0C4010E94962C2A96CDBFDEBFDF91CF
S1135510CF911F910F91FF90EF90DF90CF90BF90AC
S1135520AF909F908F907F906F905F904F90089571
S11355308F929F92AF92BF92CF92DF92EF92FF929F
S11355400F931F93CF93DF93EC018B018A819B818F
S11355500E94A925BC01C8010E945F2CD801ED91CD
S1135560FC910280F381E02D69E0C80119958A81DC
S11355709B810E94A925FC0101900020E9F7319745
S1135580E81BF90B389748F4D801ED91FC9102809F
S1135590F381E02D69E0C8011995CE84DF84E888A1
S11355A0F988A884B9848A819B810E941729982E3E
S11355B08C848A819B810E945425682FC8010E9493
S11355C0B52E6AE00E94962CEC0161ED7EE00E940B
S11355D05F2C682DCE010E94B52E6AE00E94962CA5
S11355E0EC016FEC7EE00E945F2C692DCE010E94DD
S11355F0B52E6AE00E94962CEC016DEC7EE00E94D0
S11356005F2CB501CE010E943F2E6AE00E94962CC9
S1135610EC016BEC7EE00E945F2C6AE0CE010E94FC
S1135620962CEC0169EC7EE00E945F2CB701A60188
S1135630CE010E94732EDF91CF911F910F91FF90A5
S1135640EF90DF90CF90BF90AF909F908F90089590
S11356500F93CF93DF931F92CDB7DEB700E02FEF08
S11356603FEFA901BE016F5F7F4FFC0180859185EB
S11356700E940023813019F4898190E002C08FEFE9
S11356809FEF0F90DF91CF910F910895FC018085DA
S113569091850E94F12391E0811101C090E0892F4E
S11356A008950F93CF93DF931F92CDB7DEB769832D
S11356B0FC01228533854485558500E0BE016F5F7A
S11356C07F4F808591850E94392291E0811101C02C
S11356D090E0892F0F90DF91CF910F9108958F92D1
S11356E09F92BF92CF92DF92EF92FF920F931F93FC
S11356F0CF93DF93EC01B62E4A01680179010E9431
S1135700512C8EEB90E2888399838E869F8640E0AD
S113571061E08B2D0E940B2288879987CA86DB86DD
S1135720EC86FD86DF91CF911F910F91FF90EF9052
S1135730DF90CF90BF909F908F9008950E94281E75
S113574008950E94281E08950895CF93DF93FC01C5
S1135750DA01403A68E0560749F480E496E082832F
S1135760938382E0848383E085833FC0403B78E079
S1135770570749F480E496E08283938386E0848328
S113578087E0858332C0403A89E0580749F480E6CF
S113579096E08283938382E0848383E0858325C0BB
S11357A0403B69E0560749F480E696E082839383A0
S11357B086E0848387E0858318C0403A7AE05707FF
S11357C049F480E896E08283938382E0848383E0D3
S11357D085830BC0403A5B4041F480EA96E08283C3
S11357E0938382E0848383E08583A683B783CD019A
S11357F00196808791870396828793872581C2814A
S1135800D3814C8181E090E0BC0102C0660F771F18
S11358102A95E2F79B01242B2C832581C281D38115
S11358204881BC0102C0660F771F2A95E2F79B01ED
S1135830242B28833481C281D381288102C0880F1C
S1135840991F3A95E2F7809590958223888380E1A9
S113585013968C93139783E015968C93159780EF8A
S113586017968C93179781E216968C93169788E176
S113587014968C9380E8858780E4868780E2848709
S11358800680F781E02D80818081DF91CF9108959A
S113589081E0089580E090E0089580E008950895FF
S11358A00895FC018EEC90E2808391838AE08283E8
S11358B0138283E0858314821682178208950F93DE
S11358C01F93CF93DF938C01FB01DC0114968C9121
S11358D0811104C06081611117C023C0D8011496DE
S11358E01C92EB01219664916623D9F0D801ED91C5
S11358F0FC910280F381E02DC8011995FE016491A9
S113590021966111F3CF0DC0EF012196D801ED91DD
S1135910FC910280F381E02DC80119956991611110
S1135920F5CFDF91CF911F910F910895CF93DF931E
S1135930EC01862F90E08B309105D8F5FC01882787
S1135940E253FE4F8F4F0C94773482E08A8331C048
S113595088E08A832EC08AE08A832BC080E18A8310
S113596028C081E08B8325C01B8223C0E881F98194
S11359700280F381E02D6DE0CE011995E881F98173
S11359800280F381E02D6AE0CE01199512C0E8810E
S1135990F9810284F385E02DCE0119950AC0E881CE
S11359A0F9810084F185E02DCE01199502C081E0D2
S11359B08C83CE01DF91CF910895AF92BF92CF92A5
S11359C0DF92EF92FF920F931F93CF93DF93CDB7A4
S11359D0DEB76497CDBFDEBF7C01CB01BA01D090A6
S11359E0062000E12D2DAE014F5F5F4F0E949934D8
S11359F05C01898183FF06C06CED70E2C7010E94DF
S1135A005F2C56C080FF09C0D701ED91FC91028044
S1135A10F381E02D6DE2C7011995D701ED91FC9159
S1135A200280F381E02D6A81C7011995DD2049F0D8
S1135A30D701ED91FC910280F381E02D6EE2C70164
S1135A4019958E010D5F1F4FCE018D0D911DFC0127
S1135A5033966F010C151D0599F0D8016C916111F5
S1135A601CC00EC0D701ED91FC910280F381E02DA2
S1135A706BE2C7011995B501C7010E94EB2D18C04F
S1135A80D701ED91FC910280F381E02D65E4C7011B
S1135A9019951A141B0434F3EECF0F5F1F4FD7016F
S1135AA0ED91FC910280F381E02DC7011995D2CFCD
S1135AB0C7016496CDBFDEBFDF91CF911F910F91D7
S1135AC0FF90EF90DF90CF90BF90AF900895AF928A
S1135AD0BF92CF92DF92EF92FF920F931F93CF93D7
S1135AE0DF93CDB7DEB76497CDBFDEBF7C01CB01BA
S1135AF0BA011091062000E1212FAE014F5F5F4FE4
S1135B000E9499345C01898183FF06C06AED70E2CA
S1135B10C7010E945F2C50C080FF09C0D701ED91DE
S1135B20FC910280F381E02D6DE2C7011995D70144
S1135B30ED91FC910280F381E02D6A81C7011995F2
S1135B40112349F0D701ED91FC910280F381E02DFE
S1135B506EE2C70119956E01B3E0CB0ED11CF601BC
S1135B6061916F01D701ED91FC910280F381E02DE9
S1135B70C7011995115099F0F60180818111EFCF79
S1135B800EC0D701ED91FC910280F381E02D6BE210
S1135B90C7011995B501C7010E94EB2D0DC0D701AE
S1135BA0ED91FC910280F381E02D65E6C701199522
S1135BB01A141B0434F3EECFC7016496CDBFDEBFC5
S1135BC0DF91CF911F910F91FF90EF90DF90CF90D5
S1135BD0BF90AF9008950F931F93CF93DF93CDB7EA
S1135BE0DEB76197CDBFDEBF8C019B01FC019281C2
S1135BF09A3021F0C8010E943F2E0DC04AE0BE0138
S1135C006F5F7F4FC9010E949035BE016F5F7F4F68
S1135C10C8010E945F2CC8016196CDBFDEBFDF9131
S1135C20CF911F910F9108950F931F93CF93DF93FB
S1135C30CDB7DEB7A297CDBFDEBF8C01CB01BA01D1
S1135C40F80122812A3031F0AB01BC01C8010E9465
S1135C50732E0CC02AE0AE014F5F5F4F0E949B354C
S1135C60BE016F5F7F4FC8010E945F2CC801A296DE
S1135C70CDBFDEBFDF91CF911F910F910895FF92A9
S1135C800F931F93CF93DF93CDB7DEB76197CDBF4B
S1135C90DEBF8C01F62E972FF8014281403121F0AE
S1135CA0483011F0423041F4692FC8010E94B52EEA
S1135CB06F2D0E94B52E0DC050E0BE016F5F7F4F67
S1135CC08F2D0E94D735BE016F5F7F4FC8010E94A0
S1135CD05F2CC8016196CDBFDEBFDF91CF911F91CC
S1135CE00F91FF900895DF92EF92FF920F931F930D
