S01600004652454552544F535F5348454C4C2E73726563CD
S11300000C946D070C949E070C949E070C949E0709
S11300100C949E070C949E070C949E070C949E07C8
S11300200C949E070C949E070C949E070C949E07B8
S11300300C949E070C949E070C94B61D0C949E077A
S11300400C94851D0C949E070C949E070C949E079B
S11300500C949E070C949E070C949E070C949E0788
S11300600C949E070C9463300C949E070C949E078A
S11300700C94BB300C949E070C949E070C949E0722
S11300800C949E070C949E070C949E070C949E0758
S11300900C949E070C949E070C949E070C949E0748
S11300A00C949E070C949E070C949E070C94C31BFF
S11300B00C94021C0C949E070C949E070C949E07AF
S11300C00C949E070C949E070C949E070C949E0718
S11300D00C949E070C949E070C949E070C94532139
S11300E00C949E070C949E070C94C3310C949E07A9
S11300F00C949E070C949E070C949E070C949E07E8
S11301000C949E070C949E070C94441B0C94831B24
S11301100C949E070C949E070C949E070C949E07C7
S11301200C949E070C949E070C949E070C949E07B7
S11301300C949E070C94541D0C949E070C949E07DB
S11301400C949E070C949E070C94231D0C94F21C93
S11301500C949E070C94C11C0C949E070C949E074F
S11301600C9413310C949E070C949E070C946B31E1
S11301700C949E070C949E070C949E070C949E0767
S11301800C949E070C949E070C949E070C949E0757
S11301900C949E070C949E070C949E070C949E0747
S11301A00C94421C0C94811C0C949E070C949E0786
S11301B00C949E070C949E070C949E070C949E0727
S11301C00C949E070C949E070C949E070C949E0717
S11301D00C949E070C949E070C949E070C941B325F
S11301E00C949E070C949E070C949E070C949E07F7
S11301F00C949E070C949E070C949E073C0A410A9B
S11302006D0A980A240BB30BF40B920CB40D0C1268
S1130210BC1783129A124012BC17BC17BC176C127D
S1130220BC17BC17BC17BC17BC172A12B612BC17D4
S1130230A812AD12EC13BC17BC17BC170E141C1477
S11302402814341440144C145814641470147C147A
S1130250BC17BC17BC17BC17BC17BC17BC17BC1702
S1130260BC17BC17BC17BC17BC17BC17BC17BC17F2
S1130270BC17BC17BC17BC17BC17BC17BC17BC17E2
S1130280BC17BC17BC17BC17BC17BC17BC17BC17D2
S1130290BC17BC17BC17BC17BC17BC17BC17721310
S11302A0BC17BC17BC170613BC17DA13BC17BC1752
S11302B0BC17BC17BC17BC17BC17BC17BC17BC17A2
S11302C00113BC17BC17BC17BC17BC178913A413A4
S11302D0BF13EB14F814BC17BC17BC17BC17BC171E
S11302E0BC17BC17BC17BC17BC17BC1722154C1580
S11302F0BC17BC17BC17BC17D914DF14E514AE1611
S1130300BC17BC17BC17241730173C1748175417D1
S113031060176C17781784179017BC17BC17BC1795
S1130320BC17BC17BC17BC17BC17BC17BC17BC1731
S1130330BC17BC17BC17BC17BC17BC17BC17BC1721
S1130340BC17BC17BC17BC17BC17BC17BC17BC1711
S1130350BC17BC17BC17BC17BC17BC17BC17BC1701
S1130360BC17BC17BC17BC173416BC17BC17BC177A
S11303701516BC17BC17BC17BC17BC17BC17BC1789
S1130380BC170A17BC17BC17BC17BC17F216BC174E
S1130390D816A615BC17BE15DB15F815DC2CDF2CFA
S11303A0E22CE52CE82CEB2CED2CFE2C062D102D4C
S11303B00E2D0C94EB2C0C94E22C0C9464140C94E1
S11303C063180C946C120C9460170C9407180C941A
S11303D04C140C9415160C9434160C94DB2B0C94BE
S11303E0AE180C949A120C942A120C94E8170C94DC
S11303F04C150C940A170C94B62F0C94F40B0C9413
S113040034140C94CF2A0C94E82C0C9489130C9477
S1130410200A0C94C6180C94F8150C9440140C94EF
S11304201C140C9490170C94EF170C945F2B0C94E1
S11304300C120C94ED2C0C94E9170C9406130C94E8
S1130440EB140C940C1E0C94E52C0C94872C0C943B
S113045084170C94B6120C9430170C94102D0C9431
S1130460F8140C946A070C9478170C940E2D0C94C1
S1130470062D0C94A8120C94E1170C94B40D0C9452
S1130480DE180C94FC170C94862C0C9401130C9419
S11304903C170C94882B0C947C140C94DC2C0C943A
S11304A0F0180C94EC130C9418180C94F2160C9489
S11304B02D180C9428140C94D6170C94DA130C945D
S11304C054170C94DF2C0C9457180C94E6170C94C6
S11304D0DB150C94BC170C946C2F0C94980A0C9498
S11304E083120C94DC170C9448170C9424170C9466
S11304F0C92F0C94BE150C94D9140C9422150C9489
S113050033240C9470140C94A6150C94AE160C940D
S113051011180C947F2C0C9492180C9481180C9440
S1130520A4130C94B30B0C94902F0C940E140C94F1
S113053039180C9499110C94AD120C94EE170C9478
S1130540D0170C94812C0C9458140C94D60D0C9444
S1130550E7170C946D0A0C9440120C943C0A0C940A
S113056072130C947D2B0C94F5170C94240B0C949F
S11305706C170C94F0170C94BF130C94842C0C94EB
S1130580DF140C9423180C94E5140C94410A0C9475
S1130590920C0C94D8160C94FE2C00407A10F35A4A
S11305A000A0724E18090010A5D4E80000E87648AF
S11305B0170000E40B54020000CA9A3B000000E15B
S11305C0F505000080969800000040420F000000EE
S11305D0A08601000000102700000000E8030000CE
S11305E000006400000000000A0000000000010098
S11305F0000000002C76D888DC674F0823DFC1DFB9
S1130600AE59E1B1B796E5E3E453C63AE6519976BB
S113061096E8E6C28426EB898C9B62ED407C6FFCF5
S1130620EFBC9C9F40F2BAA56FA5F490055A2AF737
S11306305C936B6CF9676DC11BFCE0E40D47FEF540
S113064020E6B500D0ED902E0300943577050080A8
S1130650841E080000204E0A000000C80C33333307
S1130660330F986E12831141EF8D2114893BE655A7
S113067016CFFEE6DB18D1844B381BF77C1D901D8A
S1130680A4BBE424203284725E228100C9F124ECEC
S1130690A1E53D27526573657474696E67206465CE
S11306A0766963652E00520046006C6F633A006CF5
S11306B06F633A0053006C6F633A00530076656CC5
S11306C03A20006C6F633A0053006C6F633A005336
S11306D03200526573657474696E67206465766967
S11306E063652E006D563A0048463A004300526F47
S11306F07574696E6520636F6D706C6574652E002A
S11307006D563A0048463A0053656E736F72205234
S1130710656164696E6720002C2054434330434371
S1130720413D002F002C204865617020667265658C
S11307303A200054696D653A20004F6374203131CA
S11307402032303138004D453430352062617365D4
S113075020726164696F2070726F6772616D2056D8
S1130760302E34200020202020683A2020204841C8
S11307704C50210020202020653A20202045786913
S11307807420636F6D6D616E64206D6F646500200D
S1130790202020733A202020537461636B206475F9
S11307A06D7020666F72207461736B73002020205B
S11307B020763A20202056657273696F6E20616E30
S11307C06420736574757020696E666F726D6174F0
S11307D0696F6E00202020206E3A20202053686F1D
S11307E077207468652074696D6520726967687420
S11307F0206E6F77002020496E20636F6D6D616EEF
S113080064206D6F6465206F6E6C793A002020431C
S1130810746C2D413A20456E74657220636F6D6D62
S1130820616E64206D6F646500202043746C2D43F9
S11308303A205265736574207468652041565200ED
S11308402068656C70004D453430352062617365F5
S113085020726164696F2070726F6772616D2056D7
S1130860302E3420001B5B33306D001B5B34366D3F
S113087000496C6C6567616C207374617465212038
S1130880526573657474696E6720415652005365EE
S11308906E736F722073616D706C652073697A6515
S11308A02073657420746F3A0053656E736F722001
S11308B064656C61792073657420746F3A004D69C6
S11308C063726F73746570207363616C65722073F7
S11308D0657420746F3A00436F6E66696720656EB5
S11308E074657265643A004C656176696E6720636D
S11308F06F6E666967206D6F6465005A2D61786953
S113090073206D61782076656C6F636974792073E8
S1130910657420746F3A00592D61786973206D6194
S1130920782076656C6F63697479207365742074BC
S11309306F3A00582D61786973206D61782076656F
S11309406C6F636974792073657420746F3A004D19
S113095061782076656C6F6369747920736574209F
S1130960746F3A00506C656173652063686F6F73D0
S11309706520746865206D6F746F7220796F7520BF
S1130980776F756C64206C696B6520746F20636F7E
S11309906E74726F6C2E00506C65617365206368B1
S11309A06F6F736520746865206D6F746F72207942
S11309B06F7520776F756C64206C696B6520746F3C
S11309C020636F6E74726F6C2E00506C656173657A
S11309D02063686F6F736520746865206D6F746F32
S11309E07220796F7520776F756C64206C696B6504
S11309F020746F20636F6E74726F6C2E0052656387
S1130A00656976696E67205A2D6C6F636174696FCE
S1130A106E732E00526563656976696E6720592D81
S1130A206C6F636174696F6E732E005265636569E0
S1130A3076696E6720582D6C6F636174696F6E738D
S1130A402E004572726F723A20556E657175616C35
S1130A50206178697320636F6F7264696E61746575
S1130A6020766563746F72732E00546F74616C200A
S1130A706E6F6465733A2000456E746572696E67C3
S1130A8020636F6E666967206D6F646500526573DD
S1130A90657474696E67206465766963652E0050B9
S1130AA072657373204374726C2D5320746F2073BA
S1130AB0746F702E005072657373204374726C2DC2
S1130AC05220746F20616374697661746520726565
S1130AD076657273652E0050726573732043747269
S1130AE06C2D4620746F206163746976617465208F
S1130AF0666F72776172642E00507265737320435F
S1130B0074726C2D5A20666F72205A2D4D6F746F5B
S1130B107220636F6D6D616E64732E005072657325
S1130B2073204374726C2D5920666F7220592D4DB9
S1130B306F746F7220636F6D6D616E64732E0050FD
S1130B4072657373204374726C2D5820666F722023
S1130B50582D4D6F746F7220636F6D6D616E647389
S1130B602E00456E746572696E6720446972656310
S1130B7074204F7065726174696F6E204D6F646587
S1130B802E005072657373204520746F2072657453
S1130B9075726E20746F20746865206D61696E20B3
S1130BA06D656E752E005072657373205220746FDC
S1130BB02072657365742074686520646576696362
S1130BC0652E005072657373204720746F20727510
S1130BD06E20746865206465766963652E005072C2
S1130BE0657373205A20746F20656E746572205A81
S1130BF02D636F6F7264696E617465732E00507239
S1130C00657373205920746F20656E746572205962
S1130C102D636F6F7264696E617465732E00507218
S1130C20657373205820746F20656E746572205844
S1130C302D636F6F7264696E617465732E00456E07
S1130C40746572696E6720436F6F7264696E617454
S1130C5065204D6F64652E005072657373204520C6
S1130C60746F2072657475726E20746F2074686579
S1130C70206D61696E206D656E752E00507265730E
S1130C8073205220746F20726573657420746865D4
S1130C90206465766963652E005072657373205A0B
S1130CA020746F2072657475726E20746865206498
S1130CB0657669636520746F20746865206F726956
S1130CC067696E2E005072657373205320746F2011
S1130CD06368616E67652074686520646566617524
S1130CE06C742073656E736F722072656164696ED3
S1130CF0672064656C61792074696D652E0050729B
S1130D00657373205520746F206368616E67652076
S1130D107468652064656661756C74206D6F746FAA
S1130D2072206D6963726F73746570207363616C94
S1130D3065722E00456E746572696E6720436F6E2E
S1130D4066696775726174696F6E204D6F64652E94
S1130D50005072657373205220746F20726573653E
S1130D607420746865206465766963652E0050722A
S1130D70657373204420666F7220446972656374DE
S1130D80204F7065726174696F6E204D6F64652EBB
S1130D90005072657373204320666F7220436F6F37
S1130DA07264696E617465204D6F64652E005072C3
S1130DB0657373204120666F7220436F6E666967A6
S1130DC075726174696F6E204D6F64652E0057658E
S1130DD06C636F6D6520746F20746865205573654E
S1130DE07220496E74657266616365206D61696E17
S1130DF0206D656E75206F6620746865203344200D
S1130E004865617420466C75782043616C69627230
S1130E1061746F722E00526573657474696E670035
S1130E204552524F5220696E207461736B20004505
S1130E3052524F52206372656174696E6720746107
S1130E40736B20002C20737461636B2061742030F9
S1130E5078002063726561746564005461736B206B
S1130E60000909002F0049444C45090930092D099E
S1130E7000092D2D2D2D00092D2D2D2D2D2D2D2D40
S1130E802D2D002D2D2D2D09092D2D2D2D092D2D27
S1130E902D2D2D000952756E730009467265652F5C
S1130EA0546F74616C004E616D6509095072692E4E
S1130EB00953746174650009537461636B00546170
S1130EC0736B09092020092000090009002F00097B
S1130ED0000900000E94F5290C1E11241FBECFEF4B
S1130EE0CDBFDFE5DEBF00E00CBF10E2A0E0B0E262
S1130EF0EAE8FCE600E00BBF02C007900D92A03FB9
S1130F00B107D9F722E4A0EFB0E201C01D92AD30E1
S1130F10B207E1F717E0CDE6D7E000E006C021977D
S1130F200109802FFE010E94AE34CC36D10780E047
S1130F300807A9F70E9459190C9443360C94000031
S1130F40CF93DF93EC01E881F9810684F785E02DE6
S1130F501995813059F4E881F9810680F781E02DF3
S1130F60CE01199519A21AA21BA21CA2DF91CF913E
S1130F700895CF93DF93EC01E881F9810684F78526
S1130F80E02D1995811107C0E881F9810680F78168
S1130F90E02DCE011995DF91CF910895CF93DF9382
S1130FA0FC01A081B181CD91DC91119798851396B4
S1130FB08C91892319F081E0828301C0128282819D
S1130FC0DF91CF910895BC01645F7F4F48EE53E0F9
S1130FD0FC01808191810E940E090895CF92DF92D5
S1130FE0EF92FF920F931F93CF93DF93EC010E9434
S1130FF0E3070C851D85888199810E944A096B014C
S11310007C01B801110F880B990B0E948333A7014F
S113101096010E940F346B017C0120E030E040E037
S113102055E46A897B898C899D890E940F349B01D0
S1131030AC01C701B6010E94E0326A837B838C83D2
S11310409D83DF91CF911F910F91FF90EF90DF90DF
S1131050CF900895CF93DF93EC010E94EE0720E038
S113106030E04AE754E46A817B818C819D810E944F
S11310700F3422E538EB4EEF5FE30E940F342DEC82
S11310803CEC4CEF50E40E9474326E837F8388877B
S11310909987DF91CF910895CF93DF93EC01698312
S11310A07A831B821C821D821E8280E090E00E9453
S11310B0813320E030E046E154E40E940F340E9482
S11310C052339B01AC01688779878A879B8761E0EB
S11310D070E080E090E00E948C342C873D874E873E
S11310E05F87DF91CF9108959A01AB01FC01608580
S11310F07185828593850E947C340895FC01638107
S11311007481858196810895CF93DF93EC010E94C9
S11311104C0884EF91E0A0E0B0E0888B998BAA8B17
S1131120BB8B80E090E0A0ECBFE38CA39DA3AEA3B7
S1131130BFA341E050E060E070E0CE010E9474087B
S11311400E94813368A779A78AA79BA7DF91CF91D3
S11311500895EF92FF920F931F93FC01208F318F1C
S1131160428F538FE48EF58E068F178F20A331A301
S113117042A353A3148A158A168A178A1F910F91C2
S1131180FF90EF900895CF92DF92EF92FF92CF936A
S1131190DF93EC01C8A0D9A0EAA0FBA08C8D9D8DA3
S11311A0AE8DBF8DC816D906EA06FB0618F58C89E4
S11311B09D89AE89BF890196A11DB11D8C8B9D8B24
S11311C0AE8BBF8B6CA57DA58EA59FA50E94813398
S11311D09B01AC0168A579A58AA59BA50E94E03274
S11311E00E945233C60ED71EE81EF91EC8A2D9A209
S11311F0EAA2FBA268A179A18AA19BA1DF91CF9168
S1131200FF90EF90DF90CF900895DC011696ED915A
S1131210FC91179780A1806880A30895EF92FF92B4
S11312200F931F93CF93DF931F921F92CDB7DEB717
S11312308C017B0149835A830E94050989819A8123
S1131240019789839A83892BB9F0D8011696ED9179
S1131250FC91179783A180FFF1CF0EC0D801169699
S1131260ED91FC91179784A195A1F7018083918357
S113127081E007C080E005C089819A81892B71F7DC
S1131280F9CF0F900F90DF91CF911F910F91FF90A5
S1131290EF900895FC0162817381848195810895A2
S11312A02F923F924F925F926F927F928F929F9272
S11312B0AF92BF92CF92DF92EF92FF920F931F9360
S11312C0CF93DF93CDB7DEB73C012B012C8C3D8C43
S11312D00E94082A8BE090E2F30180839183E28AE2
S11312E0F38AC48AD58AA68AB78A86A297A28A8DE7
S11312F09B8D82AB93AB888D998D86AB97AB8E8992
S11313009F8986AF97AFEA5BFF4F20823182329686
S113131040825182B10180E090E00E94813320E05C
S113132030E046E154E40E940F349B01AC01F30128
S113133060A771A782A793A760E070E080E89FE3AD
S11313400E94E032F30164A775A786A797A7DF91EF
S1131350CF911F910F91FF90EF90DF90CF90BF90AE
S1131360AF909F908F907F906F905F904F903F9041
S11313702F9008950F931F93CF93DF93EC018A89E5
S11313809B89DC01ED91FC910684F785E02D19958C
S1131390811127C08E899F890E94CE07811148C080
S11313A08A899B89DC01ED91FC910190F081E02D0B
S11313B019950E811F81C85BDF4F68817981C8014F
S11313C00E94962C6AE0C8010E94CD2CEC0168EAC8
S11313D076E00E94962C66E0CE010E94CD2C81E03E
S11313E02AC08C899D890E94CE07811123C08A89D5
S11313F09B89DC01ED91FC910190F081E02D199520
S11314000E811F81C85BDF4F68817981C8010E940A
S1131410962C6AE0C8010E94CD2CEC0166EA76E0C5
S11314200E94962C66E0CE010E94CD2C81E003C080
S113143080E001C080E0DF91CF911F910F9108956A
S1131440EC01C12CD12C4C0180E4880E911C5E016E
S1131450A8E4AA0EB11C1E01B2E42B0E311C8C852B
S113146090E08930910508F08FC3FC018827E25091
S1131470FF4F8F4F0C94AE3462E0CE010E94042AD9
S113148083C38A899B894E960E94C3088A899B8953
S1131490DC01ED91FC910488F589E02D19958823F0
S11314A009F472C3EEA9FFA90FB6F8940F92108243
S11314B00F900FBE6AE08E819F810E94CD2C3C016B
S11314C06FEC76E00E94962C66E0C3010E94CD2C5E
S11314D062E0CE010E94042A57C30FB6F8940F921B
S11314E00F900FBE8091F420882329F063E0CE0191
S11314F00E94042A49C30FB6F8940F920F900FBEAE
S11315008091F520882329F065E0CE010E94042A09
S11315103BC30FB6F8940F920F900FBE8091F32047
S1131520882309F431C365E0CE010E94042A2CC348
S11315300FB6F8940F92EEA9FFA980810F900FBE09
S1131540813009F03AC08A899B89DC01ED91FC91D4
S11315500480F581E02D19950FB6F8940F920F9041
S11315600FBE8A899B89E0903921F0903A2100913D
S11315703B2110913C21FC01648D758D24EF31E0F9
S113158040E050E04E960E94A908CE010E94BA099C
S11315908DAF882329F064E0CE010E94042AF4C2AE
S11315A0EEA9FFA90FB6F8940F9210820F900FBE08
S11315B062E0CE010E94042AE7C20FB6F8940F92AB
S11315C00F900FBE823009F03AC08A899B89DC01F2
S11315D0ED91FC910280F381E02D19950FB6F894FA
S11315E00F920F900FBE8A899B89E0903921F09069
S11315F03A2100913B2110913C21FC01648D758DB1
S113160024EF31E040E050E04E960E94A908CE015C
S11316100E94BA098DAF882329F064E0CE010E94AC
S1131620042AB2C2EEA9FFA90FB6F8940F92108251
S11316300F900FBE62E0CE010E94042AA5C262E0B0
S1131640CE010E94042AA0C28A899B894E960E94D8
S1131650C3088A899B89DC01ED91FC910488F58992
S1131660E02D1995811108C0EEA9FFA90FB6F894D1
S11316700F9210820F900FBE0FB6F8940F920F9036
S11316800FBEEEA9FFA98081811142C08A899B897E
S1131690DC01ED91FC910680F781E02D19958A8992
S11316A09B894E960E947E082B013C010E811F816E
S11316B0F50160817181C8010E94962C6AE0C8011D
S11316C00E94CD2C8C016AEC76E00E94962CB3012A
S11316D0A201C8010E944B2E66E00E94CD2C0E810F
S11316E01F81D5016D917C91C8010E94962C6AE0FE
S11316F0C8010E94CD2C8C0168EC76E00E94962CE7
S113170066E0C8010E94CD2C62E0CE010E94042A4A
S1131710BFEFCB1ADB0AE5E0CE16D10409F034C2E0
S11317208A899B894E960E947E082B013C010E817A
S11317301F81D5016D917C91C8010E94962C6AE0AD
S1131740C8010E94CD2C8C0163EC76E00E94962C9B
S1131750B301A201C8010E944B2E66E00E94CD2C69
S1131760C12CD12C11C20FB6F8940F920F900FBE5A
S11317708091F520811117C00FB6F8940F920F9045
S11317800FBE8091F32081110EC00FB6F8940F9212
S11317900F900FBE80913D21811105C062E0CE0102
S11317A00E94042AF1C10FB6F8940F920F900FBE55
S11317B080916421882309F4E7C10FB6F8940F924D
S11317C00F900FBE8091392190913A21A0913B2135
S11317D0B0913C21F10180839183A283B38366E0BD
S11317E0CE010E94042AD0C18A899B894E960E9408
S11317F07E086C8F7D8F8E8F9F8F8EA19FA1DC01C1
S1131800ED91FC910084F185E02D199569AF7AAFD3
S11318108BAF9CAF0FB6F8940F920F900FBE8091D0
S11318203D21882349F18EAD9FADDC01ED91FC9102
S11318300084F185E02D19952B013C01F1016083B1
S11318407183828393830E811F81D5016D917C9175
S1131850C8010E94962C6AE0C8010E94CD2C8C011C
S11318606DEB76E00E94962CB301A201C8010E94A0
S1131870AA2E66E00E94CD2C4C8D5D8D6E8D7F8DE1
S113188089AD9AADABADBCAD481759076A077B0764
S113189004F58A899B89DC01ED91FC910480F58132
S11318A0E02D19958A899B89F101E080F1800281FC
S11318B01381DC015C966D917C915D9724EF31E09E
S11318C040E050E04E960E94A908CE010E94BA0959
S11318D024C084179507A607B707FCF48A899B8957
S11318E0DC01ED91FC910280F381E02D19958A8948
S11318F09B89F101E080F18002811381DC015C9617
S11319006D917C915D9724EF31E040E050E04E967C
S11319100E94A908CE010E94BA0967E0CE010E9484
S1131920042A32C10FB6F8940F920F900FBE809123
S11319306121882369F08A899B89DC01ED91FC91FE
S11319400680F781E02D199568E0CE010E94042AF3
S11319508A899B894E960E94C308F401608371832F
S11319608A899B89DC01ED91FC910684F785E02D41
S11319701995811162C08A899B894E960E947E08BE
S113198009AD1AAD2BAD3CAD601771078207930703
S11319900CF4C0C08A899B89DC01ED91FC9106801E
S11319A0F781E02D19950E811F81F5016081718108
S11319B0C8010E94962C6AE0C8010E94CD2C8C01BB
S11319C06BEB76E00E94962C66E0C8010E94CD2C59
S11319D08A899B894E960E947E082B013C010E81C8
S11319E01F81D5016D917C91C8010E94962C6AE0FB
S11319F0C8010E94CD2C8C0166EB76E00E94962CE7
S1131A00B301A201C8010E944B2E66E00E94CD2CB6
S1131A10EAA9FBA90FB6F8940F92B1E0B0830F9036
S1131A200FBE0FB6F8940F92109264210F900FBE60
S1131A3065E0CE010E94042A6DC08A899B89DC017D
S1131A40ED91FC910684F785E02D1995813009F01C
S1131A5061C08A899B894E960E947E0809AD1AADA1
S1131A602BAD3CAD06171707280739070CF452C0F5
S1131A708A899B89DC01ED91FC910680F781E02D38
S1131A8019950E811F81F50160817181C8010E9441
S1131A90962C6AE0C8010E94CD2C8C0164EB76E0A0
S1131AA00E94962C66E0C8010E94CD2C8A899B89ED
S1131AB04E960E947E082B013C010E811F81D501A8
S1131AC06D917C91C8010E94962C6AE0C8010E9425
S1131AD0CD2C8C016FEA76E00E94962CB301A20112
S1131AE0C8010E944B2E66E00E94CD2CEAA9FBA9F6
S1131AF00FB6F8940F92B1E0B0830F900FBE0FB6FB
S1131B00F8940F92109264210F900FBE65E0CE01FD
S1131B100E94042AEFEFCE1ADE0AF5E0CF16D104B4
S1131B2099F58A899B894E960E947E082B013C0177
S1131B300E811F81D5016D917C91C8010E94962C64
S1131B406AE0C8010E94CD2C8C016AEA76E00E940A
S1131B50962CB301A201C8010E944B2E66E00E949C
S1131B60CD2CC12CD12C10C00FB6F8940F920F902D
S1131B700FBE80916121811107C0CE010E94BA0974
S1131B8067E0CE010E94042A8E859F85A889B989C1
S1131B900196A11DB11D8E879F87A88BB98B64E127
S1131BA070E080E090E00E94D82759CCCF93DF9377
S1131BB000D01F92CDB7DEB78C01FC01158E168EB6
S1131BC0178E10A2118E128E138E148E0FB6F894E7
S1131BD00F92109277210F900FBEDD24D394F80159
S1131BE08485813009F44BC038F0823009F413C184
S1131BF0833009F438C2DFC20FB6F8940F920F9005
S1131C000FBE80917221882371F0F801118E128E1B
S1131C10138E148E158E168E178E10A263E0C801D3
S1131C200E94042AC8C20FB6F8940F920F900FBEF8
S1131C308091F520811113C00FB6F8940F920F9084
S1131C400FBE8091F32081110AC00FB6F8940F9251
S1131C500F900FBE80913D21882309F4ACC2F80196
S1131C60118E128E138E148E158E168E178E10A250
S1131C70158A168A6D2DC8010E94042A9CC20FB6CB
S1131C80F8940F920F900FBE80917A21882309F463
S1131C9092C20FB6F8940F920F900FBE80917921E3
S1131CA0882309F488C20FB6F8940F920F900FBEE0
S1131CB080917821882309F47EC20FB6F8940F929C
S1131CC00F900FBE8091F320882309F42FC00FB624
S1131CD0F8940F921092F3200F900FBE0FB6F89461
S1131CE00F92D09264210F900FBE0FB6F8940F920A
S1131CF0109272210F900FBE0FB6F8940F921092AB
S1131D007A210F900FBE0FB6F8940F92109279219A
S1131D100F900FBE0FB6F8940F92109278210F9087
S1131D200FBE60E0C8010E94042A45C20FB6F894B1
S1131D300F92D09272210F900FBE0FB6F8940F92AB
S1131D404090692150906A2160906B2170906C21C1
S1131D500F900FBEF801E588F688FFEFEF1AFF0A2F
S1131D60F801E58AF68A6AE0868197810E94CD2C83
S1131D705C0168E077E00E94962CB701C5010E94DF
S1131D80762E7C016FE070E20E94962CB301A201D2
S1131D90C7010E94AA2E7C016AE170E20E94962C7F
S1131DA066E0C7010E94CD2CF80182898F5F828B87
S1131DB00E94D22569837A838B839C830FB6F8941F
S1131DC00F920F900FBE2091692130916A214091AA
S1131DD06B2150916C21A8EEB3E00E94C534683E9B
S1131DE0F3E07F078105910548F028EE33E040E0F9
S1131DF050E00E948C34BA01A90104C041E050E0D3
S1131E0060E070E0CE0101960E946B2762E0C80199
S1131E100E94042AD0C10FB6F8940F9260916E21EB
S1131E2070916F2180917021909171210F900FBE5C
S1131E30F801458C568C678C70A0461657066806C8
S1131E407906F0F4838994890E942A089B01AC01E5
S1131E50F801618D728D838D948D0E947432F80126
S1131E60618F728F838F948F858D968DA78DB0A18E
S1131E700196A11DB11D858F968FA78FB0A39BC11D
S1131E800FB6F8940F920F900FBE0E9481339B01FE
S1131E90AC01F801618D728D838D948D0E94E032C6
S1131EA02B013C010FB6F8940F9260937321709349
S1131EB0742180937521909376210F900FBE0FB6F5
S1131EC0F8940F920F900FBE6AE0F8018681978113
S1131ED00E94CD2C7C0164E077E00E94962C2DE7D3
S1131EE03FE349EC50E4C301B2010E940F34AB015B
S1131EF0BC01C7010E949E2D66E00E94CD2C0FB646
S1131F00F8940F9240907321509074216090752141
S1131F10709076210F900FBE6AE0F8018681978158
S1131F200E94CD2C7C0160E077E00E94962CB301E6
S1131F30A201C7010E94142D66E00E94CD2CF80175
S1131F40118E128E138E148E158E168E178E10A26D
S1131F500FB6F8940F920F900FBE2091622130912A
S1131F606321858996898217930708F028C00FB6E4
S1131F70F8940F92D09264210F900FBE0FB6F8948C
S1131F800F92109272210F900FBE0FB6F8940F9219
S1131F9010927A210F900FBE0FB6F8940F92109200
S1131FA079210F900FBE0FB6F8940F9210927821FA
S1131FB00F900FBE6D2DC8010E94042AFCC06AE078
S1131FC0F801868197810E94CD2C7C016EEE76E02B
S1131FD00E94962C66E0C7010E94CD2C60E0C801E7
S1131FE00E94042A0FB6F8940F921092F5200F90D5
S1131FF00FBE0FB6F8940F9210923D210F900FBEB2
S11320006AE0F801868197810E94CD2C7C016CEEF8
S113201076E00E94962C66E0C7010E94CD2C0FB694
S1132020F8940F92109264210F900FBE0FB6F8949B
S11320300F92109272210F900FBE0FB6F8940F9268
S113204010927A210F900FBE0FB6F8940F9210924F
S113205079210F900FBE0FB6F8940F921092782149
S11320600F900FBEA8C00FB6F8940F9260916E2126
S113207070916F2180917021909171210F900FBE0A
S1132080F801458C568C678C70A046165706680676
S11320907906F0F4838994890E942A089B01AC0193
S11320A0F801618D728D838D948D0E947432F801D4
S11320B0618F728F838F948F858D968DA78DB0A13C
S11320C00196A11DB11D858F968FA78FB0A373C0F4
S11320D00FB6F8940F920F900FBE0E9481339B01AC
S11320E0AC01F801618D728D838D948D0E94E03274
S11320F02B013C010FB6F8940F92609373217093F7
S1132100742180937521909376210F900FBE0FB6A2
S1132110F8940F920F900FBE6AE0F80186819781C0
S11321200E94CD2C7C0168EE76E00E94962C2DE76F
S11321303FE349EC50E4C301B2010E940F34AB0108
S1132140BC01C7010E949E2D66E00E94CD2C0FB6F3
S1132150F8940F92409073215090742160907521EF
S1132160709076210F900FBE6AE0F8018681978106
S11321700E94CD2C7C0164EE76E00E94962CB30183
S1132180A201C7010E94142D66E00E94CD2CF80123
S1132190118E128E138E148E158E168E178E10A21B
S11321A00FB6F8940F92109272210F900FBE60E058
S11321B0C8010E94042AF80186859785A089B189FF
S11321C00196A11DB11D86879787A08BB18B61E015
S11321D070E080E090E00E94D82701CDCF92DF929A
S11321E0EF92FF920F931F93CF93DF93EC016B0158
S11321F00E94082A83E290E288839983EB8AFC8A0E
S1132200C9A2DAA2DF91CF911F910F91FF90EF90B5
S1132210DF90CF900895EF92FF920F931F93CF9387
S1132220DF93EC017B010E94082A8BE290E2888311
S11322309983FE01E05EFE4FE082F182CE5EDE4FC6
S11322401882DF91CF911F910F91FF90EF90089525
S1132250BF92CF92DF92EF92FF920F931F93CF938F
S1132260DF93FC01DC01AE5EBE4F2C9130E02150C7
S1132270310912161306A4F540E050E0B12C60E0D9
S113228070E0CB01DC01CB01880F991FAA1FBB1F93
S11322906C017D01CC0CDD1CEE1CFF1CCC0CDD1C88
S11322A0EE1CFF1C8C0D9D1DAE1DBF1D4E0F5F1F30
S11322B0EA014A8950E040535109052E000C660B8F
S11322C0770B7A018B01E80EF91E0A1F1B1FC80148
S11322D0B701B3944B2D50E0421753079CF203C04F
S11322E060E070E0CB01DF91CF911F910F91FF90DF
S11322F0EF90DF90CF90BF9008956AE0FC01868153
S113230097810E94CD2CEC016DE87AE00E94962C16
S113231066E0CE010E94CD2C93E088ED08B618BE8D
S113232084BF909380008091820081FDFCCF08BE21
S1132330FFCFCF93DF9300D000D0CDB7DEB7898332
S11323409A838C010E5E1E4F7C018DEEE81A8EEF8F
S1132350F80A89809A8099EE891A9EEF990AA980D1
S1132360BA80A3EEAA1AAEEFBA0A69807A80B7EEF1
S11323706B1ABEEF7B0A49805A80E5EE4E1AEEEFE7
S11323805E0A29803A80FEED2F1AFEEF3F0A89810A
S11323909A818D839E83AD81BE811C968C911C97FE
S11323A0813009F4FDC038F0823009F4CFC28330A3
S11323B009F49BC3C1C5ED81FE8186819781DC014F
S11323C0ED91FC910480F581E02D1995882309F4A1
S11323D0D3C5ED81FE8186819781DC01ED91FC916D
S11323E00680F781E02D1995F8012081ED81FE81A9
S11323F0E20FF11D828B2F5FD8012C939927FC01EA
S1132400E156F109E331F10508F0B6C58827E95F23
S1132410FE4F8F4F0C94AE340FB6F8940F9281E0B8
S11324208093F6200F900FBE6AE0ED81FE818681D5
S113243097810E94CD2C6C0168E77AE00E94962C6B
S113244066E0C6010E94CD2C63E08D819E810E94CE
S1132450042A92C50FB6F8940F921092F2200F90AE
S11324600FBE0FB6F8940F921092F1200F900FBE8A
S11324700FB6F8940F921092F0200F900FBE7CC507
S11324800FB6F8940F9281E080933D210F900FBE18
S11324900FB6F8940F921092692110926A2110924B
S11324A06B2110926C210F900FBE0FB6F8940F920F
S11324B081E090E0A0E0B0E080936E2190936F21E2
S11324C0A0937021B09371210F900FBE61E08D81B4
S11324D09E810E94042A50C50FB6F8940F920F9063
S11324E00FBE8091F320811147C50FB6F8940F9267
S11324F081E08093F3200F900FBE61E08D819E8177
S11325000E94042A39C50FB6F8940F920F900FBE9B
S11325108091F520811130C50FB6F8940F9281E0B7
S11325208093F5200F900FBE61E08D819E810E9403
S1132530042A22C50FB6F8940F9281E08093F42008
S11325400F900FBE62E08D819E810E94042A14C503
S1132550AD81BE81CD010E947D110FB6F8940F921A
S113256081E0809372210F900FBE06C50FB6F894D8
S11325700F920F900FBE80916121811109C00FB697
S1132580F8940F9281E0809361210F900FBEF4C400
S11325900FB6F8940F92109261210F900FBEECC405
S11325A0ED81FE8186819781DC01ED91FC910480AF
S11325B0F581E02D1995882309F4AAC1ED81FE81E6
S11325C086819781DC01ED91FC910680F781E02DF5
S11325D01995BC01F8018081ED81FE81E80FF11DA0
S11325E0628B8F5FD8018C93FB01FF27BC97EF347C
S11325F0F10508F0C1C48827E65EFE4F8F4F0C94A6
S1132600AE34ED81FE81CF010E947D1180910F21B6
S1132610909110210E942824D82E80910521909118
S113262006210E942824D81245C080910F21909140
S113263010210E942824D82E8091FB209091FC2008
S11326400E942824D81236C080910F219091102125
S11326500E942824C82ED12C0FB6F8940F92C09251
S11326606221D09263210F900FBE0FB6F8940F929F
S11326700F900FBE6AE0AD81BE8116968D919C913C
S113268017970E94CD2C89839A836AE67AE00E9488
S1132690962CB60189819A810E94762E66E00E946A
S11326A0CD2C0FB6F8940F9281E0809364210F90A3
S11326B00FBE10C06AE0ED81FE81868197810E9481
S11326C0CD2C6C0162E47AE00E94962C66E0C6018F
S11326D00E94CD2CD8011C9260E08D819E810E94C5
S11326E0042A4AC48D819E810E942811F7016083C7
S11326F0718382839383D4018D919C91DC01ED914C
S1132700FC910190F081E02DB7011995F801108238
S113271033C4D8011C9266E0ED81FE8186819781E5
S11327200E94CD2C6AE00E94CD2C6C016BE27AE011
S11327300E94962C66E0C6010E94CD2CEBE0F1E2EB
S1132740D401ED93FC9318C4D8011C9266E0ED818A
S1132750FE81868197810E94CD2C6AE00E94CD2C57
S11327606C0164E17AE00E94962C66E0C6010E9446
S1132770CD2CE1E0F1E2D401ED93FC93FDC3D8014B
S11327801C9266E0ED81FE81868197810E94CD2CAA
S11327906AE00E94CD2C6C016DEF79E00E94962CCA
S11327A066E0C6010E94CD2CE7EFF0E2D401ED9380
S11327B0FC93E2C30FB6F8940F9281E080936D21ED
S11327C00F900FBE66E0AD81BE8116968D919C91EF
S11327D017970E94CD2CD0C3ED81FE81868197810D
S11327E0DC01ED91FC910280F381E02D19958D813E
S11327F09E810E942811F7016083718382839383F1
S1132800D4018D919C91DC01ED91FC910190F081BA
S1132810E02DB7011995F8011082AEC3AD81BE81D8
S113282016968D919C911797DC01ED91FC91028095
S1132830F381E02D1995A0C3ED81FE8186819781F6
S1132840DC01ED91FC910280F381E02D199594C394
S1132850ED81FE8186819781DC01ED91FC910280FE
S1132860F381E02D199588C3ED81FE8186819781DE
S1132870DC01ED91FC910280F381E02D19957CC37C
S1132880ED81FE8186819781DC01ED91FC910280CE
S1132890F381E02D199570C3ED81FE8186819781C6
S11328A0DC01ED91FC910280F381E02D199564C364
S11328B0ED81FE8186819781DC01ED91FC9102809E
S11328C0F381E02D199558C3ED81FE8186819781AE
S11328D0DC01ED91FC910280F381E02D19954CC34C
S11328E0ED81FE8186819781DC01ED91FC9102806E
S11328F0F381E02D199540C3ED81FE818681978196
S1132900DC01ED91FC910280F381E02D199534C333
S113291085E191E20E947D2B882309F42DC3AD81CA
S1132920BE811696ED91FC9117970190F081E02DF0
S1132930C280D38085E191E20E945F2B682FED81F4
S1132940FE8186819781F601199516C3AD81BE81FA
S113295016968D919C911797DC01ED91FC91048062
S1132960F581E02D1995882309F406C3ED81FE81D4
S113297086819781DC01ED91FC910680F781E02D41
S11329801995F8012081ED81FE81E20FF11D828B02
S11329902F5FD8012C939927FC01E556F109E63104
S11329A0F10508F0E9C28827E759FE4F8F4F0C94D0
S11329B0AE3482EF90E2F50180839183DDC281EF32
S11329C090E2D5018D939C93D7C280EF90E2F501FC
S11329D080839183D1C20FB6F8940F921092F420A1
S11329E00F900FBE60E08D819E810E94042AC4C2B4
S11329F0D501ED91FC91B0E2E23FFB0741F080E2AA
S1132A00E13FF80721F090E2E03FF90741F40FB607
S1132A10F8940F9281E080830F900FBEADC26AE0FC
S1132A20AD81BE8116968D919C9117970E94CD2CF5
S1132A306C016AEC79E00E94962C66E0C6010E9463
S1132A40CD2C9AC2D501ED91FC91B0E2E23FFB0797
S1132A5041F080E2E13FF80721F090E2E03FF9071E
S1132A6041F40FB6F8940F9282E080830F900FBE6A
S1132A7083C26AE0AD81BE8116968D919C911797B1
S1132A800E94CD2C6C0167E979E00E94962C66E0E7
S1132A90C6010E94CD2C70C2D501ED91FC91B0E22B
S1132AA0E23FFB0741F080E2E13FF80721F090E2CA
S1132AB0E03FF90739F40FB6F8940F9210820F90A3
S1132AC00FBE5AC26AE0AD81BE8116968D919C916B
S1132AD017970E94CD2C6C0164E679E00E94962C35
S1132AE066E0C6010E94CD2C47C2ED81FE8186813D
S1132AF09781DC01ED91FC910480F581E02D19951D
S1132B00882309F439C2ED81FE8186819781DC0135
S1132B10ED91FC910680F781E02D1995BC01F80137
S1132B208081ED81FE81E80FF11D628B8F5FD801FA
S1132B308C93FB01FF27BC97EF34F10508F01CC20E
S1132B408827E158FE4F8F4F0C94AE346AE0ED8134
S1132B50FE81868197810E94CD2C6C016FE479E01F
S1132B600E94962C66E0C6010E94CD2CD8011C92CE
S1132B7089E391E2F30180839183FEC16AE0AD8130
S1132B80BE8116968D919C9117970E94CD2C6C0155
S1132B9063E379E00E94962C66E0C6010E94CD2C86
S1132BA0F801108287E591E2D2018D939C9381E034
S1132BB0F1018083E1C16AE0AD81BE8116968D91F9
S1132BC09C9117970E94CD2C6C0167E179E00E94DB
S1132BD0962C66E0C6010E94CD2CF80110828DE48B
S1132BE091E2D2018D939C9381E0F1018083C4C171
S1132BF06AE0AD81BE8116968D919C9117970E94D3
S1132C00CD2C6C016BEF78E00E94962C66E0C60137
S1132C100E94CD2CF801108283E491E2D2018D93BD
S1132C209C9381E0F1018083A7C16AE0AD81BE81FC
S1132C3016968D919C9117970E94CD2C6C0167EE8E
S1132C4078E00E94962C66E0C6010E94CD2C0FB657
S1132C50F8940F921092F6200F900FBE60E08D81D1
S1132C609E810E94042A88C18D819E810E94281120
S1132C709B01AC01F7016083718382839383D1014B
S1132C808C918823B1F0A8EEB3E00E94C534608330
S1132C90718382839383D2018D919C91DC01ED91A8
S1132CA0FC910190F081E02DB7011995F10110829A
S1132CB032C0D301CD90DC90BFE3CB16B1E2DB068A
S1132CC061F464E670E080E090E00E948C34F701E7
S1132CD020833183428353830FC0F9E3CF16F1E29B
S1132CE0DF0651F4ACEDB5E00E94C534D7016D9315
S1132CF07D938D939C931397F70180819181A28199
S1132D00B3810FB6F8940F92F60180839183A28366
S1132D10B3830F900FBED8011C92D7018D919D9162
S1132D200D90BC91A02D89839A83AB83BC836AE008
S1132D30ED81FE81868197810E94CD2C6C0167ED27
S1132D4078E00E94962C49815A816B817C81C6016E
S1132D500E94AA2E66E00E94CD2C0EC1AD81BE81D8
S1132D6016968D919C911797DC01ED91FC91028050
S1132D70F381E02D19958D819E810E9428119B017C
S1132D80AC01A8EEB3E00E94C534F70160837183FF
S1132D9082839383D2018D919C91DC01ED91FC910E
S1132DA00190F081E02DB7011995F8011082E4C07B
S1132DB06AE0AD81BE8116968D919C9117970E9411
S1132DC0CD2C6C016EEB78E00E94962C66E0C60177
S1132DD00E94CD2CF801108285E691E2D3018D93F7
S1132DE09C93CAC06AE0ED81FE81868197810E942E
S1132DF0CD2C6C0169EA78E00E94962C66E0C6014D
S1132E000E94CD2CD8011C9289E691E2F3018083C3
S1132E109183B2C06AE0AD81BE8116968D919C917A
S1132E2017970E94CD2C6C016EE878E00E94962CD6
S1132E3066E0C6010E94CD2CF80110828EE691E274
S1132E40D3018D939C9398C0ED81FE8186819781F7
S1132E50DC01ED91FC910280F381E02D19958CC089
S1132E60ED81FE8186819781DC01ED91FC910280E8
S1132E70F381E02D199580C0ED81FE8186819781D3
S1132E80DC01ED91FC910280F381E02D199574C071
S1132E90ED81FE8186819781DC01ED91FC910280B8
S1132EA0F381E02D199568C0ED81FE8186819781BB
S1132EB0DC01ED91FC910280F381E02D19955CC059
S1132EC0ED81FE8186819781DC01ED91FC91028088
S1132ED0F381E02D199550C0ED81FE8186819781A3
S1132EE0DC01ED91FC910280F381E02D199544C041
S1132EF0ED81FE8186819781DC01ED91FC91028058
S1132F00F381E02D199538C0ED81FE81868197818A
S1132F10DC01ED91FC910280F381E02D19952CC028
S1132F20ED81FE8186819781DC01ED91FC91028027
S1132F30F381E02D199520C0A983BA836AE0FD01CD
S1132F40868197810E94CD2C89839A8361E778E0FA
S1132F500E94962C66E089819A810E94CD2C93E090
S1132F6088ED08B618BE84BF9093800080918200DB
S1132F7081FDFCCF08BEFFCFED81FE81868597855C
S1132F80A089B1890196A11DB11D86879787A08B61
S1132F90B18B61E070E080E090E00E94D827FBC92B
S1132FA080559F4F21E0FC01208308958F549F4F4B
S1132FB021E0FC01208308958F549F4FFC0110826F
S1132FC0089580559F4FFC01108208950895089537
S1132FD008958F549F4FFC018081089508950895AA
S1132FE080559F4FFC0180810895FC018481958167
S1132FF00E94302490E00895FC01848195810E9410
S1133000302491E0811101C090E0892F0895FC01E2
S1133010848195810E94302491E0811190E0892F70
S11330200895FC01848195810E94282490E00895EC
S1133030FC01848195810E94282491E0811101C0C2
S113304090E0892F0895FC01848195810E942824B1
S113305091E0811190E0892F08950F9301E02FEF03
S11330603FEFA901FC01848195810E9437230F91D0
S113307008950F93CF93DF9300D01F92CDB7DEB79F
S113308001E02FEF3FEFA901BE016F5F7F4FFC010D
S1133090848195810E94372369817A818B819C8107
S11330A02496CDBFDEBFDF91CF910F9108950F938A
S11330B000E02FEF3FEFA901FC01848195810E947C
S11330C037230F9108950F93CF93DF9300D01F926E
S11330D0CDB7DEB700E02FEF3FEFA901BE016F5F70
S11330E07F4FFC01848195810E94372369817A8115
S11330F08B819C812496CDBFDEBFDF91CF910F9150
S11331000895CF93DF931F92CDB7DEB7AE014F5F23
S11331105F4FFC01848195810E94FB230F90DF9116
S1133120CF910895CF93DF93CDB7DEB72597CDBF69
S1133130DEBFAE014B5F5F4FBE016F5F7F4FFC018F
S1133140848195810E94FB2369817A818B819C8192
S11331502596CDBFDEBFDF91CF910895CF93DF9346
S11331601F92CDB7DEB7198221E0AE014F5F5F4FEA
S1133170FC01848195810E940B2391E0811101C09F
S113318090E0892F0F90DF91CF910895CF93DF9333
S11331901F92CDB7DEB7198220E0AE014F5F5F4FBB
S11331A0FC01848195810E940B2391E0811101C06F
S11331B090E0892F0F90DF91CF9108950F93FC0138
S11331C0268137814085518501E0848195810E9463
S11331D0702291E0811101C090E0892F0F91089530
S11331E00F93FC01268137814085518500E084815D
S11331F095810E94702291E0811101C090E0892F95
S11332000F910895CF93DF93EC014E960E948408AA
S1133210FE01E558FF4F1082118212821382349608
S113322010821182128213823496108211821282C9
S11332301382349610821182128213823496108281
S113324011821282138283E790E288839983B9966C
S11332501082118212821382349610821182128299
S11332601382349610821182128213823496108251
S1133270118212821382CC53DF4F188219821A8270
S11332801B82DF91CF9108950F93CF93DF931F9209
S1133290CDB7DEB72FB72983F8941BBEFC0108ED28
S11332A004BF608389818FBF0F90DF91CF910F910D
S11332B008956F927F928F929F92AF92BF92CF9216
S11332C0DF92EF92FF920F931F93CF93DF93CDB7CB
S11332D0DEB76D97CDBFDEBFF894E0E5F0E0808106
S11332E082608083818181FFFDCF60914000687F8F
S11332F0616080E490E00E944419E0E5F0E08081A0
S11333008E7F80839DEF88ED08B618BE84BF9093AE
S1133310800008BE40EA5AE060E070E0CE01019609
S11333200E94D22F67E0CE0101960E94CD2C3C0171
S11333306FE270E20E94962C66E0C3010E94CD2CDD
S113334066E00E94CD2C0FB6F8940F9282E090E0D4
S1133350A0E0B0E08093692190936A21A0936B214F
S1133360B0936C210F900FBE0FB6F8940F9288E0C3
S113337090E0A0E0B0E08093652190936621A09353
S11333806721B09368210F900FBE0FB6F8940F9287
S113339088EE93E0A0E0B0E080936E2190936F21DB
S11333A0A0937021B09371210F900FBE0FB6F894C3
S11333B00F9282E390E0A0E0B0E080933F219093ED
S11333C04021A0934121B09342210F900FBE0FB62C
S11333D0F8940F928CE49DE1A0E0B0E08093392151
S11333E090933A21A0933B21B0933C210F900FBEC0
S11333F08AE190E00E94D52B809337219093382165
S113340088EC90E00E94D52B3C0168E070E00E94BB
S113341002196092292170922A2188EC90E00E947E
S1133420D52B3C0168E070E00E94021960922721CC
S11334307092282188EC90E00E94D52B3C0168E032
S113344070E00E940219609225217092262187E083
S113345090E00E94D52B7C0183E090E00E94D52B64
S1133460FC01E082F182809335219093362187E03C
S113347090E00E94D52B7C0183E090E00E94D52B44
S1133480FC01E082F182809333219093342187E020
S113349090E00E94D52B7C0183E090E00E94D52B24
S11334A0FC01E082F182809331219093322187E004
S11334B090E00E94D52B7C0183E090E00E94D52B04
S11334C0FC01E082F18280932F219093302187E0E8
S11334D090E00E94D52B7C0183E090E00E94D52BE4
S11334E0FC01E082F18280932D2190932E2187E0CC
S11334F090E00E94D52B7C0183E090E00E94D52BC4
S1133500FC01E082F18280932B2190932C2183E2B1
S113351091E00E94D52B8E010F5F1F4F20E830E011
S113352040E06EE470E20E940B118AE490E00E9495
S1133530D52BA0903321B0903421C0903521D09068
S11335403621E0902921F0902A211F926894772453
S113355073F87F922AE731E23F932F9322EF30E210
S11335603F932F9327E531E23F932F930F2EFBE0F8
S11335708F2EF1E29F2EF02D20E830E044E066E546
S113358070E20E9450098AE490E00E94D52BA0903A
S11335902F21B0903021C0903121D0903221E09081
S11335A02721F09028211F927F9229E731E23F934F
S11335B02F9321EF30E23F932F932DE431E23F9399
S11335C02F930F2EF1E08F2EF1E29F2EF02D20E8A5
S11335D030E044E06AE570E20E9450098AE490E039
S11335E00E94D52BA0902B21B0902C21C0902D218E
S11335F0D0902E21E0902521F09026211F927F92D9
S113360028E731E23F932F9320EF30E23F932F934B
S113361023E431E23F932F930F2EF7EF8F2EF0E246
S11336209F2EF02D20E830E044E06EE570E20E9429
S1133630500983E290E00E94D52BE0903721F0906E
S1133640382124EF31E044E062E670E20E94EE109B
S113365087E08093A20078940E949925CDBFDEBFB5
S113366080E090E06D96CDBFDEBFDF91CF911F91DA
S11336700F91FF90EF90DF90CF90BF90AF909F900D
S11336808F907F906F9008951F920F920FB60F92B4
S113369011240BB60F922F933F934F935F936F9325
S11336A07F938F939F93AF93BF93EF93FF938091F7
S11336B0292190912A210E94A0078091F520882336
S11336C079F08091292190912A21DC01ED91FC91DE
S11336D00684F785E02D1995813011F480933E21FD
S11336E0FF91EF91BF91AF919F918F917F916F91D6
S11336F05F914F913F912F910F900BBE0F900FBE92
S11337000F901F9018951F920F920FB60F921124CD
S11337100BB60F922F933F934F935F936F937F93C7
S11337208F939F93AF93BF93EF93FF93809129213E
S113373090912A210E94B9078091F520882381F075
S11337408091292190912A21DC01ED91FC9106843C
S1133750F785E02D1995811103C081E080933E2106
S1133760FF91EF91BF91AF919F918F917F916F9155
S11337705F914F913F912F910F900BBE0F900FBE11
S11337800F901F9018951F920F920FB60F9211244D
S11337900BB60F922F933F934F935F936F937F9347
S11337A08F939F93AF93BF93EF93FF9380912721C0
S11337B0909128210E94A0078091F520882379F018
S11337C08091272190912821DC01ED91FC910684C0
S11337D0F785E02D1995813011F480933E21FF91F6
S11337E0EF91BF91AF919F918F917F916F915F9175
S11337F04F913F912F910F900BBE0F900FBE0F90E2
S11338001F9018951F920F920FB60F9211240BB6AA
S11338100F922F933F934F935F936F937F938F9365
S11338209F93AF93BF93EF93FF9380912721909140
S113383028210E94B9078091F520882381F0809186
S1133840272190912821DC01ED91FC910684F785D4
S1133850E02D1995811103C081E080933E21FF91F1
S1133860EF91BF91AF919F918F917F916F915F91F4
S11338704F913F912F910F900BBE0F900FBE0F9061
S11338801F9018951F920F920FB60F9211240BB62A
S11338900F922F933F934F935F936F937F938F93E5
S11338A09F93AF93BF93EF93FF93809125219091C2
S11338B026210E94A0078091F520882379F0809129
S11338C0252190912621DC01ED91FC910684F78558
S11338D0E02D1995813011F480933E21FF91EF91F1
S11338E0BF91AF919F918F917F916F915F914F9114
S11338F03F912F910F900BBE0F900FBE0F901F9012
S113390018951F920F920FB60F9211240BB60F92B7
S11339102F933F934F935F936F937F938F939F93D3
S1133920AF93BF93EF93FF9380912521909126212C
S11339300E94B9078091F520882381F08091252188
S113394090912621DC01ED91FC910684F785E02D10
S11339501995811103C081E080933E21FF91EF917D
S1133960BF91AF919F918F917F916F915F914F9193
S11339703F912F910F900BBE0F900FBE0F901F9091
S113398018951F920F920FB60F9211240BB60F9237
S11339902F933F934F935F936F937F938F939F9353
S11339A0AF93BF93EF93FF938091292190912A21A4
S11339B0DC01ED91FC910288F389E02D1995FF91CA
S11339C0EF91BF91AF919F918F917F916F915F9193
S11339D04F913F912F910F900BBE0F900FBE0F9000
S11339E01F9018951F920F920FB60F9211240BB6C9
S11339F00F922F933F934F935F936F937F938F9384
S1133A009F93AF93BF93EF93FF938091292190915C
S1133A102A21DC01ED91FC910088F189E02D1995B2
S1133A20FF91EF91BF91AF919F918F917F916F9192
S1133A305F914F913F912F910F900BBE0F900FBE4E
S1133A400F901F9018951F920F920FB60F9211248A
S1133A500BB60F922F933F934F935F936F937F9384
S1133A608F939F93AF93BF93EF93FF9380912721FD
S1133A7090912821DC01ED91FC910288F389E02DDD
S1133A801995FF91EF91BF91AF919F918F917F9184
S1133A906F915F914F913F912F910F900BBE0F90BB
S1133AA00FBE0F901F9018951F920F920FB60F9292
S1133AB011240BB60F922F933F934F935F936F9301
S1133AC07F938F939F93AF93BF93EF93FF938091D3
S1133AD0272190912821DC01ED91FC910088F18946
S1133AE0E02D1995FF91EF91BF91AF919F918F9127
S1133AF07F916F915F914F913F912F910F900BBEEA
S1133B000F900FBE0F901F9018951F920F920FB633
S1133B100F9211240BB60F922F933F934F935F9301
S1133B206F937F938F939F93AF93BF93EF93FF9381
S1133B308091252190912621DC01ED91FC91028850
S1133B40F389E02D1995FF91EF91BF91AF919F916A
S1133B508F917F916F915F914F913F912F910F9032
S1133B600BBE0F900FBE0F901F9018951F920F92CF
S1133B700FB60F9211240BB60F922F933F934F93CE
S1133B805F936F937F938F939F93AF93BF93EF93C1
S1133B90FF938091252190912621DC01ED91FC91E8
S1133BA00088F189E02D1995FF91EF91BF91AF91B4
S1133BB09F918F917F916F915F914F913F912F9141
S1133BC00F900BBE0F900FBE0F901F901895CF92C1
S1133BD0DF92EF92FF920F931F93CF93DF93EC0149
S1133BE0862F680179014A835B832DE830E22883BC
S1133BF0398340E064E00E9442228C839D83CE821C
S1133C00DF82E886F986DF91CF911F910F91FF90B3
S1133C10EF90DF90CF9008950F931F930AE010E088
S1133C2020E030E040E050E062E387E591E20E946A
S1133C30E71D0AE010E020E030E040E050E062E3FD
S1133C408DE491E20E94E71D0AE010E020E030E0FC
S1133C5040E050E062E383E491E20E94E71D0AE061
S1133C6010E020E030E040E050E060E270E085E108
S1133C7091E20E94A62B0AE010E020E030E040E050
S1133C8050E062E38BE091E20E94E71D0AE010E05D
S1133C9020E030E040E050E062E381E091E20E9405
S1133CA0E71D0AE010E020E030E040E050E062E38D
S1133CB087EF90E20E94E71D1F910F9108950F93E3
S1133CC01F93CF93DF93EC010E94CC2580917B213D
S1133CD081111DC0A0E8B1E2E4E8F1E2ED93FC93A8
S1133CE0119712961D921C921397ACE7B1E28FEFD5
S1133CF09FE112968D939C9313971D921C9211979A
S1133D0082839383A083B18381E080937B21209776
S1133D1009F45FC09E012B5F3F4F2496CE3FDF41E5
S1133D2008F05AC0E0918021F0918121A0E8B1E22D
S1133D3002C0DF01FC01828193818217930720F482
S1133D40808191810097A9F7C1E2EC37FC0709F45F
S1133D5046C0CD91DC9111978E010B5F1F4F80817E
S1133D6091818D939C9382819381821B930B8B30E1
S1133D70910510F1BF01620F731FDB0112968D9341
S1133D809C9313972283338312964D915C911397DE
S1133D9080E891E201C0CD01EC01A881B9811296BD
S1133DA02D913C91139724173507A8F3EB01A883B1
S1133DB0B983DC016D937C93809100209091012064
S1133DC022813381821B930B8093002090930120E6
S1133DD008C000E010E005C000E010E002C000E010
S1133DE010E00E94E926C801DF91CF911F910F9145
S1133DF008950F931F93CF93DF93009741F1EC0144
S1133E008C01055011090E94CC25F801428153818F
S1133E10A0E8B1E201C0DF01ED91FC91119722818C
S1133E20338124173507B8F32597E883F9830D9375
S1133E301C9320910020309101208A819B81820F64
S1133E40931F80930020909301200E94E926DF9124
S1133E50CF911F910F910895FC0103968183928362
S1133E604FEF5FEFBA01438354836583768387837F
S1133E7090878187928710820895FC0112861386A9
S1133E800895CF93DF93FC01DB0121813281E901A5
S1133E908C819D8114968D939C9315978181928139
S1133EA016968D939C9317978C819D81EC016E835C
S1133EB07F83E9016C837D83618372831A96ED931A
S1133EC0FC931B9780818F5F8083DF91CF9108954E
S1133ED00F931F93CF93DF93EB01088119812A81FC
S1133EE03B810F3F4FEF14072407340731F4DC0103
S1133EF01996ED91FC911A971FC0FC013396DC01D1
S1133F0017964D915C911897DA014D915D916D91E1
S1133F107C91041715072607370770F00480F58194
S1133F20E02DA481B5814D915D916D917C91041733
S1133F3015072607370790F7A481B581AC83BD83A5
S1133F401696CD93DC931797EE83FF83C483D583B2
S1133F508A879B87FC0120812F5F2083DF91CF918B
S1133F601F910F910895FC01A481B58186819781E9
S1133F7016968D939C931797A681B781848195811A
S1133F8014968D939C931597A285B38511968D9164
S1133F909C911297E817F90731F48681978111965D
S1133FA08D939C931297128613868C9181508C93D7
S1133FB0089580930B4290930C4231E1FC013083CD
S1133FC0319722E220833197A3E3A0833197608362
S1133FD0319770833197108231971082319760E85E
S1133FE06083319710823197108231971082319714
S1133FF062E06083319763E06083319764E06083BB
S1134000319765E06083319766E06083319767E0BC
S11340106083319768E06083319769E0608331970A
S113402060E1608331973083319732E13083319797
S113403033E13083319734E13083319735E1308394
S1134040319736E13083319737E13083319738E166
S11340503083319739E13083319730E230833197BF
S113406031E2308331972083319723E220833197E3
S1134070408331975083319726E22083319727E29A
S11340802083319728E22083319729E220833197D6
S113409020E32083319721E32083899708958CE7D7
S11340A08093690A8FEF8093680A81E08093400AC5
S11340B081E18093410A83E08093470AA091E34120
S11340C0B091E441CD91CDBFDD91DEBFFF91EF9181
S11340D0DF91CF91BF91AF919F918F917F916F911C
S11340E05F914F913F912F911F910F91FF90EF900E
S11340F0DF90CF90BF90AF909F908F907F906F9004
S11341005F904F903F902F901F900F900CBE0F9098
S11341100BBE0F900FBE0F90089581E008950F928B
S11341200FB6F8940F920BB60F920CB60F921F9223
S113413011242F923F924F925F926F927F928F92AF
S11341409F92AF92BF92CF92DF92EF92FF920F9322
S11341501F932F933F934F935F936F937F938F930B
S11341609F93AF93BF93CF93DF93EF93FF93A0916C
S1134170E341B091E4410DB60D920EB60D920E944A
S11341800628A091E341B091E441CD91CDBFDD91EA
S1134190DEBFFF91EF91DF91CF91BF91AF919F91DE
S11341A08F917F916F915F914F913F912F911F91CB
S11341B00F91FF90EF90DF90CF90BF90AF909F90C2
S11341C08F907F906F905F904F903F902F901F90B3
S11341D00F900CBE0F900BBE0F900FBE0F90089562
S11341E00F920FB6F8940F920BB60F920CB60F9273
S11341F01F9211242F923F924F925F926F927F925F
S11342008F929F92AF92BF92CF92DF92EF92FF92E2
S11342100F931F932F933F934F935F936F937F93CA
S11342208F939F93AF93BF93CF93DF93EF93FF93BA
S1134230A091E341B091E4410DB60D920EB60D92FA
S11342400E94E8250E940628A091E341B091E44130
S1134250CD91CDBFDD91DEBFFF91EF91DF91CF9185
S1134260BF91AF919F918F917F916F915F914F918A
S11342703F912F911F910F91FF90EF90DF90CF907E
S1134280BF90AF909F908F907F906F905F904F9072
S11342903F902F901F900F900CBE0F900BBE0F906D
S11342A00FBE0F9008950E94F0201895CF93DF93CE
S11342B0EC0188A181110BC088819981892BE1F5DA
S11342C08A819B810E94C1291A821B8235C04111B7
S11342D017C0482F50E08C819D810E94A83528A1E9
S11342E08C819D81820F911D8C839D832A813B81CA
S11342F08217930708F1888199818C839D831CC060
S1134300482F50E08E819F810E94A83588A190E0BB
S11343109195819591092E813F81280F391F2E8314
S11343203F83488159812417350730F42A813B8122
S1134330820F931F8E839F838E8D8F5F8E8FDF916D
S1134340CF910895FC01808191810097A1F040A153
S113435050E026813781240F351F26833783A281BD
S1134360B3812A173B0710F086839783CB016681BC
S113437077810E94A83508950F931F93CF93DF93FD
S1134380EC010FB6F8940F928AA11816B4F48B8935
S1134390811105C012C08B89811104C00EC08E0129
S11343A00D5E1F4FC8010E948D2881110E944A2969
S11343B08AA181508AA3181674F38FEF8AA30F90F1
S11343C00FBE0FB6F8940F9289A11816B4F488851D
S11343D0811105C012C08885811104C00EC08E01F0
S11343E0085F1F4FC8010E948D2881110E944A292D
S11343F089A1815089A3181674F38FEF89A30F90B4
S11344000FBEDF91CF911F910F9108951F93CF930A
S1134410DF93613059F0FC012389308531112CC0C0
S113442011E0211110E0211128C001C011E0EC01BC
S11344304881598128A130E06F8D629FC001639F3C
S1134440900D1124BA01680F791F6A837B831E8E35
S11344504C835D83821B930B840F951F8E839F83F4
S11344608FEF89A38AA3CE0108960E942C1FCE0148
S113447043960E942C1F01C010E0812FDF91CF9141
S11344801F9108950F931F93CF93DF93882301F116
S1134490062F182F83E290E00E945F1EEC01892B07
S11344A0C9F0109FC001112401960E945F1E8883E9
S11344B09983892B39F01F8F08A361E0CE010E94F4
S11344C0062208C0CE010E94F91EC0E0D0E002C05E
S11344D0C0E0D0E0CE01DF91CF911F910F910895FC
S11344E0AF92BF92CF92DF92EF92FF920F931F93FE
S11344F0CF93DF93CDB7DEB72997CDBFDEBF7C0165
S11345005B012E833F834887598710E06C0188E064
S1134510C80ED11C0FB6F8940F92F701968D878DB3
S11345209817A8F4402FB501C7010E945621F7013E
S11345308389882341F0C70143960E948D288130E6
S113454011F40E948F200F900FBE81E056C08E811F
S11345509F81A885B985892B8A2B8B2B21F40F90F9
S11345600FBE80E04AC0111105C0CE0101960E9421
S1134570CC2811E00F900FBE0E94CC250FB6F89402
S11345800F92F70181A18F3F09F411A2F70182A1D3
S11345908F3F09F412A20F900FBEBE016A5F7F4FD6
S11345A0CE0101960E94DD28811121C00FB6F89436
S11345B00F92F701968D0F900FBE878D981311C03F
S11345C04E815F8168857985C6010E946328C70191
S11345D00E94BC210E94E92681119CCF0E948F2059
S11345E099CFC7010E94BC210E94E92693CFC7013D
S11345F00E94BC210E94E92680E02996CDBFDEBF3F
S1134600DF91CF911F910F91FF90EF90DF90CF90AA
S1134610BF90AF9008950F931F93CF93DF938A01B8
S1134620FC01568D378D5317C0F4422FEC010E94C4
S113463056218AA18F3F69F48B89882381F0CE01AA
S113464043960E948D28882361F081E0F8018083DD
S113465009C08F5F8AA381E005C080E003C081E0C8
S113466001C081E0DF91CF911F910F910895AF9226
S1134670BF92CF92DF92EF92FF920F931F93CF934B
S1134680DF93CDB7DEB72997CDBFDEBF7C015B01D9
S11346902E833F834887598710E06C0183E1C80E5D
S11346A0D11C0FB6F8940F92F701868D882399F1E7
S11346B0C680D780B501C7010E94A22101111AC08A
S11346C0F701868D8150868F80819181892B29F411
S11346D00E946729F70182839383F70180858823E9
S11346E0B1F0C70108960E948D28813081F40E94A0
S11346F08F200DC0F701C682D7828389882339F0C1
S1134700C70143960E948D2881110E948F200F902B
S11347100FBE81E062C08E819F81A885B985892BF7
S11347208A2B8B2B21F40F900FBE80E056C0111101
S113473005C0CE0101960E94CC2811E00F900FBE57
S11347400E94CC250FB6F8940F92F70181A18F3FF8
S113475009F411A2F70182A18F3F09F412A20F906C
S11347600FBEBE016A5F7F4FCE0101960E94DD2815
S113477081112DC00FB6F8940F92F701868D0F901A
S11347800FBE81111EC080819181892B49F40FB61F
S1134790F8940F92828193810E946C290F900FBE2E
S11347A04E815F8168857985C6010E946328C701AF
S11347B00E94BC210E94E926811173CF0E948F20A0
S11347C070CFC7010E94BC210E94E9266ACFC701AD
S11347D00E94BC210E94E92680E02996CDBFDEBF5D
S11347E0DF91CF911F910F91FF90EF90DF90CF90C9
S11347F0BF90AF9008950F931F93CF93DF93FC0165
S1134800268D2223D9F08A01EC010E94A2218E8DEB
S113481081508E8F89A18F3F69F48885882381F028
S1134820CE0108960E948D28882361F081E0F8016A
S1134830808309C08F5F89A381E005C080E003C045
S113484081E001C081E0DF91CF911F910F91089524
S11348500FB6F8940F92FC01868D0F900FBE089549
S1134860FC01868D0895C7EBD1E488818230E8F39A
S11348700E948F20FACFCF92DF92EF92FF926B01CA
S11348807C01E091E341F091E4416283738384838A
S1134890958380918B4190918C41A0918D41B091F1
S11348A08E41C816D906EA06FB0668F46091E34116
S11348B07091E44180919D4190919E416E5F7F4F44
S11348C00E94681F21C06091E3417091E44180918E
S11348D09F419091A0416E5F7F4F0E94681F80911D
S11348E0022090910320A0910420B0910520C816C5
S11348F0D906EA06FB0640F4C0920220D0920320B7
S1134900E0920420F0920520FF90EF90DF90CF908A
S113491008954F925F926F927F928F929F92AF927F
S1134920BF92CF92DF92EF92FF920F931F93CF9398
S1134930DF935C014B013A01290188E290E00E9477
S11349405F1EEC01892B09F4D4C0C114D10409F011
S1134950CCC0C3010E945F1E8B8F9C8F009721F4F3
S1134960CE010E94F91EC5C0A30161E170E00E945E
S1134970B1359301215031098B8D9C8D3C01620E20
S1134980731E4AE050E0B401CE014D960E94B83542
S11349901EA2102F043008F013E01A8F1FA36E011B
S11349A022E0C20ED11CC6010E943D1FCE010E960C
S11349B00E943D1FCA87DB8784E090E0A0E0B0E05E
S11349C0811B9109A109B1098E879F87A88BB98B97
S11349D0CE8BDF8BA201B501C3010E94D91F88834E
S11349E09983E114F10419F0F701C083D1830FB660
S11349F0F8940F9280918F418F5F80938F418091C3
S1134A00E3419091E441892B89F5C093E341D0932C
S1134A10E44180918F418130C1F587EB91E40E949C
S1134A202C1F82EC91E40E942C1F8DEC91E40E94D7
S1134A302C1F88ED91E40E942C1F8CEA91E40E94C3
S1134A402C1F81EA91E40E942C1F82E991E40E94C8
S1134A502C1F8CEA91E480939F419093A04181EABA
S1134A6091E480939D4190939E410FC08091884131
S1134A7081110BC0E091E341F091E441828D08176C
S1134A8020F0C093E341D093E4418A8D90918A4110
S1134A90981710F480938A41909183419F5F90937B
S1134AA0834190918941981710F480938941FBE0E8
S1134AB08F9FC0011124B60189549E4B0E94411F4F
S1134AC00F900FBE80918841882359F0E091E34113
S1134AD0F091E441828D801730F40E948F2081E0B0
S1134AE009C081E007C081E005C0CB8EDC8EC60121
S1134AF03BCF8FEFDF91CF911F910F91FF90EF90FC
S1134B00DF90CF90BF90AF909F908F907F906F90E9
S1134B105F904F9008950FB6F8940F92009721F488
S1134B208091E3419091E4410F900FBEFC01828D8E
S1134B300895AF92BF92CF92DF92EF92FF920F93BC
S1134B40A12CB12CC12CD12C0F2EF0E9EF2EF1E4C5
S1134B50FF2EF02D00E020E030E044E650E06DEA66
S1134B6070E283E394E20E948924813069F4F8942A
S1134B708093884110928B4110928C4110928D4108
S1134B8010928E410E944F200F91FF90EF90DF9082
S1134B90CF90BF90AF900895809187418F5F8093AD
S1134BA0874108950FB6F8940F9260918B417091EC
S1134BB08C4180918D4190918E410F900FBE08954C
S1134BC0009721F48091E3419091E4414D9608953A
S1134BD0FF920F931F93CF93DF93809187418111AD
S1134BE0EDC080918B4190918C41A0918D41B09109
S1134BF08E410196A11DB11D80938B4190938C41F0
S1134C00A0938D41B0938E4180918B4190918C41C2
S1134C10A0918D41B0918E41892B8A2B8B2BF1F57C
S1134C2080919F419091A04120919D4130919E415E
S1134C3020939F413093A04180939D4190939E4146
S1134C40809184418F5F80938441E0919F41F091F2
S1134C50A041808181110CC08FEF9FEFDC01809314
S1134C60022090930320A0930420B093052016C043
S1134C70E0919F41F091A0410780F085E02D0084F0
S1134C80F185E02D82819381A481B58180930220F6
S1134C9090930320A0930420B093052040918B416E
S1134CA050918C4160918D4170918E418091022090
S1134CB090910320A0910420B09105204817590732
S1134CC06A077B0708F47FC0E0919F41F091A041FF
S1134CD080818823F9F0E0919F41F091A041078001
S1134CE0F085E02DC085D1858A819B81AC81BD8111
S1134CF040918B4150918C4160918D4170918E41D6
S1134D00481759076A077B0758F10F2EFBE0FF2E5F
S1134D10F02D2FC08FEF9FEFDC0180930220909342
S1134D200320A0930420B09305204DC0E0919F413F
S1134D30F091A0410780F085E02DC085D1858A815E
S1134D409B81AC81BD8140918B4150918C4160919C
S1134D508D4170918E41481759076A077B0748F4C3
S1134D608093022090930320A0930420B093052005
S1134D702AC08E010E5F1F4FC8010E94B31F888D89
S1134D80998D892B21F0CE010E960E94B31F8A8D36
S1134D9090918941981710F480938941F89EC0013D
S1134DA01124B80189549E4B0E94411FE0919F41F8
S1134DB0F091A04180818111B9CFACCF809186411F
S1134DC08F5F80938641DF91CF911F910F91FF9068
S1134DD00895CF92DF92EF92FF920F931F93CF9398
S1134DE0DF930FB6F8940F9280918741815080939E
S1134DF0874180918741811160C080918F418111E9
S1134E002CC05EC0D7011796ED91FC911897C08510
S1134E10D185CE010E960E94B31F8E010E5F1F4FE7
S1134E20C8010E94B31F8A8D90918941981710F48C
S1134E3080938941D89EC0011124B80189549E4BA6
S1134E400E94411FE091E341F091E4419A8D828DEB
S1134E50981770F0CC24C3940BC0C12C0F2EF2E928
S1134E60EF2EF1E4FF2EF02D0F2EFBE0DF2EF02DC0
S1134E70F70180818111C6CF80918641882381F01A
S1134E8080918641882399F00E94E825809186418B
S1134E90815080938641809186418111F5CF07C06E
S1134EA0F1E0CF1621F080918541813041F41092D8
S1134EB085410E948F2081E003C080E001C080E032
S1134EC00F900FBEDF91CF911F910F91FF90EF9044
S1134ED0DF90CF900895CF92DF92EF92FF92CF931D
S1134EE0DF93EC016A017B010E94CC2588819981C2
S1134EF0AA81BB81C80ED91EEA1EFB1E40918B41BC
S1134F0050918C4160918D4170918E4148175907A1
S1134F106A077B07B8F4C816D906EA06FB06E0F56B
S1134F2080918B4190918C41A0918D41B0918E41A3
S1134F30C882D982EA82FB828C159D05AE05BF0525
S1134F40F8F413C0C816D906EA06FB0600F18091EE
S1134F508B4190918C41A0918D41B0918E418C15E3
S1134F609D05AE05BF0598F017C08091E34190916F
S1134F70E44102960E94B31FC701B6010E943B247C
S1134F800E94E92681110DC00E948F200AC0C882A8
S1134F90D982EA82FB82E9CFC882D982EA82FB8283
S1134FA0EFCFDF91CF91FF90EF90DF90CF900895F6
S1134FB0CF92DF92EF92FF926B017C01672B682BFB
S1134FC0692BE9F00E94CC2580918B4190918C4112
S1134FD0A0918D41B0918E41C80ED91EEA1EFB1ED0
S1134FE08091E3419091E44102960E94B31FC7016E
S1134FF0B6010E943B240E94E926811102C00E944E
S11350008F20FF90EF90DF90CF900895809187419B
S113501081110CC0E09189414BE0E49FF00111241F
S1135020E954FE4B8081882329F014C081E08093E9
S1135030854108959BE08091894181508093894105
S1135040E09189419E9FF0011124E954FE4B808137
S1135050882389F380918941282F30E04BE0849F95
S1135060C0011124DC01A954BE4B1196ED91FC91B1
S113507012970480F581E02D1196ED93FC9312971D
S113508086549E4BE817F90761F4848195814BE0BF
S1135090429FF001439FF00D1124E954FE4B81839C
S11350A092838BE0829FF001839FF00D1124E954D9
S11350B0FE4B0180F281E02D808591858093E34150
S11350C09093E4410895CF92DF92EF92FF926A01A8
S11350D07B016091E3417091E441625F7F4F0E94E4
S11350E0681F8091E3419091E44102960E94B31FAE
S11350F080918B4190918C41A0918D41B0918E41D2
S1135100BC01CD016C0D7D1D8E1D9F1D0E943B2495
S1135110FF90EF90DF90CF9008950F931F93CF935C
S1135120DF93DC011796ED91FC911897C085D1852A
S11351308E01025F1F4FC8010E94B31F80918741F7
S1135140811116C00C501109C8010E94B31F8A8D29
S113515090918941981710F480938941BBE08B9F0B
S1135160C0011124B80189549E4B0E94411F05C0FF
S1135170B80182E991E40E94411FE091E341F0917A
S1135180E44181E02A8D928D291708F480E0DF91B3
S1135190CF911F910F91089520918441FC012083A8
S11351A040918B4150918C4160918D4170918E4121
S11351B0418352836383748308958F929F92AF9245
S11351C0BF92CF92DF92EF92FF920F931F93CF93F0
S11351D0DF93FC010FB6F8940F9280918441908183
S11351E0981789F080918B4190918C41A0918D41C9
S11351F0B0918E41018112812381348180179107FE
S1135200A207B307A8F580918B4190918C41A0919E
S11352108D41B0918E41C180D280E380F480EB0156
S1135220088119812A813B818C199D09AE09BF0926
S113523080179107A207B307E8F4CF0180908B4150
S113524090908C41A0908D41B0908E41B501A40105
S11352504C195D096E097F09041B150B260B370BCE
S1135260088319832A833B830E94CC2880E003C0EF
S113527081E001C081E00F900FBEDF91CF911F91BB
S11352800F91FF90EF90DF90CF90BF90AF909F90E1
S11352908F90089581E0809385410895009721F4CB
S11352A08091E3419091E441DC015B96ED91FC91A6
S11352B05C978081813141F4319680E090E00196E1
S11352C021912131E1F3089580E090E008958091E7
S11352D0E3419091E44108950F931F93CF93DF939B
S11352E0FC01228DA091E341B091E4415A968C9146
S11352F0281708F041C0A091E341B091E4415A96C7
S11353003C9184E090E0A0E0B0E0831B9109A10906
S1135310B10986879787A08BB18B8BE0289F90017A
S1135320112429543E4B8485958582179307E9F40B
S11353308F01EF012296CE010E94B31FE091E34159
S1135340F091E441828DF801828F90918941981700
S113535010F480938941FBE08F9FC0011124BE01AA
S113536089549E4B0E94411F07C0A091E341B09114
S1135370E4415A968C91828FDF91CF911F910F91C6
S113538008950F931F93CF93DF93009749F1FC0186
S1135390328D27A1321721F1EC018C010E5F1F4FD2
S11353A0C8010E94B31F8FA18A8F44E050E060E0DF
S11353B070E0481B5109610971094E875F87688B4A
S11353C0798B90918941981710F480938941FBE07F
S11353D08F9FC0011124B80189549E4B0E94411F24
S11353E0DF91CF911F910F910895EC01E881F9812C
S11353F00190F081E02D19951A821B826FEF7FEFE7
S1135400CB010E94D827FACFFC01648765870895F1
S11354104F925F926F927F928F929F92AF92BF92C0
S1135420CF92DF92EF92FF920F931F93CF93DF936C
S1135430CDB7DEB72A97CDBFDEBF4C0129013801B5
S113544086EB90E2F40180839183FB0180818823C1
S113545069F0DE011196319690E002C0993039F07E
S11354609F5F8D9381918111F9CF01C090E0E1E0BC
S1135470F0E0EC0FFD1FE90FF11D10827401F2E062
S1135480EF0EF11CA12CB12CC12CD12C042F9401B2
S1135490A201BE016F5F7F4F8AE697E00E948924D4
S11354A0F40166827782408651862091E5413091ED
S11354B0E641248335838092E5419092E641148647
S11354C0158640900B4250900C42FFEF4F1A5F0A32
S11354D040920B4250920C42F40142865386168647
S11354E01786108A118A6114710409F444C081304A
S11354F079F56AE0C3010E94CD2C7C016BE57EE066
S11355000E94962CBE016F5F7F4FC7010E94962CAC
S11355106AE0C7010E94CD2C7C0162E57EE00E9416
S1135520962C6AE0C7010E94CD2C7C0164E47EE0E5
S11355300E94962C63E0C7010E94CD2CB2010E9408
S1135540762E62E00E94CD2C66E00E94CD2C13C022
S11355506AE0C3010E94CD2C4C016FE27EE00E9400
S1135560962CBE016F5F7F4FC4010E94962C66E0AB
S1135570C4010E94CD2C2A96CDBFDEBFDF91CF910E
S11355801F910F91FF90EF90DF90CF90BF90AF905D
S11355909F908F907F906F905F904F9008958F921F
S11355A09F92AF92BF92CF92DF92EF92FF920F93AE
S11355B01F93CF93DF93EC018B018A819B810E941F
S11355C0E025BC01C8010E94962CD801ED91FC9104
S11355D00280F381E02D69E0C80119958A819B81DD
S11355E00E94E025FC0101900020E9F73197E81BB7
S11355F0F90B389748F4D801ED91FC910280F381BE
S1135600E02D69E0C8011995CE84DF84E888F98823
S1135610A884B9848A819B810E944E29982E8C8407
S11356208A819B810E948B25682FC8010E94EC2EE1
S11356306AE00E94CD2CEC0161ED7EE00E94962C84
S1135640682DCE010E94EC2E6AE00E94CD2CEC0164
S11356506FEC7EE00E94962C692DCE010E94EC2E08
S11356606AE00E94CD2CEC016DEC7EE00E94962C49
S1135670B501CE010E94762E6AE00E94CD2CEC0189
S11356806BEC7EE00E94962C6AE0CE010E94CD2C49
S1135690EC0169EC7EE00E94962CB701A601CE01D4
S11356A00E94AA2EDF91CF911F910F91FF90EF904E
S11356B0DF90CF90BF90AF909F908F9008950F93FD
S11356C0CF93DF931F92CDB7DEB700E02FEF3FEF0C
S11356D0A901BE016F5F7F4FFC01808591850E9407
S11356E03723813019F4898190E002C08FEF9FEF56
S11356F00F90DF91CF910F910895FC0180859185E2
S11357000E94282491E0811101C090E0892F08951E
S11357100F93CF93DF931F92CDB7DEB76983FC015C
S1135720228533854485558500E0BE016F5F7F4F38
S1135730808591850E94702291E0811101C090E0E2
S1135740892F0F90DF91CF910F9108958F929F929F
S1135750BF92CF92DF92EF92FF920F931F93CF935A
S1135760DF93EC01B62E4A01680179010E94882C6E
S11357708EEB90E2888399838E869F8640E061E079
S11357808B2D0E94422288879987CA86DB86EC8605
S1135790FD86DF91CF911F910F91FF90EF90DF90E5
S11357A0CF90BF909F908F9008950E945F1E0895A0
S11357B00E945F1E08950895CF93DF93FC01DA01E0
S11357C0403A68E0560749F480E496E08283938384
S11357D082E0848383E085833FC0403B78E05707C1
S11357E049F480E496E08283938386E0848387E0AF
S11357F0858332C0403A89E0580749F480E696E050
S11358008283938382E0848383E0858325C0403B45
S113581069E0560749F480E696E08283938386E044
S1135820848387E0858318C0403A7AE0570749F4B7
S113583080E896E08283938382E0848383E0858397
S11358400BC0403A5B4041F480EA96E08283938344
S113585082E0848383E08583A683B783CD010196A8
S1135860808791870396828793872581C281D3811C
S11358704C8181E090E0BC0102C0660F771F2A953D
S1135880E2F79B01242B2C832581C281D38148819B
S1135890BC0102C0660F771F2A95E2F79B01242BF7
S11358A028833481C281D381288102C0880F991F43
S11358B03A95E2F7809590958223888380E1139648
S11358C08C93139783E015968C93159780EF179616
S11358D08C93179781E216968C93169788E1149609
S11358E08C9380E8858780E4868780E284870680BD
S11358F0F781E02D80818081DF91CF91089581E04F
S1135900089580E090E0089580E008950895089552
S1135910FC018EEC90E2808391838AE0828313827F
S113592083E0858314821682178208950F931F9350
S1135930CF93DF938C01FB01DC0114968C918111D0
S113594004C06081611117C023C0D80114961C9251
S1135950EB01219664916623D9F0D801ED91FC9175
S11359600280F381E02DC8011995FE01649121960E
S11359706111F3CF0DC0EF012196D801ED91FC9197
S11359800280F381E02DC801199569916111F5CF69
S1135990DF91CF911F910F910895CF93DF93EC0185
S11359A0862F90E08B309105D8F5FC018827E253CF
S11359B0FE4F8F4F0C94AE3482E08A8331C088E06E
S11359C08A832EC08AE08A832BC080E18A8328C020
S11359D081E08B8325C01B8223C0E881F98102808A
S11359E0F381E02D6DE0CE011995E881F981028003
S11359F0F381E02D6AE0CE01199512C0E881F981A6
S1135A000284F385E02DCE0119950AC0E881F9815D
S1135A100084F185E02DCE01199502C081E08C83CC
S1135A20CE01DF91CF910895AF92BF92CF92DF92D2
S1135A30EF92FF920F931F93CF93DF93CDB7DEB70F
S1135A406497CDBFDEBF7C01CB01BA01D0900620A4
S1135A5000E12D2DAE014F5F5F4F0E94D0345C01F9
S1135A60898183FF06C06CED70E2C7010E94962C09
S1135A7056C080FF09C0D701ED91FC910280F381EB
S1135A80E02D6DE2C7011995D701ED91FC910280DB
S1135A90F381E02D6A81C7011995DD2049F0D70112
S1135AA0ED91FC910280F381E02D6EE2C70119951E
S1135AB08E010D5F1F4FCE018D0D911DFC0133969C
S1135AC06F010C151D0599F0D8016C9161111CC072
S1135AD00EC0D701ED91FC910280F381E02D6BE2C1
S1135AE0C7011995B501C7010E94222E18C0D7011C
S1135AF0ED91FC910280F381E02D65E4C7011995D5
S1135B001A141B0434F3EECF0F5F1F4FD701ED912E
S1135B10FC910280F381E02DC7011995D2CFC70112
S1135B206496CDBFDEBFDF91CF911F910F91FF909F
S1135B30EF90DF90CF90BF90AF900895AF92BF9257
S1135B40CF92DF92EF92FF920F931F93CF93DF9345
S1135B50CDB7DEB76497CDBFDEBF7C01CB01BA0100
S1135B601091062000E1212FAE014F5F5F4F0E948C
S1135B70D0345C01898183FF06C06AED70E2C701FD
S1135B800E94962C50C080FF09C0D701ED91FC9172
S1135B900280F381E02D6DE2C7011995D701ED91E3
S1135BA0FC910280F381E02D6A81C70119951123CC
S1135BB049F0D701ED91FC910280F381E02D6EE272
S1135BC0C70119956E01B3E0CB0ED11CF6016191AA
S1135BD06F01D701ED91FC910280F381E02DC701A3
S1135BE01995115099F0F60180818111EFCF0EC003
S1135BF0D701ED91FC910280F381E02D6BE2C701A6
S1135C001995B501C7010E94222E0DC0D701ED914F
S1135C10FC910280F381E02D65E6C70119951A1401
S1135C201B0434F3EECFC7016496CDBFDEBFDF9112
S1135C30CF911F910F91FF90EF90DF90CF90BF9085
S1135C40AF9008950F931F93CF93DF93CDB7DEB733
S1135C506197CDBFDEBF8C019B01FC0192819A301C
S1135C6021F0C8010E94762E0DC04AE0BE016F5F8C
S1135C707F4FC9010E94C735BE016F5F7F4FC801C6
S1135C800E94962CC8016196CDBFDEBFDF91CF91F3
S1135C901F910F9108950F931F93CF93DF93CDB767
S1135CA0DEB7A297CDBFDEBF8C01CB01BA01F801EC
S1135CB022812A3031F0AB01BC01C8010E94AA2E16
S1135CC00CC02AE0AE014F5F5F4F0E94D235BE0187
S1135CD06F5F7F4FC8010E94962CC801A296CDBF6A
S1135CE0DEBFDF91CF911F910F910895FF920F9323
