S01600004652454552544F535F5348454C4C2E73726563CD
S11300000C9479060C94AA060C94AA060C94AA06DD
S11300100C94AA060C94AA060C94AA060C94AA069C
S11300200C94AA060C94AA060C94AA060C94AA068C
S11300300C94AA060C94AA060C944E120C94AA06CC
S11300400C941D120C94AA060C94AA060C94AA06ED
S11300500C94AA060C94AA060C94AA060C94AA065C
S11300600C94AA060C941E230C94AA060C94AA06BB
S11300700C9476230C94AA060C94AA060C94AA0653
S11300800C94AA060C94AA060C94AA060C94AA062C
S11300900C94AA060C94AA060C94AA060C94AA061C
S11300A00C94AA060C94AA060C94AA060C945B1051
S11300B00C949A100C94AA060C94AA060C94AA0602
S11300C00C94AA060C94AA060C94AA060C94AA06EC
S11300D00C94AA060C94AA060C94AA060C94EB158C
S11300E00C94AA060C94AA060C947E240C94AA06DA
S11300F00C94AA060C94AA060C94AA060C94AA06BC
S11301000C94AA060C94AA060C94DC0F0C941B10F5
S11301100C94AA060C94AA060C94AA060C94AA069B
S11301200C94AA060C94AA060C94AA060C94AA068B
S11301300C94AA060C94EC110C94AA060C94AA062E
S11301400C94AA060C94AA060C94BB110C948A1164
S11301500C94AA060C9459110C94AA060C94AA06A1
S11301600C94CE230C94AA060C94AA060C94262470
S11301700C94AA060C94AA060C94AA060C94AA063B
S11301800C94AA060C94AA060C94AA060C94AA062B
S11301900C94AA060C94AA060C94AA060C94AA061B
S11301A00C94DA100C9419110C94AA060C94AA0657
S11301B00C94AA060C94AA060C94AA060C94AA06FB
S11301C00C94AA060C94AA060C94AA060C94AA06EB
S11301D00C94AA060C94AA060C94AA060C94D62491
S11301E00C94AA060C94AA060C94AA060C94AA06CB
S11301F00C94AA060C94AA060C94AA06DB078B0D91
S1130200520869080F088B0D8B0D8B0D3B088B0D65
S11302108B0D8B0D8B0D8B0DF90785088B0D7708D6
S11302207C08BB098B0D8B0D8B0DDD09EB09F709E0
S1130230030A0F0A1B0A270A330A3F0A4B0A8B0DCB
S11302408B0D8B0D8B0D8B0D8B0D8B0D8B0D8B0DEA
S11302508B0D8B0D8B0D8B0D8B0D8B0D8B0D8B0DDA
S11302608B0D8B0D8B0D8B0D8B0D8B0D8B0D8B0DCA
S11302708B0D8B0D8B0D8B0D8B0D8B0D8B0D8B0DBA
S11302808B0D8B0D8B0D8B0D8B0D8B0D41098B0DF8
S11302908B0D8B0DD5088B0DA9098B0D8B0D8B0D3B
S11302A08B0D8B0D8B0D8B0D8B0D8B0D8B0DD0084A
S11302B08B0D8B0D8B0D8B0D8B0D580973098E09CE
S11302C0BA0AC70A8B0D8B0D8B0D8B0D8B0D8B0D05
S11302D08B0D8B0D8B0D8B0D8B0DF10A1B0B8B0D69
S11302E08B0D8B0D8B0DA80AAE0AB40A7D0C8B0DF9
S11302F08B0D8B0DF30CFF0C0B0D170D230D2F0D18
S11303003B0D470D530D5F0D8B0D8B0D8B0D8B0D21
S11303108B0D8B0D8B0D8B0D8B0D8B0D8B0D8B0D19
S11303208B0D8B0D8B0D8B0D8B0D8B0D8B0D8B0D09
S11303308B0D8B0D8B0D8B0D8B0D8B0D8B0D8B0DF9
S11303408B0D8B0D8B0D8B0D8B0D8B0D8B0D8B0DE9
S11303508B0D8B0D8B0D030C8B0D8B0D8B0DE40B0B
S11303608B0D8B0D8B0D8B0D8B0D8B0D8B0D8B0DC9
S1130370D90C8B0D8B0D8B0D8B0DC10C8B0DA70C1C
S1130380750B8B0D8D0BAA0BC70BF920FC20FF20DE
S11303900221052108210A211B2123212D212B21A2
S11303A00C948B0D0C94F10A0C942B0E0C947D0C74
S11303B00C9469080C9485080C94E30D0C948D0B33
S11303C00C94CB180C949F0D0C94F7090C94BB0D52
S11303D00C94BB090C944B220C94F81F0C94FF2032
S11303E00C94F9070C9484220C941B210C94010E98
S11303F00C94A1200C94F9200C94AE0A0C9476066B
S11304000C94C20D0C94B40A0C94A4120C94DD093F
S11304100C944B0A0C94EC1E0C94D5080C943C0ED2
S11304200C941B0A0C9468070C94FF0C0C94C70AD8
S11304300C947C080C9477080C94BA0A0C949A0EC9
S11304400C9458090C94270A0C942D210C94880EB2
S11304500C94580E0C941B0B0C94700E0C943B08CB
S11304600C948E090C94A3200C94A60D0C94712268
S11304700C94DB070C94B10D0C949A1F0C94E40BB0
S11304800C940B0D0C949E200C94EB090C94030A11
S11304900C94FC200C94330A0C94750B0C940D0EE4
S11304A00C9423210C94A80A0C940F080C942B216F
S11304B00C9405210C94CD0D0C943F0A0C94530D0F
S11304C00C947C1F0C940A210C94C70B0C94A70C5D
S11304D00C9452080C94C10C0C94AA0B0C94730940
S11304E00C94470D0C9441090C940F0A0C94D008F9
S11304F00C94170D0C949C200C942F0D0C94D70D78
S11305000C9402210C943B0D0C94230D0C94030CBD
S11305100C94D90C0C94A9090C945F0D0C9408212B
S11305200C94F30C0C94A51F0C9427220C94A42077
S11305302C20544343304343413D002F002C20489A
S113054065617020667265653A200054696D653A8C
S113055020004F63742031312032303138004D4552
S1130560343035206261736520726164696F207074
S1130570726F6772616D2056302E34200020202067
S113058020683A20202048414C502100202020207F
S1130590653A2020204578697420636F6D6D616E23
S11305A064206D6F64650020202020733A20202091
S11305B0537461636B2064756D7020666F72207470
S11305C061736B730020202020763A20202056652A
S11305D07273696F6E20616E642073657475702028
S11305E0696E666F726D6174696F6E0020202020E1
S11305F06E3A20202053686F7720746865207469F0
S11306006D65207269676874206E6F7700202049D9
S11306106E20636F6D6D616E64206D6F6465206F15
S11306206E6C793A00202043746C2D413A20456E5B
S113063074657220636F6D6D616E64206D6F6465A7
S113064000202043746C2D433A2052657365742056
S113065074686520415652002068656C70004D45F1
S1130660343035206261736520726164696F207073
S1130670726F6772616D2056302E3420001B5B331D
S1130680306D001B5B34366D00496C6C6567616CC2
S11306902073746174652120526573657474696E86
S11306A067204156520053656E736F722073616DFB
S11306B0706C652073697A652073657420746F3A71
S11306C00053656E736F722064656C617920736585
S11306D07420746F3A004D6963726F73746570208F
S11306E07363616C65722073657420746F3A0043A0
S11306F06F6E66696720656E74657265643A004C56
S1130700656176696E6720636F6E666967206D6FD9
S11307106465005A2D61786973206D61782076656F
S11307206C6F636974792073657420746F3A00592F
S11307302D61786973206D61782076656C6F6369CB
S113074074792073657420746F3A00582D61786948
S113075073206D61782076656C6F6369747920739A
S1130760657420746F3A004D61782076656C6F6310
S11307706974792073657420746F3A00506C6561F4
S113078073652063686F6F736520746865206D6F8F
S1130790746F7220796F7520776F756C64206C6943
S11307A06B6520746F20636F6E74726F6C2E0050D3
S11307B06C656173652063686F6F73652074686529
S11307C0206D6F746F7220796F7520776F756C640C
S11307D0206C696B6520746F20636F6E74726F6C2C
S11307E02E00506C656173652063686F6F736520BC
S11307F0746865206D6F746F7220796F7520776FE0
S1130800756C64206C696B6520746F20636F6E7403
S1130810726F6C2E00526563656976696E67205A43
S11308202D6C6F636174696F6E732E00526563651E
S11308306976696E6720592D6C6F636174696F6E98
S1130840732E00526563656976696E6720582D6C56
S11308506F636174696F6E732E004572726F723AC2
S113086020556E657175616C206178697320636FC2
S11308706F7264696E61746520766563746F7273F8
S11308802E00546F74616C206E6F6465733A20009F
S1130890456E746572696E6720636F6E6669672062
S11308A06D6F646500526573657474696E67206466
S11308B065766963652E00507265737320437472A4
S11308C06C2D5320746F2073746F702E00507265FA
S11308D07373204374726C2D5220746F206163749F
S11308E0697661746520726576657273652E005051
S11308F072657373204374726C2D4620746F20618B
S11309006374697661746520666F72776172642EB0
S1130910005072657373204374726C2D5A20666F95
S113092072205A2D4D6F746F7220636F6D6D616EFE
S113093064732E005072657373204374726C2D5966
S113094020666F7220592D4D6F746F7220636F6D26
S11309506D616E64732E00507265737320437472FC
S11309606C2D5820666F7220582D4D6F746F722055
S1130970636F6D6D616E64732E00456E746572698C
S11309806E6720446972656374204F706572617488
S1130990696F6E204D6F64652E005072657373200D
S11309A04520746F2072657475726E20746F2074A4
S11309B06865206D61696E206D656E752E005072DC
S11309C0657373205220746F20726573657420748C
S11309D06865206465766963652E0050726573737B
S11309E0204720746F2072756E20746865206465DA
S11309F0766963652E005072657373205A20746F94
S1130A0020656E746572205A2D636F6F7264696E0F
S1130A10617465732E005072657373205920746F6E
S1130A2020656E74657220592D636F6F7264696EF0
S1130A30617465732E005072657373205820746F4F
S1130A4020656E74657220582D636F6F7264696ED1
S1130A50617465732E00456E746572696E67204318
S1130A606F6F7264696E617465204D6F64652E00EA
S1130A705072657373204520746F207265747572AB
S1130A806E20746F20746865206D61696E206D65D9
S1130A906E752E005072657373205220746F20722D
S1130AA06573657420746865206465766963652E72
S1130AB0005072657373205A20746F2072657475C8
S1130AC0726E207468652064657669636520746F4E
S1130AD020746865206F726967696E2E00507265B4
S1130AE07373205320746F206368616E676520748C
S1130AF068652064656661756C742073656E736FD8
S1130B00722072656164696E672064656C61792026
S1130B1074696D652E005072657373205520746F6F
S1130B20206368616E67652074686520646566612A
S1130B30756C74206D6F746F72206D6963726F735E
S1130B40746570207363616C65722E00456E746504
S1130B5072696E6720436F6E666967757261746946
S1130B606F6E204D6F64652E005072657373205252
S1130B7020746F20726573657420746865206465E1
S1130B80766963652E005072657373204420666F26
S1130B907220446972656374204F70657261746970
S1130BA06F6E204D6F64652E005072657373204321
S1130BB020666F7220436F6F7264696E6174652082
S1130BC04D6F64652E005072657373204120666F0B
S1130BD07220436F6E66696775726174696F6E2007
S1130BE04D6F64652E0057656C636F6D6520746F7F
S1130BF020746865205573657220496E7465726649
S1130C00616365206D61696E206D656E75206F6628
S1130C1020746865203344204865617420466C75EF
S1130C20782043616C69627261746F722E00526540
S1130C3073657474696E67004552524F5220696E31
S1130C40207461736B20004552524F5220637265C9
S1130C506174696E67207461736B20002C20737457
S1130C6061636B2061742030780020637265617465
S1130C706564005461736B20000909002F00494426
S1130C804C45090930092D0900092D2D2D2D000988
S1130C902D2D2D2D2D2D2D2D2D2D002D2D2D2D09D1
S1130CA0092D2D2D2D092D2D2D2D2D000952756E5B
S1130CB0730009467265652F546F74616C004E6150
S1130CC06D6509095072692E0953746174650009D0
S1130CD0537461636B005461736B0909202009200C
S1130CE000090009002F0009000900000E94121EDB
S1130CF0A41211241FBECFEFCDBFDFE5DEBF00E09D
S1130D000CBF10E2A0E0B0E2EAEEFBE400E00BBFAF
S1130D1002C007900D92A639B107D9F721E4A6E9DC
S1130D20B0E201C01D92AB3AB207E1F716E0C9E7A1
S1130D30D6E000E006C021970109802FFE010E9441
S1130D405025C837D10780E00807A9F70E94C10ED3
S1130D500C94F3250C940000CF93DF93EC01E8810D
S1130D60F9810684F785E02D1995813059F4E881DD
S1130D70F9810680F781E02DCE0119951A821B8234
S1130D801C821D82DF91CF910895CF93DF93EC01F4
S1130D90E881F9810684F785E02D1995811107C052
S1130DA0E881F9810680F781E02DCE011995DF9164
S1130DB0CF910895EF92FF920F931F93CF93DF93F8
S1130DC0EC017B010E94251E8AE090E288839983CE
S1130DD0FE01E05EFE4FE082F182CE5EDE4F1882BD
S1130DE0DF91CF911F910F91FF90EF900895BF92E3
S1130DF0CF92DF92EF92FF920F931F93CF93DF93E3
S1130E00FC01DC01AE5EBE4F2C9130E02150310973
S1130E1012161306A4F540E050E0B12C60E070E037
S1130E20CB01DC01CB01880F991FAA1FBB1F6C01EA
S1130E307D01CC0CDD1CEE1CFF1CCC0CDD1CEE1C5F
S1130E40FF1C8C0D9D1DAE1DBF1D4E0F5F1FEA01C3
S1130E504A8950E040535109052E000C660B770B6C
S1130E607A018B01E80EF91E0A1F1B1FC801B70186
S1130E70B3944B2D50E0421753079CF203C060E03B
S1130E8070E0CB01DF91CF911F910F91FF90EF9014
S1130E90DF90CF90BF9008956AE0FC01868197812E
S1130EA00E94EA20EC0165EA78E00E94B32066E043
S1130EB0CE010E94EA2093E088ED08B618BE84BFF4
S1130EC0909380008091820081FDFCCF08BEFFCF0B
S1130ED0CF93DF9300D000D0CDB7DEB789839A8358
S1130EE08C010E5E1E4F7C018DEEE81A8EEFF80A1F
S1130EF089809A8099EE891A9EEF990AA980BA800E
S1130F00A3EEAA1AAEEFBA0A69807A80B7EE6B1A1A
S1130F10BEEF7B0A49805A80E5EE4E1AEEEF5E0A78
S1130F2029803A80FEED2F1AFEEF3F0A89819A81CB
S1130F308D839E83AD81BE811C968C911C978130DC
S1130F4009F4FDC038F0823009F4CFC2833009F4CB
S1130F509BC3C1C5ED81FE8186819781DC01ED9142
S1130F60FC910480F581E02D1995882309F4D3C5FB
S1130F70ED81FE8186819781DC01ED91FC910680F3
S1130F80F781E02D1995F8012081ED81FE81E20FB2
S1130F90F11D828B2F5FD8012C939927FC01E15618
S1130FA0F109E331F10508F0B6C58827E250FF4F97
S1130FB08F4F0C9450250FB6F8940F9281E08093D4
S1130FC09C200F900FBE6AE0ED81FE81868197819F
S1130FD00E94EA206C0160E978E00E94B32066E098
S1130FE0C6010E94EA2063E08D819E810E94211E39
S1130FF092C50FB6F8940F92109298200F900FBEDE
S11310000FB6F8940F92109297200F900FBE0FB660
S1131010F8940F92109296200F900FBE7CC50FB6D5
S1131020F8940F9281E08093E3200F900FBE0FB6E7
S1131030F8940F9210920F21109210211092112106
S1131040109212210F900FBE0FB6F8940F9281E008
S113105090E0A0E0B0E08093142190931521A09338
S11310601621B09317210F900FBE61E08D819E81F0
S11310700E94211E50C50FB6F8940F920F900FBE18
S113108080919920811147C50FB6F8940F9281E0A1
S1131090809399200F900FBE61E08D819E810E9404
S11310A0211E39C50FB6F8940F920F900FBE809190
S11310B09B20811130C50FB6F8940F9281E0809384
S11310C09B200F900FBE61E08D819E810E94211EA6
S11310D022C50FB6F8940F9281E080939A200F9066
S11310E00FBE62E08D819E810E94211E14C5AD81D8
S11310F0BE81CD010E944C070FB6F8940F9281E097
S1131100809318210F900FBE06C50FB6F8940F9266
S11311100F900FBE80910721811109C00FB6F8947A
S11311200F9281E0809307210F900FBEF4C40FB695
S1131130F8940F92109207210F900FBEECC4ED812A
S1131140FE8186819781DC01ED91FC910480F5811B
S1131150E02D1995882309F4AAC1ED81FE818681C9
S11311609781DC01ED91FC910680F781E02D1995C2
S1131170BC01F8018081ED81FE81E80FF11D628BD5
S11311808F5FD8018C93FB01FF27BC97EF34F105E7
S113119008F0C1C48827EF5EFE4F8F4F0C94502592
S11311A0ED81FE81CF010E944C078091B520909182
S11311B0B6200E94C018D82E8091AB209091AC200C
S11311C00E94C018D81245C08091B5209091B620D5
S11311D00E94C018D82E8091A1209091A2200E9434
S11311E0C018D81236C08091B5209091B6200E94C4
S11311F0C018C82ED12C0FB6F8940F92C0920821B3
S1131200D09209210F900FBE0FB6F8940F920F9051
S11312100FBE6AE0AD81BE8116968D919C911797A1
S11312200E94EA2089839A8362E878E00E94B320CE
S1131230B60189819A810E94312166E00E94EA20E8
S11312400FB6F8940F9281E080930A210F900FBE9D
S113125010C06AE0ED81FE81868197810E94EA20B8
S11312606C016AE578E00E94B32066E0C6010E9442
S1131270EA20D8011C9260E08D819E810E94211E8B
S11312804AC48D819E810E94F706F70160837183B1
S113129082839383D4018D919C91DC01ED91FC9127
S11312A00190F081E02DB7011995F801108233C443
S11312B0D8011C9266E0ED81FE81868197810E94AF
S11312C0EA206AE00E94EA206C0163E478E00E946C
S11312D0B32066E0C6010E94EA20E1EBF0E2D4010B
S11312E0ED93FC9318C4D8011C9266E0ED81FE8155
S11312F0868197810E94EA206AE00E94EA206C01BC
S11313006CE278E00E94B32066E0C6010E94EA2005
S1131310E7EAF0E2D401ED93FC93FDC3D8011C92FB
S113132066E0ED81FE81868197810E94EA206AE071
S11313300E94EA206C0165E178E00E94B32066E037
S1131340C6010E94EA20EDE9F0E2D401ED93FC939A
S1131350E2C30FB6F8940F9281E0809313210F90AB
S11313600FBE66E0AD81BE8116968D919C91179754
S11313700E94EA20D0C3ED81FE8186819781DC0141
S1131380ED91FC910280F381E02D19958D819E8170
S11313900E94F706F7016083718382839383D401EB
S11313A08D919C91DC01ED91FC910190F081E02DF7
S11313B0B7011995F8011082AEC3AD81BE811696AE
S11313C08D919C911797DC01ED91FC910280F38142
S11313D0E02D1995A0C3ED81FE8186819781DC0102
S11313E0ED91FC910280F381E02D199594C3ED8178
S11313F0FE8186819781DC01ED91FC910280F3816D
S1131400E02D199588C3ED81FE8186819781DC01E9
S1131410ED91FC910280F381E02D19957CC3ED815F
S1131420FE8186819781DC01ED91FC910280F3813C
S1131430E02D199570C3ED81FE8186819781DC01D1
S1131440ED91FC910280F381E02D199564C3ED8147
S1131450FE8186819781DC01ED91FC910280F3810C
S1131460E02D199558C3ED81FE8186819781DC01B9
S1131470ED91FC910280F381E02D19954CC3ED812F
S1131480FE8186819781DC01ED91FC910280F381DC
S1131490E02D199540C3ED81FE8186819781DC01A1
S11314A0ED91FC910280F381E02D199534C38BEB0F
S11314B090E20E949A1F882309F42DC3AD81BE8156
S11314C01696ED91FC9117970190F081E02DC28062
S11314D0D3808BEB90E20E947C1F682FED81FE810C
S11314E086819781F601199516C3AD81BE81169642
S11314F08D919C911797DC01ED91FC910480F5810D
S1131500E02D1995882309F406C3ED81FE818681B7
S11315109781DC01ED91FC910680F781E02D19950E
S1131520F8012081ED81FE81E20FF11D828B2F5F96
S1131530D8012C939927FC01E556F109E631F10510
S113154008F0E9C28827E05AFE4F8F4F0C945025CB
S113155088E990E2F50180839183DDC287E990E216
S1131560D5018D939C93D7C286E990E2F5018083DF
S11315709183D1C20FB6F8940F9210929A200F90D3
S11315800FBE60E08D819E810E94211EC4C2D501E0
S1131590ED91FC91B0E2E839FB0741F080E2E739D4
S11315A0F80721F090E2E639F90741F40FB6F89410
S11315B00F9281E080830F900FBEADC26AE0AD81CF
S11315C0BE8116968D919C9117970E94EA206C011A
S11315D062EE77E00E94B32066E0C6010E94EA2032
S11315E09AC2D501ED91FC91B0E2E839FB0741F0D4
S11315F080E2E739F80721F090E2E639F90741F48F
S11316000FB6F8940F9282E080830F900FBE83C2CE
S11316106AE0AD81BE8116968D919C9117970E94C8
S1131620EA206C016FEA77E00E94B32066E0C6010D
S11316300E94EA2070C2D501ED91FC91B0E2E83934
S1131640FB0741F080E2E739F80721F090E2E63940
S1131650F90739F40FB6F8940F9210820F900FBE69
S11316605AC26AE0AD81BE8116968D919C911797FE
S11316700E94EA206C016CE777E00E94B32066E0E8
S1131680C6010E94EA2047C2ED81FE8186819781CE
S1131690DC01ED91FC910480F581E02D19958823FE
S11316A009F439C2ED81FE8186819781DC01ED91D7
S11316B0FC910680F781E02D1995BC01F801808129
S11316C0ED81FE81E80FF11D628B8F5FD8018C9351
S11316D0FB01FF27BC97EF34F10508F01CC28827F3
S11316E0EA58FE4F8F4F0C9450256AE0ED81FE813D
S11316F0868197810E94EA206C0167E677E00E9468
S1131700B32066E0C6010E94EA20D8011C928FED46
S113171090E2F30180839183FEC16AE0AD81BE81D2
S113172016968D919C9117970E94EA206C016BE4A8
S113173077E00E94B32066E0C6010E94EA20F80127
S113174010828DEF90E2D2018D939C9381E0F101A0
S11317508083E1C16AE0AD81BE8116968D919C9132
S113176017970E94EA206C016FE277E00E94B32091
S113177066E0C6010E94EA20F801108283EF90E23D
S1131780D2018D939C9381E0F1018083C4C16AE00E
S1131790AD81BE8116968D919C9117970E94EA2087
S11317A06C0163E177E00E94B32066E0C6010E9409
S11317B0EA20F801108289EE90E2D2018D939C9385
S11317C081E0F1018083A7C16AE0AD81BE811696F4
S11317D08D919C9117970E94EA206C016FEF76E03F
S11317E00E94B32066E0C6010E94EA200FB6F89476
S11317F00F9210929C200F900FBE60E08D819E810D
S11318000E94211E88C18D819E810E94F7069B0142
S1131810AC01F7016083718382839383D1018C913E
S11318208823B1F0A8EEB3E00E946725608371833A
S113183082839383D2018D919C91DC01ED91FC9183
S11318400190F081E02DB7011995F101108232C0A9
S1131850D301CD90DC90B5EECB16B0E2DB0661F49B
S113186064E670E080E090E00E942E25F70120837A
S11318703183428353830FC0FFEDCF16F0E2DF06BE
S113188051F4ACEDB5E00E946725D7016D937D93CB
S11318908D939C931397F70180819181A281B381E9
S11318A00FB6F8940F92F60180839183A283B383D9
S11318B00F900FBED8011C92D7018D919D910D9070
S11318C0BC91A02D89839A83AB83BC836AE0ED81AC
S11318D0FE81868197810E94EA206C016FEE76E09A
S11318E00E94B32049815A816B817C81C6010E9488
S11318F0652166E00E94EA200EC1AD81BE81169684
S11319008D919C911797DC01ED91FC910280F381FC
S1131910E02D19958D819E810E94F7069B01AC01F3
S1131920A8EEB3E00E946725F70160837183828388
S11319309383D2018D919C91DC01ED91FC910190F6
S1131940F081E02DB7011995F8011082E4C06AE036
S1131950AD81BE8116968D919C9117970E94EA20C5
S11319606C0166ED76E00E94B32066E0C6010E9439
S1131970EA20F80110828BE091E2D3018D939C93CD
S1131980CAC06AE0ED81FE81868197810E94EA20C7
S11319906C0161EC76E00E94B32066E0C6010E940F
S11319A0EA20D8011C928FE091E2F30180839183B5
S11319B0B2C06AE0AD81BE8116968D919C91179755
S11319C00E94EA206C0166EA76E00E94B32066E099
S11319D0C6010E94EA20F801108284E191E2D30159
S11319E08D939C9398C0ED81FE8186819781DC0163
S11319F0ED91FC910280F381E02D19958CC0ED816D
S1131A00FE8186819781DC01ED91FC910280F38156
S1131A10E02D199580C0ED81FE8186819781DC01DE
S1131A20ED91FC910280F381E02D199574C0ED8154
S1131A30FE8186819781DC01ED91FC910280F38126
S1131A40E02D199568C0ED81FE8186819781DC01C6
S1131A50ED91FC910280F381E02D19955CC0ED813C
S1131A60FE8186819781DC01ED91FC910280F381F6
S1131A70E02D199550C0ED81FE8186819781DC01AE
S1131A80ED91FC910280F381E02D199544C0ED8124
S1131A90FE8186819781DC01ED91FC910280F381C6
S1131AA0E02D199538C0ED81FE8186819781DC0196
S1131AB0ED91FC910280F381E02D19952CC0ED810C
S1131AC0FE8186819781DC01ED91FC910280F38196
S1131AD0E02D199520C0A983BA836AE0FD018681AF
S1131AE097810E94EA2089839A8369E876E00E94BC
S1131AF0B32066E089819A810E94EA2093E088ED10
S1131B0008B618BE84BF909380008091820081FD46
S1131B10FCCF08BEFFCFED81FE8186859785A08925
S1131B20B1890196A11DB11D86879787A08BB18BC2
S1131B3061E070E080E090E00E94F51BFBC9FC01CD
S1131B40848195810E94C81890E00895FC018481E5
S1131B5095810E94C81891E0811101C090E0892FFD
S1131B600895FC01848195810E94C81891E0811137
S1131B7090E0892F0895FC01848195810E94C0180A
S1131B8090E00895FC01848195810E94C01891E041
S1131B90811101C090E0892F0895FC018481958111
S1131BA00E94C01891E0811190E0892F08950F934D
S1131BB001E02FEF3FEFA901FC01848195810E9490
S1131BC0CF170F9108950F93CF93DF9300D01F92F7
S1131BD0CDB7DEB701E02FEF3FEFA901BE016F5F84
S1131BE07F4FFC01848195810E94CF1769817A819E
S1131BF08B819C812496CDBFDEBFDF91CF910F9165
S1131C0008950F9300E02FEF3FEFA901FC018481B9
S1131C1095810E94CF170F9108950F93CF93DF936F
S1131C2000D01F92CDB7DEB700E02FEF3FEFA90140
S1131C30BE016F5F7F4FFC01848195810E94CF17A5
S1131C4069817A818B819C812496CDBFDEBFDF912F
S1131C50CF910F910895CF93DF931F92CDB7DEB745
S1131C60AE014F5F5F4FFC01848195810E94931800
S1131C700F90DF91CF910895CF93DF93CDB7DEB767
S1131C802597CDBFDEBFAE014B5F5F4FBE016F5FD7
S1131C907F4FFC01848195810E94931869817A8128
S1131CA08B819C812596CDBFDEBFDF91CF910895B6
S1131CB0CF93DF931F92CDB7DEB7198221E0AE0137
S1131CC04F5F5F4FFC01848195810E94A31791E0CF
S1131CD0811101C090E0892F0F90DF91CF91089579
S1131CE0CF93DF931F92CDB7DEB7198220E0AE0108
S1131CF04F5F5F4FFC01848195810E94A31791E09F
S1131D00811101C090E0892F0F90DF91CF91089548
S1131D100F93FC01268137814085518501E0848140
S1131D2095810E94081791E0811101C090E0892FEC
S1131D300F9108950F93FC012681378140855185C9
S1131D4000E0848195810E94081791E0811101C00F
S1131D5090E0892F0F9108950F93CF93DF931F92F3
S1131D60CDB7DEB72FB72983F8941BBEFC0108ED6D
S1131D7004BF608389818FBF0F90DF91CF910F9152
S1131D8008950F931F93CF93DF93CDB7DEB76D976D
S1131D90CDBFDEBFF894E0E5F0E08081826080830F
S1131DA0818181FFFDCF60914000687F616080E4A4
S1131DB090E00E94AC0EE0E5F0E080818E7F8083AD
S1131DC09DEF88ED08B618BE84BF9093800008BECE
S1131DD040EA5AE060E070E0CE0101960E948D2254
S1131DE067E0CE0101960E94EA208C016EE070E269
S1131DF00E94B32066E0C8010E94EA2066E00E94C7
S1131E00EA200FB6F8940F9282E090E0A0E0B0E0F0
S1131E1080930F2190931021A0931121B09312214C
S1131E200F900FBE0FB6F8940F9288E090E0A0E0F8
S1131E30B0E080930B2190930C21A0930D21B093DB
S1131E400E210F900FBE0FB6F8940F9288EE93E018
S1131E50A0E0B0E08093142190931521A093162163
S1131E60B09317210F900FBE0FB6F8940F9282E330
S1131E7090E0A0E0B0E08093E5209093E620A0936A
S1131E80E720B093E8200F900FBE0FB6F8940F929E
S1131E908CE49DE1A0E0B0E08093DF209093E0200B
S1131EA0A093E120B093E2200F900FBE8AE190E06E
S1131EB00E94F21F8093DD209093DE2087E090E063
S1131EC00E94F21F8C0183E090E00E94F21FFC014B
S1131ED0008311838093DB209093DC2087E090E0E3
S1131EE00E94F21F8C0183E090E00E94F21FFC012B
S1131EF0008311838093D9209093DA2087E090E0C7
S1131F000E94F21F8C0183E090E00E94F21FFC010A
S1131F10008311838093D7209093D82087E090E0AA
S1131F200E94F21F8C0183E090E00E94F21FFC01EA
S1131F30008311838093D5209093D62087E090E08E
S1131F400E94F21F8C0183E090E00E94F21FFC01CA
S1131F50008311838093D3209093D42087E090E072
S1131F600E94F21F8C0183E090E00E94F21FFC01AA
S1131F70008311838093D1209093D22083E291E057
S1131F800E94F21F8E010F5F1F4F20E830E040E0F7
S1131F906DE270E20E94DA0687E08093A2007894F2
S1131FA00E94311A80E090E06D96CDBFDEBFDF91D4
S1131FB0CF911F910F9108951F920F920FB60F9218
S1131FC011240BB60F922F933F934F935F936F930C
S1131FD07F938F939F93AF93BF93EF93FF938091DE
S1131FE0CF209091D0200E94AC0680919B20882322
S1131FF079F08091CF209091D020DC01ED91FC917B
S11320000684F785E02D1995813011F48093E4203E
S1132010FF91EF91BF91AF919F918F917F916F91BC
S11320205F914F913F912F910F900BBE0F900FBE78
S11320300F901F9018951F920F920FB60F921124B4
S11320400BB60F922F933F934F935F936F937F93AE
S11320508F939F93AF93BF93EF93FF938091CF2080
S11320609091D0200E94C50680919B20882381F006
S11320708091CF209091D020DC01ED91FC910684D9
S1132080F785E02D1995811103C081E08093E42048
S1132090FF91EF91BF91AF919F918F917F916F913C
S11320A05F914F913F912F910F900BBE0F900FBEF8
S11320B00F901F9018951F920F920FB60F92112434
S11320C00BB60F922F933F934F935F936F937F932E
S11320D08F939F93AF93BF93EF93FF938091CD2002
S11320E09091CE200E94AC0680919B20882379F0A9
S11320F08091CD209091CE20DC01ED91FC9106845D
S1132100F785E02D1995813011F48093E420FF9137
S1132110EF91BF91AF919F918F917F916F915F915B
S11321204F913F912F910F900BBE0F900FBE0F90C8
S11321301F9018951F920F920FB60F9211240BB691
S11321400F922F933F934F935F936F937F938F934C
S11321509F93AF93BF93EF93FF938091CD20909182
S1132160CE200E94C50680919B20882381F0809117
S1132170CD209091CE20DC01ED91FC910684F78571
S1132180E02D1995811103C081E08093E420FF9133
S1132190EF91BF91AF919F918F917F916F915F91DB
S11321A04F913F912F910F900BBE0F900FBE0F9048
S11321B01F9018951F920F920FB60F9211240BB611
S11321C00F922F933F934F935F936F937F938F93CC
S11321D09F93AF93BF93EF93FF938091CB20909104
S11321E0CC200E94AC0680919B20882379F08091BA
S11321F0CB209091CC20DC01ED91FC910684F785F5
S1132200E02D1995813011F48093E420FF91EF9132
S1132210BF91AF919F918F917F916F915F914F91FA
S11322203F912F910F900BBE0F900FBE0F901F90F8
S113223018951F920F920FB60F9211240BB60F929E
S11322402F933F934F935F936F937F938F939F93BA
S1132250AF93BF93EF93FF938091CB209091CC20C9
S11322600E94C50680919B20882381F08091CB2019
S11322709091CC20DC01ED91FC910684F785E02D52
S11322801995811103C081E08093E420FF91EF91BF
S1132290BF91AF919F918F917F916F915F914F917A
S11322A03F912F910F900BBE0F900FBE0F901F9078
S11322B018951F920F920FB60F9211240BB60F921E
S11322C02F933F934F935F936F937F938F939F933A
S11322D0AF93BF93EF93FF938091CF209091D02041
S11322E0DC01ED91FC910288F389E02D1995FF91B1
S11322F0EF91BF91AF919F918F917F916F915F917A
S11323004F913F912F910F900BBE0F900FBE0F90E6
S11323101F9018951F920F920FB60F9211240BB6AF
S11323200F922F933F934F935F936F937F938F936A
S11323309F93AF93BF93EF93FF938091CF2090919E
S1132340D020DC01ED91FC910088F189E02D1995F4
S1132350FF91EF91BF91AF919F918F917F916F9179
S11323605F914F913F912F910F900BBE0F900FBE35
S11323700F901F9018951F920F920FB60F92112471
S11323800BB60F922F933F934F935F936F937F936B
S11323908F939F93AF93BF93EF93FF938091CD203F
S11323A09091CE20DC01ED91FC910288F389E02D1F
S11323B01995FF91EF91BF91AF919F918F917F916B
S11323C06F915F914F913F912F910F900BBE0F90A2
S11323D00FBE0F901F9018951F920F920FB60F9279
S11323E011240BB60F922F933F934F935F936F93E8
S11323F07F938F939F93AF93BF93EF93FF938091BA
S1132400CD209091CE20DC01ED91FC910088F189E2
S1132410E02D1995FF91EF91BF91AF919F918F910D
S11324207F916F915F914F913F912F910F900BBED0
S11324300F900FBE0F901F9018951F920F920FB61A
S11324400F9211240BB60F922F933F934F935F93E8
S11324506F937F938F939F93AF93BF93EF93FF9368
S11324608091CB209091CC20DC01ED91FC910288ED
S1132470F389E02D1995FF91EF91BF91AF919F9151
S11324808F917F916F915F914F913F912F910F9019
S11324900BBE0F900FBE0F901F9018951F920F92B6
S11324A00FB60F9211240BB60F922F933F934F93B5
S11324B05F936F937F938F939F93AF93BF93EF93A8
S11324C0FF938091CB209091CC20DC01ED91FC9185
S11324D00088F189E02D1995FF91EF91BF91AF919B
S11324E09F918F917F916F915F914F913F912F9128
S11324F00F900BBE0F900FBE0F901F901895CF92A8
S1132500DF92EF92FF920F931F93CF93DF93EC012F
S1132510862F680179014A835B8329E330E22883AB
S1132520398340E064E00E94DA168C839D83CE8276
S1132530DF82E886F986DF91CF911F910F91FF909A
S1132540EF90DF90CF9008950F931F930AE010E06F
S113255020E030E040E050E062E38DEF90E20E9442
S11325607F120AE010E020E030E040E050E062E357
S113257083EF90E20E947F120AE010E020E030E056
S113258040E050E062E389EE90E20E947F120AE0AC
S113259010E020E030E040E050E060E270E08BEBDF
S11325A090E20E94C31F0AE010E020E030E040E027
S11325B050E062E381EB90E20E947F120AE010E0B7
S11325C020E030E040E050E062E387EA90E20E94DD
S11325D07F120AE010E020E030E040E050E062E3E7
S11325E08DE990E20E947F121F910F9108950F933D
S11325F01F93CF93DF93EC010E94641A80911921F9
S113260081111DC0AEE1B1E2E2E2F1E2ED93FC938F
S1132610119712961D921C921397AAE1B1E28FEFC3
S11326209FE112968D939C9313971D921C92119780
S113263082839383A083B18381E0809319212097BF
S113264009F45FC09E012B5F3F4F2496CE3FDF41CC
S113265008F05AC0E0911E21F0911F21AEE1B1E2D1
S113266002C0DF01FC01828193818217930720F469
S1132670808191810097A9F7C1E2EA31FC0709F44E
S113268046C0CD91DC9111978E010B5F1F4F808165
S113269091818D939C9382819381821B930B8B30C8
S11326A0910510F1BF01620F731FDB0112968D9328
S11326B09C9313972283338312964D915C911397C5
S11326C08EE191E201C0CD01EC01A881B98112969D
S11326D02D913C91139724173507A8F3EB01A88398
S11326E0B983DC016D937C9380910020909101204B
S11326F022813381821B930B8093002090930120CD
S113270008C000E010E005C000E010E002C000E0F6
S113271010E00E94731BC801DF91CF911F910F91AC
S113272008950F931F93CF93DF93009741F1EC012A
S11327308C01055011090E94641AF80142815381E9
S1132740AEE1B1E201C0DF01ED91FC91119722816C
S1132750338124173507B8F32597E883F9830D935C
S11327601C9320910020309101208A819B81820F4B
S1132770931F80930020909301200E94731BDF918C
S1132780CF911F910F910895FC0103968183928349
S11327904FEF5FEFBA014383548365837683878366
S11327A090878187928710820895FC011286138690
S11327B00895CF93DF93FC01DB0121813281E9018C
S11327C08C819D8114968D939C9315978181928120
S11327D016968D939C9317978C819D81EC016E8343
S11327E07F83E9016C837D83618372831A96ED9301
S11327F0FC931B9780818F5F8083DF91CF91089535
S11328000F931F93CF93DF93EB01088119812A81E2
S11328103B810F3F4FEF14072407340731F4DC01E9
S11328201996ED91FC911A971FC0FC013396DC01B7
S113283017964D915C911897DA014D915D916D91C8
S11328407C91041715072607370770F00480F5817B
S1132850E02DA481B5814D915D916D917C9104171A
S113286015072607370790F7A481B581AC83BD838C
S11328701696CD93DC931797EE83FF83C483D58399
S11328808A879B87FC0120812F5F2083DF91CF9172
S11328901F910F910895FC01A481B58186819781D0
S11328A016968D939C931797A681B7818481958101
S11328B014968D939C931597A285B38511968D914B
S11328C09C911297E817F90731F486819781119644
S11328D08D939C931297128613868C9181508C93BE
S11328E008958093A9419093AA4131E1FC0130837A
S11328F0319722E220833197A3E3A0833197608349
S1132900319770833197108231971082319760E844
S113291060833197108231971082319710823197FA
S113292062E06083319763E06083319764E06083A1
S1132930319765E06083319766E06083319767E0A3
S11329406083319768E06083319769E060833197F1
S113295060E1608331973083319732E1308331977E
S113296033E13083319734E13083319735E130837B
S1132970319736E13083319737E13083319738E14D
S11329803083319739E13083319730E230833197A6
S113299031E2308331972083319723E220833197CA
S11329A0408331975083319726E22083319727E281
S11329B02083319728E22083319729E220833197BD
S11329C020E32083319721E32083899708958CE7BE
S11329D08093690A8FEF8093680A81E08093400AAC
S11329E081E18093410A83E08093470AA091814169
S11329F0B0918241CD91CDBFDD91DEBFFF91EF91CA
S1132A00DF91CF91BF91AF919F918F917F916F9102
S1132A105F914F913F912F911F910F91FF90EF90F4
S1132A20DF90CF90BF90AF909F908F907F906F90EA
S1132A305F904F903F902F901F900F900CBE0F907F
S1132A400BBE0F900FBE0F90089581E008950F9272
S1132A500FB6F8940F920BB60F920CB60F921F920A
S1132A6011242F923F924F925F926F927F928F9296
S1132A709F92AF92BF92CF92DF92EF92FF920F9309
S1132A801F932F933F934F935F936F937F938F93F2
S1132A909F93AF93BF93CF93DF93EF93FF93A09153
S1132AA08141B09182410DB60D920EB60D920E94F5
S1132AB0231CA0918141B0918241CD91CDBFDD9184
S1132AC0DEBFFF91EF91DF91CF91BF91AF919F91C5
S1132AD08F917F916F915F914F913F912F911F91B2
S1132AE00F91FF90EF90DF90CF90BF90AF909F90A9
S1132AF08F907F906F905F904F903F902F901F909A
S1132B000F900CBE0F900BBE0F900FBE0F90089548
S1132B100F920FB6F8940F920BB60F920CB60F9259
S1132B201F9211242F923F924F925F926F927F9245
S1132B308F929F92AF92BF92CF92DF92EF92FF92C9
S1132B400F931F932F933F934F935F936F937F93B1
S1132B508F939F93AF93BF93CF93DF93EF93FF93A1
S1132B60A0918141B09182410DB60D920EB60D92A5
S1132B700E94721A0E94231CA0918141B09182414B
S1132B80CD91CDBFDD91DEBFFF91EF91DF91CF916C
S1132B90BF91AF919F918F917F916F915F914F9171
S1132BA03F912F911F910F91FF90EF90DF90CF9065
S1132BB0BF90AF909F908F907F906F905F904F9059
S1132BC03F902F901F900F900CBE0F900BBE0F9054
S1132BD00FBE0F9008950E9488151895CF93DF9328
S1132BE0EC0188A181110BC088819981892BE1F5C1
S1132BF08A819B810E94DE1D1A821B8235C041118D
S1132C0017C0482F50E08C819D810E94722528A115
S1132C108C819D81820F911D8C839D832A813B81B0
S1132C208217930708F1888199818C839D831CC046
S1132C30482F50E08E819F810E94722588A190E0E8
S1132C409195819591092E813F81280F391F2E83FB
S1132C503F83488159812417350730F42A813B8109
S1132C60820F931F8E839F838E8D8F5F8E8FDF9154
S1132C70CF910895FC01808191810097A1F040A13A
S1132C8050E026813781240F351F26833783A281A4
S1132C90B3812A173B0710F086839783CB016681A3
S1132CA077810E94722508950F931F93CF93DF932A
S1132CB0EC010FB6F8940F928AA11816B4F48B891C
S1132CC0811105C012C08B89811104C00EC08E0110
S1132CD00D5E1F4FC8010E94AA1C81110E94671D2E
S1132CE08AA181508AA3181674F38FEF8AA30F90D8
S1132CF00FBE0FB6F8940F9289A11816B4F4888504
S1132D00811105C012C08885811104C00EC08E01D6
S1132D10085F1F4FC8010E94AA1C81110E94671DF1
S1132D2089A1815089A3181674F38FEF89A30F909A
S1132D300FBEDF91CF911F910F9108951F93CF93F1
S1132D40DF93613059F0FC012389308531112CC0A7
S1132D5011E0211110E0211128C001C011E0EC01A3
S1132D604881598128A130E06F8D629FC001639F23
S1132D70900D1124BA01680F791F6A837B831E8E1C
S1132D804C835D83821B930B840F951F8E839F83DB
S1132D908FEF89A38AA3CE0108960E94C413CE01A3
S1132DA043960E94C41301C010E0812FDF91CF919C
S1132DB01F9108950F931F93CF93DF93882301F1FD
S1132DC0062F182F83E290E00E94F712EC01892B62
S1132DD0C9F0109FC001112401960E94F712888344
S1132DE09983892B39F01F8F08A361E0CE010E94DB
S1132DF09E1608C0CE010E949113C0E0D0E002C02C
S1132E00C0E0D0E0CE01DF91CF911F910F910895E2
S1132E10AF92BF92CF92DF92EF92FF920F931F93E4
S1132E20CF93DF93CDB7DEB72997CDBFDEBF7C014B
S1132E305B012E833F834887598710E06C0188E04B
S1132E40C80ED11C0FB6F8940F92F701968D878D9A
S1132E509817A8F4402FB501C7010E94EE15F70199
S1132E608389882341F0C70143960E94AA1C8130BC
S1132E7011F40E9427150F900FBE81E056C08E8179
S1132E809F81A885B985892B8A2B8B2B21F40F90E0
S1132E900FBE80E04AC0111105C0CE0101960E9408
S1132EA0E91C11E00F900FBE0E94641A0FB6F8944B
S1132EB00F92F70181A18F3F09F411A2F70182A1BA
S1132EC08F3F09F412A20F900FBEBE016A5F7F4FBD
S1132ED0CE0101960E94FA1C811121C00FB6F8940C
S1132EE00F92F701968D0F900FBE878D981311C026
S1132EF04E815F8168857985C6010E94801CC70167
S1132F000E9454160E94731B81119CCF0E942715A6
S1132F1099CFC7010E9454160E94731B93CFC70117
S1132F200E9454160E94731B80E02996CDBFDEBF19
S1132F30DF91CF911F910F91FF90EF90DF90CF9091
S1132F40BF90AF9008950F931F93CF93DF938A019F
S1132F50FC01568D378D5317C0F4422FEC010E94AB
S1132F60EE158AA18F3F69F48B89882381F0CE0105
S1132F7043960E94AA1C882361F081E0F8018083B3
S1132F8009C08F5F8AA381E005C080E003C081E0AF
S1132F9001C081E0DF91CF911F910F910895AF920D
S1132FA0BF92CF92DF92EF92FF920F931F93CF9332
S1132FB0DF93CDB7DEB72997CDBFDEBF7C015B01C0
S1132FC02E833F834887598710E06C0183E1C80E44
S1132FD0D11C0FB6F8940F92F701868D882399F1CE
S1132FE0C680D780B501C7010E943A1601111AC0E4
S1132FF0F701868D8150868F80819181892B29F4F8
S11330000E94841DF70182839383F70180858823BE
S1133010B1F0C70108960E94AA1C813081F40E9475
S113302027150DC0F701C682D7828389882339F01A
S1133030C70143960E94AA1C81110E9427150F9074
S11330400FBE81E062C08E819F81A885B985892BDE
S11330508A2B8B2B21F40F900FBE80E056C01111E8
S113306005C0CE0101960E94E91C11E00F900FBE2D
S11330700E94641A0FB6F8940F92F70181A18F3F52
S113308009F411A2F70182A18F3F09F412A20F9053
S11330900FBEBE016A5F7F4FCE0101960E94FA1CEB
S11330A081112DC00FB6F8940F92F701868D0F9001
S11330B00FBE81111EC080819181892B49F40FB606
S11330C0F8940F92828193810E94891D0F900FBE04
S11330D04E815F8168857985C6010E94801CC70185
S11330E00E9454160E94731B811173CF0E942715EE
S11330F070CFC7010E9454160E94731B6ACFC70188
S11331000E9454160E94731B80E02996CDBFDEBF37
S1133110DF91CF911F910F91FF90EF90DF90CF90AF
S1133120BF90AF9008950F931F93CF93DF93FC014B
S1133130268D2223D9F08A01EC010E943A168E8D45
S113314081508E8F89A18F3F69F48885882381F00F
S1133150CE0108960E94AA1C882361F081E0F80140
S1133160808309C08F5F89A381E005C080E003C02C
S113317081E001C081E0DF91CF911F910F9108950B
S11331800FB6F8940F92FC01868D0F900FBE089530
S1133190FC01868D0895C5E5D1E488818230E8F389
S11331A00E942715FACFCF92DF92EF92FF926B0124
S11331B07C01E0918141F091824162837383848335
S11331C095838091294190912A41A0912B41B091FE
S11331D02C41C816D906EA06FB0668F460918141C1
S11331E07091824180913B4190913C416E5F7F4F51
S11331F00E94001421C060918141709182418091AC
S11332003D4190913E416E5F7F4F0E94001480913A
S1133210022090910320A0910420B0910520C816AB
S1133220D906EA06FB0640F4C0920220D09203209D
S1133230E0920420F0920520FF90EF90DF90CF9071
S113324008954F925F926F927F928F929F92AF9266
S1133250BF92CF92DF92EF92FF920F931F93CF937F
S1133260DF935C014B013A01290188E290E00E945E
S1133270F712EC01892B09F4D4C0C114D10409F06C
S1133280CCC0C3010E94F7128B8F9C8F009721F44E
S1133290CE010E949113C5C0A30161E170E00E94B8
S11332A07B259301215031098B8D9C8D3C01620E4D
S11332B0731E4AE050E0B401CE014D960E9482256F
S11332C01EA2102F043008F013E01A8F1FA36E0102
S11332D022E0C20ED11CC6010E94D513CE010E9667
S11332E00E94D513CA87DB8784E090E0A0E0B0E0B9
S11332F0811B9109A109B1098E879F87A88BB98B7E
S1133300CE8BDF8BA201B501C3010E9471148883A7
S11333109983E114F10419F0F701C083D1830FB646
S1133320F8940F9280912D418F5F80932D4180916D
S1133330814190918241892B89F5C0938141D09339
S1133340824180912D418130C1F585E591E40E944F
S1133350C41380E691E40E94C4138BE691E40E94B6
S1133360C41386E791E40E94C4138AE491E40E94A2
S1133370C4138FE391E40E94C41380E391E40E9498
S1133380C4138AE491E480933D4190933E418FE3DA
S113339091E480933B4190933C410FC0809126413E
S11333A081110BC0E0918141F0918241828D081717
S11333B020F0C0938141D09382418A8D909128411D
S11333C0981710F480932841909121419F5F909326
S11333D0214190912741981710F480932741FBE0F5
S11333E08F9FC0011124B6018B5A9E4B0E94D913A2
S11333F00F900FBE80912641882359F0E0918141BE
S1133400F0918241828D801730F40E94271581E06B
S113341009C081E007C081E005C0CB8EDC8EC60107
S11334203BCF8FEFDF91CF911F910F91FF90EF90E2
S1133430DF90CF90BF90AF909F908F907F906F90D0
S11334405F904F9008950FB6F8940F92009721F46F
S113345080918141909182410F900FBEFC01828D39
S11334600895AF92BF92CF92DF92EF92FF920F93A3
S1133470A12CB12CC12CD12C0F2EFEE2EF2EF1E4A5
S1133480FF2EF02D00E020E030E044E650E069E556
S113349070E28BEC98E10E942119813069F4F89470
S11334A0809326411092294110922A4110922B4177
S11334B010922C410E94E7140F91FF90EF90DF903F
S11334C0CF90BF90AF900895809125418F5F8093F6
S11334D025410895009721F4809181419091824182
S11334E04D960895FF920F931F93CF93DF9380918E
S11334F025418111EDC08091294190912A41A091EB
S11335002B41B0912C410196A11DB11D80932941FD
S113351090932A41A0932B41B0932C41809129414F
S113352090912A41A0912B41B0912C41892B8A2B57
S11335308B2BF1F580913D4190913E4120913B418F
S113354030913C4120933D4130933E4180933B4137
S113355090933C41809122418F5F80932241E0917E
S11335603D41F0913E41808181110CC08FEF9FEF6E
S1133570DC018093022090930320A0930420B09355
S1133580052016C0E0913D41F0913E410780F08551
S1133590E02D0084F185E02D82819381A481B581A1
S11335A08093022090930320A0930420B0930520DD
S11335B04091294150912A4160912B4170912C41B5
S11335C08091022090910320A0910420B0910520C5
S11335D0481759076A077B0708F47FC0E0913D410B
S11335E0F0913E4180818823F9F0E0913D41F091D2
S11335F03E410780F085E02DC085D1858A819B817D
S1133600AC81BD814091294150912A4160912B4167
S113361070912C41481759076A077B0758F10F2E00
S1133620FBE0FF2EF02D2FC08FEF9FEFDC01809386
S1133630022090930320A0930420B09305204DC052
S1133640E0913D41F0913E410780F085E02DC08539
S1133650D1858A819B81AC81BD8140912941509162
S11336602A4160912B4170912C41481759076A07F0
S11336707B0748F48093022090930320A0930420B6
S1133680B09305202AC08E010E5F1F4FC8010E940F
S11336904B14888D998D892B21F0CE010E960E94B2
S11336A04B148A8D90912741981710F480932741E9
S11336B0F89EC0011124B8018B5A9E4B0E94D91365
S11336C0E0913D41F0913E4180818111B9CFACCF71
S11336D0809124418F5F80932441DF91CF911F918A
S11336E00F91FF900895CF92DF92EF92FF920F9384
S11336F01F93CF93DF930FB6F8940F9280912541D7
S113370081508093254180912541811160C0809131
S11337102D4181112CC05EC0D7011796ED91FC910B
S11337201897C085D185CE010E960E944B148E0148
S11337300E5F1F4FC8010E944B148A8D9091274140
S1133740981710F480932741D89EC0011124B80122
S11337508B5A9E4B0E94D913E0918141F091824192
S11337609A8D828D981770F0CC24C3940BC0C12C11
S11337700F2EF0E3EF2EF1E4FF2EF02D0F2EFBE0E1
S1133780DF2EF02DF70180818111C6CF8091244175
S1133790882381F080912441882399F00E94721A31
S11337A0809124418150809324418091244181114E
S11337B0F5CF07C0F1E0CF1621F08091234181308D
S11337C041F4109223410E94271581E003C080E058
S11337D001C080E00F900FBEDF91CF911F910F9138
S11337E0FF90EF90DF90CF900895CF92DF92EF9209
S11337F0FF926B017C01672B682B692BE9F00E9417
S1133800641A8091294190912A41A0912B41B09151
S11338102C41C80ED91EEA1EFB1E80918141909155
S1133820824102960E944B14C701B6010E94D3182C
S11338300E94731B811102C00E942715FF90EF9014
S1133840DF90CF9008958091254181110CC0E091C3
S113385027414BE0E49FF0011124EB5AFE4B808199
S1133860882329F014C081E08093234108959BE0CC
S113387080912741815080932741E09127419E9F69
S1133880F0011124EB5AFE4B8081882389F3809147
S11338902741282F30E04BE0849FC0011124DC0134
S11338A0AB5ABE4B1196ED91FC9112970480F581B1
S11338B0E02D1196ED93FC931297885A9E4BE817CE
S11338C0F90761F4848195814BE0429FF001439FA5
S11338D0F00D1124EB5AFE4B818392838BE0829F7F
S11338E0F001839FF00D1124EB5AFE4B0180F2810D
S11338F0E02D808591858093814190938241089544
S1133900CF92DF92EF92FF926A017B016091814135
S113391070918241625F7F4F0E94001480918141C7
S11339209091824102960E944B148091294190917A
S11339302A41A0912B41B0912C41BC01CD016C0DC9
S11339407D1D8E1D9F1D0E94D318FF90EF90DF9068
S1133950CF9008950F931F93CF93DF93DC011796B5
S1133960ED91FC911897C085D1858E01025F1F4FA0
S1133970C8010E944B1480912541811116C00C503E
S11339801109C8010E944B148A8D90912741981700
S113399010F480932741BBE08B9FC0011124B80130
S11339A08B5A9E4B0E94D91305C0B80180E391E461
S11339B00E94D913E0918141F091824181E02A8DE6
S11339C0928D291708F480E0DF91CF911F910F9118
S11339D0089520912241FC01208340912941509176
S11339E02A4160912B4170912C414183528363831E
S11339F0748308958F929F92AF92BF92CF92DF9279
S1133A00EF92FF920F931F93CF93DF93FC010FB6B6
S1133A10F8940F92809122419081981789F08091B7
S1133A20294190912A41A0912B41B0912C410181CF
S1133A3012812381348180179107A207B307A8F567
S1133A408091294190912A41A0912B41B0912C4120
S1133A50C180D280E380F480EB01088119812A813E
S1133A603B818C199D09AE09BF0980179107A207F4
S1133A70B307E8F4CF018090294190902A41A090A7
S1133A802B41B0902C41B501A4014C195D096E097C
S1133A907F09041B150B260B370B088319832A8314
S1133AA03B830E94E91C80E003C081E001C081E007
S1133AB00F900FBEDF91CF911F910F91FF90EF9068
S1133AC0DF90CF90BF90AF909F908F90089581E04A
S1133AD0809323410895009721F48091814190912E
S1133AE08241DC015B96ED91FC915C978081813190
S1133AF041F4319680E090E0019621912131E1F387
S1133B00089580E090E008958091814190918241F0
S1133B1008950F931F93CF93DF93FC01228DA091FF
S1133B208141B09182415A968C91281708F041C086
S1133B30A0918141B09182415A963C9184E090E0F9
S1133B40A0E0B0E0831B9109A109B109868797879A
S1133B50A08BB18B8BE0289F900111242B5A3E4BF4
S1133B608485958582179307E9F48F01EF012296E6
S1133B70CE010E944B14E0918141F0918241828DEB
S1133B80F801828F90912741981710F48093274170
S1133B90FBE08F9FC0011124BE018B5A9E4B0E94F3
S1133BA0D91307C0A0918141B09182415A968C915A
S1133BB0828FDF91CF911F910F9108950F931F93DF
S1133BC0CF93DF93009749F1FC01328D27A132177F
S1133BD021F1EC018C010E5F1F4FC8010E944B14B0
S1133BE08FA18A8F44E050E060E070E0481B5109E7
S1133BF0610971094E875F87688B798B90912741A2
S1133C00981710F480932741FBE08F9FC001112483
S1133C10B8018B5A9E4B0E94D913DF91CF911F910B
S1133C200F910895EC01E881F9810190F081E02D74
S1133C3019951A821B826FEF7FEFCB010E94F51B4F
S1133C40FACFFC016487658708954F925F926F9263
S1133C507F928F929F92AF92BF92CF92DF92EF9218
S1133C60FF920F931F93CF93DF93CDB7DEB72A97BD
S1133C70CDBFDEBF4C012901380182E690E2F40198
S1133C8080839183FB018081882369F0DE01119692
S1133C90319690E002C0993039F09F5F8D93819105
S1133CA08111F9CF01C090E0E1E0F0E0EC0FFD1FDD
S1133CB0E90FF11D10827401F2E0EF0EF11CA12C4A
S1133CC0B12CC12CD12C042F9401A201BE016F5F31
S1133CD07F4F86E796E00E942119F401668277827D
S1133CE040865186209183413091844124833583D9
S1133CF08092834190928441148615864090A94114
S1133D005090AA41FFEF4F1A5F0A4092A941509286
S1133D10AA41F4014286538616861786108A118AB0
S1133D206114710409F444C0813079F56AE0C30177
S1133D300E94EA207C0163E77CE00E94B320BE017C
S1133D406F5F7F4FC7010E94B3206AE0C7010E94E2
S1133D50EA207C016AE67CE00E94B3206AE0C701A5
S1133D600E94EA207C016CE57CE00E94B32063E0C1
S1133D70C7010E94EA20B2010E94312162E00E9440
S1133D80EA2066E00E94EA2013C06AE0C3010E94B0
S1133D90EA204C0167E47CE00E94B320BE016F5F1F
S1133DA07F4FC4010E94B32066E0C4010E94EA2050
S1133DB02A96CDBFDEBFDF91CF911F910F91FF9067
S1133DC0EF90DF90CF90BF90AF909F908F907F90B7
S1133DD06F905F904F9008958F929F92AF92BF9291
S1133DE0CF92DF92EF92FF920F931F93CF93DF93C3
S1133DF0EC018B018A819B810E946A1ABC01C80173
S1133E000E94B320D801ED91FC910280F381E02D52
S1133E1069E0C80119958A819B810E946A1AFC0194
S1133E2001900020E9F73197E81BF90B389748F423
S1133E30D801ED91FC910280F381E02D69E0C80185
S1133E401995CE84DF84E888F988A884B9848A81A6
S1133E509B810E946B1D982E8C848A819B810E9479
S1133E60231A682FC8010E94A7216AE00E94EA2051
S1133E70EC0169EE7CE00E94B320682DCE010E9423
S1133E80A7216AE00E94EA20EC0167EE7CE00E9430
S1133E90B320692DCE010E94A7216AE00E94EA2086
S1133EA0EC0165EE7CE00E94B320B501CE010E94D6
S1133EB031216AE00E94EA20EC0163EE7CE00E947A
S1133EC0B3206AE0CE010E94EA20EC0161EE7CE0BE
S1133ED00E94B320B701A601CE010E946521DF91A3
S1133EE0CF911F910F91FF90EF90DF90CF90BF90F3
S1133EF0AF909F908F9008950F93CF93DF931F926D
S1133F00CDB7DEB700E02FEF3FEFA901BE016F5F31
S1133F107F4FFC01808591850E94CF17813019F471
S1133F20898190E002C08FEF9FEF0F90DF91CF91D6
S1133F300F910895FC01808591850E94C01891E03D
S1133F40811101C090E0892F08950F93CF93DF93DF
S1133F501F92CDB7DEB76983FC0122853385448582
S1133F60558500E0BE016F5F7F4F808591850E947B
S1133F70081791E0811101C090E0892F0F90DF9123
S1133F80CF910F9108958F929F92BF92CF92DF921B
S1133F90EF92FF920F931F93CF93DF93EC01B62E12
S1133FA04A01680179010E94A5208AE690E288838B
S1133FB099838E869F8640E061E08B2D0E94DA16FD
S1133FC088879987CA86DB86EC86FD86DF91CF9148
S1133FD01F910F91FF90EF90DF90CF90BF909F9033
S1133FE08F9008950E94F71208950E94F712089581
S1133FF00895CF93DF93FC01DA01403A68E0560755
S113400049F480E496E08283938382E0848383E0AE
S113401085833FC0403B78E0570749F480E496E04D
S11340208283938386E0848387E0858332C0403A29
S113403089E0580749F480E696E08283938382E01E
S1134040848383E0858325C0403B69E0560749F4B7
S113405080E696E08283938386E0848387E0858389
S113406018C0403A7AE0570749F480E896E0828322
S1134070938382E0848383E085830BC0403A5B4072
S113408041F480EA96E08283938382E0848383E030
S11340908583A683B783CD01019680879187039694
S11340A0828793872581C281D3814C8181E090E00E
S11340B0BC0102C0660F771F2A95E2F79B01242BEF
S11340C02C832581C281D3814881BC0102C0660F43
S11340D0771F2A95E2F79B01242B28833481C28120
S11340E0D381288102C0880F991F3A95E2F7809501
S11340F090958223888380E113968C93139783E0B1
S113410015968C93159780EF17968C93179781E2E9
S113411016968C93169788E114968C9380E885877D
S113412080E4868780E284870680F781E02D8081A1
S11341308081DF91CF91089581E0089580E090E03F
S1134140089580E0089508950895FC018AE790E2B7
S1134150808391838AE08283138283E0858314823F
S11341601682178208950F931F93CF93DF938C01C8
S1134170FB01DC0114968C91811104C060816111F2
S113418017C023C0D80114961C92EB0121966491A8
S11341906623D9F0D801ED91FC910280F381E02DE2
S11341A0C8011995FE01649121966111F3CF0DC0E8
S11341B0EF012196D801ED91FC910280F381E02D6D
S11341C0C801199569916111F5CFDF91CF911F91C4
S11341D00F910895CF93DF93EC01862F90E08B30FD
S11341E09105D8F5FC018827EB53FE4F8F4F0C94B3
S11341F0502582E08A8331C088E08A832EC08AE019
S11342008A832BC080E18A8328C081E08B8325C008
S11342101B8223C0E881F9810280F381E02D6DE0E7
S1134220CE011995E881F9810280F381E02D6AE0DD
S1134230CE01199512C0E881F9810284F385E02D3D
S1134240CE0119950AC0E881F9810084F185E02D39
S1134250CE01199502C081E08C83CE01DF91CF910C
S11342600895FF920F931F93CF93DF93CDB7DEB7DB
S11342706197CDBFDEBF8C01F62E972FF8014281E6
S1134280403121F0483011F0423041F4692FC80127
S11342900E94A7216F2D0E94A7210DC050E0BE01EE
S11342A06F5F7F4F8F2D0E94BE25BE016F5F7F4FD2
S11342B0C8010E94B320C8016196CDBFDEBFDF9163
S11342C0CF911F910F91FF900895DF92EF92FF928B
S11342D00F931F93CF93DF93CDB7DEB7A197CDBFD5
S11342E0DEBF8C01D42EE52EF62E972FF801228105
S11342F0203121F0283011F0223071F4692FC801E7
S11343000E94A7216F2D0E94A7216E2D0E94A72134
S11343106D2D0E94A7210FC030E0AE014F5F5F4FAB
S11343206D2D7E2D8F2D0E949125BE016F5F7F4FD5
S1134330C8010E94B320C801A196CDBFDEBFDF91A2
S1134340CF911F910F91FF90EF90DF900895CF923E
S1134350DF92EF92FF920F931F93CF93DF93CDB72A
S1134360DEB72997CDBFDEBF8C01E62EDC011396A4
S11343708C911397882341F0ED91FC910280F38195
S1134380E02DC801199556C0F8014281423019F553
S11343906894CC24C3F8D12C6894FF24F7F88E2DAC
S11343A08F2151F0D801ED91FC910280F381E02D31
S11343B061E3C801199509C0D801ED91FC9102800F
S11343C0F381E02D60E3C8011995F694B1E0CB1AAE
S11343D0D10829F72FC04031F9F462956F7001902C
S11343E0F081E02D0280F381E02D6A3010F0695CE9
S11343F001C0605DC80119956E2D6F70D801ED91F3
S1134400FC910280F381E02D6A3010F0695C01C0F8
S1134410605DC80119950EC050E0BE016F5F7F4F0B
S11344208E2D90E00E94BE25BE016F5F7F4FC801B4
S11344300E94B320C8012996CDBFDEBFDF91CF9182
S11344401F910F91FF90EF90DF90CF900895DC01C2
S11344505096ED91FC915197808154964C915497CC
S1134460842329F009C02150310919F412C021E232
S11344703EE490819423B9F3908156968C9156979B
S1134480892B80831E96ED91FC911F97608381E0B8
S1134490089580E00895CF93DF93FC01C18DD28D00
S11344A028813981A38DB48D4D915C9124173507F2
S11344B0E9F3A789B08D0D90BC91A02DA20FB31F75
S11344C08C912F5F3F4F288339832436310528F0A0
S11344D0018CF28DE02D1082118290E0DF91CF915A
S11344E00895CF93DF93EC01A98DBA8DEB8DFC8DEC
S11344F081E04D915C91208131814217530709F489
S113450080E0DF91CF910895DC01ED91FC91028070
S1134510F381E02D6CE019950895EF92FF920F93CB
S11345201F93CF93DF93EC017B018A010E94A520A6
S1134530A801B701CE0108960E94F91F8AE890E20B
S113454088839983003A88E0180769F487EA91E43C
S11345508F8B988F8BE991E4898F9A8F8FE891E400
S11345608B8F9C8F53C0003BE8E01E0769F485EAFB
S113457091E48F8B988F89E991E4898F9A8F8DE8E4
S113458091E48B8F9C8F42C0003AF9E01F0769F4D5
S113459083EA91E48F8B988F87E991E4898F9A8FCE
S11345A08BE891E48B8F9C8F31C0003B89E0180726
S11345B069F481EA91E48F8B988F85E991E4898F7E
S11345C09A8F89E891E48B8F9C8F20C0003AEAE0AF
S11345D01E0769F48FE991E48F8B988F83E991E446
S11345E0898F9A8F87E891E48B8F9C8F0FC0003A54
S11345F01B4061F48DE991E48F8B988F81E991E4FC
S1134600898F9A8F85E891E48B8F9C8F0F89188D01
S113461084E690E00E94F51FF80180839183E98D80
S1134620FA8D10821182EB8DFC8D10821182DF9144
S1134630CF911F910F91FF90EF9008951F920F92C9
S11346400FB60F9211240BB60F922F933F938F93B3
S11346509F93EF93FF932091A008E091A741F091DD
S1134660A84180918F4190919041E80FF91F2083D8
S113467080918F419091904101968436910560F428
S113468080938F419093904120919B4130919C4124
S113469082179307F1F40CC010928F41109290414D
S11346A080919B4190919C411816190691F40EC07B
S11346B001968436910528F480939B4190939C4104
S11346C008C010929B4110929C4103C081E090E08D
S11346D0F3CFFF91EF919F918F913F912F910F9085
S11346E00BBE0F900FBE0F901F9018951F920F9244
S11346F00FB60F9211240BB60F922F933F938F9303
S11347009F93EF93FF932091B008E091A541F0911E
S1134710A64180918D4190918E41E80FF91F20832D
S113472080918D4190918E4101968436910560F47B
S113473080938D4190938E412091994130919A417B
S113474082179307F1F40CC010928D4110928E41A0
S11347508091994190919A411816190691F40EC0CE
S113476001968436910528F48093994190939A4157
S113477008C01092994110929A4103C081E090E0E0
S1134780F3CFFF91EF919F918F913F912F910F90D4
S11347900BBE0F900FBE0F901F9018951F920F9293
S11347A00FB60F9211240BB60F922F933F938F9352
S11347B09F93EF93FF932091A009E091A341F0917F
S11347C0A44180918F4190919041E80FF91F20837B
S11347D080918B4190918C4101968436910560F4CF
S11347E080938B4190938C412091974130919841D3
S11347F082179307F1F40CC010928B4110928C41F4
S113480080919741909198411816190691F40EC021
S113481001968436910528F48093974190939841AA
S113482008C0109297411092984103C081E090E033
S1134830F3CFFF91EF919F918F913F912F910F9023
S11348400BBE0F900FBE0F901F9018951F920F92E2
S11348500FB60F9211240BB60F922F933F938F93A1
S11348609F93EF93FF932091B009E091A141F091C0
S1134870A2418091894190918A41E80FF91F2083D8
S11348808091894190918A4101968436910560F422
S11348908093894190938A4120919541309196412A
S11348A082179307F1F40CC01092894110928A4147
S11348B080919541909196411816190691F40EC075
S11348C001968436910528F48093954190939641FE
S11348D008C0109295411092964103C081E090E087
S11348E0F3CFFF91EF919F918F913F912F910F9073
S11348F00BBE0F900FBE0F901F9018951F920F9232
S11349000FB60F9211240BB60F922F933F938F93F0
S11349109F93EF93FF932091A00AE0919F41F09120
S1134920A0418091874190918841E80FF91F20832D
S1134930809187419091884101968436910560F475
S11349408093874190938841209193413091944181
S113495082179307F1F40CC010928741109288419A
S113496080919341909194411816190691F40EC0C8
S113497001968436910528F4809393419093944151
S113498008C0109293411092944103C081E090E0DA
S1134990F3CFFF91EF919F918F913F912F910F90C2
S11349A00BBE0F900FBE0F901F9018951F920F9281
S11349B00FB60F9211240BB60F922F933F938F9340
S11349C09F93EF93FF932091A00BE0919D41F09171
S11349D09E418091854190918641E80FF91F208383
S11349E0809185419091864101968436910560F4C9
S11349F080938541909386412091914130919241D9
S1134A0082179307F1F40CC01092854110928641ED
S1134A1080919141909192411816190691F40EC01B
S1134A2001968436910528F48093914190939241A4
S1134A3008C0109291411092924103C081E090E02D
S1134A40F3CFFF91EF919F918F913F912F910F9011
S1134A500BBE0F900FBE0F901F901895A1E21A2E57
S1134A60AA1BBB1BFD010DC0AA1FBB1FEE1FFF1F0E
S1134A70A217B307E407F50720F0A21BB30BE40B5E
S1134A80F50B661F771F881F991F1A9469F76095A5
S1134A907095809590959B01AC01BD01CF0108955F
S1134AA0EE0FFF1F881F8BBF0790F691E02D19941E
S1134AB0A29FB001B39FC001A39F700D811D11245B
S1134AC0911DB29F700D811D1124911D08950E94A6
S1134AD05825A59F900DB49F900DA49F800D911D06
S1134AE011240895FB01DC0102C001900D92415094
S1134AF05040D8F70895DC0101C06D9341505040F7
S1134B00E0F70895FB01DC014150504048F001906A
S1134B100D920020C9F701C01D9241505040E0F7AA
S1134B2008952532310520F4223010F00C949C2590
S1134B30FA011082CA010895BB27FA01A62F621751
S1134B40710581059105330B30FB66F0AA27660FCA
S1134B50771F881F991FAA1FA21710F0A21B639525
S1134B603850A9F7A05DAA3308F0A95DA19336F7E0
S1134B70B111B1931082CA010C94E3254532510559
S1134B8020F4423010F00C94C925FB011082CB01B3
S1134B900895BB27FB015527AA27880F991FAA1F31
S1134BA0A41710F0A41B83955051B9F7A05DAA3344
S1134BB008F0A95DA193009779F7B111B19311920F
S1134BC0CB010C94E325DC01FC01672F7191772361
S1134BD0E1F7329704C07C916D9370836291AE17B4
S10D4BE0BF07C8F30895F894FFCF4F
S1134BEAFF1FFFFFFFFF000000006807EC1E46726C
S1134BFA656552544F5320586D6567612054657337
S1134C0A74696E672050726F6772616D00557365BF
S1134C1A72496E7400000000009A0E700E880E58D5
S1134C2A0E0D0E010E3C0E2B0EE30DD70DCD0DB15C
S1134C3A0DC20DA60DBB0D9F0D49444C4500000045
S1134C4A0000F81FEC1E000000009C20A51F9A1FFC
S1134C5A7C1FA320A420000000009C20F81FA12090
S1134C6A9E20A320A420000000009C202722712259
S1094C7A4B22A32084225A
S9030000FC
